{
	"contracts/Property.sol": {
		"Property": {
			"abi": [
				{
					"inputs": [
						{
							"internalType": "string",
							"name": "_ownerName",
							"type": "string"
						},
						{
							"internalType": "string",
							"name": "_address",
							"type": "string"
						},
						{
							"internalType": "uint256",
							"name": "_price",
							"type": "uint256"
						}
					],
					"name": "createPropertyInfo",
					"outputs": [],
					"stateMutability": "nonpayable",
					"type": "function"
				},
				{
					"inputs": [],
					"name": "details",
					"outputs": [
						{
							"internalType": "string",
							"name": "",
							"type": "string"
						},
						{
							"internalType": "string",
							"name": "",
							"type": "string"
						},
						{
							"internalType": "uint256",
							"name": "",
							"type": "uint256"
						}
					],
					"stateMutability": "view",
					"type": "function"
				}
			],
			"devdoc": {
				"kind": "dev",
				"methods": {},
				"version": 1
			},
			"evm": {
				"assembly": "    /* \"contracts/Property.sol\":143:742  contract Property {... */\n  mstore(0x40, 0x80)\n  callvalue\n  dup1\n  iszero\n  tag_1\n  jumpi\n  0x00\n  dup1\n  revert\ntag_1:\n  pop\n  dataSize(sub_0)\n  dup1\n  dataOffset(sub_0)\n  0x00\n  codecopy\n  0x00\n  return\nstop\n\nsub_0: assembly {\n        /* \"contracts/Property.sol\":143:742  contract Property {... */\n      mstore(0x40, 0x80)\n      callvalue\n      dup1\n      iszero\n      tag_1\n      jumpi\n      0x00\n      dup1\n      revert\n    tag_1:\n      pop\n      jumpi(tag_2, lt(calldatasize, 0x04))\n      shr(0xe0, calldataload(0x00))\n      dup1\n      0x565974d3\n      eq\n      tag_3\n      jumpi\n      dup1\n      0xace807ed\n      eq\n      tag_4\n      jumpi\n    tag_2:\n      0x00\n      dup1\n      revert\n        /* \"contracts/Property.sol\":224:443  function details()... */\n    tag_3:\n      tag_5\n      tag_6\n      jump\t// in\n    tag_5:\n      mload(0x40)\n      tag_7\n      swap4\n      swap3\n      swap2\n      swap1\n      tag_8\n      jump\t// in\n    tag_7:\n      mload(0x40)\n      dup1\n      swap2\n      sub\n      swap1\n      return\n        /* \"contracts/Property.sol\":449:740  function createPropertyInfo(... */\n    tag_4:\n      tag_9\n      0x04\n      dup1\n      calldatasize\n      sub\n      dup2\n      add\n      swap1\n      tag_10\n      swap2\n      swap1\n      tag_11\n      jump\t// in\n    tag_10:\n      tag_12\n      jump\t// in\n    tag_9:\n      stop\n        /* \"contracts/Property.sol\":224:443  function details()... */\n    tag_6:\n        /* \"contracts/Property.sol\":301:314  string memory */\n      0x60\n        /* \"contracts/Property.sol\":328:341  string memory */\n      dup1\n        /* \"contracts/Property.sol\":355:362  uint256 */\n      0x00\n        /* \"contracts/Property.sol\":395:399  info */\n      dup1\n        /* \"contracts/Property.sol\":395:409  info.OwnerName */\n      0x00\n      add\n        /* \"contracts/Property.sol\":411:415  info */\n      0x00\n        /* \"contracts/Property.sol\":411:423  info.Address */\n      0x01\n      add\n        /* \"contracts/Property.sol\":425:429  info */\n      0x00\n        /* \"contracts/Property.sol\":425:435  info.Price */\n      0x02\n      add\n      sload\n        /* \"contracts/Property.sol\":387:436  return (info.OwnerName, info.Address, info.Price) */\n      dup3\n      dup1\n      sload\n      tag_14\n      swap1\n      tag_15\n      jump\t// in\n    tag_14:\n      dup1\n      0x1f\n      add\n      0x20\n      dup1\n      swap2\n      div\n      mul\n      0x20\n      add\n      mload(0x40)\n      swap1\n      dup2\n      add\n      0x40\n      mstore\n      dup1\n      swap3\n      swap2\n      swap1\n      dup2\n      dup2\n      mstore\n      0x20\n      add\n      dup3\n      dup1\n      sload\n      tag_16\n      swap1\n      tag_15\n      jump\t// in\n    tag_16:\n      dup1\n      iszero\n      tag_17\n      jumpi\n      dup1\n      0x1f\n      lt\n      tag_18\n      jumpi\n      0x0100\n      dup1\n      dup4\n      sload\n      div\n      mul\n      dup4\n      mstore\n      swap2\n      0x20\n      add\n      swap2\n      jump(tag_17)\n    tag_18:\n      dup3\n      add\n      swap2\n      swap1\n      0x00\n      mstore\n      keccak256(0x00, 0x20)\n      swap1\n    tag_19:\n      dup2\n      sload\n      dup2\n      mstore\n      swap1\n      0x01\n      add\n      swap1\n      0x20\n      add\n      dup1\n      dup4\n      gt\n      tag_19\n      jumpi\n      dup3\n      swap1\n      sub\n      0x1f\n      and\n      dup3\n      add\n      swap2\n    tag_17:\n      pop\n      pop\n      pop\n      pop\n      pop\n      swap3\n      pop\n      dup2\n      dup1\n      sload\n      tag_20\n      swap1\n      tag_15\n      jump\t// in\n    tag_20:\n      dup1\n      0x1f\n      add\n      0x20\n      dup1\n      swap2\n      div\n      mul\n      0x20\n      add\n      mload(0x40)\n      swap1\n      dup2\n      add\n      0x40\n      mstore\n      dup1\n      swap3\n      swap2\n      swap1\n      dup2\n      dup2\n      mstore\n      0x20\n      add\n      dup3\n      dup1\n      sload\n      tag_21\n      swap1\n      tag_15\n      jump\t// in\n    tag_21:\n      dup1\n      iszero\n      tag_22\n      jumpi\n      dup1\n      0x1f\n      lt\n      tag_23\n      jumpi\n      0x0100\n      dup1\n      dup4\n      sload\n      div\n      mul\n      dup4\n      mstore\n      swap2\n      0x20\n      add\n      swap2\n      jump(tag_22)\n    tag_23:\n      dup3\n      add\n      swap2\n      swap1\n      0x00\n      mstore\n      keccak256(0x00, 0x20)\n      swap1\n    tag_24:\n      dup2\n      sload\n      dup2\n      mstore\n      swap1\n      0x01\n      add\n      swap1\n      0x20\n      add\n      dup1\n      dup4\n      gt\n      tag_24\n      jumpi\n      dup3\n      swap1\n      sub\n      0x1f\n      and\n      dup3\n      add\n      swap2\n    tag_22:\n      pop\n      pop\n      pop\n      pop\n      pop\n      swap2\n      pop\n      swap3\n      pop\n      swap3\n      pop\n      swap3\n      pop\n        /* \"contracts/Property.sol\":224:443  function details()... */\n      swap1\n      swap2\n      swap3\n      jump\t// out\n        /* \"contracts/Property.sol\":449:740  function createPropertyInfo(... */\n    tag_12:\n        /* \"contracts/Property.sol\":597:714  PropertyInfo({... */\n      mload(0x40)\n      dup1\n      0x60\n      add\n      0x40\n      mstore\n      dup1\n        /* \"contracts/Property.sol\":635:645  _ownerName */\n      dup5\n        /* \"contracts/Property.sol\":597:714  PropertyInfo({... */\n      dup2\n      mstore\n      0x20\n      add\n        /* \"contracts/Property.sol\":668:676  _address */\n      dup4\n        /* \"contracts/Property.sol\":597:714  PropertyInfo({... */\n      dup2\n      mstore\n      0x20\n      add\n        /* \"contracts/Property.sol\":697:703  _price */\n      dup3\n        /* \"contracts/Property.sol\":597:714  PropertyInfo({... */\n      dup2\n      mstore\n      pop\n        /* \"contracts/Property.sol\":590:594  info */\n      0x00\n        /* \"contracts/Property.sol\":590:714  info = PropertyInfo({... */\n      dup1\n      dup3\n      add\n      mload\n      dup2\n      0x00\n      add\n      swap1\n      dup2\n      tag_26\n      swap2\n      swap1\n      tag_27\n      jump\t// in\n    tag_26:\n      pop\n      0x20\n      dup3\n      add\n      mload\n      dup2\n      0x01\n      add\n      swap1\n      dup2\n      tag_28\n      swap2\n      swap1\n      tag_27\n      jump\t// in\n    tag_28:\n      pop\n      0x40\n      dup3\n      add\n      mload\n      dup2\n      0x02\n      add\n      sstore\n      swap1\n      pop\n      pop\n        /* \"contracts/Property.sol\":724:733  details() */\n      tag_29\n        /* \"contracts/Property.sol\":724:731  details */\n      tag_6\n        /* \"contracts/Property.sol\":724:733  details() */\n      jump\t// in\n    tag_29:\n      pop\n      pop\n      pop\n        /* \"contracts/Property.sol\":449:740  function createPropertyInfo(... */\n      pop\n      pop\n      pop\n      jump\t// out\n        /* \"#utility.yul\":7:106   */\n    tag_30:\n        /* \"#utility.yul\":59:65   */\n      0x00\n        /* \"#utility.yul\":93:98   */\n      dup2\n        /* \"#utility.yul\":87:99   */\n      mload\n        /* \"#utility.yul\":77:99   */\n      swap1\n      pop\n        /* \"#utility.yul\":7:106   */\n      swap2\n      swap1\n      pop\n      jump\t// out\n        /* \"#utility.yul\":112:281   */\n    tag_31:\n        /* \"#utility.yul\":196:207   */\n      0x00\n        /* \"#utility.yul\":230:236   */\n      dup3\n        /* \"#utility.yul\":225:228   */\n      dup3\n        /* \"#utility.yul\":218:237   */\n      mstore\n        /* \"#utility.yul\":270:274   */\n      0x20\n        /* \"#utility.yul\":265:268   */\n      dup3\n        /* \"#utility.yul\":261:275   */\n      add\n        /* \"#utility.yul\":246:275   */\n      swap1\n      pop\n        /* \"#utility.yul\":112:281   */\n      swap3\n      swap2\n      pop\n      pop\n      jump\t// out\n        /* \"#utility.yul\":287:426   */\n    tag_32:\n        /* \"#utility.yul\":376:382   */\n      dup3\n        /* \"#utility.yul\":371:374   */\n      dup2\n        /* \"#utility.yul\":366:369   */\n      dup4\n        /* \"#utility.yul\":360:383   */\n      mcopy\n        /* \"#utility.yul\":417:418   */\n      0x00\n        /* \"#utility.yul\":408:414   */\n      dup4\n        /* \"#utility.yul\":403:406   */\n      dup4\n        /* \"#utility.yul\":399:415   */\n      add\n        /* \"#utility.yul\":392:419   */\n      mstore\n        /* \"#utility.yul\":287:426   */\n      pop\n      pop\n      pop\n      jump\t// out\n        /* \"#utility.yul\":432:534   */\n    tag_33:\n        /* \"#utility.yul\":473:479   */\n      0x00\n        /* \"#utility.yul\":524:526   */\n      0x1f\n        /* \"#utility.yul\":520:527   */\n      not\n        /* \"#utility.yul\":515:517   */\n      0x1f\n        /* \"#utility.yul\":508:513   */\n      dup4\n        /* \"#utility.yul\":504:518   */\n      add\n        /* \"#utility.yul\":500:528   */\n      and\n        /* \"#utility.yul\":490:528   */\n      swap1\n      pop\n        /* \"#utility.yul\":432:534   */\n      swap2\n      swap1\n      pop\n      jump\t// out\n        /* \"#utility.yul\":540:917   */\n    tag_34:\n        /* \"#utility.yul\":628:631   */\n      0x00\n        /* \"#utility.yul\":656:695   */\n      tag_73\n        /* \"#utility.yul\":689:694   */\n      dup3\n        /* \"#utility.yul\":656:695   */\n      tag_30\n      jump\t// in\n    tag_73:\n        /* \"#utility.yul\":711:782   */\n      tag_74\n        /* \"#utility.yul\":775:781   */\n      dup2\n        /* \"#utility.yul\":770:773   */\n      dup6\n        /* \"#utility.yul\":711:782   */\n      tag_31\n      jump\t// in\n    tag_74:\n        /* \"#utility.yul\":704:782   */\n      swap4\n      pop\n        /* \"#utility.yul\":791:856   */\n      tag_75\n        /* \"#utility.yul\":849:855   */\n      dup2\n        /* \"#utility.yul\":844:847   */\n      dup6\n        /* \"#utility.yul\":837:841   */\n      0x20\n        /* \"#utility.yul\":830:835   */\n      dup7\n        /* \"#utility.yul\":826:842   */\n      add\n        /* \"#utility.yul\":791:856   */\n      tag_32\n      jump\t// in\n    tag_75:\n        /* \"#utility.yul\":881:910   */\n      tag_76\n        /* \"#utility.yul\":903:909   */\n      dup2\n        /* \"#utility.yul\":881:910   */\n      tag_33\n      jump\t// in\n    tag_76:\n        /* \"#utility.yul\":876:879   */\n      dup5\n        /* \"#utility.yul\":872:911   */\n      add\n        /* \"#utility.yul\":865:911   */\n      swap2\n      pop\n        /* \"#utility.yul\":632:917   */\n      pop\n        /* \"#utility.yul\":540:917   */\n      swap3\n      swap2\n      pop\n      pop\n      jump\t// out\n        /* \"#utility.yul\":923:1000   */\n    tag_35:\n        /* \"#utility.yul\":960:967   */\n      0x00\n        /* \"#utility.yul\":989:994   */\n      dup2\n        /* \"#utility.yul\":978:994   */\n      swap1\n      pop\n        /* \"#utility.yul\":923:1000   */\n      swap2\n      swap1\n      pop\n      jump\t// out\n        /* \"#utility.yul\":1006:1124   */\n    tag_36:\n        /* \"#utility.yul\":1093:1117   */\n      tag_79\n        /* \"#utility.yul\":1111:1116   */\n      dup2\n        /* \"#utility.yul\":1093:1117   */\n      tag_35\n      jump\t// in\n    tag_79:\n        /* \"#utility.yul\":1088:1091   */\n      dup3\n        /* \"#utility.yul\":1081:1118   */\n      mstore\n        /* \"#utility.yul\":1006:1124   */\n      pop\n      pop\n      jump\t// out\n        /* \"#utility.yul\":1130:1754   */\n    tag_8:\n        /* \"#utility.yul\":1319:1323   */\n      0x00\n        /* \"#utility.yul\":1357:1359   */\n      0x60\n        /* \"#utility.yul\":1346:1355   */\n      dup3\n        /* \"#utility.yul\":1342:1360   */\n      add\n        /* \"#utility.yul\":1334:1360   */\n      swap1\n      pop\n        /* \"#utility.yul\":1406:1415   */\n      dup2\n        /* \"#utility.yul\":1400:1404   */\n      dup2\n        /* \"#utility.yul\":1396:1416   */\n      sub\n        /* \"#utility.yul\":1392:1393   */\n      0x00\n        /* \"#utility.yul\":1381:1390   */\n      dup4\n        /* \"#utility.yul\":1377:1394   */\n      add\n        /* \"#utility.yul\":1370:1417   */\n      mstore\n        /* \"#utility.yul\":1434:1512   */\n      tag_81\n        /* \"#utility.yul\":1507:1511   */\n      dup2\n        /* \"#utility.yul\":1498:1504   */\n      dup7\n        /* \"#utility.yul\":1434:1512   */\n      tag_34\n      jump\t// in\n    tag_81:\n        /* \"#utility.yul\":1426:1512   */\n      swap1\n      pop\n        /* \"#utility.yul\":1559:1568   */\n      dup2\n        /* \"#utility.yul\":1553:1557   */\n      dup2\n        /* \"#utility.yul\":1549:1569   */\n      sub\n        /* \"#utility.yul\":1544:1546   */\n      0x20\n        /* \"#utility.yul\":1533:1542   */\n      dup4\n        /* \"#utility.yul\":1529:1547   */\n      add\n        /* \"#utility.yul\":1522:1570   */\n      mstore\n        /* \"#utility.yul\":1587:1665   */\n      tag_82\n        /* \"#utility.yul\":1660:1664   */\n      dup2\n        /* \"#utility.yul\":1651:1657   */\n      dup6\n        /* \"#utility.yul\":1587:1665   */\n      tag_34\n      jump\t// in\n    tag_82:\n        /* \"#utility.yul\":1579:1665   */\n      swap1\n      pop\n        /* \"#utility.yul\":1675:1747   */\n      tag_83\n        /* \"#utility.yul\":1743:1745   */\n      0x40\n        /* \"#utility.yul\":1732:1741   */\n      dup4\n        /* \"#utility.yul\":1728:1746   */\n      add\n        /* \"#utility.yul\":1719:1725   */\n      dup5\n        /* \"#utility.yul\":1675:1747   */\n      tag_36\n      jump\t// in\n    tag_83:\n        /* \"#utility.yul\":1130:1754   */\n      swap5\n      swap4\n      pop\n      pop\n      pop\n      pop\n      jump\t// out\n        /* \"#utility.yul\":1760:1835   */\n    tag_37:\n        /* \"#utility.yul\":1793:1799   */\n      0x00\n        /* \"#utility.yul\":1826:1828   */\n      0x40\n        /* \"#utility.yul\":1820:1829   */\n      mload\n        /* \"#utility.yul\":1810:1829   */\n      swap1\n      pop\n        /* \"#utility.yul\":1760:1835   */\n      swap1\n      jump\t// out\n        /* \"#utility.yul\":1841:1958   */\n    tag_38:\n        /* \"#utility.yul\":1950:1951   */\n      0x00\n        /* \"#utility.yul\":1947:1948   */\n      dup1\n        /* \"#utility.yul\":1940:1952   */\n      revert\n        /* \"#utility.yul\":1964:2081   */\n    tag_39:\n        /* \"#utility.yul\":2073:2074   */\n      0x00\n        /* \"#utility.yul\":2070:2071   */\n      dup1\n        /* \"#utility.yul\":2063:2075   */\n      revert\n        /* \"#utility.yul\":2087:2204   */\n    tag_40:\n        /* \"#utility.yul\":2196:2197   */\n      0x00\n        /* \"#utility.yul\":2193:2194   */\n      dup1\n        /* \"#utility.yul\":2186:2198   */\n      revert\n        /* \"#utility.yul\":2210:2327   */\n    tag_41:\n        /* \"#utility.yul\":2319:2320   */\n      0x00\n        /* \"#utility.yul\":2316:2317   */\n      dup1\n        /* \"#utility.yul\":2309:2321   */\n      revert\n        /* \"#utility.yul\":2333:2513   */\n    tag_42:\n        /* \"#utility.yul\":2381:2458   */\n      0x4e487b7100000000000000000000000000000000000000000000000000000000\n        /* \"#utility.yul\":2378:2379   */\n      0x00\n        /* \"#utility.yul\":2371:2459   */\n      mstore\n        /* \"#utility.yul\":2478:2482   */\n      0x41\n        /* \"#utility.yul\":2475:2476   */\n      0x04\n        /* \"#utility.yul\":2468:2483   */\n      mstore\n        /* \"#utility.yul\":2502:2506   */\n      0x24\n        /* \"#utility.yul\":2499:2500   */\n      0x00\n        /* \"#utility.yul\":2492:2507   */\n      revert\n        /* \"#utility.yul\":2519:2800   */\n    tag_43:\n        /* \"#utility.yul\":2602:2629   */\n      tag_91\n        /* \"#utility.yul\":2624:2628   */\n      dup3\n        /* \"#utility.yul\":2602:2629   */\n      tag_33\n      jump\t// in\n    tag_91:\n        /* \"#utility.yul\":2594:2600   */\n      dup2\n        /* \"#utility.yul\":2590:2630   */\n      add\n        /* \"#utility.yul\":2732:2738   */\n      dup2\n        /* \"#utility.yul\":2720:2730   */\n      dup2\n        /* \"#utility.yul\":2717:2739   */\n      lt\n        /* \"#utility.yul\":2696:2714   */\n      0xffffffffffffffff\n        /* \"#utility.yul\":2684:2694   */\n      dup3\n        /* \"#utility.yul\":2681:2715   */\n      gt\n        /* \"#utility.yul\":2678:2740   */\n      or\n        /* \"#utility.yul\":2675:2763   */\n      iszero\n      tag_92\n      jumpi\n        /* \"#utility.yul\":2743:2761   */\n      tag_93\n      tag_42\n      jump\t// in\n    tag_93:\n        /* \"#utility.yul\":2675:2763   */\n    tag_92:\n        /* \"#utility.yul\":2783:2793   */\n      dup1\n        /* \"#utility.yul\":2779:2781   */\n      0x40\n        /* \"#utility.yul\":2772:2794   */\n      mstore\n        /* \"#utility.yul\":2562:2800   */\n      pop\n        /* \"#utility.yul\":2519:2800   */\n      pop\n      pop\n      jump\t// out\n        /* \"#utility.yul\":2806:2935   */\n    tag_44:\n        /* \"#utility.yul\":2840:2846   */\n      0x00\n        /* \"#utility.yul\":2867:2887   */\n      tag_95\n      tag_37\n      jump\t// in\n    tag_95:\n        /* \"#utility.yul\":2857:2887   */\n      swap1\n      pop\n        /* \"#utility.yul\":2896:2929   */\n      tag_96\n        /* \"#utility.yul\":2924:2928   */\n      dup3\n        /* \"#utility.yul\":2916:2922   */\n      dup3\n        /* \"#utility.yul\":2896:2929   */\n      tag_43\n      jump\t// in\n    tag_96:\n        /* \"#utility.yul\":2806:2935   */\n      swap2\n      swap1\n      pop\n      jump\t// out\n        /* \"#utility.yul\":2941:3249   */\n    tag_45:\n        /* \"#utility.yul\":3003:3007   */\n      0x00\n        /* \"#utility.yul\":3093:3111   */\n      0xffffffffffffffff\n        /* \"#utility.yul\":3085:3091   */\n      dup3\n        /* \"#utility.yul\":3082:3112   */\n      gt\n        /* \"#utility.yul\":3079:3135   */\n      iszero\n      tag_98\n      jumpi\n        /* \"#utility.yul\":3115:3133   */\n      tag_99\n      tag_42\n      jump\t// in\n    tag_99:\n        /* \"#utility.yul\":3079:3135   */\n    tag_98:\n        /* \"#utility.yul\":3153:3182   */\n      tag_100\n        /* \"#utility.yul\":3175:3181   */\n      dup3\n        /* \"#utility.yul\":3153:3182   */\n      tag_33\n      jump\t// in\n    tag_100:\n        /* \"#utility.yul\":3145:3182   */\n      swap1\n      pop\n        /* \"#utility.yul\":3237:3241   */\n      0x20\n        /* \"#utility.yul\":3231:3235   */\n      dup2\n        /* \"#utility.yul\":3227:3242   */\n      add\n        /* \"#utility.yul\":3219:3242   */\n      swap1\n      pop\n        /* \"#utility.yul\":2941:3249   */\n      swap2\n      swap1\n      pop\n      jump\t// out\n        /* \"#utility.yul\":3255:3403   */\n    tag_46:\n        /* \"#utility.yul\":3353:3359   */\n      dup3\n        /* \"#utility.yul\":3348:3351   */\n      dup2\n        /* \"#utility.yul\":3343:3346   */\n      dup4\n        /* \"#utility.yul\":3330:3360   */\n      calldatacopy\n        /* \"#utility.yul\":3394:3395   */\n      0x00\n        /* \"#utility.yul\":3385:3391   */\n      dup4\n        /* \"#utility.yul\":3380:3383   */\n      dup4\n        /* \"#utility.yul\":3376:3392   */\n      add\n        /* \"#utility.yul\":3369:3396   */\n      mstore\n        /* \"#utility.yul\":3255:3403   */\n      pop\n      pop\n      pop\n      jump\t// out\n        /* \"#utility.yul\":3409:3834   */\n    tag_47:\n        /* \"#utility.yul\":3487:3492   */\n      0x00\n        /* \"#utility.yul\":3512:3578   */\n      tag_103\n        /* \"#utility.yul\":3528:3577   */\n      tag_104\n        /* \"#utility.yul\":3570:3576   */\n      dup5\n        /* \"#utility.yul\":3528:3577   */\n      tag_45\n      jump\t// in\n    tag_104:\n        /* \"#utility.yul\":3512:3578   */\n      tag_44\n      jump\t// in\n    tag_103:\n        /* \"#utility.yul\":3503:3578   */\n      swap1\n      pop\n        /* \"#utility.yul\":3601:3607   */\n      dup3\n        /* \"#utility.yul\":3594:3599   */\n      dup2\n        /* \"#utility.yul\":3587:3608   */\n      mstore\n        /* \"#utility.yul\":3639:3643   */\n      0x20\n        /* \"#utility.yul\":3632:3637   */\n      dup2\n        /* \"#utility.yul\":3628:3644   */\n      add\n        /* \"#utility.yul\":3677:3680   */\n      dup5\n        /* \"#utility.yul\":3668:3674   */\n      dup5\n        /* \"#utility.yul\":3663:3666   */\n      dup5\n        /* \"#utility.yul\":3659:3675   */\n      add\n        /* \"#utility.yul\":3656:3681   */\n      gt\n        /* \"#utility.yul\":3653:3765   */\n      iszero\n      tag_105\n      jumpi\n        /* \"#utility.yul\":3684:3763   */\n      tag_106\n      tag_41\n      jump\t// in\n    tag_106:\n        /* \"#utility.yul\":3653:3765   */\n    tag_105:\n        /* \"#utility.yul\":3774:3828   */\n      tag_107\n        /* \"#utility.yul\":3821:3827   */\n      dup5\n        /* \"#utility.yul\":3816:3819   */\n      dup3\n        /* \"#utility.yul\":3811:3814   */\n      dup6\n        /* \"#utility.yul\":3774:3828   */\n      tag_46\n      jump\t// in\n    tag_107:\n        /* \"#utility.yul\":3493:3834   */\n      pop\n        /* \"#utility.yul\":3409:3834   */\n      swap4\n      swap3\n      pop\n      pop\n      pop\n      jump\t// out\n        /* \"#utility.yul\":3854:4194   */\n    tag_48:\n        /* \"#utility.yul\":3910:3915   */\n      0x00\n        /* \"#utility.yul\":3959:3962   */\n      dup3\n        /* \"#utility.yul\":3952:3956   */\n      0x1f\n        /* \"#utility.yul\":3944:3950   */\n      dup4\n        /* \"#utility.yul\":3940:3957   */\n      add\n        /* \"#utility.yul\":3936:3963   */\n      slt\n        /* \"#utility.yul\":3926:4048   */\n      tag_109\n      jumpi\n        /* \"#utility.yul\":3967:4046   */\n      tag_110\n      tag_40\n      jump\t// in\n    tag_110:\n        /* \"#utility.yul\":3926:4048   */\n    tag_109:\n        /* \"#utility.yul\":4084:4090   */\n      dup2\n        /* \"#utility.yul\":4071:4091   */\n      calldataload\n        /* \"#utility.yul\":4109:4188   */\n      tag_111\n        /* \"#utility.yul\":4184:4187   */\n      dup5\n        /* \"#utility.yul\":4176:4182   */\n      dup3\n        /* \"#utility.yul\":4169:4173   */\n      0x20\n        /* \"#utility.yul\":4161:4167   */\n      dup7\n        /* \"#utility.yul\":4157:4174   */\n      add\n        /* \"#utility.yul\":4109:4188   */\n      tag_47\n      jump\t// in\n    tag_111:\n        /* \"#utility.yul\":4100:4188   */\n      swap2\n      pop\n        /* \"#utility.yul\":3916:4194   */\n      pop\n        /* \"#utility.yul\":3854:4194   */\n      swap3\n      swap2\n      pop\n      pop\n      jump\t// out\n        /* \"#utility.yul\":4200:4322   */\n    tag_49:\n        /* \"#utility.yul\":4273:4297   */\n      tag_113\n        /* \"#utility.yul\":4291:4296   */\n      dup2\n        /* \"#utility.yul\":4273:4297   */\n      tag_35\n      jump\t// in\n    tag_113:\n        /* \"#utility.yul\":4266:4271   */\n      dup2\n        /* \"#utility.yul\":4263:4298   */\n      eq\n        /* \"#utility.yul\":4253:4316   */\n      tag_114\n      jumpi\n        /* \"#utility.yul\":4312:4313   */\n      0x00\n        /* \"#utility.yul\":4309:4310   */\n      dup1\n        /* \"#utility.yul\":4302:4314   */\n      revert\n        /* \"#utility.yul\":4253:4316   */\n    tag_114:\n        /* \"#utility.yul\":4200:4322   */\n      pop\n      jump\t// out\n        /* \"#utility.yul\":4328:4467   */\n    tag_50:\n        /* \"#utility.yul\":4374:4379   */\n      0x00\n        /* \"#utility.yul\":4412:4418   */\n      dup2\n        /* \"#utility.yul\":4399:4419   */\n      calldataload\n        /* \"#utility.yul\":4390:4419   */\n      swap1\n      pop\n        /* \"#utility.yul\":4428:4461   */\n      tag_116\n        /* \"#utility.yul\":4455:4460   */\n      dup2\n        /* \"#utility.yul\":4428:4461   */\n      tag_49\n      jump\t// in\n    tag_116:\n        /* \"#utility.yul\":4328:4467   */\n      swap3\n      swap2\n      pop\n      pop\n      jump\t// out\n        /* \"#utility.yul\":4473:5452   */\n    tag_11:\n        /* \"#utility.yul\":4570:4576   */\n      0x00\n        /* \"#utility.yul\":4578:4584   */\n      dup1\n        /* \"#utility.yul\":4586:4592   */\n      0x00\n        /* \"#utility.yul\":4635:4637   */\n      0x60\n        /* \"#utility.yul\":4623:4632   */\n      dup5\n        /* \"#utility.yul\":4614:4621   */\n      dup7\n        /* \"#utility.yul\":4610:4633   */\n      sub\n        /* \"#utility.yul\":4606:4638   */\n      slt\n        /* \"#utility.yul\":4603:4722   */\n      iszero\n      tag_118\n      jumpi\n        /* \"#utility.yul\":4641:4720   */\n      tag_119\n      tag_38\n      jump\t// in\n    tag_119:\n        /* \"#utility.yul\":4603:4722   */\n    tag_118:\n        /* \"#utility.yul\":4789:4790   */\n      0x00\n        /* \"#utility.yul\":4778:4787   */\n      dup5\n        /* \"#utility.yul\":4774:4791   */\n      add\n        /* \"#utility.yul\":4761:4792   */\n      calldataload\n        /* \"#utility.yul\":4819:4837   */\n      0xffffffffffffffff\n        /* \"#utility.yul\":4811:4817   */\n      dup2\n        /* \"#utility.yul\":4808:4838   */\n      gt\n        /* \"#utility.yul\":4805:4922   */\n      iszero\n      tag_120\n      jumpi\n        /* \"#utility.yul\":4841:4920   */\n      tag_121\n      tag_39\n      jump\t// in\n    tag_121:\n        /* \"#utility.yul\":4805:4922   */\n    tag_120:\n        /* \"#utility.yul\":4946:5009   */\n      tag_122\n        /* \"#utility.yul\":5001:5008   */\n      dup7\n        /* \"#utility.yul\":4992:4998   */\n      dup3\n        /* \"#utility.yul\":4981:4990   */\n      dup8\n        /* \"#utility.yul\":4977:4999   */\n      add\n        /* \"#utility.yul\":4946:5009   */\n      tag_48\n      jump\t// in\n    tag_122:\n        /* \"#utility.yul\":4936:5009   */\n      swap4\n      pop\n        /* \"#utility.yul\":4732:5019   */\n      pop\n        /* \"#utility.yul\":5086:5088   */\n      0x20\n        /* \"#utility.yul\":5075:5084   */\n      dup5\n        /* \"#utility.yul\":5071:5089   */\n      add\n        /* \"#utility.yul\":5058:5090   */\n      calldataload\n        /* \"#utility.yul\":5117:5135   */\n      0xffffffffffffffff\n        /* \"#utility.yul\":5109:5115   */\n      dup2\n        /* \"#utility.yul\":5106:5136   */\n      gt\n        /* \"#utility.yul\":5103:5220   */\n      iszero\n      tag_123\n      jumpi\n        /* \"#utility.yul\":5139:5218   */\n      tag_124\n      tag_39\n      jump\t// in\n    tag_124:\n        /* \"#utility.yul\":5103:5220   */\n    tag_123:\n        /* \"#utility.yul\":5244:5307   */\n      tag_125\n        /* \"#utility.yul\":5299:5306   */\n      dup7\n        /* \"#utility.yul\":5290:5296   */\n      dup3\n        /* \"#utility.yul\":5279:5288   */\n      dup8\n        /* \"#utility.yul\":5275:5297   */\n      add\n        /* \"#utility.yul\":5244:5307   */\n      tag_48\n      jump\t// in\n    tag_125:\n        /* \"#utility.yul\":5234:5307   */\n      swap3\n      pop\n        /* \"#utility.yul\":5029:5317   */\n      pop\n        /* \"#utility.yul\":5356:5358   */\n      0x40\n        /* \"#utility.yul\":5382:5435   */\n      tag_126\n        /* \"#utility.yul\":5427:5434   */\n      dup7\n        /* \"#utility.yul\":5418:5424   */\n      dup3\n        /* \"#utility.yul\":5407:5416   */\n      dup8\n        /* \"#utility.yul\":5403:5425   */\n      add\n        /* \"#utility.yul\":5382:5435   */\n      tag_50\n      jump\t// in\n    tag_126:\n        /* \"#utility.yul\":5372:5435   */\n      swap2\n      pop\n        /* \"#utility.yul\":5327:5445   */\n      pop\n        /* \"#utility.yul\":4473:5452   */\n      swap3\n      pop\n      swap3\n      pop\n      swap3\n      jump\t// out\n        /* \"#utility.yul\":5458:5638   */\n    tag_51:\n        /* \"#utility.yul\":5506:5583   */\n      0x4e487b7100000000000000000000000000000000000000000000000000000000\n        /* \"#utility.yul\":5503:5504   */\n      0x00\n        /* \"#utility.yul\":5496:5584   */\n      mstore\n        /* \"#utility.yul\":5603:5607   */\n      0x22\n        /* \"#utility.yul\":5600:5601   */\n      0x04\n        /* \"#utility.yul\":5593:5608   */\n      mstore\n        /* \"#utility.yul\":5627:5631   */\n      0x24\n        /* \"#utility.yul\":5624:5625   */\n      0x00\n        /* \"#utility.yul\":5617:5632   */\n      revert\n        /* \"#utility.yul\":5644:5964   */\n    tag_15:\n        /* \"#utility.yul\":5688:5694   */\n      0x00\n        /* \"#utility.yul\":5725:5726   */\n      0x02\n        /* \"#utility.yul\":5719:5723   */\n      dup3\n        /* \"#utility.yul\":5715:5727   */\n      div\n        /* \"#utility.yul\":5705:5727   */\n      swap1\n      pop\n        /* \"#utility.yul\":5772:5773   */\n      0x01\n        /* \"#utility.yul\":5766:5770   */\n      dup3\n        /* \"#utility.yul\":5762:5774   */\n      and\n        /* \"#utility.yul\":5793:5811   */\n      dup1\n        /* \"#utility.yul\":5783:5864   */\n      tag_129\n      jumpi\n        /* \"#utility.yul\":5849:5853   */\n      0x7f\n        /* \"#utility.yul\":5841:5847   */\n      dup3\n        /* \"#utility.yul\":5837:5854   */\n      and\n        /* \"#utility.yul\":5827:5854   */\n      swap2\n      pop\n        /* \"#utility.yul\":5783:5864   */\n    tag_129:\n        /* \"#utility.yul\":5911:5913   */\n      0x20\n        /* \"#utility.yul\":5903:5909   */\n      dup3\n        /* \"#utility.yul\":5900:5914   */\n      lt\n        /* \"#utility.yul\":5880:5898   */\n      dup2\n        /* \"#utility.yul\":5877:5915   */\n      sub\n        /* \"#utility.yul\":5874:5958   */\n      tag_130\n      jumpi\n        /* \"#utility.yul\":5930:5948   */\n      tag_131\n      tag_51\n      jump\t// in\n    tag_131:\n        /* \"#utility.yul\":5874:5958   */\n    tag_130:\n        /* \"#utility.yul\":5695:5964   */\n      pop\n        /* \"#utility.yul\":5644:5964   */\n      swap2\n      swap1\n      pop\n      jump\t// out\n        /* \"#utility.yul\":5970:6111   */\n    tag_52:\n        /* \"#utility.yul\":6019:6023   */\n      0x00\n        /* \"#utility.yul\":6042:6045   */\n      dup2\n        /* \"#utility.yul\":6034:6045   */\n      swap1\n      pop\n        /* \"#utility.yul\":6065:6068   */\n      dup2\n        /* \"#utility.yul\":6062:6063   */\n      0x00\n        /* \"#utility.yul\":6055:6069   */\n      mstore\n        /* \"#utility.yul\":6099:6103   */\n      0x20\n        /* \"#utility.yul\":6096:6097   */\n      0x00\n        /* \"#utility.yul\":6086:6104   */\n      keccak256\n        /* \"#utility.yul\":6078:6104   */\n      swap1\n      pop\n        /* \"#utility.yul\":5970:6111   */\n      swap2\n      swap1\n      pop\n      jump\t// out\n        /* \"#utility.yul\":6117:6210   */\n    tag_53:\n        /* \"#utility.yul\":6154:6160   */\n      0x00\n        /* \"#utility.yul\":6201:6203   */\n      0x20\n        /* \"#utility.yul\":6196:6198   */\n      0x1f\n        /* \"#utility.yul\":6189:6194   */\n      dup4\n        /* \"#utility.yul\":6185:6199   */\n      add\n        /* \"#utility.yul\":6181:6204   */\n      div\n        /* \"#utility.yul\":6171:6204   */\n      swap1\n      pop\n        /* \"#utility.yul\":6117:6210   */\n      swap2\n      swap1\n      pop\n      jump\t// out\n        /* \"#utility.yul\":6216:6323   */\n    tag_54:\n        /* \"#utility.yul\":6260:6268   */\n      0x00\n        /* \"#utility.yul\":6310:6315   */\n      dup3\n        /* \"#utility.yul\":6304:6308   */\n      dup3\n        /* \"#utility.yul\":6300:6316   */\n      shl\n        /* \"#utility.yul\":6279:6316   */\n      swap1\n      pop\n        /* \"#utility.yul\":6216:6323   */\n      swap3\n      swap2\n      pop\n      pop\n      jump\t// out\n        /* \"#utility.yul\":6329:6722   */\n    tag_55:\n        /* \"#utility.yul\":6398:6404   */\n      0x00\n        /* \"#utility.yul\":6448:6449   */\n      0x08\n        /* \"#utility.yul\":6436:6446   */\n      dup4\n        /* \"#utility.yul\":6432:6450   */\n      mul\n        /* \"#utility.yul\":6471:6568   */\n      tag_136\n        /* \"#utility.yul\":6501:6567   */\n      0xffffffffffffffffffffffffffffffffffffffffffffffffffffffffffffffff\n        /* \"#utility.yul\":6490:6499   */\n      dup3\n        /* \"#utility.yul\":6471:6568   */\n      tag_54\n      jump\t// in\n    tag_136:\n        /* \"#utility.yul\":6589:6628   */\n      tag_137\n        /* \"#utility.yul\":6619:6627   */\n      dup7\n        /* \"#utility.yul\":6608:6617   */\n      dup4\n        /* \"#utility.yul\":6589:6628   */\n      tag_54\n      jump\t// in\n    tag_137:\n        /* \"#utility.yul\":6577:6628   */\n      swap6\n      pop\n        /* \"#utility.yul\":6661:6665   */\n      dup1\n        /* \"#utility.yul\":6657:6666   */\n      not\n        /* \"#utility.yul\":6650:6655   */\n      dup5\n        /* \"#utility.yul\":6646:6667   */\n      and\n        /* \"#utility.yul\":6637:6667   */\n      swap4\n      pop\n        /* \"#utility.yul\":6710:6714   */\n      dup1\n        /* \"#utility.yul\":6700:6708   */\n      dup7\n        /* \"#utility.yul\":6696:6715   */\n      and\n        /* \"#utility.yul\":6689:6694   */\n      dup5\n        /* \"#utility.yul\":6686:6716   */\n      or\n        /* \"#utility.yul\":6676:6716   */\n      swap3\n      pop\n        /* \"#utility.yul\":6405:6722   */\n      pop\n      pop\n        /* \"#utility.yul\":6329:6722   */\n      swap4\n      swap3\n      pop\n      pop\n      pop\n      jump\t// out\n        /* \"#utility.yul\":6728:6788   */\n    tag_56:\n        /* \"#utility.yul\":6756:6759   */\n      0x00\n        /* \"#utility.yul\":6777:6782   */\n      dup2\n        /* \"#utility.yul\":6770:6782   */\n      swap1\n      pop\n        /* \"#utility.yul\":6728:6788   */\n      swap2\n      swap1\n      pop\n      jump\t// out\n        /* \"#utility.yul\":6794:6936   */\n    tag_57:\n        /* \"#utility.yul\":6844:6853   */\n      0x00\n        /* \"#utility.yul\":6877:6930   */\n      tag_140\n        /* \"#utility.yul\":6895:6929   */\n      tag_141\n        /* \"#utility.yul\":6904:6928   */\n      tag_142\n        /* \"#utility.yul\":6922:6927   */\n      dup5\n        /* \"#utility.yul\":6904:6928   */\n      tag_35\n      jump\t// in\n    tag_142:\n        /* \"#utility.yul\":6895:6929   */\n      tag_56\n      jump\t// in\n    tag_141:\n        /* \"#utility.yul\":6877:6930   */\n      tag_35\n      jump\t// in\n    tag_140:\n        /* \"#utility.yul\":6864:6930   */\n      swap1\n      pop\n        /* \"#utility.yul\":6794:6936   */\n      swap2\n      swap1\n      pop\n      jump\t// out\n        /* \"#utility.yul\":6942:7017   */\n    tag_58:\n        /* \"#utility.yul\":6985:6988   */\n      0x00\n        /* \"#utility.yul\":7006:7011   */\n      dup2\n        /* \"#utility.yul\":6999:7011   */\n      swap1\n      pop\n        /* \"#utility.yul\":6942:7017   */\n      swap2\n      swap1\n      pop\n      jump\t// out\n        /* \"#utility.yul\":7023:7292   */\n    tag_59:\n        /* \"#utility.yul\":7133:7172   */\n      tag_145\n        /* \"#utility.yul\":7164:7171   */\n      dup4\n        /* \"#utility.yul\":7133:7172   */\n      tag_57\n      jump\t// in\n    tag_145:\n        /* \"#utility.yul\":7194:7285   */\n      tag_146\n        /* \"#utility.yul\":7243:7284   */\n      tag_147\n        /* \"#utility.yul\":7267:7283   */\n      dup3\n        /* \"#utility.yul\":7243:7284   */\n      tag_58\n      jump\t// in\n    tag_147:\n        /* \"#utility.yul\":7235:7241   */\n      dup5\n        /* \"#utility.yul\":7228:7232   */\n      dup5\n        /* \"#utility.yul\":7222:7233   */\n      sload\n        /* \"#utility.yul\":7194:7285   */\n      tag_55\n      jump\t// in\n    tag_146:\n        /* \"#utility.yul\":7188:7192   */\n      dup3\n        /* \"#utility.yul\":7181:7286   */\n      sstore\n        /* \"#utility.yul\":7099:7292   */\n      pop\n        /* \"#utility.yul\":7023:7292   */\n      pop\n      pop\n      pop\n      jump\t// out\n        /* \"#utility.yul\":7298:7371   */\n    tag_60:\n        /* \"#utility.yul\":7343:7346   */\n      0x00\n        /* \"#utility.yul\":7298:7371   */\n      swap1\n      jump\t// out\n        /* \"#utility.yul\":7377:7566   */\n    tag_61:\n        /* \"#utility.yul\":7454:7486   */\n      tag_150\n      tag_60\n      jump\t// in\n    tag_150:\n        /* \"#utility.yul\":7495:7560   */\n      tag_151\n        /* \"#utility.yul\":7553:7559   */\n      dup2\n        /* \"#utility.yul\":7545:7551   */\n      dup5\n        /* \"#utility.yul\":7539:7543   */\n      dup5\n        /* \"#utility.yul\":7495:7560   */\n      tag_59\n      jump\t// in\n    tag_151:\n        /* \"#utility.yul\":7430:7566   */\n      pop\n        /* \"#utility.yul\":7377:7566   */\n      pop\n      pop\n      jump\t// out\n        /* \"#utility.yul\":7572:7758   */\n    tag_62:\n        /* \"#utility.yul\":7632:7752   */\n    tag_153:\n        /* \"#utility.yul\":7649:7652   */\n      dup2\n        /* \"#utility.yul\":7642:7647   */\n      dup2\n        /* \"#utility.yul\":7639:7653   */\n      lt\n        /* \"#utility.yul\":7632:7752   */\n      iszero\n      tag_155\n      jumpi\n        /* \"#utility.yul\":7703:7742   */\n      tag_156\n        /* \"#utility.yul\":7740:7741   */\n      0x00\n        /* \"#utility.yul\":7733:7738   */\n      dup3\n        /* \"#utility.yul\":7703:7742   */\n      tag_61\n      jump\t// in\n    tag_156:\n        /* \"#utility.yul\":7676:7677   */\n      0x01\n        /* \"#utility.yul\":7669:7674   */\n      dup2\n        /* \"#utility.yul\":7665:7678   */\n      add\n        /* \"#utility.yul\":7656:7678   */\n      swap1\n      pop\n        /* \"#utility.yul\":7632:7752   */\n      jump(tag_153)\n    tag_155:\n        /* \"#utility.yul\":7572:7758   */\n      pop\n      pop\n      jump\t// out\n        /* \"#utility.yul\":7764:8307   */\n    tag_63:\n        /* \"#utility.yul\":7865:7867   */\n      0x1f\n        /* \"#utility.yul\":7860:7863   */\n      dup3\n        /* \"#utility.yul\":7857:7868   */\n      gt\n        /* \"#utility.yul\":7854:8300   */\n      iszero\n      tag_158\n      jumpi\n        /* \"#utility.yul\":7899:7937   */\n      tag_159\n        /* \"#utility.yul\":7931:7936   */\n      dup2\n        /* \"#utility.yul\":7899:7937   */\n      tag_52\n      jump\t// in\n    tag_159:\n        /* \"#utility.yul\":7983:8012   */\n      tag_160\n        /* \"#utility.yul\":8001:8011   */\n      dup5\n        /* \"#utility.yul\":7983:8012   */\n      tag_53\n      jump\t// in\n    tag_160:\n        /* \"#utility.yul\":7973:7981   */\n      dup2\n        /* \"#utility.yul\":7969:8013   */\n      add\n        /* \"#utility.yul\":8166:8168   */\n      0x20\n        /* \"#utility.yul\":8154:8164   */\n      dup6\n        /* \"#utility.yul\":8151:8169   */\n      lt\n        /* \"#utility.yul\":8148:8197   */\n      iszero\n      tag_161\n      jumpi\n        /* \"#utility.yul\":8187:8195   */\n      dup2\n        /* \"#utility.yul\":8172:8195   */\n      swap1\n      pop\n        /* \"#utility.yul\":8148:8197   */\n    tag_161:\n        /* \"#utility.yul\":8210:8290   */\n      tag_162\n        /* \"#utility.yul\":8266:8288   */\n      tag_163\n        /* \"#utility.yul\":8284:8287   */\n      dup6\n        /* \"#utility.yul\":8266:8288   */\n      tag_53\n      jump\t// in\n    tag_163:\n        /* \"#utility.yul\":8256:8264   */\n      dup4\n        /* \"#utility.yul\":8252:8289   */\n      add\n        /* \"#utility.yul\":8239:8250   */\n      dup3\n        /* \"#utility.yul\":8210:8290   */\n      tag_62\n      jump\t// in\n    tag_162:\n        /* \"#utility.yul\":7869:8300   */\n      pop\n      pop\n        /* \"#utility.yul\":7854:8300   */\n    tag_158:\n        /* \"#utility.yul\":7764:8307   */\n      pop\n      pop\n      pop\n      jump\t// out\n        /* \"#utility.yul\":8313:8430   */\n    tag_64:\n        /* \"#utility.yul\":8367:8375   */\n      0x00\n        /* \"#utility.yul\":8417:8422   */\n      dup3\n        /* \"#utility.yul\":8411:8415   */\n      dup3\n        /* \"#utility.yul\":8407:8423   */\n      shr\n        /* \"#utility.yul\":8386:8423   */\n      swap1\n      pop\n        /* \"#utility.yul\":8313:8430   */\n      swap3\n      swap2\n      pop\n      pop\n      jump\t// out\n        /* \"#utility.yul\":8436:8605   */\n    tag_65:\n        /* \"#utility.yul\":8480:8486   */\n      0x00\n        /* \"#utility.yul\":8513:8564   */\n      tag_166\n        /* \"#utility.yul\":8561:8562   */\n      0x00\n        /* \"#utility.yul\":8557:8563   */\n      not\n        /* \"#utility.yul\":8549:8554   */\n      dup5\n        /* \"#utility.yul\":8546:8547   */\n      0x08\n        /* \"#utility.yul\":8542:8555   */\n      mul\n        /* \"#utility.yul\":8513:8564   */\n      tag_64\n      jump\t// in\n    tag_166:\n        /* \"#utility.yul\":8509:8565   */\n      not\n        /* \"#utility.yul\":8594:8598   */\n      dup1\n        /* \"#utility.yul\":8588:8592   */\n      dup4\n        /* \"#utility.yul\":8584:8599   */\n      and\n        /* \"#utility.yul\":8574:8599   */\n      swap2\n      pop\n        /* \"#utility.yul\":8487:8605   */\n      pop\n        /* \"#utility.yul\":8436:8605   */\n      swap3\n      swap2\n      pop\n      pop\n      jump\t// out\n        /* \"#utility.yul\":8610:8905   */\n    tag_66:\n        /* \"#utility.yul\":8686:8690   */\n      0x00\n        /* \"#utility.yul\":8832:8861   */\n      tag_168\n        /* \"#utility.yul\":8857:8860   */\n      dup4\n        /* \"#utility.yul\":8851:8855   */\n      dup4\n        /* \"#utility.yul\":8832:8861   */\n      tag_65\n      jump\t// in\n    tag_168:\n        /* \"#utility.yul\":8824:8861   */\n      swap2\n      pop\n        /* \"#utility.yul\":8894:8897   */\n      dup3\n        /* \"#utility.yul\":8891:8892   */\n      0x02\n        /* \"#utility.yul\":8887:8898   */\n      mul\n        /* \"#utility.yul\":8881:8885   */\n      dup3\n        /* \"#utility.yul\":8878:8899   */\n      or\n        /* \"#utility.yul\":8870:8899   */\n      swap1\n      pop\n        /* \"#utility.yul\":8610:8905   */\n      swap3\n      swap2\n      pop\n      pop\n      jump\t// out\n        /* \"#utility.yul\":8910:10305   */\n    tag_27:\n        /* \"#utility.yul\":9027:9064   */\n      tag_170\n        /* \"#utility.yul\":9060:9063   */\n      dup3\n        /* \"#utility.yul\":9027:9064   */\n      tag_30\n      jump\t// in\n    tag_170:\n        /* \"#utility.yul\":9129:9147   */\n      0xffffffffffffffff\n        /* \"#utility.yul\":9121:9127   */\n      dup2\n        /* \"#utility.yul\":9118:9148   */\n      gt\n        /* \"#utility.yul\":9115:9171   */\n      iszero\n      tag_171\n      jumpi\n        /* \"#utility.yul\":9151:9169   */\n      tag_172\n      tag_42\n      jump\t// in\n    tag_172:\n        /* \"#utility.yul\":9115:9171   */\n    tag_171:\n        /* \"#utility.yul\":9195:9233   */\n      tag_173\n        /* \"#utility.yul\":9227:9231   */\n      dup3\n        /* \"#utility.yul\":9221:9232   */\n      sload\n        /* \"#utility.yul\":9195:9233   */\n      tag_15\n      jump\t// in\n    tag_173:\n        /* \"#utility.yul\":9280:9347   */\n      tag_174\n        /* \"#utility.yul\":9340:9346   */\n      dup3\n        /* \"#utility.yul\":9332:9338   */\n      dup3\n        /* \"#utility.yul\":9326:9330   */\n      dup6\n        /* \"#utility.yul\":9280:9347   */\n      tag_63\n      jump\t// in\n    tag_174:\n        /* \"#utility.yul\":9374:9375   */\n      0x00\n        /* \"#utility.yul\":9398:9402   */\n      0x20\n        /* \"#utility.yul\":9385:9402   */\n      swap1\n      pop\n        /* \"#utility.yul\":9430:9432   */\n      0x1f\n        /* \"#utility.yul\":9422:9428   */\n      dup4\n        /* \"#utility.yul\":9419:9433   */\n      gt\n        /* \"#utility.yul\":9447:9448   */\n      0x01\n        /* \"#utility.yul\":9442:10060   */\n      dup2\n      eq\n      tag_176\n      jumpi\n        /* \"#utility.yul\":10104:10105   */\n      0x00\n        /* \"#utility.yul\":10121:10127   */\n      dup5\n        /* \"#utility.yul\":10118:10195   */\n      iszero\n      tag_177\n      jumpi\n        /* \"#utility.yul\":10170:10179   */\n      dup3\n        /* \"#utility.yul\":10165:10168   */\n      dup8\n        /* \"#utility.yul\":10161:10180   */\n      add\n        /* \"#utility.yul\":10155:10181   */\n      mload\n        /* \"#utility.yul\":10146:10181   */\n      swap1\n      pop\n        /* \"#utility.yul\":10118:10195   */\n    tag_177:\n        /* \"#utility.yul\":10221:10288   */\n      tag_178\n        /* \"#utility.yul\":10281:10287   */\n      dup6\n        /* \"#utility.yul\":10274:10279   */\n      dup3\n        /* \"#utility.yul\":10221:10288   */\n      tag_66\n      jump\t// in\n    tag_178:\n        /* \"#utility.yul\":10215:10219   */\n      dup7\n        /* \"#utility.yul\":10208:10289   */\n      sstore\n        /* \"#utility.yul\":10077:10299   */\n      pop\n        /* \"#utility.yul\":9412:10299   */\n      jump(tag_175)\n        /* \"#utility.yul\":9442:10060   */\n    tag_176:\n        /* \"#utility.yul\":9494:9498   */\n      0x1f\n        /* \"#utility.yul\":9490:9499   */\n      not\n        /* \"#utility.yul\":9482:9488   */\n      dup5\n        /* \"#utility.yul\":9478:9500   */\n      and\n        /* \"#utility.yul\":9528:9565   */\n      tag_179\n        /* \"#utility.yul\":9560:9564   */\n      dup7\n        /* \"#utility.yul\":9528:9565   */\n      tag_52\n      jump\t// in\n    tag_179:\n        /* \"#utility.yul\":9587:9588   */\n      0x00\n        /* \"#utility.yul\":9601:9809   */\n    tag_180:\n        /* \"#utility.yul\":9615:9622   */\n      dup3\n        /* \"#utility.yul\":9612:9613   */\n      dup2\n        /* \"#utility.yul\":9609:9623   */\n      lt\n        /* \"#utility.yul\":9601:9809   */\n      iszero\n      tag_182\n      jumpi\n        /* \"#utility.yul\":9694:9703   */\n      dup5\n        /* \"#utility.yul\":9689:9692   */\n      dup10\n        /* \"#utility.yul\":9685:9704   */\n      add\n        /* \"#utility.yul\":9679:9705   */\n      mload\n        /* \"#utility.yul\":9671:9677   */\n      dup3\n        /* \"#utility.yul\":9664:9706   */\n      sstore\n        /* \"#utility.yul\":9745:9746   */\n      0x01\n        /* \"#utility.yul\":9737:9743   */\n      dup3\n        /* \"#utility.yul\":9733:9747   */\n      add\n        /* \"#utility.yul\":9723:9747   */\n      swap2\n      pop\n        /* \"#utility.yul\":9792:9794   */\n      0x20\n        /* \"#utility.yul\":9781:9790   */\n      dup6\n        /* \"#utility.yul\":9777:9795   */\n      add\n        /* \"#utility.yul\":9764:9795   */\n      swap5\n      pop\n        /* \"#utility.yul\":9638:9642   */\n      0x20\n        /* \"#utility.yul\":9635:9636   */\n      dup2\n        /* \"#utility.yul\":9631:9643   */\n      add\n        /* \"#utility.yul\":9626:9643   */\n      swap1\n      pop\n        /* \"#utility.yul\":9601:9809   */\n      jump(tag_180)\n    tag_182:\n        /* \"#utility.yul\":9837:9843   */\n      dup7\n        /* \"#utility.yul\":9828:9835   */\n      dup4\n        /* \"#utility.yul\":9825:9844   */\n      lt\n        /* \"#utility.yul\":9822:10001   */\n      iszero\n      tag_183\n      jumpi\n        /* \"#utility.yul\":9895:9904   */\n      dup5\n        /* \"#utility.yul\":9890:9893   */\n      dup10\n        /* \"#utility.yul\":9886:9905   */\n      add\n        /* \"#utility.yul\":9880:9906   */\n      mload\n        /* \"#utility.yul\":9938:9986   */\n      tag_184\n        /* \"#utility.yul\":9980:9984   */\n      0x1f\n        /* \"#utility.yul\":9972:9978   */\n      dup10\n        /* \"#utility.yul\":9968:9985   */\n      and\n        /* \"#utility.yul\":9957:9966   */\n      dup3\n        /* \"#utility.yul\":9938:9986   */\n      tag_65\n      jump\t// in\n    tag_184:\n        /* \"#utility.yul\":9930:9936   */\n      dup4\n        /* \"#utility.yul\":9923:9987   */\n      sstore\n        /* \"#utility.yul\":9845:10001   */\n      pop\n        /* \"#utility.yul\":9822:10001   */\n    tag_183:\n        /* \"#utility.yul\":10047:10048   */\n      0x01\n        /* \"#utility.yul\":10043:10044   */\n      0x02\n        /* \"#utility.yul\":10035:10041   */\n      dup9\n        /* \"#utility.yul\":10031:10045   */\n      mul\n        /* \"#utility.yul\":10027:10049   */\n      add\n        /* \"#utility.yul\":10021:10025   */\n      dup9\n        /* \"#utility.yul\":10014:10050   */\n      sstore\n        /* \"#utility.yul\":9449:10060   */\n      pop\n      pop\n      pop\n        /* \"#utility.yul\":9412:10299   */\n    tag_175:\n      pop\n        /* \"#utility.yul\":9002:10305   */\n      pop\n      pop\n      pop\n        /* \"#utility.yul\":8910:10305   */\n      pop\n      pop\n      jump\t// out\n\n    auxdata: 0xa2646970667358221220772b6bffccf74937cab56d52219539c4bae107d58ef774caef8077568707093e64736f6c634300081a0033\n}\n",
				"bytecode": {
					"linkReferences": {},
					"object": "6080604052348015600e575f80fd5b506107bf8061001c5f395ff3fe608060405234801561000f575f80fd5b5060043610610034575f3560e01c8063565974d314610038578063ace807ed14610058575b5f80fd5b610040610074565b60405161004f9392919061028e565b60405180910390f35b610072600480360381019061006d9190610438565b6101a3565b005b6060805f805f015f6001015f60020154828054610090906104ed565b80601f01602080910402602001604051908101604052809291908181526020018280546100bc906104ed565b80156101075780601f106100de57610100808354040283529160200191610107565b820191905f5260205f20905b8154815290600101906020018083116100ea57829003601f168201915b5050505050925081805461011a906104ed565b80601f0160208091040260200160405190810160405280929190818152602001828054610146906104ed565b80156101915780601f1061016857610100808354040283529160200191610191565b820191905f5260205f20905b81548152906001019060200180831161017457829003601f168201915b50505050509150925092509250909192565b6040518060600160405280848152602001838152602001828152505f80820151815f0190816101d291906106ba565b5060208201518160010190816101e891906106ba565b50604082015181600201559050506101fe610074565b505050505050565b5f81519050919050565b5f82825260208201905092915050565b8281835e5f83830152505050565b5f601f19601f8301169050919050565b5f61024882610206565b6102528185610210565b9350610262818560208601610220565b61026b8161022e565b840191505092915050565b5f819050919050565b61028881610276565b82525050565b5f6060820190508181035f8301526102a6818661023e565b905081810360208301526102ba818561023e565b90506102c9604083018461027f565b949350505050565b5f604051905090565b5f80fd5b5f80fd5b5f80fd5b5f80fd5b7f4e487b71000000000000000000000000000000000000000000000000000000005f52604160045260245ffd5b6103208261022e565b810181811067ffffffffffffffff8211171561033f5761033e6102ea565b5b80604052505050565b5f6103516102d1565b905061035d8282610317565b919050565b5f67ffffffffffffffff82111561037c5761037b6102ea565b5b6103858261022e565b9050602081019050919050565b828183375f83830152505050565b5f6103b26103ad84610362565b610348565b9050828152602081018484840111156103ce576103cd6102e6565b5b6103d9848285610392565b509392505050565b5f82601f8301126103f5576103f46102e2565b5b81356104058482602086016103a0565b91505092915050565b61041781610276565b8114610421575f80fd5b50565b5f813590506104328161040e565b92915050565b5f805f6060848603121561044f5761044e6102da565b5b5f84013567ffffffffffffffff81111561046c5761046b6102de565b5b610478868287016103e1565b935050602084013567ffffffffffffffff811115610499576104986102de565b5b6104a5868287016103e1565b92505060406104b686828701610424565b9150509250925092565b7f4e487b71000000000000000000000000000000000000000000000000000000005f52602260045260245ffd5b5f600282049050600182168061050457607f821691505b602082108103610517576105166104c0565b5b50919050565b5f819050815f5260205f209050919050565b5f6020601f8301049050919050565b5f82821b905092915050565b5f600883026105797fffffffffffffffffffffffffffffffffffffffffffffffffffffffffffffffff8261053e565b610583868361053e565b95508019841693508086168417925050509392505050565b5f819050919050565b5f6105be6105b96105b484610276565b61059b565b610276565b9050919050565b5f819050919050565b6105d7836105a4565b6105eb6105e3826105c5565b84845461054a565b825550505050565b5f90565b6105ff6105f3565b61060a8184846105ce565b505050565b5b8181101561062d576106225f826105f7565b600181019050610610565b5050565b601f821115610672576106438161051d565b61064c8461052f565b8101602085101561065b578190505b61066f6106678561052f565b83018261060f565b50505b505050565b5f82821c905092915050565b5f6106925f1984600802610677565b1980831691505092915050565b5f6106aa8383610683565b9150826002028217905092915050565b6106c382610206565b67ffffffffffffffff8111156106dc576106db6102ea565b5b6106e682546104ed565b6106f1828285610631565b5f60209050601f831160018114610722575f8415610710578287015190505b61071a858261069f565b865550610781565b601f1984166107308661051d565b5f5b8281101561075757848901518255600182019150602085019450602081019050610732565b868310156107745784890151610770601f891682610683565b8355505b6001600288020188555050505b50505050505056fea2646970667358221220772b6bffccf74937cab56d52219539c4bae107d58ef774caef8077568707093e64736f6c634300081a0033",
					"opcodes": "PUSH1 0x80 PUSH1 0x40 MSTORE CALLVALUE DUP1 ISZERO PUSH1 0xE JUMPI PUSH0 DUP1 REVERT JUMPDEST POP PUSH2 0x7BF DUP1 PUSH2 0x1C PUSH0 CODECOPY PUSH0 RETURN INVALID PUSH1 0x80 PUSH1 0x40 MSTORE CALLVALUE DUP1 ISZERO PUSH2 0xF JUMPI PUSH0 DUP1 REVERT JUMPDEST POP PUSH1 0x4 CALLDATASIZE LT PUSH2 0x34 JUMPI PUSH0 CALLDATALOAD PUSH1 0xE0 SHR DUP1 PUSH4 0x565974D3 EQ PUSH2 0x38 JUMPI DUP1 PUSH4 0xACE807ED EQ PUSH2 0x58 JUMPI JUMPDEST PUSH0 DUP1 REVERT JUMPDEST PUSH2 0x40 PUSH2 0x74 JUMP JUMPDEST PUSH1 0x40 MLOAD PUSH2 0x4F SWAP4 SWAP3 SWAP2 SWAP1 PUSH2 0x28E JUMP JUMPDEST PUSH1 0x40 MLOAD DUP1 SWAP2 SUB SWAP1 RETURN JUMPDEST PUSH2 0x72 PUSH1 0x4 DUP1 CALLDATASIZE SUB DUP2 ADD SWAP1 PUSH2 0x6D SWAP2 SWAP1 PUSH2 0x438 JUMP JUMPDEST PUSH2 0x1A3 JUMP JUMPDEST STOP JUMPDEST PUSH1 0x60 DUP1 PUSH0 DUP1 PUSH0 ADD PUSH0 PUSH1 0x1 ADD PUSH0 PUSH1 0x2 ADD SLOAD DUP3 DUP1 SLOAD PUSH2 0x90 SWAP1 PUSH2 0x4ED JUMP JUMPDEST DUP1 PUSH1 0x1F ADD PUSH1 0x20 DUP1 SWAP2 DIV MUL PUSH1 0x20 ADD PUSH1 0x40 MLOAD SWAP1 DUP2 ADD PUSH1 0x40 MSTORE DUP1 SWAP3 SWAP2 SWAP1 DUP2 DUP2 MSTORE PUSH1 0x20 ADD DUP3 DUP1 SLOAD PUSH2 0xBC SWAP1 PUSH2 0x4ED JUMP JUMPDEST DUP1 ISZERO PUSH2 0x107 JUMPI DUP1 PUSH1 0x1F LT PUSH2 0xDE JUMPI PUSH2 0x100 DUP1 DUP4 SLOAD DIV MUL DUP4 MSTORE SWAP2 PUSH1 0x20 ADD SWAP2 PUSH2 0x107 JUMP JUMPDEST DUP3 ADD SWAP2 SWAP1 PUSH0 MSTORE PUSH1 0x20 PUSH0 KECCAK256 SWAP1 JUMPDEST DUP2 SLOAD DUP2 MSTORE SWAP1 PUSH1 0x1 ADD SWAP1 PUSH1 0x20 ADD DUP1 DUP4 GT PUSH2 0xEA JUMPI DUP3 SWAP1 SUB PUSH1 0x1F AND DUP3 ADD SWAP2 JUMPDEST POP POP POP POP POP SWAP3 POP DUP2 DUP1 SLOAD PUSH2 0x11A SWAP1 PUSH2 0x4ED JUMP JUMPDEST DUP1 PUSH1 0x1F ADD PUSH1 0x20 DUP1 SWAP2 DIV MUL PUSH1 0x20 ADD PUSH1 0x40 MLOAD SWAP1 DUP2 ADD PUSH1 0x40 MSTORE DUP1 SWAP3 SWAP2 SWAP1 DUP2 DUP2 MSTORE PUSH1 0x20 ADD DUP3 DUP1 SLOAD PUSH2 0x146 SWAP1 PUSH2 0x4ED JUMP JUMPDEST DUP1 ISZERO PUSH2 0x191 JUMPI DUP1 PUSH1 0x1F LT PUSH2 0x168 JUMPI PUSH2 0x100 DUP1 DUP4 SLOAD DIV MUL DUP4 MSTORE SWAP2 PUSH1 0x20 ADD SWAP2 PUSH2 0x191 JUMP JUMPDEST DUP3 ADD SWAP2 SWAP1 PUSH0 MSTORE PUSH1 0x20 PUSH0 KECCAK256 SWAP1 JUMPDEST DUP2 SLOAD DUP2 MSTORE SWAP1 PUSH1 0x1 ADD SWAP1 PUSH1 0x20 ADD DUP1 DUP4 GT PUSH2 0x174 JUMPI DUP3 SWAP1 SUB PUSH1 0x1F AND DUP3 ADD SWAP2 JUMPDEST POP POP POP POP POP SWAP2 POP SWAP3 POP SWAP3 POP SWAP3 POP SWAP1 SWAP2 SWAP3 JUMP JUMPDEST PUSH1 0x40 MLOAD DUP1 PUSH1 0x60 ADD PUSH1 0x40 MSTORE DUP1 DUP5 DUP2 MSTORE PUSH1 0x20 ADD DUP4 DUP2 MSTORE PUSH1 0x20 ADD DUP3 DUP2 MSTORE POP PUSH0 DUP1 DUP3 ADD MLOAD DUP2 PUSH0 ADD SWAP1 DUP2 PUSH2 0x1D2 SWAP2 SWAP1 PUSH2 0x6BA JUMP JUMPDEST POP PUSH1 0x20 DUP3 ADD MLOAD DUP2 PUSH1 0x1 ADD SWAP1 DUP2 PUSH2 0x1E8 SWAP2 SWAP1 PUSH2 0x6BA JUMP JUMPDEST POP PUSH1 0x40 DUP3 ADD MLOAD DUP2 PUSH1 0x2 ADD SSTORE SWAP1 POP POP PUSH2 0x1FE PUSH2 0x74 JUMP JUMPDEST POP POP POP POP POP POP JUMP JUMPDEST PUSH0 DUP2 MLOAD SWAP1 POP SWAP2 SWAP1 POP JUMP JUMPDEST PUSH0 DUP3 DUP3 MSTORE PUSH1 0x20 DUP3 ADD SWAP1 POP SWAP3 SWAP2 POP POP JUMP JUMPDEST DUP3 DUP2 DUP4 MCOPY PUSH0 DUP4 DUP4 ADD MSTORE POP POP POP JUMP JUMPDEST PUSH0 PUSH1 0x1F NOT PUSH1 0x1F DUP4 ADD AND SWAP1 POP SWAP2 SWAP1 POP JUMP JUMPDEST PUSH0 PUSH2 0x248 DUP3 PUSH2 0x206 JUMP JUMPDEST PUSH2 0x252 DUP2 DUP6 PUSH2 0x210 JUMP JUMPDEST SWAP4 POP PUSH2 0x262 DUP2 DUP6 PUSH1 0x20 DUP7 ADD PUSH2 0x220 JUMP JUMPDEST PUSH2 0x26B DUP2 PUSH2 0x22E JUMP JUMPDEST DUP5 ADD SWAP2 POP POP SWAP3 SWAP2 POP POP JUMP JUMPDEST PUSH0 DUP2 SWAP1 POP SWAP2 SWAP1 POP JUMP JUMPDEST PUSH2 0x288 DUP2 PUSH2 0x276 JUMP JUMPDEST DUP3 MSTORE POP POP JUMP JUMPDEST PUSH0 PUSH1 0x60 DUP3 ADD SWAP1 POP DUP2 DUP2 SUB PUSH0 DUP4 ADD MSTORE PUSH2 0x2A6 DUP2 DUP7 PUSH2 0x23E JUMP JUMPDEST SWAP1 POP DUP2 DUP2 SUB PUSH1 0x20 DUP4 ADD MSTORE PUSH2 0x2BA DUP2 DUP6 PUSH2 0x23E JUMP JUMPDEST SWAP1 POP PUSH2 0x2C9 PUSH1 0x40 DUP4 ADD DUP5 PUSH2 0x27F JUMP JUMPDEST SWAP5 SWAP4 POP POP POP POP JUMP JUMPDEST PUSH0 PUSH1 0x40 MLOAD SWAP1 POP SWAP1 JUMP JUMPDEST PUSH0 DUP1 REVERT JUMPDEST PUSH0 DUP1 REVERT JUMPDEST PUSH0 DUP1 REVERT JUMPDEST PUSH0 DUP1 REVERT JUMPDEST PUSH32 0x4E487B7100000000000000000000000000000000000000000000000000000000 PUSH0 MSTORE PUSH1 0x41 PUSH1 0x4 MSTORE PUSH1 0x24 PUSH0 REVERT JUMPDEST PUSH2 0x320 DUP3 PUSH2 0x22E JUMP JUMPDEST DUP2 ADD DUP2 DUP2 LT PUSH8 0xFFFFFFFFFFFFFFFF DUP3 GT OR ISZERO PUSH2 0x33F JUMPI PUSH2 0x33E PUSH2 0x2EA JUMP JUMPDEST JUMPDEST DUP1 PUSH1 0x40 MSTORE POP POP POP JUMP JUMPDEST PUSH0 PUSH2 0x351 PUSH2 0x2D1 JUMP JUMPDEST SWAP1 POP PUSH2 0x35D DUP3 DUP3 PUSH2 0x317 JUMP JUMPDEST SWAP2 SWAP1 POP JUMP JUMPDEST PUSH0 PUSH8 0xFFFFFFFFFFFFFFFF DUP3 GT ISZERO PUSH2 0x37C JUMPI PUSH2 0x37B PUSH2 0x2EA JUMP JUMPDEST JUMPDEST PUSH2 0x385 DUP3 PUSH2 0x22E JUMP JUMPDEST SWAP1 POP PUSH1 0x20 DUP2 ADD SWAP1 POP SWAP2 SWAP1 POP JUMP JUMPDEST DUP3 DUP2 DUP4 CALLDATACOPY PUSH0 DUP4 DUP4 ADD MSTORE POP POP POP JUMP JUMPDEST PUSH0 PUSH2 0x3B2 PUSH2 0x3AD DUP5 PUSH2 0x362 JUMP JUMPDEST PUSH2 0x348 JUMP JUMPDEST SWAP1 POP DUP3 DUP2 MSTORE PUSH1 0x20 DUP2 ADD DUP5 DUP5 DUP5 ADD GT ISZERO PUSH2 0x3CE JUMPI PUSH2 0x3CD PUSH2 0x2E6 JUMP JUMPDEST JUMPDEST PUSH2 0x3D9 DUP5 DUP3 DUP6 PUSH2 0x392 JUMP JUMPDEST POP SWAP4 SWAP3 POP POP POP JUMP JUMPDEST PUSH0 DUP3 PUSH1 0x1F DUP4 ADD SLT PUSH2 0x3F5 JUMPI PUSH2 0x3F4 PUSH2 0x2E2 JUMP JUMPDEST JUMPDEST DUP2 CALLDATALOAD PUSH2 0x405 DUP5 DUP3 PUSH1 0x20 DUP7 ADD PUSH2 0x3A0 JUMP JUMPDEST SWAP2 POP POP SWAP3 SWAP2 POP POP JUMP JUMPDEST PUSH2 0x417 DUP2 PUSH2 0x276 JUMP JUMPDEST DUP2 EQ PUSH2 0x421 JUMPI PUSH0 DUP1 REVERT JUMPDEST POP JUMP JUMPDEST PUSH0 DUP2 CALLDATALOAD SWAP1 POP PUSH2 0x432 DUP2 PUSH2 0x40E JUMP JUMPDEST SWAP3 SWAP2 POP POP JUMP JUMPDEST PUSH0 DUP1 PUSH0 PUSH1 0x60 DUP5 DUP7 SUB SLT ISZERO PUSH2 0x44F JUMPI PUSH2 0x44E PUSH2 0x2DA JUMP JUMPDEST JUMPDEST PUSH0 DUP5 ADD CALLDATALOAD PUSH8 0xFFFFFFFFFFFFFFFF DUP2 GT ISZERO PUSH2 0x46C JUMPI PUSH2 0x46B PUSH2 0x2DE JUMP JUMPDEST JUMPDEST PUSH2 0x478 DUP7 DUP3 DUP8 ADD PUSH2 0x3E1 JUMP JUMPDEST SWAP4 POP POP PUSH1 0x20 DUP5 ADD CALLDATALOAD PUSH8 0xFFFFFFFFFFFFFFFF DUP2 GT ISZERO PUSH2 0x499 JUMPI PUSH2 0x498 PUSH2 0x2DE JUMP JUMPDEST JUMPDEST PUSH2 0x4A5 DUP7 DUP3 DUP8 ADD PUSH2 0x3E1 JUMP JUMPDEST SWAP3 POP POP PUSH1 0x40 PUSH2 0x4B6 DUP7 DUP3 DUP8 ADD PUSH2 0x424 JUMP JUMPDEST SWAP2 POP POP SWAP3 POP SWAP3 POP SWAP3 JUMP JUMPDEST PUSH32 0x4E487B7100000000000000000000000000000000000000000000000000000000 PUSH0 MSTORE PUSH1 0x22 PUSH1 0x4 MSTORE PUSH1 0x24 PUSH0 REVERT JUMPDEST PUSH0 PUSH1 0x2 DUP3 DIV SWAP1 POP PUSH1 0x1 DUP3 AND DUP1 PUSH2 0x504 JUMPI PUSH1 0x7F DUP3 AND SWAP2 POP JUMPDEST PUSH1 0x20 DUP3 LT DUP2 SUB PUSH2 0x517 JUMPI PUSH2 0x516 PUSH2 0x4C0 JUMP JUMPDEST JUMPDEST POP SWAP2 SWAP1 POP JUMP JUMPDEST PUSH0 DUP2 SWAP1 POP DUP2 PUSH0 MSTORE PUSH1 0x20 PUSH0 KECCAK256 SWAP1 POP SWAP2 SWAP1 POP JUMP JUMPDEST PUSH0 PUSH1 0x20 PUSH1 0x1F DUP4 ADD DIV SWAP1 POP SWAP2 SWAP1 POP JUMP JUMPDEST PUSH0 DUP3 DUP3 SHL SWAP1 POP SWAP3 SWAP2 POP POP JUMP JUMPDEST PUSH0 PUSH1 0x8 DUP4 MUL PUSH2 0x579 PUSH32 0xFFFFFFFFFFFFFFFFFFFFFFFFFFFFFFFFFFFFFFFFFFFFFFFFFFFFFFFFFFFFFFFF DUP3 PUSH2 0x53E JUMP JUMPDEST PUSH2 0x583 DUP7 DUP4 PUSH2 0x53E JUMP JUMPDEST SWAP6 POP DUP1 NOT DUP5 AND SWAP4 POP DUP1 DUP7 AND DUP5 OR SWAP3 POP POP POP SWAP4 SWAP3 POP POP POP JUMP JUMPDEST PUSH0 DUP2 SWAP1 POP SWAP2 SWAP1 POP JUMP JUMPDEST PUSH0 PUSH2 0x5BE PUSH2 0x5B9 PUSH2 0x5B4 DUP5 PUSH2 0x276 JUMP JUMPDEST PUSH2 0x59B JUMP JUMPDEST PUSH2 0x276 JUMP JUMPDEST SWAP1 POP SWAP2 SWAP1 POP JUMP JUMPDEST PUSH0 DUP2 SWAP1 POP SWAP2 SWAP1 POP JUMP JUMPDEST PUSH2 0x5D7 DUP4 PUSH2 0x5A4 JUMP JUMPDEST PUSH2 0x5EB PUSH2 0x5E3 DUP3 PUSH2 0x5C5 JUMP JUMPDEST DUP5 DUP5 SLOAD PUSH2 0x54A JUMP JUMPDEST DUP3 SSTORE POP POP POP POP JUMP JUMPDEST PUSH0 SWAP1 JUMP JUMPDEST PUSH2 0x5FF PUSH2 0x5F3 JUMP JUMPDEST PUSH2 0x60A DUP2 DUP5 DUP5 PUSH2 0x5CE JUMP JUMPDEST POP POP POP JUMP JUMPDEST JUMPDEST DUP2 DUP2 LT ISZERO PUSH2 0x62D JUMPI PUSH2 0x622 PUSH0 DUP3 PUSH2 0x5F7 JUMP JUMPDEST PUSH1 0x1 DUP2 ADD SWAP1 POP PUSH2 0x610 JUMP JUMPDEST POP POP JUMP JUMPDEST PUSH1 0x1F DUP3 GT ISZERO PUSH2 0x672 JUMPI PUSH2 0x643 DUP2 PUSH2 0x51D JUMP JUMPDEST PUSH2 0x64C DUP5 PUSH2 0x52F JUMP JUMPDEST DUP2 ADD PUSH1 0x20 DUP6 LT ISZERO PUSH2 0x65B JUMPI DUP2 SWAP1 POP JUMPDEST PUSH2 0x66F PUSH2 0x667 DUP6 PUSH2 0x52F JUMP JUMPDEST DUP4 ADD DUP3 PUSH2 0x60F JUMP JUMPDEST POP POP JUMPDEST POP POP POP JUMP JUMPDEST PUSH0 DUP3 DUP3 SHR SWAP1 POP SWAP3 SWAP2 POP POP JUMP JUMPDEST PUSH0 PUSH2 0x692 PUSH0 NOT DUP5 PUSH1 0x8 MUL PUSH2 0x677 JUMP JUMPDEST NOT DUP1 DUP4 AND SWAP2 POP POP SWAP3 SWAP2 POP POP JUMP JUMPDEST PUSH0 PUSH2 0x6AA DUP4 DUP4 PUSH2 0x683 JUMP JUMPDEST SWAP2 POP DUP3 PUSH1 0x2 MUL DUP3 OR SWAP1 POP SWAP3 SWAP2 POP POP JUMP JUMPDEST PUSH2 0x6C3 DUP3 PUSH2 0x206 JUMP JUMPDEST PUSH8 0xFFFFFFFFFFFFFFFF DUP2 GT ISZERO PUSH2 0x6DC JUMPI PUSH2 0x6DB PUSH2 0x2EA JUMP JUMPDEST JUMPDEST PUSH2 0x6E6 DUP3 SLOAD PUSH2 0x4ED JUMP JUMPDEST PUSH2 0x6F1 DUP3 DUP3 DUP6 PUSH2 0x631 JUMP JUMPDEST PUSH0 PUSH1 0x20 SWAP1 POP PUSH1 0x1F DUP4 GT PUSH1 0x1 DUP2 EQ PUSH2 0x722 JUMPI PUSH0 DUP5 ISZERO PUSH2 0x710 JUMPI DUP3 DUP8 ADD MLOAD SWAP1 POP JUMPDEST PUSH2 0x71A DUP6 DUP3 PUSH2 0x69F JUMP JUMPDEST DUP7 SSTORE POP PUSH2 0x781 JUMP JUMPDEST PUSH1 0x1F NOT DUP5 AND PUSH2 0x730 DUP7 PUSH2 0x51D JUMP JUMPDEST PUSH0 JUMPDEST DUP3 DUP2 LT ISZERO PUSH2 0x757 JUMPI DUP5 DUP10 ADD MLOAD DUP3 SSTORE PUSH1 0x1 DUP3 ADD SWAP2 POP PUSH1 0x20 DUP6 ADD SWAP5 POP PUSH1 0x20 DUP2 ADD SWAP1 POP PUSH2 0x732 JUMP JUMPDEST DUP7 DUP4 LT ISZERO PUSH2 0x774 JUMPI DUP5 DUP10 ADD MLOAD PUSH2 0x770 PUSH1 0x1F DUP10 AND DUP3 PUSH2 0x683 JUMP JUMPDEST DUP4 SSTORE POP JUMPDEST PUSH1 0x1 PUSH1 0x2 DUP9 MUL ADD DUP9 SSTORE POP POP POP JUMPDEST POP POP POP POP POP POP JUMP INVALID LOG2 PUSH5 0x6970667358 0x22 SLT KECCAK256 PUSH24 0x2B6BFFCCF74937CAB56D52219539C4BAE107D58EF774CAEF DUP1 PUSH24 0x568707093E64736F6C634300081A00330000000000000000 "
				},
				"gasEstimates": {
					"creation": {
						"codeDepositCost": "396600",
						"executionCost": "428",
						"totalCost": "397028"
					},
					"external": {
						"createPropertyInfo(string,string,uint256)": "infinite",
						"details()": "infinite"
					}
				},
				"methodIdentifiers": {
					"createPropertyInfo(string,string,uint256)": "ace807ed",
					"details()": "565974d3"
				}
			},
			"storageLayout": {
				"storage": [
					{
						"astId": 11,
						"contract": "contracts/Property.sol:Property",
						"label": "info",
						"offset": 0,
						"slot": "0",
						"type": "t_struct(PropertyInfo)8_storage"
					}
				],
				"types": {
					"t_string_storage": {
						"encoding": "bytes",
						"label": "string",
						"numberOfBytes": "32"
					},
					"t_struct(PropertyInfo)8_storage": {
						"encoding": "inplace",
						"label": "struct PropertyInfo",
						"members": [
							{
								"astId": 3,
								"contract": "contracts/Property.sol:Property",
								"label": "OwnerName",
								"offset": 0,
								"slot": "0",
								"type": "t_string_storage"
							},
							{
								"astId": 5,
								"contract": "contracts/Property.sol:Property",
								"label": "Address",
								"offset": 0,
								"slot": "1",
								"type": "t_string_storage"
							},
							{
								"astId": 7,
								"contract": "contracts/Property.sol:Property",
								"label": "Price",
								"offset": 0,
								"slot": "2",
								"type": "t_uint256"
							}
						],
						"numberOfBytes": "96"
					},
					"t_uint256": {
						"encoding": "inplace",
						"label": "uint256",
						"numberOfBytes": "32"
					}
				}
			},
			"userdoc": {
				"kind": "user",
				"methods": {},
				"version": 1
			}
		}
	}
}