{
	"contracts/SimpleStorage.sol": {
		"SimpleStorage": {
			"abi": [
				{
					"inputs": [
						{
							"internalType": "string",
							"name": "_name",
							"type": "string"
						},
						{
							"internalType": "uint256",
							"name": "_favoriteNumber",
							"type": "uint256"
						}
					],
					"name": "addPerson",
					"outputs": [],
					"stateMutability": "nonpayable",
					"type": "function"
				},
				{
					"inputs": [],
					"name": "favoriteNumber",
					"outputs": [
						{
							"internalType": "uint256",
							"name": "",
							"type": "uint256"
						}
					],
					"stateMutability": "view",
					"type": "function"
				},
				{
					"inputs": [
						{
							"internalType": "string",
							"name": "",
							"type": "string"
						}
					],
					"name": "nameToFavoriteNumber",
					"outputs": [
						{
							"internalType": "uint256",
							"name": "",
							"type": "uint256"
						}
					],
					"stateMutability": "view",
					"type": "function"
				},
				{
					"inputs": [
						{
							"internalType": "uint256",
							"name": "",
							"type": "uint256"
						}
					],
					"name": "people",
					"outputs": [
						{
							"internalType": "uint256",
							"name": "favoriteNumber",
							"type": "uint256"
						},
						{
							"internalType": "string",
							"name": "name",
							"type": "string"
						}
					],
					"stateMutability": "view",
					"type": "function"
				},
				{
					"inputs": [],
					"name": "pull",
					"outputs": [
						{
							"internalType": "uint256",
							"name": "",
							"type": "uint256"
						}
					],
					"stateMutability": "view",
					"type": "function"
				},
				{
					"inputs": [
						{
							"internalType": "uint256",
							"name": "_favNumber",
							"type": "uint256"
						}
					],
					"name": "store",
					"outputs": [],
					"stateMutability": "nonpayable",
					"type": "function"
				}
			],
			"devdoc": {
				"kind": "dev",
				"methods": {},
				"version": 1
			},
			"evm": {
				"assembly": "    /* \"contracts/SimpleStorage.sol\":57:1451  contract SimpleStorage {... */\n  mstore(0x40, 0x80)\n    /* \"contracts/SimpleStorage.sol\":111:115  true */\n  0x01\n    /* \"contracts/SimpleStorage.sol\":86:115  bool hasFavoriteNumber = true */\n  0x00\n  dup1\n  0x0100\n  exp\n  dup2\n  sload\n  dup2\n  0xff\n  mul\n  not\n  and\n  swap1\n  dup4\n  iszero\n  iszero\n  mul\n  or\n  swap1\n  sstore\n  pop\n    /* \"contracts/SimpleStorage.sol\":121:162  string favoriteNumberInText = \"some text\" */\n  mload(0x40)\n  dup1\n  0x40\n  add\n  0x40\n  mstore\n  dup1\n  0x09\n  dup2\n  mstore\n  0x20\n  add\n  0x736f6d6520746578740000000000000000000000000000000000000000000000\n  dup2\n  mstore\n  pop\n  0x01\n  swap1\n  dup2\n  tag_1\n  swap2\n  swap1\n  tag_2\n  jump\t// in\ntag_1:\n  pop\n    /* \"contracts/SimpleStorage.sol\":200:201  6 */\n  0x06\n    /* \"contracts/SimpleStorage.sol\":168:201  uint256 public favoriteNumber = 6 */\n  0x02\n  sstore\n    /* \"contracts/SimpleStorage.sol\":228:230  -6 */\n  0xfffffffffffffffffffffffffffffffffffffffffffffffffffffffffffffffa\n    /* \"contracts/SimpleStorage.sol\":207:230  int256 favoriteInt = -6 */\n  0x03\n  sstore\n    /* \"contracts/SimpleStorage.sol\":256:298  0xec0ff344109662FEE9F63a0C9D425aFa3FB407ec */\n  0xec0ff344109662fee9f63a0c9d425afa3fb407ec\n    /* \"contracts/SimpleStorage.sol\":236:298  address myAddress = 0xec0ff344109662FEE9F63a0C9D425aFa3FB407ec */\n  0x04\n  exp(0x0100, 0x00)\n  dup2\n  sload\n  dup2\n  0xffffffffffffffffffffffffffffffffffffffff\n  mul\n  not\n  and\n  swap1\n  dup4\n  0xffffffffffffffffffffffffffffffffffffffff\n  and\n  mul\n  or\n  swap1\n  sstore\n  pop\n    /* \"contracts/SimpleStorage.sol\":57:1451  contract SimpleStorage {... */\n  callvalue\n  dup1\n  iszero\n  tag_3\n  jumpi\n  0x00\n  dup1\n  revert\ntag_3:\n  pop\n  jump(tag_4)\n    /* \"#utility.yul\":7:106   */\ntag_5:\n    /* \"#utility.yul\":59:65   */\n  0x00\n    /* \"#utility.yul\":93:98   */\n  dup2\n    /* \"#utility.yul\":87:99   */\n  mload\n    /* \"#utility.yul\":77:99   */\n  swap1\n  pop\n    /* \"#utility.yul\":7:106   */\n  swap2\n  swap1\n  pop\n  jump\t// out\n    /* \"#utility.yul\":112:292   */\ntag_6:\n    /* \"#utility.yul\":160:237   */\n  0x4e487b7100000000000000000000000000000000000000000000000000000000\n    /* \"#utility.yul\":157:158   */\n  0x00\n    /* \"#utility.yul\":150:238   */\n  mstore\n    /* \"#utility.yul\":257:261   */\n  0x41\n    /* \"#utility.yul\":254:255   */\n  0x04\n    /* \"#utility.yul\":247:262   */\n  mstore\n    /* \"#utility.yul\":281:285   */\n  0x24\n    /* \"#utility.yul\":278:279   */\n  0x00\n    /* \"#utility.yul\":271:286   */\n  revert\n    /* \"#utility.yul\":298:478   */\ntag_7:\n    /* \"#utility.yul\":346:423   */\n  0x4e487b7100000000000000000000000000000000000000000000000000000000\n    /* \"#utility.yul\":343:344   */\n  0x00\n    /* \"#utility.yul\":336:424   */\n  mstore\n    /* \"#utility.yul\":443:447   */\n  0x22\n    /* \"#utility.yul\":440:441   */\n  0x04\n    /* \"#utility.yul\":433:448   */\n  mstore\n    /* \"#utility.yul\":467:471   */\n  0x24\n    /* \"#utility.yul\":464:465   */\n  0x00\n    /* \"#utility.yul\":457:472   */\n  revert\n    /* \"#utility.yul\":484:804   */\ntag_8:\n    /* \"#utility.yul\":528:534   */\n  0x00\n    /* \"#utility.yul\":565:566   */\n  0x02\n    /* \"#utility.yul\":559:563   */\n  dup3\n    /* \"#utility.yul\":555:567   */\n  div\n    /* \"#utility.yul\":545:567   */\n  swap1\n  pop\n    /* \"#utility.yul\":612:613   */\n  0x01\n    /* \"#utility.yul\":606:610   */\n  dup3\n    /* \"#utility.yul\":602:614   */\n  and\n    /* \"#utility.yul\":633:651   */\n  dup1\n    /* \"#utility.yul\":623:704   */\n  tag_30\n  jumpi\n    /* \"#utility.yul\":689:693   */\n  0x7f\n    /* \"#utility.yul\":681:687   */\n  dup3\n    /* \"#utility.yul\":677:694   */\n  and\n    /* \"#utility.yul\":667:694   */\n  swap2\n  pop\n    /* \"#utility.yul\":623:704   */\ntag_30:\n    /* \"#utility.yul\":751:753   */\n  0x20\n    /* \"#utility.yul\":743:749   */\n  dup3\n    /* \"#utility.yul\":740:754   */\n  lt\n    /* \"#utility.yul\":720:738   */\n  dup2\n    /* \"#utility.yul\":717:755   */\n  sub\n    /* \"#utility.yul\":714:798   */\n  tag_31\n  jumpi\n    /* \"#utility.yul\":770:788   */\n  tag_32\n  tag_7\n  jump\t// in\ntag_32:\n    /* \"#utility.yul\":714:798   */\ntag_31:\n    /* \"#utility.yul\":535:804   */\n  pop\n    /* \"#utility.yul\":484:804   */\n  swap2\n  swap1\n  pop\n  jump\t// out\n    /* \"#utility.yul\":810:951   */\ntag_9:\n    /* \"#utility.yul\":859:863   */\n  0x00\n    /* \"#utility.yul\":882:885   */\n  dup2\n    /* \"#utility.yul\":874:885   */\n  swap1\n  pop\n    /* \"#utility.yul\":905:908   */\n  dup2\n    /* \"#utility.yul\":902:903   */\n  0x00\n    /* \"#utility.yul\":895:909   */\n  mstore\n    /* \"#utility.yul\":939:943   */\n  0x20\n    /* \"#utility.yul\":936:937   */\n  0x00\n    /* \"#utility.yul\":926:944   */\n  keccak256\n    /* \"#utility.yul\":918:944   */\n  swap1\n  pop\n    /* \"#utility.yul\":810:951   */\n  swap2\n  swap1\n  pop\n  jump\t// out\n    /* \"#utility.yul\":957:1050   */\ntag_10:\n    /* \"#utility.yul\":994:1000   */\n  0x00\n    /* \"#utility.yul\":1041:1043   */\n  0x20\n    /* \"#utility.yul\":1036:1038   */\n  0x1f\n    /* \"#utility.yul\":1029:1034   */\n  dup4\n    /* \"#utility.yul\":1025:1039   */\n  add\n    /* \"#utility.yul\":1021:1044   */\n  div\n    /* \"#utility.yul\":1011:1044   */\n  swap1\n  pop\n    /* \"#utility.yul\":957:1050   */\n  swap2\n  swap1\n  pop\n  jump\t// out\n    /* \"#utility.yul\":1056:1163   */\ntag_11:\n    /* \"#utility.yul\":1100:1108   */\n  0x00\n    /* \"#utility.yul\":1150:1155   */\n  dup3\n    /* \"#utility.yul\":1144:1148   */\n  dup3\n    /* \"#utility.yul\":1140:1156   */\n  shl\n    /* \"#utility.yul\":1119:1156   */\n  swap1\n  pop\n    /* \"#utility.yul\":1056:1163   */\n  swap3\n  swap2\n  pop\n  pop\n  jump\t// out\n    /* \"#utility.yul\":1169:1562   */\ntag_12:\n    /* \"#utility.yul\":1238:1244   */\n  0x00\n    /* \"#utility.yul\":1288:1289   */\n  0x08\n    /* \"#utility.yul\":1276:1286   */\n  dup4\n    /* \"#utility.yul\":1272:1290   */\n  mul\n    /* \"#utility.yul\":1311:1408   */\n  tag_37\n    /* \"#utility.yul\":1341:1407   */\n  0xffffffffffffffffffffffffffffffffffffffffffffffffffffffffffffffff\n    /* \"#utility.yul\":1330:1339   */\n  dup3\n    /* \"#utility.yul\":1311:1408   */\n  tag_11\n  jump\t// in\ntag_37:\n    /* \"#utility.yul\":1429:1468   */\n  tag_38\n    /* \"#utility.yul\":1459:1467   */\n  dup7\n    /* \"#utility.yul\":1448:1457   */\n  dup4\n    /* \"#utility.yul\":1429:1468   */\n  tag_11\n  jump\t// in\ntag_38:\n    /* \"#utility.yul\":1417:1468   */\n  swap6\n  pop\n    /* \"#utility.yul\":1501:1505   */\n  dup1\n    /* \"#utility.yul\":1497:1506   */\n  not\n    /* \"#utility.yul\":1490:1495   */\n  dup5\n    /* \"#utility.yul\":1486:1507   */\n  and\n    /* \"#utility.yul\":1477:1507   */\n  swap4\n  pop\n    /* \"#utility.yul\":1550:1554   */\n  dup1\n    /* \"#utility.yul\":1540:1548   */\n  dup7\n    /* \"#utility.yul\":1536:1555   */\n  and\n    /* \"#utility.yul\":1529:1534   */\n  dup5\n    /* \"#utility.yul\":1526:1556   */\n  or\n    /* \"#utility.yul\":1516:1556   */\n  swap3\n  pop\n    /* \"#utility.yul\":1245:1562   */\n  pop\n  pop\n    /* \"#utility.yul\":1169:1562   */\n  swap4\n  swap3\n  pop\n  pop\n  pop\n  jump\t// out\n    /* \"#utility.yul\":1568:1645   */\ntag_13:\n    /* \"#utility.yul\":1605:1612   */\n  0x00\n    /* \"#utility.yul\":1634:1639   */\n  dup2\n    /* \"#utility.yul\":1623:1639   */\n  swap1\n  pop\n    /* \"#utility.yul\":1568:1645   */\n  swap2\n  swap1\n  pop\n  jump\t// out\n    /* \"#utility.yul\":1651:1711   */\ntag_14:\n    /* \"#utility.yul\":1679:1682   */\n  0x00\n    /* \"#utility.yul\":1700:1705   */\n  dup2\n    /* \"#utility.yul\":1693:1705   */\n  swap1\n  pop\n    /* \"#utility.yul\":1651:1711   */\n  swap2\n  swap1\n  pop\n  jump\t// out\n    /* \"#utility.yul\":1717:1859   */\ntag_15:\n    /* \"#utility.yul\":1767:1776   */\n  0x00\n    /* \"#utility.yul\":1800:1853   */\n  tag_42\n    /* \"#utility.yul\":1818:1852   */\n  tag_43\n    /* \"#utility.yul\":1827:1851   */\n  tag_44\n    /* \"#utility.yul\":1845:1850   */\n  dup5\n    /* \"#utility.yul\":1827:1851   */\n  tag_13\n  jump\t// in\ntag_44:\n    /* \"#utility.yul\":1818:1852   */\n  tag_14\n  jump\t// in\ntag_43:\n    /* \"#utility.yul\":1800:1853   */\n  tag_13\n  jump\t// in\ntag_42:\n    /* \"#utility.yul\":1787:1853   */\n  swap1\n  pop\n    /* \"#utility.yul\":1717:1859   */\n  swap2\n  swap1\n  pop\n  jump\t// out\n    /* \"#utility.yul\":1865:1940   */\ntag_16:\n    /* \"#utility.yul\":1908:1911   */\n  0x00\n    /* \"#utility.yul\":1929:1934   */\n  dup2\n    /* \"#utility.yul\":1922:1934   */\n  swap1\n  pop\n    /* \"#utility.yul\":1865:1940   */\n  swap2\n  swap1\n  pop\n  jump\t// out\n    /* \"#utility.yul\":1946:2215   */\ntag_17:\n    /* \"#utility.yul\":2056:2095   */\n  tag_47\n    /* \"#utility.yul\":2087:2094   */\n  dup4\n    /* \"#utility.yul\":2056:2095   */\n  tag_15\n  jump\t// in\ntag_47:\n    /* \"#utility.yul\":2117:2208   */\n  tag_48\n    /* \"#utility.yul\":2166:2207   */\n  tag_49\n    /* \"#utility.yul\":2190:2206   */\n  dup3\n    /* \"#utility.yul\":2166:2207   */\n  tag_16\n  jump\t// in\ntag_49:\n    /* \"#utility.yul\":2158:2164   */\n  dup5\n    /* \"#utility.yul\":2151:2155   */\n  dup5\n    /* \"#utility.yul\":2145:2156   */\n  sload\n    /* \"#utility.yul\":2117:2208   */\n  tag_12\n  jump\t// in\ntag_48:\n    /* \"#utility.yul\":2111:2115   */\n  dup3\n    /* \"#utility.yul\":2104:2209   */\n  sstore\n    /* \"#utility.yul\":2022:2215   */\n  pop\n    /* \"#utility.yul\":1946:2215   */\n  pop\n  pop\n  pop\n  jump\t// out\n    /* \"#utility.yul\":2221:2294   */\ntag_18:\n    /* \"#utility.yul\":2266:2269   */\n  0x00\n    /* \"#utility.yul\":2221:2294   */\n  swap1\n  jump\t// out\n    /* \"#utility.yul\":2300:2489   */\ntag_19:\n    /* \"#utility.yul\":2377:2409   */\n  tag_52\n  tag_18\n  jump\t// in\ntag_52:\n    /* \"#utility.yul\":2418:2483   */\n  tag_53\n    /* \"#utility.yul\":2476:2482   */\n  dup2\n    /* \"#utility.yul\":2468:2474   */\n  dup5\n    /* \"#utility.yul\":2462:2466   */\n  dup5\n    /* \"#utility.yul\":2418:2483   */\n  tag_17\n  jump\t// in\ntag_53:\n    /* \"#utility.yul\":2353:2489   */\n  pop\n    /* \"#utility.yul\":2300:2489   */\n  pop\n  pop\n  jump\t// out\n    /* \"#utility.yul\":2495:2681   */\ntag_20:\n    /* \"#utility.yul\":2555:2675   */\ntag_55:\n    /* \"#utility.yul\":2572:2575   */\n  dup2\n    /* \"#utility.yul\":2565:2570   */\n  dup2\n    /* \"#utility.yul\":2562:2576   */\n  lt\n    /* \"#utility.yul\":2555:2675   */\n  iszero\n  tag_57\n  jumpi\n    /* \"#utility.yul\":2626:2665   */\n  tag_58\n    /* \"#utility.yul\":2663:2664   */\n  0x00\n    /* \"#utility.yul\":2656:2661   */\n  dup3\n    /* \"#utility.yul\":2626:2665   */\n  tag_19\n  jump\t// in\ntag_58:\n    /* \"#utility.yul\":2599:2600   */\n  0x01\n    /* \"#utility.yul\":2592:2597   */\n  dup2\n    /* \"#utility.yul\":2588:2601   */\n  add\n    /* \"#utility.yul\":2579:2601   */\n  swap1\n  pop\n    /* \"#utility.yul\":2555:2675   */\n  jump(tag_55)\ntag_57:\n    /* \"#utility.yul\":2495:2681   */\n  pop\n  pop\n  jump\t// out\n    /* \"#utility.yul\":2687:3230   */\ntag_21:\n    /* \"#utility.yul\":2788:2790   */\n  0x1f\n    /* \"#utility.yul\":2783:2786   */\n  dup3\n    /* \"#utility.yul\":2780:2791   */\n  gt\n    /* \"#utility.yul\":2777:3223   */\n  iszero\n  tag_60\n  jumpi\n    /* \"#utility.yul\":2822:2860   */\n  tag_61\n    /* \"#utility.yul\":2854:2859   */\n  dup2\n    /* \"#utility.yul\":2822:2860   */\n  tag_9\n  jump\t// in\ntag_61:\n    /* \"#utility.yul\":2906:2935   */\n  tag_62\n    /* \"#utility.yul\":2924:2934   */\n  dup5\n    /* \"#utility.yul\":2906:2935   */\n  tag_10\n  jump\t// in\ntag_62:\n    /* \"#utility.yul\":2896:2904   */\n  dup2\n    /* \"#utility.yul\":2892:2936   */\n  add\n    /* \"#utility.yul\":3089:3091   */\n  0x20\n    /* \"#utility.yul\":3077:3087   */\n  dup6\n    /* \"#utility.yul\":3074:3092   */\n  lt\n    /* \"#utility.yul\":3071:3120   */\n  iszero\n  tag_63\n  jumpi\n    /* \"#utility.yul\":3110:3118   */\n  dup2\n    /* \"#utility.yul\":3095:3118   */\n  swap1\n  pop\n    /* \"#utility.yul\":3071:3120   */\ntag_63:\n    /* \"#utility.yul\":3133:3213   */\n  tag_64\n    /* \"#utility.yul\":3189:3211   */\n  tag_65\n    /* \"#utility.yul\":3207:3210   */\n  dup6\n    /* \"#utility.yul\":3189:3211   */\n  tag_10\n  jump\t// in\ntag_65:\n    /* \"#utility.yul\":3179:3187   */\n  dup4\n    /* \"#utility.yul\":3175:3212   */\n  add\n    /* \"#utility.yul\":3162:3173   */\n  dup3\n    /* \"#utility.yul\":3133:3213   */\n  tag_20\n  jump\t// in\ntag_64:\n    /* \"#utility.yul\":2792:3223   */\n  pop\n  pop\n    /* \"#utility.yul\":2777:3223   */\ntag_60:\n    /* \"#utility.yul\":2687:3230   */\n  pop\n  pop\n  pop\n  jump\t// out\n    /* \"#utility.yul\":3236:3353   */\ntag_22:\n    /* \"#utility.yul\":3290:3298   */\n  0x00\n    /* \"#utility.yul\":3340:3345   */\n  dup3\n    /* \"#utility.yul\":3334:3338   */\n  dup3\n    /* \"#utility.yul\":3330:3346   */\n  shr\n    /* \"#utility.yul\":3309:3346   */\n  swap1\n  pop\n    /* \"#utility.yul\":3236:3353   */\n  swap3\n  swap2\n  pop\n  pop\n  jump\t// out\n    /* \"#utility.yul\":3359:3528   */\ntag_23:\n    /* \"#utility.yul\":3403:3409   */\n  0x00\n    /* \"#utility.yul\":3436:3487   */\n  tag_68\n    /* \"#utility.yul\":3484:3485   */\n  0x00\n    /* \"#utility.yul\":3480:3486   */\n  not\n    /* \"#utility.yul\":3472:3477   */\n  dup5\n    /* \"#utility.yul\":3469:3470   */\n  0x08\n    /* \"#utility.yul\":3465:3478   */\n  mul\n    /* \"#utility.yul\":3436:3487   */\n  tag_22\n  jump\t// in\ntag_68:\n    /* \"#utility.yul\":3432:3488   */\n  not\n    /* \"#utility.yul\":3517:3521   */\n  dup1\n    /* \"#utility.yul\":3511:3515   */\n  dup4\n    /* \"#utility.yul\":3507:3522   */\n  and\n    /* \"#utility.yul\":3497:3522   */\n  swap2\n  pop\n    /* \"#utility.yul\":3410:3528   */\n  pop\n    /* \"#utility.yul\":3359:3528   */\n  swap3\n  swap2\n  pop\n  pop\n  jump\t// out\n    /* \"#utility.yul\":3533:3828   */\ntag_24:\n    /* \"#utility.yul\":3609:3613   */\n  0x00\n    /* \"#utility.yul\":3755:3784   */\n  tag_70\n    /* \"#utility.yul\":3780:3783   */\n  dup4\n    /* \"#utility.yul\":3774:3778   */\n  dup4\n    /* \"#utility.yul\":3755:3784   */\n  tag_23\n  jump\t// in\ntag_70:\n    /* \"#utility.yul\":3747:3784   */\n  swap2\n  pop\n    /* \"#utility.yul\":3817:3820   */\n  dup3\n    /* \"#utility.yul\":3814:3815   */\n  0x02\n    /* \"#utility.yul\":3810:3821   */\n  mul\n    /* \"#utility.yul\":3804:3808   */\n  dup3\n    /* \"#utility.yul\":3801:3822   */\n  or\n    /* \"#utility.yul\":3793:3822   */\n  swap1\n  pop\n    /* \"#utility.yul\":3533:3828   */\n  swap3\n  swap2\n  pop\n  pop\n  jump\t// out\n    /* \"#utility.yul\":3833:5228   */\ntag_2:\n    /* \"#utility.yul\":3950:3987   */\n  tag_72\n    /* \"#utility.yul\":3983:3986   */\n  dup3\n    /* \"#utility.yul\":3950:3987   */\n  tag_5\n  jump\t// in\ntag_72:\n    /* \"#utility.yul\":4052:4070   */\n  0xffffffffffffffff\n    /* \"#utility.yul\":4044:4050   */\n  dup2\n    /* \"#utility.yul\":4041:4071   */\n  gt\n    /* \"#utility.yul\":4038:4094   */\n  iszero\n  tag_73\n  jumpi\n    /* \"#utility.yul\":4074:4092   */\n  tag_74\n  tag_6\n  jump\t// in\ntag_74:\n    /* \"#utility.yul\":4038:4094   */\ntag_73:\n    /* \"#utility.yul\":4118:4156   */\n  tag_75\n    /* \"#utility.yul\":4150:4154   */\n  dup3\n    /* \"#utility.yul\":4144:4155   */\n  sload\n    /* \"#utility.yul\":4118:4156   */\n  tag_8\n  jump\t// in\ntag_75:\n    /* \"#utility.yul\":4203:4270   */\n  tag_76\n    /* \"#utility.yul\":4263:4269   */\n  dup3\n    /* \"#utility.yul\":4255:4261   */\n  dup3\n    /* \"#utility.yul\":4249:4253   */\n  dup6\n    /* \"#utility.yul\":4203:4270   */\n  tag_21\n  jump\t// in\ntag_76:\n    /* \"#utility.yul\":4297:4298   */\n  0x00\n    /* \"#utility.yul\":4321:4325   */\n  0x20\n    /* \"#utility.yul\":4308:4325   */\n  swap1\n  pop\n    /* \"#utility.yul\":4353:4355   */\n  0x1f\n    /* \"#utility.yul\":4345:4351   */\n  dup4\n    /* \"#utility.yul\":4342:4356   */\n  gt\n    /* \"#utility.yul\":4370:4371   */\n  0x01\n    /* \"#utility.yul\":4365:4983   */\n  dup2\n  eq\n  tag_78\n  jumpi\n    /* \"#utility.yul\":5027:5028   */\n  0x00\n    /* \"#utility.yul\":5044:5050   */\n  dup5\n    /* \"#utility.yul\":5041:5118   */\n  iszero\n  tag_79\n  jumpi\n    /* \"#utility.yul\":5093:5102   */\n  dup3\n    /* \"#utility.yul\":5088:5091   */\n  dup8\n    /* \"#utility.yul\":5084:5103   */\n  add\n    /* \"#utility.yul\":5078:5104   */\n  mload\n    /* \"#utility.yul\":5069:5104   */\n  swap1\n  pop\n    /* \"#utility.yul\":5041:5118   */\ntag_79:\n    /* \"#utility.yul\":5144:5211   */\n  tag_80\n    /* \"#utility.yul\":5204:5210   */\n  dup6\n    /* \"#utility.yul\":5197:5202   */\n  dup3\n    /* \"#utility.yul\":5144:5211   */\n  tag_24\n  jump\t// in\ntag_80:\n    /* \"#utility.yul\":5138:5142   */\n  dup7\n    /* \"#utility.yul\":5131:5212   */\n  sstore\n    /* \"#utility.yul\":5000:5222   */\n  pop\n    /* \"#utility.yul\":4335:5222   */\n  jump(tag_77)\n    /* \"#utility.yul\":4365:4983   */\ntag_78:\n    /* \"#utility.yul\":4417:4421   */\n  0x1f\n    /* \"#utility.yul\":4413:4422   */\n  not\n    /* \"#utility.yul\":4405:4411   */\n  dup5\n    /* \"#utility.yul\":4401:4423   */\n  and\n    /* \"#utility.yul\":4451:4488   */\n  tag_81\n    /* \"#utility.yul\":4483:4487   */\n  dup7\n    /* \"#utility.yul\":4451:4488   */\n  tag_9\n  jump\t// in\ntag_81:\n    /* \"#utility.yul\":4510:4511   */\n  0x00\n    /* \"#utility.yul\":4524:4732   */\ntag_82:\n    /* \"#utility.yul\":4538:4545   */\n  dup3\n    /* \"#utility.yul\":4535:4536   */\n  dup2\n    /* \"#utility.yul\":4532:4546   */\n  lt\n    /* \"#utility.yul\":4524:4732   */\n  iszero\n  tag_84\n  jumpi\n    /* \"#utility.yul\":4617:4626   */\n  dup5\n    /* \"#utility.yul\":4612:4615   */\n  dup10\n    /* \"#utility.yul\":4608:4627   */\n  add\n    /* \"#utility.yul\":4602:4628   */\n  mload\n    /* \"#utility.yul\":4594:4600   */\n  dup3\n    /* \"#utility.yul\":4587:4629   */\n  sstore\n    /* \"#utility.yul\":4668:4669   */\n  0x01\n    /* \"#utility.yul\":4660:4666   */\n  dup3\n    /* \"#utility.yul\":4656:4670   */\n  add\n    /* \"#utility.yul\":4646:4670   */\n  swap2\n  pop\n    /* \"#utility.yul\":4715:4717   */\n  0x20\n    /* \"#utility.yul\":4704:4713   */\n  dup6\n    /* \"#utility.yul\":4700:4718   */\n  add\n    /* \"#utility.yul\":4687:4718   */\n  swap5\n  pop\n    /* \"#utility.yul\":4561:4565   */\n  0x20\n    /* \"#utility.yul\":4558:4559   */\n  dup2\n    /* \"#utility.yul\":4554:4566   */\n  add\n    /* \"#utility.yul\":4549:4566   */\n  swap1\n  pop\n    /* \"#utility.yul\":4524:4732   */\n  jump(tag_82)\ntag_84:\n    /* \"#utility.yul\":4760:4766   */\n  dup7\n    /* \"#utility.yul\":4751:4758   */\n  dup4\n    /* \"#utility.yul\":4748:4767   */\n  lt\n    /* \"#utility.yul\":4745:4924   */\n  iszero\n  tag_85\n  jumpi\n    /* \"#utility.yul\":4818:4827   */\n  dup5\n    /* \"#utility.yul\":4813:4816   */\n  dup10\n    /* \"#utility.yul\":4809:4828   */\n  add\n    /* \"#utility.yul\":4803:4829   */\n  mload\n    /* \"#utility.yul\":4861:4909   */\n  tag_86\n    /* \"#utility.yul\":4903:4907   */\n  0x1f\n    /* \"#utility.yul\":4895:4901   */\n  dup10\n    /* \"#utility.yul\":4891:4908   */\n  and\n    /* \"#utility.yul\":4880:4889   */\n  dup3\n    /* \"#utility.yul\":4861:4909   */\n  tag_23\n  jump\t// in\ntag_86:\n    /* \"#utility.yul\":4853:4859   */\n  dup4\n    /* \"#utility.yul\":4846:4910   */\n  sstore\n    /* \"#utility.yul\":4768:4924   */\n  pop\n    /* \"#utility.yul\":4745:4924   */\ntag_85:\n    /* \"#utility.yul\":4970:4971   */\n  0x01\n    /* \"#utility.yul\":4966:4967   */\n  0x02\n    /* \"#utility.yul\":4958:4964   */\n  dup9\n    /* \"#utility.yul\":4954:4968   */\n  mul\n    /* \"#utility.yul\":4950:4972   */\n  add\n    /* \"#utility.yul\":4944:4948   */\n  dup9\n    /* \"#utility.yul\":4937:4973   */\n  sstore\n    /* \"#utility.yul\":4372:4983   */\n  pop\n  pop\n  pop\n    /* \"#utility.yul\":4335:5222   */\ntag_77:\n  pop\n    /* \"#utility.yul\":3925:5228   */\n  pop\n  pop\n  pop\n    /* \"#utility.yul\":3833:5228   */\n  pop\n  pop\n  jump\t// out\n    /* \"contracts/SimpleStorage.sol\":57:1451  contract SimpleStorage {... */\ntag_4:\n  dataSize(sub_0)\n  dup1\n  dataOffset(sub_0)\n  0x00\n  codecopy\n  0x00\n  return\nstop\n\nsub_0: assembly {\n        /* \"contracts/SimpleStorage.sol\":57:1451  contract SimpleStorage {... */\n      mstore(0x40, 0x80)\n      callvalue\n      dup1\n      iszero\n      tag_1\n      jumpi\n      0x00\n      dup1\n      revert\n    tag_1:\n      pop\n      jumpi(tag_2, lt(calldatasize, 0x04))\n      shr(0xe0, calldataload(0x00))\n      dup1\n      0x329eb839\n      eq\n      tag_3\n      jumpi\n      dup1\n      0x471f7cdf\n      eq\n      tag_4\n      jumpi\n      dup1\n      0x6057361d\n      eq\n      tag_5\n      jumpi\n      dup1\n      0x6f760f41\n      eq\n      tag_6\n      jumpi\n      dup1\n      0x8bab8dd5\n      eq\n      tag_7\n      jumpi\n      dup1\n      0x9e7a13ad\n      eq\n      tag_8\n      jumpi\n    tag_2:\n      0x00\n      dup1\n      revert\n        /* \"contracts/SimpleStorage.sol\":749:833  function pull() public view returns (uint256) {... */\n    tag_3:\n      tag_9\n      tag_10\n      jump\t// in\n    tag_9:\n      mload(0x40)\n      tag_11\n      swap2\n      swap1\n      tag_12\n      jump\t// in\n    tag_11:\n      mload(0x40)\n      dup1\n      swap2\n      sub\n      swap1\n      return\n        /* \"contracts/SimpleStorage.sol\":168:201  uint256 public favoriteNumber = 6 */\n    tag_4:\n      tag_13\n      tag_14\n      jump\t// in\n    tag_13:\n      mload(0x40)\n      tag_15\n      swap2\n      swap1\n      tag_12\n      jump\t// in\n    tag_15:\n      mload(0x40)\n      dup1\n      swap2\n      sub\n      swap1\n      return\n        /* \"contracts/SimpleStorage.sol\":555:657  function store(uint256 _favNumber) public {... */\n    tag_5:\n      tag_16\n      0x04\n      dup1\n      calldatasize\n      sub\n      dup2\n      add\n      swap1\n      tag_17\n      swap2\n      swap1\n      tag_18\n      jump\t// in\n    tag_17:\n      tag_19\n      jump\t// in\n    tag_16:\n      stop\n        /* \"contracts/SimpleStorage.sol\":1197:1449  function addPerson(string memory _name, uint256 _favoriteNumber) public{... */\n    tag_6:\n      tag_20\n      0x04\n      dup1\n      calldatasize\n      sub\n      dup2\n      add\n      swap1\n      tag_21\n      swap2\n      swap1\n      tag_22\n      jump\t// in\n    tag_21:\n      tag_23\n      jump\t// in\n    tag_20:\n      stop\n        /* \"contracts/SimpleStorage.sol\":385:439  mapping(string => uint256) public nameToFavoriteNumber */\n    tag_7:\n      tag_24\n      0x04\n      dup1\n      calldatasize\n      sub\n      dup2\n      add\n      swap1\n      tag_25\n      swap2\n      swap1\n      tag_26\n      jump\t// in\n    tag_25:\n      tag_27\n      jump\t// in\n    tag_24:\n      mload(0x40)\n      tag_28\n      swap2\n      swap1\n      tag_12\n      jump\t// in\n    tag_28:\n      mload(0x40)\n      dup1\n      swap2\n      sub\n      swap1\n      return\n        /* \"contracts/SimpleStorage.sol\":526:548  People[] public people */\n    tag_8:\n      tag_29\n      0x04\n      dup1\n      calldatasize\n      sub\n      dup2\n      add\n      swap1\n      tag_30\n      swap2\n      swap1\n      tag_18\n      jump\t// in\n    tag_30:\n      tag_31\n      jump\t// in\n    tag_29:\n      mload(0x40)\n      tag_32\n      swap3\n      swap2\n      swap1\n      tag_33\n      jump\t// in\n    tag_32:\n      mload(0x40)\n      dup1\n      swap2\n      sub\n      swap1\n      return\n        /* \"contracts/SimpleStorage.sol\":749:833  function pull() public view returns (uint256) {... */\n    tag_10:\n        /* \"contracts/SimpleStorage.sol\":786:793  uint256 */\n      0x00\n        /* \"contracts/SimpleStorage.sol\":812:826  favoriteNumber */\n      sload(0x02)\n        /* \"contracts/SimpleStorage.sol\":805:826  return favoriteNumber */\n      swap1\n      pop\n        /* \"contracts/SimpleStorage.sol\":749:833  function pull() public view returns (uint256) {... */\n      swap1\n      jump\t// out\n        /* \"contracts/SimpleStorage.sol\":168:201  uint256 public favoriteNumber = 6 */\n    tag_14:\n      sload(0x02)\n      dup2\n      jump\t// out\n        /* \"contracts/SimpleStorage.sol\":555:657  function store(uint256 _favNumber) public {... */\n    tag_19:\n        /* \"contracts/SimpleStorage.sol\":624:634  _favNumber */\n      dup1\n        /* \"contracts/SimpleStorage.sol\":607:621  favoriteNumber */\n      0x02\n        /* \"contracts/SimpleStorage.sol\":607:634  favoriteNumber = _favNumber */\n      dup2\n      swap1\n      sstore\n      pop\n        /* \"contracts/SimpleStorage.sol\":644:650  pull() */\n      tag_36\n        /* \"contracts/SimpleStorage.sol\":644:648  pull */\n      tag_10\n        /* \"contracts/SimpleStorage.sol\":644:650  pull() */\n      jump\t// in\n    tag_36:\n      pop\n        /* \"contracts/SimpleStorage.sol\":555:657  function store(uint256 _favNumber) public {... */\n      pop\n      jump\t// out\n        /* \"contracts/SimpleStorage.sol\":1197:1449  function addPerson(string memory _name, uint256 _favoriteNumber) public{... */\n    tag_23:\n        /* \"contracts/SimpleStorage.sol\":1278:1301  People memory newPerson */\n      0x00\n        /* \"contracts/SimpleStorage.sol\":1304:1355  People({name:_name,favoriteNumber:_favoriteNumber}) */\n      mload(0x40)\n      dup1\n      0x40\n      add\n      0x40\n      mstore\n      dup1\n        /* \"contracts/SimpleStorage.sol\":1338:1353  _favoriteNumber */\n      dup4\n        /* \"contracts/SimpleStorage.sol\":1304:1355  People({name:_name,favoriteNumber:_favoriteNumber}) */\n      dup2\n      mstore\n      0x20\n      add\n        /* \"contracts/SimpleStorage.sol\":1317:1322  _name */\n      dup5\n        /* \"contracts/SimpleStorage.sol\":1304:1355  People({name:_name,favoriteNumber:_favoriteNumber}) */\n      dup2\n      mstore\n      pop\n        /* \"contracts/SimpleStorage.sol\":1278:1355  People memory newPerson = People({name:_name,favoriteNumber:_favoriteNumber}) */\n      swap1\n      pop\n        /* \"contracts/SimpleStorage.sol\":1365:1371  people */\n      0x06\n        /* \"contracts/SimpleStorage.sol\":1377:1386  newPerson */\n      dup2\n        /* \"contracts/SimpleStorage.sol\":1365:1387  people.push(newPerson) */\n      swap1\n      dup1\n      0x01\n      dup2\n      sload\n      add\n      dup1\n      dup3\n      sstore\n      dup1\n      swap2\n      pop\n      pop\n      0x01\n      swap1\n      sub\n      swap1\n      0x00\n      mstore\n      keccak256(0x00, 0x20)\n      swap1\n      0x02\n      mul\n      add\n      0x00\n      swap1\n      swap2\n      swap1\n      swap2\n      swap1\n      swap2\n      pop\n      0x00\n      dup3\n      add\n      mload\n      dup2\n      0x00\n      add\n      sstore\n      0x20\n      dup3\n      add\n      mload\n      dup2\n      0x01\n      add\n      swap1\n      dup2\n      tag_39\n      swap2\n      swap1\n      tag_40\n      jump\t// in\n    tag_39:\n      pop\n      pop\n      pop\n        /* \"contracts/SimpleStorage.sol\":1427:1442  _favoriteNumber */\n      dup2\n        /* \"contracts/SimpleStorage.sol\":1397:1417  nameToFavoriteNumber */\n      0x05\n        /* \"contracts/SimpleStorage.sol\":1418:1423  _name */\n      dup5\n        /* \"contracts/SimpleStorage.sol\":1397:1424  nameToFavoriteNumber[_name] */\n      mload(0x40)\n      tag_41\n      swap2\n      swap1\n      tag_42\n      jump\t// in\n    tag_41:\n      swap1\n      dup2\n      mstore\n      0x20\n      add\n      mload(0x40)\n      dup1\n      swap2\n      sub\n      swap1\n      keccak256\n        /* \"contracts/SimpleStorage.sol\":1397:1442  nameToFavoriteNumber[_name] = _favoriteNumber */\n      dup2\n      swap1\n      sstore\n      pop\n        /* \"contracts/SimpleStorage.sol\":1268:1449  {... */\n      pop\n        /* \"contracts/SimpleStorage.sol\":1197:1449  function addPerson(string memory _name, uint256 _favoriteNumber) public{... */\n      pop\n      pop\n      jump\t// out\n        /* \"contracts/SimpleStorage.sol\":385:439  mapping(string => uint256) public nameToFavoriteNumber */\n    tag_27:\n      0x05\n      dup2\n      dup1\n      mload\n      0x20\n      dup2\n      add\n      dup3\n      add\n      dup1\n      mload\n      dup5\n      dup3\n      mstore\n      0x20\n      dup4\n      add\n      0x20\n      dup6\n      add\n      keccak256\n      dup2\n      dup4\n      mstore\n      dup1\n      swap6\n      pop\n      pop\n      pop\n      pop\n      pop\n      pop\n      0x00\n      swap2\n      pop\n      swap1\n      pop\n      sload\n      dup2\n      jump\t// out\n        /* \"contracts/SimpleStorage.sol\":526:548  People[] public people */\n    tag_31:\n      0x06\n      dup2\n      dup2\n      sload\n      dup2\n      lt\n      tag_43\n      jumpi\n      0x00\n      dup1\n      revert\n    tag_43:\n      swap1\n      0x00\n      mstore\n      keccak256(0x00, 0x20)\n      swap1\n      0x02\n      mul\n      add\n      0x00\n      swap2\n      pop\n      swap1\n      pop\n      dup1\n      0x00\n      add\n      sload\n      swap1\n      dup1\n      0x01\n      add\n      dup1\n      sload\n      tag_45\n      swap1\n      tag_46\n      jump\t// in\n    tag_45:\n      dup1\n      0x1f\n      add\n      0x20\n      dup1\n      swap2\n      div\n      mul\n      0x20\n      add\n      mload(0x40)\n      swap1\n      dup2\n      add\n      0x40\n      mstore\n      dup1\n      swap3\n      swap2\n      swap1\n      dup2\n      dup2\n      mstore\n      0x20\n      add\n      dup3\n      dup1\n      sload\n      tag_47\n      swap1\n      tag_46\n      jump\t// in\n    tag_47:\n      dup1\n      iszero\n      tag_48\n      jumpi\n      dup1\n      0x1f\n      lt\n      tag_49\n      jumpi\n      0x0100\n      dup1\n      dup4\n      sload\n      div\n      mul\n      dup4\n      mstore\n      swap2\n      0x20\n      add\n      swap2\n      jump(tag_48)\n    tag_49:\n      dup3\n      add\n      swap2\n      swap1\n      0x00\n      mstore\n      keccak256(0x00, 0x20)\n      swap1\n    tag_50:\n      dup2\n      sload\n      dup2\n      mstore\n      swap1\n      0x01\n      add\n      swap1\n      0x20\n      add\n      dup1\n      dup4\n      gt\n      tag_50\n      jumpi\n      dup3\n      swap1\n      sub\n      0x1f\n      and\n      dup3\n      add\n      swap2\n    tag_48:\n      pop\n      pop\n      pop\n      pop\n      pop\n      swap1\n      pop\n      dup3\n      jump\t// out\n        /* \"#utility.yul\":7:84   */\n    tag_51:\n        /* \"#utility.yul\":44:51   */\n      0x00\n        /* \"#utility.yul\":73:78   */\n      dup2\n        /* \"#utility.yul\":62:78   */\n      swap1\n      pop\n        /* \"#utility.yul\":7:84   */\n      swap2\n      swap1\n      pop\n      jump\t// out\n        /* \"#utility.yul\":90:208   */\n    tag_52:\n        /* \"#utility.yul\":177:201   */\n      tag_93\n        /* \"#utility.yul\":195:200   */\n      dup2\n        /* \"#utility.yul\":177:201   */\n      tag_51\n      jump\t// in\n    tag_93:\n        /* \"#utility.yul\":172:175   */\n      dup3\n        /* \"#utility.yul\":165:202   */\n      mstore\n        /* \"#utility.yul\":90:208   */\n      pop\n      pop\n      jump\t// out\n        /* \"#utility.yul\":214:436   */\n    tag_12:\n        /* \"#utility.yul\":307:311   */\n      0x00\n        /* \"#utility.yul\":345:347   */\n      0x20\n        /* \"#utility.yul\":334:343   */\n      dup3\n        /* \"#utility.yul\":330:348   */\n      add\n        /* \"#utility.yul\":322:348   */\n      swap1\n      pop\n        /* \"#utility.yul\":358:429   */\n      tag_95\n        /* \"#utility.yul\":426:427   */\n      0x00\n        /* \"#utility.yul\":415:424   */\n      dup4\n        /* \"#utility.yul\":411:428   */\n      add\n        /* \"#utility.yul\":402:408   */\n      dup5\n        /* \"#utility.yul\":358:429   */\n      tag_52\n      jump\t// in\n    tag_95:\n        /* \"#utility.yul\":214:436   */\n      swap3\n      swap2\n      pop\n      pop\n      jump\t// out\n        /* \"#utility.yul\":442:517   */\n    tag_53:\n        /* \"#utility.yul\":475:481   */\n      0x00\n        /* \"#utility.yul\":508:510   */\n      0x40\n        /* \"#utility.yul\":502:511   */\n      mload\n        /* \"#utility.yul\":492:511   */\n      swap1\n      pop\n        /* \"#utility.yul\":442:517   */\n      swap1\n      jump\t// out\n        /* \"#utility.yul\":523:640   */\n    tag_54:\n        /* \"#utility.yul\":632:633   */\n      0x00\n        /* \"#utility.yul\":629:630   */\n      dup1\n        /* \"#utility.yul\":622:634   */\n      revert\n        /* \"#utility.yul\":646:763   */\n    tag_55:\n        /* \"#utility.yul\":755:756   */\n      0x00\n        /* \"#utility.yul\":752:753   */\n      dup1\n        /* \"#utility.yul\":745:757   */\n      revert\n        /* \"#utility.yul\":769:891   */\n    tag_56:\n        /* \"#utility.yul\":842:866   */\n      tag_100\n        /* \"#utility.yul\":860:865   */\n      dup2\n        /* \"#utility.yul\":842:866   */\n      tag_51\n      jump\t// in\n    tag_100:\n        /* \"#utility.yul\":835:840   */\n      dup2\n        /* \"#utility.yul\":832:867   */\n      eq\n        /* \"#utility.yul\":822:885   */\n      tag_101\n      jumpi\n        /* \"#utility.yul\":881:882   */\n      0x00\n        /* \"#utility.yul\":878:879   */\n      dup1\n        /* \"#utility.yul\":871:883   */\n      revert\n        /* \"#utility.yul\":822:885   */\n    tag_101:\n        /* \"#utility.yul\":769:891   */\n      pop\n      jump\t// out\n        /* \"#utility.yul\":897:1036   */\n    tag_57:\n        /* \"#utility.yul\":943:948   */\n      0x00\n        /* \"#utility.yul\":981:987   */\n      dup2\n        /* \"#utility.yul\":968:988   */\n      calldataload\n        /* \"#utility.yul\":959:988   */\n      swap1\n      pop\n        /* \"#utility.yul\":997:1030   */\n      tag_103\n        /* \"#utility.yul\":1024:1029   */\n      dup2\n        /* \"#utility.yul\":997:1030   */\n      tag_56\n      jump\t// in\n    tag_103:\n        /* \"#utility.yul\":897:1036   */\n      swap3\n      swap2\n      pop\n      pop\n      jump\t// out\n        /* \"#utility.yul\":1042:1371   */\n    tag_18:\n        /* \"#utility.yul\":1101:1107   */\n      0x00\n        /* \"#utility.yul\":1150:1152   */\n      0x20\n        /* \"#utility.yul\":1138:1147   */\n      dup3\n        /* \"#utility.yul\":1129:1136   */\n      dup5\n        /* \"#utility.yul\":1125:1148   */\n      sub\n        /* \"#utility.yul\":1121:1153   */\n      slt\n        /* \"#utility.yul\":1118:1237   */\n      iszero\n      tag_105\n      jumpi\n        /* \"#utility.yul\":1156:1235   */\n      tag_106\n      tag_54\n      jump\t// in\n    tag_106:\n        /* \"#utility.yul\":1118:1237   */\n    tag_105:\n        /* \"#utility.yul\":1276:1277   */\n      0x00\n        /* \"#utility.yul\":1301:1354   */\n      tag_107\n        /* \"#utility.yul\":1346:1353   */\n      dup5\n        /* \"#utility.yul\":1337:1343   */\n      dup3\n        /* \"#utility.yul\":1326:1335   */\n      dup6\n        /* \"#utility.yul\":1322:1344   */\n      add\n        /* \"#utility.yul\":1301:1354   */\n      tag_57\n      jump\t// in\n    tag_107:\n        /* \"#utility.yul\":1291:1354   */\n      swap2\n      pop\n        /* \"#utility.yul\":1247:1364   */\n      pop\n        /* \"#utility.yul\":1042:1371   */\n      swap3\n      swap2\n      pop\n      pop\n      jump\t// out\n        /* \"#utility.yul\":1377:1494   */\n    tag_58:\n        /* \"#utility.yul\":1486:1487   */\n      0x00\n        /* \"#utility.yul\":1483:1484   */\n      dup1\n        /* \"#utility.yul\":1476:1488   */\n      revert\n        /* \"#utility.yul\":1500:1617   */\n    tag_59:\n        /* \"#utility.yul\":1609:1610   */\n      0x00\n        /* \"#utility.yul\":1606:1607   */\n      dup1\n        /* \"#utility.yul\":1599:1611   */\n      revert\n        /* \"#utility.yul\":1623:1725   */\n    tag_60:\n        /* \"#utility.yul\":1664:1670   */\n      0x00\n        /* \"#utility.yul\":1715:1717   */\n      0x1f\n        /* \"#utility.yul\":1711:1718   */\n      not\n        /* \"#utility.yul\":1706:1708   */\n      0x1f\n        /* \"#utility.yul\":1699:1704   */\n      dup4\n        /* \"#utility.yul\":1695:1709   */\n      add\n        /* \"#utility.yul\":1691:1719   */\n      and\n        /* \"#utility.yul\":1681:1719   */\n      swap1\n      pop\n        /* \"#utility.yul\":1623:1725   */\n      swap2\n      swap1\n      pop\n      jump\t// out\n        /* \"#utility.yul\":1731:1911   */\n    tag_61:\n        /* \"#utility.yul\":1779:1856   */\n      0x4e487b7100000000000000000000000000000000000000000000000000000000\n        /* \"#utility.yul\":1776:1777   */\n      0x00\n        /* \"#utility.yul\":1769:1857   */\n      mstore\n        /* \"#utility.yul\":1876:1880   */\n      0x41\n        /* \"#utility.yul\":1873:1874   */\n      0x04\n        /* \"#utility.yul\":1866:1881   */\n      mstore\n        /* \"#utility.yul\":1900:1904   */\n      0x24\n        /* \"#utility.yul\":1897:1898   */\n      0x00\n        /* \"#utility.yul\":1890:1905   */\n      revert\n        /* \"#utility.yul\":1917:2198   */\n    tag_62:\n        /* \"#utility.yul\":2000:2027   */\n      tag_113\n        /* \"#utility.yul\":2022:2026   */\n      dup3\n        /* \"#utility.yul\":2000:2027   */\n      tag_60\n      jump\t// in\n    tag_113:\n        /* \"#utility.yul\":1992:1998   */\n      dup2\n        /* \"#utility.yul\":1988:2028   */\n      add\n        /* \"#utility.yul\":2130:2136   */\n      dup2\n        /* \"#utility.yul\":2118:2128   */\n      dup2\n        /* \"#utility.yul\":2115:2137   */\n      lt\n        /* \"#utility.yul\":2094:2112   */\n      0xffffffffffffffff\n        /* \"#utility.yul\":2082:2092   */\n      dup3\n        /* \"#utility.yul\":2079:2113   */\n      gt\n        /* \"#utility.yul\":2076:2138   */\n      or\n        /* \"#utility.yul\":2073:2161   */\n      iszero\n      tag_114\n      jumpi\n        /* \"#utility.yul\":2141:2159   */\n      tag_115\n      tag_61\n      jump\t// in\n    tag_115:\n        /* \"#utility.yul\":2073:2161   */\n    tag_114:\n        /* \"#utility.yul\":2181:2191   */\n      dup1\n        /* \"#utility.yul\":2177:2179   */\n      0x40\n        /* \"#utility.yul\":2170:2192   */\n      mstore\n        /* \"#utility.yul\":1960:2198   */\n      pop\n        /* \"#utility.yul\":1917:2198   */\n      pop\n      pop\n      jump\t// out\n        /* \"#utility.yul\":2204:2333   */\n    tag_63:\n        /* \"#utility.yul\":2238:2244   */\n      0x00\n        /* \"#utility.yul\":2265:2285   */\n      tag_117\n      tag_53\n      jump\t// in\n    tag_117:\n        /* \"#utility.yul\":2255:2285   */\n      swap1\n      pop\n        /* \"#utility.yul\":2294:2327   */\n      tag_118\n        /* \"#utility.yul\":2322:2326   */\n      dup3\n        /* \"#utility.yul\":2314:2320   */\n      dup3\n        /* \"#utility.yul\":2294:2327   */\n      tag_62\n      jump\t// in\n    tag_118:\n        /* \"#utility.yul\":2204:2333   */\n      swap2\n      swap1\n      pop\n      jump\t// out\n        /* \"#utility.yul\":2339:2647   */\n    tag_64:\n        /* \"#utility.yul\":2401:2405   */\n      0x00\n        /* \"#utility.yul\":2491:2509   */\n      0xffffffffffffffff\n        /* \"#utility.yul\":2483:2489   */\n      dup3\n        /* \"#utility.yul\":2480:2510   */\n      gt\n        /* \"#utility.yul\":2477:2533   */\n      iszero\n      tag_120\n      jumpi\n        /* \"#utility.yul\":2513:2531   */\n      tag_121\n      tag_61\n      jump\t// in\n    tag_121:\n        /* \"#utility.yul\":2477:2533   */\n    tag_120:\n        /* \"#utility.yul\":2551:2580   */\n      tag_122\n        /* \"#utility.yul\":2573:2579   */\n      dup3\n        /* \"#utility.yul\":2551:2580   */\n      tag_60\n      jump\t// in\n    tag_122:\n        /* \"#utility.yul\":2543:2580   */\n      swap1\n      pop\n        /* \"#utility.yul\":2635:2639   */\n      0x20\n        /* \"#utility.yul\":2629:2633   */\n      dup2\n        /* \"#utility.yul\":2625:2640   */\n      add\n        /* \"#utility.yul\":2617:2640   */\n      swap1\n      pop\n        /* \"#utility.yul\":2339:2647   */\n      swap2\n      swap1\n      pop\n      jump\t// out\n        /* \"#utility.yul\":2653:2801   */\n    tag_65:\n        /* \"#utility.yul\":2751:2757   */\n      dup3\n        /* \"#utility.yul\":2746:2749   */\n      dup2\n        /* \"#utility.yul\":2741:2744   */\n      dup4\n        /* \"#utility.yul\":2728:2758   */\n      calldatacopy\n        /* \"#utility.yul\":2792:2793   */\n      0x00\n        /* \"#utility.yul\":2783:2789   */\n      dup4\n        /* \"#utility.yul\":2778:2781   */\n      dup4\n        /* \"#utility.yul\":2774:2790   */\n      add\n        /* \"#utility.yul\":2767:2794   */\n      mstore\n        /* \"#utility.yul\":2653:2801   */\n      pop\n      pop\n      pop\n      jump\t// out\n        /* \"#utility.yul\":2807:3232   */\n    tag_66:\n        /* \"#utility.yul\":2885:2890   */\n      0x00\n        /* \"#utility.yul\":2910:2976   */\n      tag_125\n        /* \"#utility.yul\":2926:2975   */\n      tag_126\n        /* \"#utility.yul\":2968:2974   */\n      dup5\n        /* \"#utility.yul\":2926:2975   */\n      tag_64\n      jump\t// in\n    tag_126:\n        /* \"#utility.yul\":2910:2976   */\n      tag_63\n      jump\t// in\n    tag_125:\n        /* \"#utility.yul\":2901:2976   */\n      swap1\n      pop\n        /* \"#utility.yul\":2999:3005   */\n      dup3\n        /* \"#utility.yul\":2992:2997   */\n      dup2\n        /* \"#utility.yul\":2985:3006   */\n      mstore\n        /* \"#utility.yul\":3037:3041   */\n      0x20\n        /* \"#utility.yul\":3030:3035   */\n      dup2\n        /* \"#utility.yul\":3026:3042   */\n      add\n        /* \"#utility.yul\":3075:3078   */\n      dup5\n        /* \"#utility.yul\":3066:3072   */\n      dup5\n        /* \"#utility.yul\":3061:3064   */\n      dup5\n        /* \"#utility.yul\":3057:3073   */\n      add\n        /* \"#utility.yul\":3054:3079   */\n      gt\n        /* \"#utility.yul\":3051:3163   */\n      iszero\n      tag_127\n      jumpi\n        /* \"#utility.yul\":3082:3161   */\n      tag_128\n      tag_59\n      jump\t// in\n    tag_128:\n        /* \"#utility.yul\":3051:3163   */\n    tag_127:\n        /* \"#utility.yul\":3172:3226   */\n      tag_129\n        /* \"#utility.yul\":3219:3225   */\n      dup5\n        /* \"#utility.yul\":3214:3217   */\n      dup3\n        /* \"#utility.yul\":3209:3212   */\n      dup6\n        /* \"#utility.yul\":3172:3226   */\n      tag_65\n      jump\t// in\n    tag_129:\n        /* \"#utility.yul\":2891:3232   */\n      pop\n        /* \"#utility.yul\":2807:3232   */\n      swap4\n      swap3\n      pop\n      pop\n      pop\n      jump\t// out\n        /* \"#utility.yul\":3252:3592   */\n    tag_67:\n        /* \"#utility.yul\":3308:3313   */\n      0x00\n        /* \"#utility.yul\":3357:3360   */\n      dup3\n        /* \"#utility.yul\":3350:3354   */\n      0x1f\n        /* \"#utility.yul\":3342:3348   */\n      dup4\n        /* \"#utility.yul\":3338:3355   */\n      add\n        /* \"#utility.yul\":3334:3361   */\n      slt\n        /* \"#utility.yul\":3324:3446   */\n      tag_131\n      jumpi\n        /* \"#utility.yul\":3365:3444   */\n      tag_132\n      tag_58\n      jump\t// in\n    tag_132:\n        /* \"#utility.yul\":3324:3446   */\n    tag_131:\n        /* \"#utility.yul\":3482:3488   */\n      dup2\n        /* \"#utility.yul\":3469:3489   */\n      calldataload\n        /* \"#utility.yul\":3507:3586   */\n      tag_133\n        /* \"#utility.yul\":3582:3585   */\n      dup5\n        /* \"#utility.yul\":3574:3580   */\n      dup3\n        /* \"#utility.yul\":3567:3571   */\n      0x20\n        /* \"#utility.yul\":3559:3565   */\n      dup7\n        /* \"#utility.yul\":3555:3572   */\n      add\n        /* \"#utility.yul\":3507:3586   */\n      tag_66\n      jump\t// in\n    tag_133:\n        /* \"#utility.yul\":3498:3586   */\n      swap2\n      pop\n        /* \"#utility.yul\":3314:3592   */\n      pop\n        /* \"#utility.yul\":3252:3592   */\n      swap3\n      swap2\n      pop\n      pop\n      jump\t// out\n        /* \"#utility.yul\":3598:4252   */\n    tag_22:\n        /* \"#utility.yul\":3676:3682   */\n      0x00\n        /* \"#utility.yul\":3684:3690   */\n      dup1\n        /* \"#utility.yul\":3733:3735   */\n      0x40\n        /* \"#utility.yul\":3721:3730   */\n      dup4\n        /* \"#utility.yul\":3712:3719   */\n      dup6\n        /* \"#utility.yul\":3708:3731   */\n      sub\n        /* \"#utility.yul\":3704:3736   */\n      slt\n        /* \"#utility.yul\":3701:3820   */\n      iszero\n      tag_135\n      jumpi\n        /* \"#utility.yul\":3739:3818   */\n      tag_136\n      tag_54\n      jump\t// in\n    tag_136:\n        /* \"#utility.yul\":3701:3820   */\n    tag_135:\n        /* \"#utility.yul\":3887:3888   */\n      0x00\n        /* \"#utility.yul\":3876:3885   */\n      dup4\n        /* \"#utility.yul\":3872:3889   */\n      add\n        /* \"#utility.yul\":3859:3890   */\n      calldataload\n        /* \"#utility.yul\":3917:3935   */\n      0xffffffffffffffff\n        /* \"#utility.yul\":3909:3915   */\n      dup2\n        /* \"#utility.yul\":3906:3936   */\n      gt\n        /* \"#utility.yul\":3903:4020   */\n      iszero\n      tag_137\n      jumpi\n        /* \"#utility.yul\":3939:4018   */\n      tag_138\n      tag_55\n      jump\t// in\n    tag_138:\n        /* \"#utility.yul\":3903:4020   */\n    tag_137:\n        /* \"#utility.yul\":4044:4107   */\n      tag_139\n        /* \"#utility.yul\":4099:4106   */\n      dup6\n        /* \"#utility.yul\":4090:4096   */\n      dup3\n        /* \"#utility.yul\":4079:4088   */\n      dup7\n        /* \"#utility.yul\":4075:4097   */\n      add\n        /* \"#utility.yul\":4044:4107   */\n      tag_67\n      jump\t// in\n    tag_139:\n        /* \"#utility.yul\":4034:4107   */\n      swap3\n      pop\n        /* \"#utility.yul\":3830:4117   */\n      pop\n        /* \"#utility.yul\":4156:4158   */\n      0x20\n        /* \"#utility.yul\":4182:4235   */\n      tag_140\n        /* \"#utility.yul\":4227:4234   */\n      dup6\n        /* \"#utility.yul\":4218:4224   */\n      dup3\n        /* \"#utility.yul\":4207:4216   */\n      dup7\n        /* \"#utility.yul\":4203:4225   */\n      add\n        /* \"#utility.yul\":4182:4235   */\n      tag_57\n      jump\t// in\n    tag_140:\n        /* \"#utility.yul\":4172:4235   */\n      swap2\n      pop\n        /* \"#utility.yul\":4127:4245   */\n      pop\n        /* \"#utility.yul\":3598:4252   */\n      swap3\n      pop\n      swap3\n      swap1\n      pop\n      jump\t// out\n        /* \"#utility.yul\":4258:4767   */\n    tag_26:\n        /* \"#utility.yul\":4327:4333   */\n      0x00\n        /* \"#utility.yul\":4376:4378   */\n      0x20\n        /* \"#utility.yul\":4364:4373   */\n      dup3\n        /* \"#utility.yul\":4355:4362   */\n      dup5\n        /* \"#utility.yul\":4351:4374   */\n      sub\n        /* \"#utility.yul\":4347:4379   */\n      slt\n        /* \"#utility.yul\":4344:4463   */\n      iszero\n      tag_142\n      jumpi\n        /* \"#utility.yul\":4382:4461   */\n      tag_143\n      tag_54\n      jump\t// in\n    tag_143:\n        /* \"#utility.yul\":4344:4463   */\n    tag_142:\n        /* \"#utility.yul\":4530:4531   */\n      0x00\n        /* \"#utility.yul\":4519:4528   */\n      dup3\n        /* \"#utility.yul\":4515:4532   */\n      add\n        /* \"#utility.yul\":4502:4533   */\n      calldataload\n        /* \"#utility.yul\":4560:4578   */\n      0xffffffffffffffff\n        /* \"#utility.yul\":4552:4558   */\n      dup2\n        /* \"#utility.yul\":4549:4579   */\n      gt\n        /* \"#utility.yul\":4546:4663   */\n      iszero\n      tag_144\n      jumpi\n        /* \"#utility.yul\":4582:4661   */\n      tag_145\n      tag_55\n      jump\t// in\n    tag_145:\n        /* \"#utility.yul\":4546:4663   */\n    tag_144:\n        /* \"#utility.yul\":4687:4750   */\n      tag_146\n        /* \"#utility.yul\":4742:4749   */\n      dup5\n        /* \"#utility.yul\":4733:4739   */\n      dup3\n        /* \"#utility.yul\":4722:4731   */\n      dup6\n        /* \"#utility.yul\":4718:4740   */\n      add\n        /* \"#utility.yul\":4687:4750   */\n      tag_67\n      jump\t// in\n    tag_146:\n        /* \"#utility.yul\":4677:4750   */\n      swap2\n      pop\n        /* \"#utility.yul\":4473:4760   */\n      pop\n        /* \"#utility.yul\":4258:4767   */\n      swap3\n      swap2\n      pop\n      pop\n      jump\t// out\n        /* \"#utility.yul\":4773:4872   */\n    tag_68:\n        /* \"#utility.yul\":4825:4831   */\n      0x00\n        /* \"#utility.yul\":4859:4864   */\n      dup2\n        /* \"#utility.yul\":4853:4865   */\n      mload\n        /* \"#utility.yul\":4843:4865   */\n      swap1\n      pop\n        /* \"#utility.yul\":4773:4872   */\n      swap2\n      swap1\n      pop\n      jump\t// out\n        /* \"#utility.yul\":4878:5047   */\n    tag_69:\n        /* \"#utility.yul\":4962:4973   */\n      0x00\n        /* \"#utility.yul\":4996:5002   */\n      dup3\n        /* \"#utility.yul\":4991:4994   */\n      dup3\n        /* \"#utility.yul\":4984:5003   */\n      mstore\n        /* \"#utility.yul\":5036:5040   */\n      0x20\n        /* \"#utility.yul\":5031:5034   */\n      dup3\n        /* \"#utility.yul\":5027:5041   */\n      add\n        /* \"#utility.yul\":5012:5041   */\n      swap1\n      pop\n        /* \"#utility.yul\":4878:5047   */\n      swap3\n      swap2\n      pop\n      pop\n      jump\t// out\n        /* \"#utility.yul\":5053:5192   */\n    tag_70:\n        /* \"#utility.yul\":5142:5148   */\n      dup3\n        /* \"#utility.yul\":5137:5140   */\n      dup2\n        /* \"#utility.yul\":5132:5135   */\n      dup4\n        /* \"#utility.yul\":5126:5149   */\n      mcopy\n        /* \"#utility.yul\":5183:5184   */\n      0x00\n        /* \"#utility.yul\":5174:5180   */\n      dup4\n        /* \"#utility.yul\":5169:5172   */\n      dup4\n        /* \"#utility.yul\":5165:5181   */\n      add\n        /* \"#utility.yul\":5158:5185   */\n      mstore\n        /* \"#utility.yul\":5053:5192   */\n      pop\n      pop\n      pop\n      jump\t// out\n        /* \"#utility.yul\":5198:5575   */\n    tag_71:\n        /* \"#utility.yul\":5286:5289   */\n      0x00\n        /* \"#utility.yul\":5314:5353   */\n      tag_151\n        /* \"#utility.yul\":5347:5352   */\n      dup3\n        /* \"#utility.yul\":5314:5353   */\n      tag_68\n      jump\t// in\n    tag_151:\n        /* \"#utility.yul\":5369:5440   */\n      tag_152\n        /* \"#utility.yul\":5433:5439   */\n      dup2\n        /* \"#utility.yul\":5428:5431   */\n      dup6\n        /* \"#utility.yul\":5369:5440   */\n      tag_69\n      jump\t// in\n    tag_152:\n        /* \"#utility.yul\":5362:5440   */\n      swap4\n      pop\n        /* \"#utility.yul\":5449:5514   */\n      tag_153\n        /* \"#utility.yul\":5507:5513   */\n      dup2\n        /* \"#utility.yul\":5502:5505   */\n      dup6\n        /* \"#utility.yul\":5495:5499   */\n      0x20\n        /* \"#utility.yul\":5488:5493   */\n      dup7\n        /* \"#utility.yul\":5484:5500   */\n      add\n        /* \"#utility.yul\":5449:5514   */\n      tag_70\n      jump\t// in\n    tag_153:\n        /* \"#utility.yul\":5539:5568   */\n      tag_154\n        /* \"#utility.yul\":5561:5567   */\n      dup2\n        /* \"#utility.yul\":5539:5568   */\n      tag_60\n      jump\t// in\n    tag_154:\n        /* \"#utility.yul\":5534:5537   */\n      dup5\n        /* \"#utility.yul\":5530:5569   */\n      add\n        /* \"#utility.yul\":5523:5569   */\n      swap2\n      pop\n        /* \"#utility.yul\":5290:5575   */\n      pop\n        /* \"#utility.yul\":5198:5575   */\n      swap3\n      swap2\n      pop\n      pop\n      jump\t// out\n        /* \"#utility.yul\":5581:6004   */\n    tag_33:\n        /* \"#utility.yul\":5722:5726   */\n      0x00\n        /* \"#utility.yul\":5760:5762   */\n      0x40\n        /* \"#utility.yul\":5749:5758   */\n      dup3\n        /* \"#utility.yul\":5745:5763   */\n      add\n        /* \"#utility.yul\":5737:5763   */\n      swap1\n      pop\n        /* \"#utility.yul\":5773:5844   */\n      tag_156\n        /* \"#utility.yul\":5841:5842   */\n      0x00\n        /* \"#utility.yul\":5830:5839   */\n      dup4\n        /* \"#utility.yul\":5826:5843   */\n      add\n        /* \"#utility.yul\":5817:5823   */\n      dup6\n        /* \"#utility.yul\":5773:5844   */\n      tag_52\n      jump\t// in\n    tag_156:\n        /* \"#utility.yul\":5891:5900   */\n      dup2\n        /* \"#utility.yul\":5885:5889   */\n      dup2\n        /* \"#utility.yul\":5881:5901   */\n      sub\n        /* \"#utility.yul\":5876:5878   */\n      0x20\n        /* \"#utility.yul\":5865:5874   */\n      dup4\n        /* \"#utility.yul\":5861:5879   */\n      add\n        /* \"#utility.yul\":5854:5902   */\n      mstore\n        /* \"#utility.yul\":5919:5997   */\n      tag_157\n        /* \"#utility.yul\":5992:5996   */\n      dup2\n        /* \"#utility.yul\":5983:5989   */\n      dup5\n        /* \"#utility.yul\":5919:5997   */\n      tag_71\n      jump\t// in\n    tag_157:\n        /* \"#utility.yul\":5911:5997   */\n      swap1\n      pop\n        /* \"#utility.yul\":5581:6004   */\n      swap4\n      swap3\n      pop\n      pop\n      pop\n      jump\t// out\n        /* \"#utility.yul\":6010:6190   */\n    tag_72:\n        /* \"#utility.yul\":6058:6135   */\n      0x4e487b7100000000000000000000000000000000000000000000000000000000\n        /* \"#utility.yul\":6055:6056   */\n      0x00\n        /* \"#utility.yul\":6048:6136   */\n      mstore\n        /* \"#utility.yul\":6155:6159   */\n      0x22\n        /* \"#utility.yul\":6152:6153   */\n      0x04\n        /* \"#utility.yul\":6145:6160   */\n      mstore\n        /* \"#utility.yul\":6179:6183   */\n      0x24\n        /* \"#utility.yul\":6176:6177   */\n      0x00\n        /* \"#utility.yul\":6169:6184   */\n      revert\n        /* \"#utility.yul\":6196:6516   */\n    tag_46:\n        /* \"#utility.yul\":6240:6246   */\n      0x00\n        /* \"#utility.yul\":6277:6278   */\n      0x02\n        /* \"#utility.yul\":6271:6275   */\n      dup3\n        /* \"#utility.yul\":6267:6279   */\n      div\n        /* \"#utility.yul\":6257:6279   */\n      swap1\n      pop\n        /* \"#utility.yul\":6324:6325   */\n      0x01\n        /* \"#utility.yul\":6318:6322   */\n      dup3\n        /* \"#utility.yul\":6314:6326   */\n      and\n        /* \"#utility.yul\":6345:6363   */\n      dup1\n        /* \"#utility.yul\":6335:6416   */\n      tag_160\n      jumpi\n        /* \"#utility.yul\":6401:6405   */\n      0x7f\n        /* \"#utility.yul\":6393:6399   */\n      dup3\n        /* \"#utility.yul\":6389:6406   */\n      and\n        /* \"#utility.yul\":6379:6406   */\n      swap2\n      pop\n        /* \"#utility.yul\":6335:6416   */\n    tag_160:\n        /* \"#utility.yul\":6463:6465   */\n      0x20\n        /* \"#utility.yul\":6455:6461   */\n      dup3\n        /* \"#utility.yul\":6452:6466   */\n      lt\n        /* \"#utility.yul\":6432:6450   */\n      dup2\n        /* \"#utility.yul\":6429:6467   */\n      sub\n        /* \"#utility.yul\":6426:6510   */\n      tag_161\n      jumpi\n        /* \"#utility.yul\":6482:6500   */\n      tag_162\n      tag_72\n      jump\t// in\n    tag_162:\n        /* \"#utility.yul\":6426:6510   */\n    tag_161:\n        /* \"#utility.yul\":6247:6516   */\n      pop\n        /* \"#utility.yul\":6196:6516   */\n      swap2\n      swap1\n      pop\n      jump\t// out\n        /* \"#utility.yul\":6522:6663   */\n    tag_73:\n        /* \"#utility.yul\":6571:6575   */\n      0x00\n        /* \"#utility.yul\":6594:6597   */\n      dup2\n        /* \"#utility.yul\":6586:6597   */\n      swap1\n      pop\n        /* \"#utility.yul\":6617:6620   */\n      dup2\n        /* \"#utility.yul\":6614:6615   */\n      0x00\n        /* \"#utility.yul\":6607:6621   */\n      mstore\n        /* \"#utility.yul\":6651:6655   */\n      0x20\n        /* \"#utility.yul\":6648:6649   */\n      0x00\n        /* \"#utility.yul\":6638:6656   */\n      keccak256\n        /* \"#utility.yul\":6630:6656   */\n      swap1\n      pop\n        /* \"#utility.yul\":6522:6663   */\n      swap2\n      swap1\n      pop\n      jump\t// out\n        /* \"#utility.yul\":6669:6762   */\n    tag_74:\n        /* \"#utility.yul\":6706:6712   */\n      0x00\n        /* \"#utility.yul\":6753:6755   */\n      0x20\n        /* \"#utility.yul\":6748:6750   */\n      0x1f\n        /* \"#utility.yul\":6741:6746   */\n      dup4\n        /* \"#utility.yul\":6737:6751   */\n      add\n        /* \"#utility.yul\":6733:6756   */\n      div\n        /* \"#utility.yul\":6723:6756   */\n      swap1\n      pop\n        /* \"#utility.yul\":6669:6762   */\n      swap2\n      swap1\n      pop\n      jump\t// out\n        /* \"#utility.yul\":6768:6875   */\n    tag_75:\n        /* \"#utility.yul\":6812:6820   */\n      0x00\n        /* \"#utility.yul\":6862:6867   */\n      dup3\n        /* \"#utility.yul\":6856:6860   */\n      dup3\n        /* \"#utility.yul\":6852:6868   */\n      shl\n        /* \"#utility.yul\":6831:6868   */\n      swap1\n      pop\n        /* \"#utility.yul\":6768:6875   */\n      swap3\n      swap2\n      pop\n      pop\n      jump\t// out\n        /* \"#utility.yul\":6881:7274   */\n    tag_76:\n        /* \"#utility.yul\":6950:6956   */\n      0x00\n        /* \"#utility.yul\":7000:7001   */\n      0x08\n        /* \"#utility.yul\":6988:6998   */\n      dup4\n        /* \"#utility.yul\":6984:7002   */\n      mul\n        /* \"#utility.yul\":7023:7120   */\n      tag_167\n        /* \"#utility.yul\":7053:7119   */\n      0xffffffffffffffffffffffffffffffffffffffffffffffffffffffffffffffff\n        /* \"#utility.yul\":7042:7051   */\n      dup3\n        /* \"#utility.yul\":7023:7120   */\n      tag_75\n      jump\t// in\n    tag_167:\n        /* \"#utility.yul\":7141:7180   */\n      tag_168\n        /* \"#utility.yul\":7171:7179   */\n      dup7\n        /* \"#utility.yul\":7160:7169   */\n      dup4\n        /* \"#utility.yul\":7141:7180   */\n      tag_75\n      jump\t// in\n    tag_168:\n        /* \"#utility.yul\":7129:7180   */\n      swap6\n      pop\n        /* \"#utility.yul\":7213:7217   */\n      dup1\n        /* \"#utility.yul\":7209:7218   */\n      not\n        /* \"#utility.yul\":7202:7207   */\n      dup5\n        /* \"#utility.yul\":7198:7219   */\n      and\n        /* \"#utility.yul\":7189:7219   */\n      swap4\n      pop\n        /* \"#utility.yul\":7262:7266   */\n      dup1\n        /* \"#utility.yul\":7252:7260   */\n      dup7\n        /* \"#utility.yul\":7248:7267   */\n      and\n        /* \"#utility.yul\":7241:7246   */\n      dup5\n        /* \"#utility.yul\":7238:7268   */\n      or\n        /* \"#utility.yul\":7228:7268   */\n      swap3\n      pop\n        /* \"#utility.yul\":6957:7274   */\n      pop\n      pop\n        /* \"#utility.yul\":6881:7274   */\n      swap4\n      swap3\n      pop\n      pop\n      pop\n      jump\t// out\n        /* \"#utility.yul\":7280:7340   */\n    tag_77:\n        /* \"#utility.yul\":7308:7311   */\n      0x00\n        /* \"#utility.yul\":7329:7334   */\n      dup2\n        /* \"#utility.yul\":7322:7334   */\n      swap1\n      pop\n        /* \"#utility.yul\":7280:7340   */\n      swap2\n      swap1\n      pop\n      jump\t// out\n        /* \"#utility.yul\":7346:7488   */\n    tag_78:\n        /* \"#utility.yul\":7396:7405   */\n      0x00\n        /* \"#utility.yul\":7429:7482   */\n      tag_171\n        /* \"#utility.yul\":7447:7481   */\n      tag_172\n        /* \"#utility.yul\":7456:7480   */\n      tag_173\n        /* \"#utility.yul\":7474:7479   */\n      dup5\n        /* \"#utility.yul\":7456:7480   */\n      tag_51\n      jump\t// in\n    tag_173:\n        /* \"#utility.yul\":7447:7481   */\n      tag_77\n      jump\t// in\n    tag_172:\n        /* \"#utility.yul\":7429:7482   */\n      tag_51\n      jump\t// in\n    tag_171:\n        /* \"#utility.yul\":7416:7482   */\n      swap1\n      pop\n        /* \"#utility.yul\":7346:7488   */\n      swap2\n      swap1\n      pop\n      jump\t// out\n        /* \"#utility.yul\":7494:7569   */\n    tag_79:\n        /* \"#utility.yul\":7537:7540   */\n      0x00\n        /* \"#utility.yul\":7558:7563   */\n      dup2\n        /* \"#utility.yul\":7551:7563   */\n      swap1\n      pop\n        /* \"#utility.yul\":7494:7569   */\n      swap2\n      swap1\n      pop\n      jump\t// out\n        /* \"#utility.yul\":7575:7844   */\n    tag_80:\n        /* \"#utility.yul\":7685:7724   */\n      tag_176\n        /* \"#utility.yul\":7716:7723   */\n      dup4\n        /* \"#utility.yul\":7685:7724   */\n      tag_78\n      jump\t// in\n    tag_176:\n        /* \"#utility.yul\":7746:7837   */\n      tag_177\n        /* \"#utility.yul\":7795:7836   */\n      tag_178\n        /* \"#utility.yul\":7819:7835   */\n      dup3\n        /* \"#utility.yul\":7795:7836   */\n      tag_79\n      jump\t// in\n    tag_178:\n        /* \"#utility.yul\":7787:7793   */\n      dup5\n        /* \"#utility.yul\":7780:7784   */\n      dup5\n        /* \"#utility.yul\":7774:7785   */\n      sload\n        /* \"#utility.yul\":7746:7837   */\n      tag_76\n      jump\t// in\n    tag_177:\n        /* \"#utility.yul\":7740:7744   */\n      dup3\n        /* \"#utility.yul\":7733:7838   */\n      sstore\n        /* \"#utility.yul\":7651:7844   */\n      pop\n        /* \"#utility.yul\":7575:7844   */\n      pop\n      pop\n      pop\n      jump\t// out\n        /* \"#utility.yul\":7850:7923   */\n    tag_81:\n        /* \"#utility.yul\":7895:7898   */\n      0x00\n        /* \"#utility.yul\":7850:7923   */\n      swap1\n      jump\t// out\n        /* \"#utility.yul\":7929:8118   */\n    tag_82:\n        /* \"#utility.yul\":8006:8038   */\n      tag_181\n      tag_81\n      jump\t// in\n    tag_181:\n        /* \"#utility.yul\":8047:8112   */\n      tag_182\n        /* \"#utility.yul\":8105:8111   */\n      dup2\n        /* \"#utility.yul\":8097:8103   */\n      dup5\n        /* \"#utility.yul\":8091:8095   */\n      dup5\n        /* \"#utility.yul\":8047:8112   */\n      tag_80\n      jump\t// in\n    tag_182:\n        /* \"#utility.yul\":7982:8118   */\n      pop\n        /* \"#utility.yul\":7929:8118   */\n      pop\n      pop\n      jump\t// out\n        /* \"#utility.yul\":8124:8310   */\n    tag_83:\n        /* \"#utility.yul\":8184:8304   */\n    tag_184:\n        /* \"#utility.yul\":8201:8204   */\n      dup2\n        /* \"#utility.yul\":8194:8199   */\n      dup2\n        /* \"#utility.yul\":8191:8205   */\n      lt\n        /* \"#utility.yul\":8184:8304   */\n      iszero\n      tag_186\n      jumpi\n        /* \"#utility.yul\":8255:8294   */\n      tag_187\n        /* \"#utility.yul\":8292:8293   */\n      0x00\n        /* \"#utility.yul\":8285:8290   */\n      dup3\n        /* \"#utility.yul\":8255:8294   */\n      tag_82\n      jump\t// in\n    tag_187:\n        /* \"#utility.yul\":8228:8229   */\n      0x01\n        /* \"#utility.yul\":8221:8226   */\n      dup2\n        /* \"#utility.yul\":8217:8230   */\n      add\n        /* \"#utility.yul\":8208:8230   */\n      swap1\n      pop\n        /* \"#utility.yul\":8184:8304   */\n      jump(tag_184)\n    tag_186:\n        /* \"#utility.yul\":8124:8310   */\n      pop\n      pop\n      jump\t// out\n        /* \"#utility.yul\":8316:8859   */\n    tag_84:\n        /* \"#utility.yul\":8417:8419   */\n      0x1f\n        /* \"#utility.yul\":8412:8415   */\n      dup3\n        /* \"#utility.yul\":8409:8420   */\n      gt\n        /* \"#utility.yul\":8406:8852   */\n      iszero\n      tag_189\n      jumpi\n        /* \"#utility.yul\":8451:8489   */\n      tag_190\n        /* \"#utility.yul\":8483:8488   */\n      dup2\n        /* \"#utility.yul\":8451:8489   */\n      tag_73\n      jump\t// in\n    tag_190:\n        /* \"#utility.yul\":8535:8564   */\n      tag_191\n        /* \"#utility.yul\":8553:8563   */\n      dup5\n        /* \"#utility.yul\":8535:8564   */\n      tag_74\n      jump\t// in\n    tag_191:\n        /* \"#utility.yul\":8525:8533   */\n      dup2\n        /* \"#utility.yul\":8521:8565   */\n      add\n        /* \"#utility.yul\":8718:8720   */\n      0x20\n        /* \"#utility.yul\":8706:8716   */\n      dup6\n        /* \"#utility.yul\":8703:8721   */\n      lt\n        /* \"#utility.yul\":8700:8749   */\n      iszero\n      tag_192\n      jumpi\n        /* \"#utility.yul\":8739:8747   */\n      dup2\n        /* \"#utility.yul\":8724:8747   */\n      swap1\n      pop\n        /* \"#utility.yul\":8700:8749   */\n    tag_192:\n        /* \"#utility.yul\":8762:8842   */\n      tag_193\n        /* \"#utility.yul\":8818:8840   */\n      tag_194\n        /* \"#utility.yul\":8836:8839   */\n      dup6\n        /* \"#utility.yul\":8818:8840   */\n      tag_74\n      jump\t// in\n    tag_194:\n        /* \"#utility.yul\":8808:8816   */\n      dup4\n        /* \"#utility.yul\":8804:8841   */\n      add\n        /* \"#utility.yul\":8791:8802   */\n      dup3\n        /* \"#utility.yul\":8762:8842   */\n      tag_83\n      jump\t// in\n    tag_193:\n        /* \"#utility.yul\":8421:8852   */\n      pop\n      pop\n        /* \"#utility.yul\":8406:8852   */\n    tag_189:\n        /* \"#utility.yul\":8316:8859   */\n      pop\n      pop\n      pop\n      jump\t// out\n        /* \"#utility.yul\":8865:8982   */\n    tag_85:\n        /* \"#utility.yul\":8919:8927   */\n      0x00\n        /* \"#utility.yul\":8969:8974   */\n      dup3\n        /* \"#utility.yul\":8963:8967   */\n      dup3\n        /* \"#utility.yul\":8959:8975   */\n      shr\n        /* \"#utility.yul\":8938:8975   */\n      swap1\n      pop\n        /* \"#utility.yul\":8865:8982   */\n      swap3\n      swap2\n      pop\n      pop\n      jump\t// out\n        /* \"#utility.yul\":8988:9157   */\n    tag_86:\n        /* \"#utility.yul\":9032:9038   */\n      0x00\n        /* \"#utility.yul\":9065:9116   */\n      tag_197\n        /* \"#utility.yul\":9113:9114   */\n      0x00\n        /* \"#utility.yul\":9109:9115   */\n      not\n        /* \"#utility.yul\":9101:9106   */\n      dup5\n        /* \"#utility.yul\":9098:9099   */\n      0x08\n        /* \"#utility.yul\":9094:9107   */\n      mul\n        /* \"#utility.yul\":9065:9116   */\n      tag_85\n      jump\t// in\n    tag_197:\n        /* \"#utility.yul\":9061:9117   */\n      not\n        /* \"#utility.yul\":9146:9150   */\n      dup1\n        /* \"#utility.yul\":9140:9144   */\n      dup4\n        /* \"#utility.yul\":9136:9151   */\n      and\n        /* \"#utility.yul\":9126:9151   */\n      swap2\n      pop\n        /* \"#utility.yul\":9039:9157   */\n      pop\n        /* \"#utility.yul\":8988:9157   */\n      swap3\n      swap2\n      pop\n      pop\n      jump\t// out\n        /* \"#utility.yul\":9162:9457   */\n    tag_87:\n        /* \"#utility.yul\":9238:9242   */\n      0x00\n        /* \"#utility.yul\":9384:9413   */\n      tag_199\n        /* \"#utility.yul\":9409:9412   */\n      dup4\n        /* \"#utility.yul\":9403:9407   */\n      dup4\n        /* \"#utility.yul\":9384:9413   */\n      tag_86\n      jump\t// in\n    tag_199:\n        /* \"#utility.yul\":9376:9413   */\n      swap2\n      pop\n        /* \"#utility.yul\":9446:9449   */\n      dup3\n        /* \"#utility.yul\":9443:9444   */\n      0x02\n        /* \"#utility.yul\":9439:9450   */\n      mul\n        /* \"#utility.yul\":9433:9437   */\n      dup3\n        /* \"#utility.yul\":9430:9451   */\n      or\n        /* \"#utility.yul\":9422:9451   */\n      swap1\n      pop\n        /* \"#utility.yul\":9162:9457   */\n      swap3\n      swap2\n      pop\n      pop\n      jump\t// out\n        /* \"#utility.yul\":9462:10857   */\n    tag_40:\n        /* \"#utility.yul\":9579:9616   */\n      tag_201\n        /* \"#utility.yul\":9612:9615   */\n      dup3\n        /* \"#utility.yul\":9579:9616   */\n      tag_68\n      jump\t// in\n    tag_201:\n        /* \"#utility.yul\":9681:9699   */\n      0xffffffffffffffff\n        /* \"#utility.yul\":9673:9679   */\n      dup2\n        /* \"#utility.yul\":9670:9700   */\n      gt\n        /* \"#utility.yul\":9667:9723   */\n      iszero\n      tag_202\n      jumpi\n        /* \"#utility.yul\":9703:9721   */\n      tag_203\n      tag_61\n      jump\t// in\n    tag_203:\n        /* \"#utility.yul\":9667:9723   */\n    tag_202:\n        /* \"#utility.yul\":9747:9785   */\n      tag_204\n        /* \"#utility.yul\":9779:9783   */\n      dup3\n        /* \"#utility.yul\":9773:9784   */\n      sload\n        /* \"#utility.yul\":9747:9785   */\n      tag_46\n      jump\t// in\n    tag_204:\n        /* \"#utility.yul\":9832:9899   */\n      tag_205\n        /* \"#utility.yul\":9892:9898   */\n      dup3\n        /* \"#utility.yul\":9884:9890   */\n      dup3\n        /* \"#utility.yul\":9878:9882   */\n      dup6\n        /* \"#utility.yul\":9832:9899   */\n      tag_84\n      jump\t// in\n    tag_205:\n        /* \"#utility.yul\":9926:9927   */\n      0x00\n        /* \"#utility.yul\":9950:9954   */\n      0x20\n        /* \"#utility.yul\":9937:9954   */\n      swap1\n      pop\n        /* \"#utility.yul\":9982:9984   */\n      0x1f\n        /* \"#utility.yul\":9974:9980   */\n      dup4\n        /* \"#utility.yul\":9971:9985   */\n      gt\n        /* \"#utility.yul\":9999:10000   */\n      0x01\n        /* \"#utility.yul\":9994:10612   */\n      dup2\n      eq\n      tag_207\n      jumpi\n        /* \"#utility.yul\":10656:10657   */\n      0x00\n        /* \"#utility.yul\":10673:10679   */\n      dup5\n        /* \"#utility.yul\":10670:10747   */\n      iszero\n      tag_208\n      jumpi\n        /* \"#utility.yul\":10722:10731   */\n      dup3\n        /* \"#utility.yul\":10717:10720   */\n      dup8\n        /* \"#utility.yul\":10713:10732   */\n      add\n        /* \"#utility.yul\":10707:10733   */\n      mload\n        /* \"#utility.yul\":10698:10733   */\n      swap1\n      pop\n        /* \"#utility.yul\":10670:10747   */\n    tag_208:\n        /* \"#utility.yul\":10773:10840   */\n      tag_209\n        /* \"#utility.yul\":10833:10839   */\n      dup6\n        /* \"#utility.yul\":10826:10831   */\n      dup3\n        /* \"#utility.yul\":10773:10840   */\n      tag_87\n      jump\t// in\n    tag_209:\n        /* \"#utility.yul\":10767:10771   */\n      dup7\n        /* \"#utility.yul\":10760:10841   */\n      sstore\n        /* \"#utility.yul\":10629:10851   */\n      pop\n        /* \"#utility.yul\":9964:10851   */\n      jump(tag_206)\n        /* \"#utility.yul\":9994:10612   */\n    tag_207:\n        /* \"#utility.yul\":10046:10050   */\n      0x1f\n        /* \"#utility.yul\":10042:10051   */\n      not\n        /* \"#utility.yul\":10034:10040   */\n      dup5\n        /* \"#utility.yul\":10030:10052   */\n      and\n        /* \"#utility.yul\":10080:10117   */\n      tag_210\n        /* \"#utility.yul\":10112:10116   */\n      dup7\n        /* \"#utility.yul\":10080:10117   */\n      tag_73\n      jump\t// in\n    tag_210:\n        /* \"#utility.yul\":10139:10140   */\n      0x00\n        /* \"#utility.yul\":10153:10361   */\n    tag_211:\n        /* \"#utility.yul\":10167:10174   */\n      dup3\n        /* \"#utility.yul\":10164:10165   */\n      dup2\n        /* \"#utility.yul\":10161:10175   */\n      lt\n        /* \"#utility.yul\":10153:10361   */\n      iszero\n      tag_213\n      jumpi\n        /* \"#utility.yul\":10246:10255   */\n      dup5\n        /* \"#utility.yul\":10241:10244   */\n      dup10\n        /* \"#utility.yul\":10237:10256   */\n      add\n        /* \"#utility.yul\":10231:10257   */\n      mload\n        /* \"#utility.yul\":10223:10229   */\n      dup3\n        /* \"#utility.yul\":10216:10258   */\n      sstore\n        /* \"#utility.yul\":10297:10298   */\n      0x01\n        /* \"#utility.yul\":10289:10295   */\n      dup3\n        /* \"#utility.yul\":10285:10299   */\n      add\n        /* \"#utility.yul\":10275:10299   */\n      swap2\n      pop\n        /* \"#utility.yul\":10344:10346   */\n      0x20\n        /* \"#utility.yul\":10333:10342   */\n      dup6\n        /* \"#utility.yul\":10329:10347   */\n      add\n        /* \"#utility.yul\":10316:10347   */\n      swap5\n      pop\n        /* \"#utility.yul\":10190:10194   */\n      0x20\n        /* \"#utility.yul\":10187:10188   */\n      dup2\n        /* \"#utility.yul\":10183:10195   */\n      add\n        /* \"#utility.yul\":10178:10195   */\n      swap1\n      pop\n        /* \"#utility.yul\":10153:10361   */\n      jump(tag_211)\n    tag_213:\n        /* \"#utility.yul\":10389:10395   */\n      dup7\n        /* \"#utility.yul\":10380:10387   */\n      dup4\n        /* \"#utility.yul\":10377:10396   */\n      lt\n        /* \"#utility.yul\":10374:10553   */\n      iszero\n      tag_214\n      jumpi\n        /* \"#utility.yul\":10447:10456   */\n      dup5\n        /* \"#utility.yul\":10442:10445   */\n      dup10\n        /* \"#utility.yul\":10438:10457   */\n      add\n        /* \"#utility.yul\":10432:10458   */\n      mload\n        /* \"#utility.yul\":10490:10538   */\n      tag_215\n        /* \"#utility.yul\":10532:10536   */\n      0x1f\n        /* \"#utility.yul\":10524:10530   */\n      dup10\n        /* \"#utility.yul\":10520:10537   */\n      and\n        /* \"#utility.yul\":10509:10518   */\n      dup3\n        /* \"#utility.yul\":10490:10538   */\n      tag_86\n      jump\t// in\n    tag_215:\n        /* \"#utility.yul\":10482:10488   */\n      dup4\n        /* \"#utility.yul\":10475:10539   */\n      sstore\n        /* \"#utility.yul\":10397:10553   */\n      pop\n        /* \"#utility.yul\":10374:10553   */\n    tag_214:\n        /* \"#utility.yul\":10599:10600   */\n      0x01\n        /* \"#utility.yul\":10595:10596   */\n      0x02\n        /* \"#utility.yul\":10587:10593   */\n      dup9\n        /* \"#utility.yul\":10583:10597   */\n      mul\n        /* \"#utility.yul\":10579:10601   */\n      add\n        /* \"#utility.yul\":10573:10577   */\n      dup9\n        /* \"#utility.yul\":10566:10602   */\n      sstore\n        /* \"#utility.yul\":10001:10612   */\n      pop\n      pop\n      pop\n        /* \"#utility.yul\":9964:10851   */\n    tag_206:\n      pop\n        /* \"#utility.yul\":9554:10857   */\n      pop\n      pop\n      pop\n        /* \"#utility.yul\":9462:10857   */\n      pop\n      pop\n      jump\t// out\n        /* \"#utility.yul\":10863:11011   */\n    tag_88:\n        /* \"#utility.yul\":10965:10976   */\n      0x00\n        /* \"#utility.yul\":11002:11005   */\n      dup2\n        /* \"#utility.yul\":10987:11005   */\n      swap1\n      pop\n        /* \"#utility.yul\":10863:11011   */\n      swap3\n      swap2\n      pop\n      pop\n      jump\t// out\n        /* \"#utility.yul\":11017:11407   */\n    tag_89:\n        /* \"#utility.yul\":11123:11126   */\n      0x00\n        /* \"#utility.yul\":11151:11190   */\n      tag_218\n        /* \"#utility.yul\":11184:11189   */\n      dup3\n        /* \"#utility.yul\":11151:11190   */\n      tag_68\n      jump\t// in\n    tag_218:\n        /* \"#utility.yul\":11206:11295   */\n      tag_219\n        /* \"#utility.yul\":11288:11294   */\n      dup2\n        /* \"#utility.yul\":11283:11286   */\n      dup6\n        /* \"#utility.yul\":11206:11295   */\n      tag_88\n      jump\t// in\n    tag_219:\n        /* \"#utility.yul\":11199:11295   */\n      swap4\n      pop\n        /* \"#utility.yul\":11304:11369   */\n      tag_220\n        /* \"#utility.yul\":11362:11368   */\n      dup2\n        /* \"#utility.yul\":11357:11360   */\n      dup6\n        /* \"#utility.yul\":11350:11354   */\n      0x20\n        /* \"#utility.yul\":11343:11348   */\n      dup7\n        /* \"#utility.yul\":11339:11355   */\n      add\n        /* \"#utility.yul\":11304:11369   */\n      tag_70\n      jump\t// in\n    tag_220:\n        /* \"#utility.yul\":11394:11400   */\n      dup1\n        /* \"#utility.yul\":11389:11392   */\n      dup5\n        /* \"#utility.yul\":11385:11401   */\n      add\n        /* \"#utility.yul\":11378:11401   */\n      swap2\n      pop\n        /* \"#utility.yul\":11127:11407   */\n      pop\n        /* \"#utility.yul\":11017:11407   */\n      swap3\n      swap2\n      pop\n      pop\n      jump\t// out\n        /* \"#utility.yul\":11413:11688   */\n    tag_42:\n        /* \"#utility.yul\":11545:11548   */\n      0x00\n        /* \"#utility.yul\":11567:11662   */\n      tag_222\n        /* \"#utility.yul\":11658:11661   */\n      dup3\n        /* \"#utility.yul\":11649:11655   */\n      dup5\n        /* \"#utility.yul\":11567:11662   */\n      tag_89\n      jump\t// in\n    tag_222:\n        /* \"#utility.yul\":11560:11662   */\n      swap2\n      pop\n        /* \"#utility.yul\":11679:11682   */\n      dup2\n        /* \"#utility.yul\":11672:11682   */\n      swap1\n      pop\n        /* \"#utility.yul\":11413:11688   */\n      swap3\n      swap2\n      pop\n      pop\n      jump\t// out\n\n    auxdata: 0xa26469706673582212208187cb279f81686d92c5c5d6963be4957de8d9b002b553ca9118de4216c9477e64736f6c634300081a0033\n}\n",
				"bytecode": {
					"linkReferences": {},
					"object": "608060405260015f806101000a81548160ff0219169083151502179055506040518060400160405280600981526020017f736f6d652074657874000000000000000000000000000000000000000000000081525060019081610061919061032a565b5060066002557ffffffffffffffffffffffffffffffffffffffffffffffffffffffffffffffffa60035573ec0ff344109662fee9f63a0c9d425afa3fb407ec60045f6101000a81548173ffffffffffffffffffffffffffffffffffffffff021916908373ffffffffffffffffffffffffffffffffffffffff1602179055503480156100ea575f80fd5b506103f9565b5f81519050919050565b7f4e487b71000000000000000000000000000000000000000000000000000000005f52604160045260245ffd5b7f4e487b71000000000000000000000000000000000000000000000000000000005f52602260045260245ffd5b5f600282049050600182168061016b57607f821691505b60208210810361017e5761017d610127565b5b50919050565b5f819050815f5260205f209050919050565b5f6020601f8301049050919050565b5f82821b905092915050565b5f600883026101e07fffffffffffffffffffffffffffffffffffffffffffffffffffffffffffffffff826101a5565b6101ea86836101a5565b95508019841693508086168417925050509392505050565b5f819050919050565b5f819050919050565b5f61022e61022961022484610202565b61020b565b610202565b9050919050565b5f819050919050565b61024783610214565b61025b61025382610235565b8484546101b1565b825550505050565b5f90565b61026f610263565b61027a81848461023e565b505050565b5b8181101561029d576102925f82610267565b600181019050610280565b5050565b601f8211156102e2576102b381610184565b6102bc84610196565b810160208510156102cb578190505b6102df6102d785610196565b83018261027f565b50505b505050565b5f82821c905092915050565b5f6103025f19846008026102e7565b1980831691505092915050565b5f61031a83836102f3565b9150826002028217905092915050565b610333826100f0565b67ffffffffffffffff81111561034c5761034b6100fa565b5b6103568254610154565b6103618282856102a1565b5f60209050601f831160018114610392575f8415610380578287015190505b61038a858261030f565b8655506103f1565b601f1984166103a086610184565b5f5b828110156103c7578489015182556001820191506020850194506020810190506103a2565b868310156103e457848901516103e0601f8916826102f3565b8355505b6001600288020188555050505b505050505050565b610917806104065f395ff3fe608060405234801561000f575f80fd5b5060043610610060575f3560e01c8063329eb83914610064578063471f7cdf146100825780636057361d146100a05780636f760f41146100bc5780638bab8dd5146100d85780639e7a13ad14610108575b5f80fd5b61006c610139565b60405161007991906102de565b60405180910390f35b61008a610142565b60405161009791906102de565b60405180910390f35b6100ba60048036038101906100b59190610332565b610148565b005b6100d660048036038101906100d19190610499565b61015b565b005b6100f260048036038101906100ed91906104f3565b6101e4565b6040516100ff91906102de565b60405180910390f35b610122600480360381019061011d9190610332565b610211565b60405161013092919061059a565b60405180910390f35b5f600254905090565b60025481565b80600281905550610157610139565b5050565b5f6040518060400160405280838152602001848152509050600681908060018154018082558091505060019003905f5260205f2090600202015f909190919091505f820151815f015560208201518160010190816101b991906107c2565b505050816005846040516101cd91906108cb565b908152602001604051809103902081905550505050565b6005818051602081018201805184825260208301602085012081835280955050505050505f915090505481565b60068181548110610220575f80fd5b905f5260205f2090600202015f91509050805f015490806001018054610245906105f5565b80601f0160208091040260200160405190810160405280929190818152602001828054610271906105f5565b80156102bc5780601f10610293576101008083540402835291602001916102bc565b820191905f5260205f20905b81548152906001019060200180831161029f57829003601f168201915b5050505050905082565b5f819050919050565b6102d8816102c6565b82525050565b5f6020820190506102f15f8301846102cf565b92915050565b5f604051905090565b5f80fd5b5f80fd5b610311816102c6565b811461031b575f80fd5b50565b5f8135905061032c81610308565b92915050565b5f6020828403121561034757610346610300565b5b5f6103548482850161031e565b91505092915050565b5f80fd5b5f80fd5b5f601f19601f8301169050919050565b7f4e487b71000000000000000000000000000000000000000000000000000000005f52604160045260245ffd5b6103ab82610365565b810181811067ffffffffffffffff821117156103ca576103c9610375565b5b80604052505050565b5f6103dc6102f7565b90506103e882826103a2565b919050565b5f67ffffffffffffffff82111561040757610406610375565b5b61041082610365565b9050602081019050919050565b828183375f83830152505050565b5f61043d610438846103ed565b6103d3565b90508281526020810184848401111561045957610458610361565b5b61046484828561041d565b509392505050565b5f82601f8301126104805761047f61035d565b5b813561049084826020860161042b565b91505092915050565b5f80604083850312156104af576104ae610300565b5b5f83013567ffffffffffffffff8111156104cc576104cb610304565b5b6104d88582860161046c565b92505060206104e98582860161031e565b9150509250929050565b5f6020828403121561050857610507610300565b5b5f82013567ffffffffffffffff81111561052557610524610304565b5b6105318482850161046c565b91505092915050565b5f81519050919050565b5f82825260208201905092915050565b8281835e5f83830152505050565b5f61056c8261053a565b6105768185610544565b9350610586818560208601610554565b61058f81610365565b840191505092915050565b5f6040820190506105ad5f8301856102cf565b81810360208301526105bf8184610562565b90509392505050565b7f4e487b71000000000000000000000000000000000000000000000000000000005f52602260045260245ffd5b5f600282049050600182168061060c57607f821691505b60208210810361061f5761061e6105c8565b5b50919050565b5f819050815f5260205f209050919050565b5f6020601f8301049050919050565b5f82821b905092915050565b5f600883026106817fffffffffffffffffffffffffffffffffffffffffffffffffffffffffffffffff82610646565b61068b8683610646565b95508019841693508086168417925050509392505050565b5f819050919050565b5f6106c66106c16106bc846102c6565b6106a3565b6102c6565b9050919050565b5f819050919050565b6106df836106ac565b6106f36106eb826106cd565b848454610652565b825550505050565b5f90565b6107076106fb565b6107128184846106d6565b505050565b5b818110156107355761072a5f826106ff565b600181019050610718565b5050565b601f82111561077a5761074b81610625565b61075484610637565b81016020851015610763578190505b61077761076f85610637565b830182610717565b50505b505050565b5f82821c905092915050565b5f61079a5f198460080261077f565b1980831691505092915050565b5f6107b2838361078b565b9150826002028217905092915050565b6107cb8261053a565b67ffffffffffffffff8111156107e4576107e3610375565b5b6107ee82546105f5565b6107f9828285610739565b5f60209050601f83116001811461082a575f8415610818578287015190505b61082285826107a7565b865550610889565b601f19841661083886610625565b5f5b8281101561085f5784890151825560018201915060208501945060208101905061083a565b8683101561087c5784890151610878601f89168261078b565b8355505b6001600288020188555050505b505050505050565b5f81905092915050565b5f6108a58261053a565b6108af8185610891565b93506108bf818560208601610554565b80840191505092915050565b5f6108d6828461089b565b91508190509291505056fea26469706673582212208187cb279f81686d92c5c5d6963be4957de8d9b002b553ca9118de4216c9477e64736f6c634300081a0033",
					"opcodes": "PUSH1 0x80 PUSH1 0x40 MSTORE PUSH1 0x1 PUSH0 DUP1 PUSH2 0x100 EXP DUP2 SLOAD DUP2 PUSH1 0xFF MUL NOT AND SWAP1 DUP4 ISZERO ISZERO MUL OR SWAP1 SSTORE POP PUSH1 0x40 MLOAD DUP1 PUSH1 0x40 ADD PUSH1 0x40 MSTORE DUP1 PUSH1 0x9 DUP2 MSTORE PUSH1 0x20 ADD PUSH32 0x736F6D6520746578740000000000000000000000000000000000000000000000 DUP2 MSTORE POP PUSH1 0x1 SWAP1 DUP2 PUSH2 0x61 SWAP2 SWAP1 PUSH2 0x32A JUMP JUMPDEST POP PUSH1 0x6 PUSH1 0x2 SSTORE PUSH32 0xFFFFFFFFFFFFFFFFFFFFFFFFFFFFFFFFFFFFFFFFFFFFFFFFFFFFFFFFFFFFFFFA PUSH1 0x3 SSTORE PUSH20 0xEC0FF344109662FEE9F63A0C9D425AFA3FB407EC PUSH1 0x4 PUSH0 PUSH2 0x100 EXP DUP2 SLOAD DUP2 PUSH20 0xFFFFFFFFFFFFFFFFFFFFFFFFFFFFFFFFFFFFFFFF MUL NOT AND SWAP1 DUP4 PUSH20 0xFFFFFFFFFFFFFFFFFFFFFFFFFFFFFFFFFFFFFFFF AND MUL OR SWAP1 SSTORE POP CALLVALUE DUP1 ISZERO PUSH2 0xEA JUMPI PUSH0 DUP1 REVERT JUMPDEST POP PUSH2 0x3F9 JUMP JUMPDEST PUSH0 DUP2 MLOAD SWAP1 POP SWAP2 SWAP1 POP JUMP JUMPDEST PUSH32 0x4E487B7100000000000000000000000000000000000000000000000000000000 PUSH0 MSTORE PUSH1 0x41 PUSH1 0x4 MSTORE PUSH1 0x24 PUSH0 REVERT JUMPDEST PUSH32 0x4E487B7100000000000000000000000000000000000000000000000000000000 PUSH0 MSTORE PUSH1 0x22 PUSH1 0x4 MSTORE PUSH1 0x24 PUSH0 REVERT JUMPDEST PUSH0 PUSH1 0x2 DUP3 DIV SWAP1 POP PUSH1 0x1 DUP3 AND DUP1 PUSH2 0x16B JUMPI PUSH1 0x7F DUP3 AND SWAP2 POP JUMPDEST PUSH1 0x20 DUP3 LT DUP2 SUB PUSH2 0x17E JUMPI PUSH2 0x17D PUSH2 0x127 JUMP JUMPDEST JUMPDEST POP SWAP2 SWAP1 POP JUMP JUMPDEST PUSH0 DUP2 SWAP1 POP DUP2 PUSH0 MSTORE PUSH1 0x20 PUSH0 KECCAK256 SWAP1 POP SWAP2 SWAP1 POP JUMP JUMPDEST PUSH0 PUSH1 0x20 PUSH1 0x1F DUP4 ADD DIV SWAP1 POP SWAP2 SWAP1 POP JUMP JUMPDEST PUSH0 DUP3 DUP3 SHL SWAP1 POP SWAP3 SWAP2 POP POP JUMP JUMPDEST PUSH0 PUSH1 0x8 DUP4 MUL PUSH2 0x1E0 PUSH32 0xFFFFFFFFFFFFFFFFFFFFFFFFFFFFFFFFFFFFFFFFFFFFFFFFFFFFFFFFFFFFFFFF DUP3 PUSH2 0x1A5 JUMP JUMPDEST PUSH2 0x1EA DUP7 DUP4 PUSH2 0x1A5 JUMP JUMPDEST SWAP6 POP DUP1 NOT DUP5 AND SWAP4 POP DUP1 DUP7 AND DUP5 OR SWAP3 POP POP POP SWAP4 SWAP3 POP POP POP JUMP JUMPDEST PUSH0 DUP2 SWAP1 POP SWAP2 SWAP1 POP JUMP JUMPDEST PUSH0 DUP2 SWAP1 POP SWAP2 SWAP1 POP JUMP JUMPDEST PUSH0 PUSH2 0x22E PUSH2 0x229 PUSH2 0x224 DUP5 PUSH2 0x202 JUMP JUMPDEST PUSH2 0x20B JUMP JUMPDEST PUSH2 0x202 JUMP JUMPDEST SWAP1 POP SWAP2 SWAP1 POP JUMP JUMPDEST PUSH0 DUP2 SWAP1 POP SWAP2 SWAP1 POP JUMP JUMPDEST PUSH2 0x247 DUP4 PUSH2 0x214 JUMP JUMPDEST PUSH2 0x25B PUSH2 0x253 DUP3 PUSH2 0x235 JUMP JUMPDEST DUP5 DUP5 SLOAD PUSH2 0x1B1 JUMP JUMPDEST DUP3 SSTORE POP POP POP POP JUMP JUMPDEST PUSH0 SWAP1 JUMP JUMPDEST PUSH2 0x26F PUSH2 0x263 JUMP JUMPDEST PUSH2 0x27A DUP2 DUP5 DUP5 PUSH2 0x23E JUMP JUMPDEST POP POP POP JUMP JUMPDEST JUMPDEST DUP2 DUP2 LT ISZERO PUSH2 0x29D JUMPI PUSH2 0x292 PUSH0 DUP3 PUSH2 0x267 JUMP JUMPDEST PUSH1 0x1 DUP2 ADD SWAP1 POP PUSH2 0x280 JUMP JUMPDEST POP POP JUMP JUMPDEST PUSH1 0x1F DUP3 GT ISZERO PUSH2 0x2E2 JUMPI PUSH2 0x2B3 DUP2 PUSH2 0x184 JUMP JUMPDEST PUSH2 0x2BC DUP5 PUSH2 0x196 JUMP JUMPDEST DUP2 ADD PUSH1 0x20 DUP6 LT ISZERO PUSH2 0x2CB JUMPI DUP2 SWAP1 POP JUMPDEST PUSH2 0x2DF PUSH2 0x2D7 DUP6 PUSH2 0x196 JUMP JUMPDEST DUP4 ADD DUP3 PUSH2 0x27F JUMP JUMPDEST POP POP JUMPDEST POP POP POP JUMP JUMPDEST PUSH0 DUP3 DUP3 SHR SWAP1 POP SWAP3 SWAP2 POP POP JUMP JUMPDEST PUSH0 PUSH2 0x302 PUSH0 NOT DUP5 PUSH1 0x8 MUL PUSH2 0x2E7 JUMP JUMPDEST NOT DUP1 DUP4 AND SWAP2 POP POP SWAP3 SWAP2 POP POP JUMP JUMPDEST PUSH0 PUSH2 0x31A DUP4 DUP4 PUSH2 0x2F3 JUMP JUMPDEST SWAP2 POP DUP3 PUSH1 0x2 MUL DUP3 OR SWAP1 POP SWAP3 SWAP2 POP POP JUMP JUMPDEST PUSH2 0x333 DUP3 PUSH2 0xF0 JUMP JUMPDEST PUSH8 0xFFFFFFFFFFFFFFFF DUP2 GT ISZERO PUSH2 0x34C JUMPI PUSH2 0x34B PUSH2 0xFA JUMP JUMPDEST JUMPDEST PUSH2 0x356 DUP3 SLOAD PUSH2 0x154 JUMP JUMPDEST PUSH2 0x361 DUP3 DUP3 DUP6 PUSH2 0x2A1 JUMP JUMPDEST PUSH0 PUSH1 0x20 SWAP1 POP PUSH1 0x1F DUP4 GT PUSH1 0x1 DUP2 EQ PUSH2 0x392 JUMPI PUSH0 DUP5 ISZERO PUSH2 0x380 JUMPI DUP3 DUP8 ADD MLOAD SWAP1 POP JUMPDEST PUSH2 0x38A DUP6 DUP3 PUSH2 0x30F JUMP JUMPDEST DUP7 SSTORE POP PUSH2 0x3F1 JUMP JUMPDEST PUSH1 0x1F NOT DUP5 AND PUSH2 0x3A0 DUP7 PUSH2 0x184 JUMP JUMPDEST PUSH0 JUMPDEST DUP3 DUP2 LT ISZERO PUSH2 0x3C7 JUMPI DUP5 DUP10 ADD MLOAD DUP3 SSTORE PUSH1 0x1 DUP3 ADD SWAP2 POP PUSH1 0x20 DUP6 ADD SWAP5 POP PUSH1 0x20 DUP2 ADD SWAP1 POP PUSH2 0x3A2 JUMP JUMPDEST DUP7 DUP4 LT ISZERO PUSH2 0x3E4 JUMPI DUP5 DUP10 ADD MLOAD PUSH2 0x3E0 PUSH1 0x1F DUP10 AND DUP3 PUSH2 0x2F3 JUMP JUMPDEST DUP4 SSTORE POP JUMPDEST PUSH1 0x1 PUSH1 0x2 DUP9 MUL ADD DUP9 SSTORE POP POP POP JUMPDEST POP POP POP POP POP POP JUMP JUMPDEST PUSH2 0x917 DUP1 PUSH2 0x406 PUSH0 CODECOPY PUSH0 RETURN INVALID PUSH1 0x80 PUSH1 0x40 MSTORE CALLVALUE DUP1 ISZERO PUSH2 0xF JUMPI PUSH0 DUP1 REVERT JUMPDEST POP PUSH1 0x4 CALLDATASIZE LT PUSH2 0x60 JUMPI PUSH0 CALLDATALOAD PUSH1 0xE0 SHR DUP1 PUSH4 0x329EB839 EQ PUSH2 0x64 JUMPI DUP1 PUSH4 0x471F7CDF EQ PUSH2 0x82 JUMPI DUP1 PUSH4 0x6057361D EQ PUSH2 0xA0 JUMPI DUP1 PUSH4 0x6F760F41 EQ PUSH2 0xBC JUMPI DUP1 PUSH4 0x8BAB8DD5 EQ PUSH2 0xD8 JUMPI DUP1 PUSH4 0x9E7A13AD EQ PUSH2 0x108 JUMPI JUMPDEST PUSH0 DUP1 REVERT JUMPDEST PUSH2 0x6C PUSH2 0x139 JUMP JUMPDEST PUSH1 0x40 MLOAD PUSH2 0x79 SWAP2 SWAP1 PUSH2 0x2DE JUMP JUMPDEST PUSH1 0x40 MLOAD DUP1 SWAP2 SUB SWAP1 RETURN JUMPDEST PUSH2 0x8A PUSH2 0x142 JUMP JUMPDEST PUSH1 0x40 MLOAD PUSH2 0x97 SWAP2 SWAP1 PUSH2 0x2DE JUMP JUMPDEST PUSH1 0x40 MLOAD DUP1 SWAP2 SUB SWAP1 RETURN JUMPDEST PUSH2 0xBA PUSH1 0x4 DUP1 CALLDATASIZE SUB DUP2 ADD SWAP1 PUSH2 0xB5 SWAP2 SWAP1 PUSH2 0x332 JUMP JUMPDEST PUSH2 0x148 JUMP JUMPDEST STOP JUMPDEST PUSH2 0xD6 PUSH1 0x4 DUP1 CALLDATASIZE SUB DUP2 ADD SWAP1 PUSH2 0xD1 SWAP2 SWAP1 PUSH2 0x499 JUMP JUMPDEST PUSH2 0x15B JUMP JUMPDEST STOP JUMPDEST PUSH2 0xF2 PUSH1 0x4 DUP1 CALLDATASIZE SUB DUP2 ADD SWAP1 PUSH2 0xED SWAP2 SWAP1 PUSH2 0x4F3 JUMP JUMPDEST PUSH2 0x1E4 JUMP JUMPDEST PUSH1 0x40 MLOAD PUSH2 0xFF SWAP2 SWAP1 PUSH2 0x2DE JUMP JUMPDEST PUSH1 0x40 MLOAD DUP1 SWAP2 SUB SWAP1 RETURN JUMPDEST PUSH2 0x122 PUSH1 0x4 DUP1 CALLDATASIZE SUB DUP2 ADD SWAP1 PUSH2 0x11D SWAP2 SWAP1 PUSH2 0x332 JUMP JUMPDEST PUSH2 0x211 JUMP JUMPDEST PUSH1 0x40 MLOAD PUSH2 0x130 SWAP3 SWAP2 SWAP1 PUSH2 0x59A JUMP JUMPDEST PUSH1 0x40 MLOAD DUP1 SWAP2 SUB SWAP1 RETURN JUMPDEST PUSH0 PUSH1 0x2 SLOAD SWAP1 POP SWAP1 JUMP JUMPDEST PUSH1 0x2 SLOAD DUP2 JUMP JUMPDEST DUP1 PUSH1 0x2 DUP2 SWAP1 SSTORE POP PUSH2 0x157 PUSH2 0x139 JUMP JUMPDEST POP POP JUMP JUMPDEST PUSH0 PUSH1 0x40 MLOAD DUP1 PUSH1 0x40 ADD PUSH1 0x40 MSTORE DUP1 DUP4 DUP2 MSTORE PUSH1 0x20 ADD DUP5 DUP2 MSTORE POP SWAP1 POP PUSH1 0x6 DUP2 SWAP1 DUP1 PUSH1 0x1 DUP2 SLOAD ADD DUP1 DUP3 SSTORE DUP1 SWAP2 POP POP PUSH1 0x1 SWAP1 SUB SWAP1 PUSH0 MSTORE PUSH1 0x20 PUSH0 KECCAK256 SWAP1 PUSH1 0x2 MUL ADD PUSH0 SWAP1 SWAP2 SWAP1 SWAP2 SWAP1 SWAP2 POP PUSH0 DUP3 ADD MLOAD DUP2 PUSH0 ADD SSTORE PUSH1 0x20 DUP3 ADD MLOAD DUP2 PUSH1 0x1 ADD SWAP1 DUP2 PUSH2 0x1B9 SWAP2 SWAP1 PUSH2 0x7C2 JUMP JUMPDEST POP POP POP DUP2 PUSH1 0x5 DUP5 PUSH1 0x40 MLOAD PUSH2 0x1CD SWAP2 SWAP1 PUSH2 0x8CB JUMP JUMPDEST SWAP1 DUP2 MSTORE PUSH1 0x20 ADD PUSH1 0x40 MLOAD DUP1 SWAP2 SUB SWAP1 KECCAK256 DUP2 SWAP1 SSTORE POP POP POP POP JUMP JUMPDEST PUSH1 0x5 DUP2 DUP1 MLOAD PUSH1 0x20 DUP2 ADD DUP3 ADD DUP1 MLOAD DUP5 DUP3 MSTORE PUSH1 0x20 DUP4 ADD PUSH1 0x20 DUP6 ADD KECCAK256 DUP2 DUP4 MSTORE DUP1 SWAP6 POP POP POP POP POP POP PUSH0 SWAP2 POP SWAP1 POP SLOAD DUP2 JUMP JUMPDEST PUSH1 0x6 DUP2 DUP2 SLOAD DUP2 LT PUSH2 0x220 JUMPI PUSH0 DUP1 REVERT JUMPDEST SWAP1 PUSH0 MSTORE PUSH1 0x20 PUSH0 KECCAK256 SWAP1 PUSH1 0x2 MUL ADD PUSH0 SWAP2 POP SWAP1 POP DUP1 PUSH0 ADD SLOAD SWAP1 DUP1 PUSH1 0x1 ADD DUP1 SLOAD PUSH2 0x245 SWAP1 PUSH2 0x5F5 JUMP JUMPDEST DUP1 PUSH1 0x1F ADD PUSH1 0x20 DUP1 SWAP2 DIV MUL PUSH1 0x20 ADD PUSH1 0x40 MLOAD SWAP1 DUP2 ADD PUSH1 0x40 MSTORE DUP1 SWAP3 SWAP2 SWAP1 DUP2 DUP2 MSTORE PUSH1 0x20 ADD DUP3 DUP1 SLOAD PUSH2 0x271 SWAP1 PUSH2 0x5F5 JUMP JUMPDEST DUP1 ISZERO PUSH2 0x2BC JUMPI DUP1 PUSH1 0x1F LT PUSH2 0x293 JUMPI PUSH2 0x100 DUP1 DUP4 SLOAD DIV MUL DUP4 MSTORE SWAP2 PUSH1 0x20 ADD SWAP2 PUSH2 0x2BC JUMP JUMPDEST DUP3 ADD SWAP2 SWAP1 PUSH0 MSTORE PUSH1 0x20 PUSH0 KECCAK256 SWAP1 JUMPDEST DUP2 SLOAD DUP2 MSTORE SWAP1 PUSH1 0x1 ADD SWAP1 PUSH1 0x20 ADD DUP1 DUP4 GT PUSH2 0x29F JUMPI DUP3 SWAP1 SUB PUSH1 0x1F AND DUP3 ADD SWAP2 JUMPDEST POP POP POP POP POP SWAP1 POP DUP3 JUMP JUMPDEST PUSH0 DUP2 SWAP1 POP SWAP2 SWAP1 POP JUMP JUMPDEST PUSH2 0x2D8 DUP2 PUSH2 0x2C6 JUMP JUMPDEST DUP3 MSTORE POP POP JUMP JUMPDEST PUSH0 PUSH1 0x20 DUP3 ADD SWAP1 POP PUSH2 0x2F1 PUSH0 DUP4 ADD DUP5 PUSH2 0x2CF JUMP JUMPDEST SWAP3 SWAP2 POP POP JUMP JUMPDEST PUSH0 PUSH1 0x40 MLOAD SWAP1 POP SWAP1 JUMP JUMPDEST PUSH0 DUP1 REVERT JUMPDEST PUSH0 DUP1 REVERT JUMPDEST PUSH2 0x311 DUP2 PUSH2 0x2C6 JUMP JUMPDEST DUP2 EQ PUSH2 0x31B JUMPI PUSH0 DUP1 REVERT JUMPDEST POP JUMP JUMPDEST PUSH0 DUP2 CALLDATALOAD SWAP1 POP PUSH2 0x32C DUP2 PUSH2 0x308 JUMP JUMPDEST SWAP3 SWAP2 POP POP JUMP JUMPDEST PUSH0 PUSH1 0x20 DUP3 DUP5 SUB SLT ISZERO PUSH2 0x347 JUMPI PUSH2 0x346 PUSH2 0x300 JUMP JUMPDEST JUMPDEST PUSH0 PUSH2 0x354 DUP5 DUP3 DUP6 ADD PUSH2 0x31E JUMP JUMPDEST SWAP2 POP POP SWAP3 SWAP2 POP POP JUMP JUMPDEST PUSH0 DUP1 REVERT JUMPDEST PUSH0 DUP1 REVERT JUMPDEST PUSH0 PUSH1 0x1F NOT PUSH1 0x1F DUP4 ADD AND SWAP1 POP SWAP2 SWAP1 POP JUMP JUMPDEST PUSH32 0x4E487B7100000000000000000000000000000000000000000000000000000000 PUSH0 MSTORE PUSH1 0x41 PUSH1 0x4 MSTORE PUSH1 0x24 PUSH0 REVERT JUMPDEST PUSH2 0x3AB DUP3 PUSH2 0x365 JUMP JUMPDEST DUP2 ADD DUP2 DUP2 LT PUSH8 0xFFFFFFFFFFFFFFFF DUP3 GT OR ISZERO PUSH2 0x3CA JUMPI PUSH2 0x3C9 PUSH2 0x375 JUMP JUMPDEST JUMPDEST DUP1 PUSH1 0x40 MSTORE POP POP POP JUMP JUMPDEST PUSH0 PUSH2 0x3DC PUSH2 0x2F7 JUMP JUMPDEST SWAP1 POP PUSH2 0x3E8 DUP3 DUP3 PUSH2 0x3A2 JUMP JUMPDEST SWAP2 SWAP1 POP JUMP JUMPDEST PUSH0 PUSH8 0xFFFFFFFFFFFFFFFF DUP3 GT ISZERO PUSH2 0x407 JUMPI PUSH2 0x406 PUSH2 0x375 JUMP JUMPDEST JUMPDEST PUSH2 0x410 DUP3 PUSH2 0x365 JUMP JUMPDEST SWAP1 POP PUSH1 0x20 DUP2 ADD SWAP1 POP SWAP2 SWAP1 POP JUMP JUMPDEST DUP3 DUP2 DUP4 CALLDATACOPY PUSH0 DUP4 DUP4 ADD MSTORE POP POP POP JUMP JUMPDEST PUSH0 PUSH2 0x43D PUSH2 0x438 DUP5 PUSH2 0x3ED JUMP JUMPDEST PUSH2 0x3D3 JUMP JUMPDEST SWAP1 POP DUP3 DUP2 MSTORE PUSH1 0x20 DUP2 ADD DUP5 DUP5 DUP5 ADD GT ISZERO PUSH2 0x459 JUMPI PUSH2 0x458 PUSH2 0x361 JUMP JUMPDEST JUMPDEST PUSH2 0x464 DUP5 DUP3 DUP6 PUSH2 0x41D JUMP JUMPDEST POP SWAP4 SWAP3 POP POP POP JUMP JUMPDEST PUSH0 DUP3 PUSH1 0x1F DUP4 ADD SLT PUSH2 0x480 JUMPI PUSH2 0x47F PUSH2 0x35D JUMP JUMPDEST JUMPDEST DUP2 CALLDATALOAD PUSH2 0x490 DUP5 DUP3 PUSH1 0x20 DUP7 ADD PUSH2 0x42B JUMP JUMPDEST SWAP2 POP POP SWAP3 SWAP2 POP POP JUMP JUMPDEST PUSH0 DUP1 PUSH1 0x40 DUP4 DUP6 SUB SLT ISZERO PUSH2 0x4AF JUMPI PUSH2 0x4AE PUSH2 0x300 JUMP JUMPDEST JUMPDEST PUSH0 DUP4 ADD CALLDATALOAD PUSH8 0xFFFFFFFFFFFFFFFF DUP2 GT ISZERO PUSH2 0x4CC JUMPI PUSH2 0x4CB PUSH2 0x304 JUMP JUMPDEST JUMPDEST PUSH2 0x4D8 DUP6 DUP3 DUP7 ADD PUSH2 0x46C JUMP JUMPDEST SWAP3 POP POP PUSH1 0x20 PUSH2 0x4E9 DUP6 DUP3 DUP7 ADD PUSH2 0x31E JUMP JUMPDEST SWAP2 POP POP SWAP3 POP SWAP3 SWAP1 POP JUMP JUMPDEST PUSH0 PUSH1 0x20 DUP3 DUP5 SUB SLT ISZERO PUSH2 0x508 JUMPI PUSH2 0x507 PUSH2 0x300 JUMP JUMPDEST JUMPDEST PUSH0 DUP3 ADD CALLDATALOAD PUSH8 0xFFFFFFFFFFFFFFFF DUP2 GT ISZERO PUSH2 0x525 JUMPI PUSH2 0x524 PUSH2 0x304 JUMP JUMPDEST JUMPDEST PUSH2 0x531 DUP5 DUP3 DUP6 ADD PUSH2 0x46C JUMP JUMPDEST SWAP2 POP POP SWAP3 SWAP2 POP POP JUMP JUMPDEST PUSH0 DUP2 MLOAD SWAP1 POP SWAP2 SWAP1 POP JUMP JUMPDEST PUSH0 DUP3 DUP3 MSTORE PUSH1 0x20 DUP3 ADD SWAP1 POP SWAP3 SWAP2 POP POP JUMP JUMPDEST DUP3 DUP2 DUP4 MCOPY PUSH0 DUP4 DUP4 ADD MSTORE POP POP POP JUMP JUMPDEST PUSH0 PUSH2 0x56C DUP3 PUSH2 0x53A JUMP JUMPDEST PUSH2 0x576 DUP2 DUP6 PUSH2 0x544 JUMP JUMPDEST SWAP4 POP PUSH2 0x586 DUP2 DUP6 PUSH1 0x20 DUP7 ADD PUSH2 0x554 JUMP JUMPDEST PUSH2 0x58F DUP2 PUSH2 0x365 JUMP JUMPDEST DUP5 ADD SWAP2 POP POP SWAP3 SWAP2 POP POP JUMP JUMPDEST PUSH0 PUSH1 0x40 DUP3 ADD SWAP1 POP PUSH2 0x5AD PUSH0 DUP4 ADD DUP6 PUSH2 0x2CF JUMP JUMPDEST DUP2 DUP2 SUB PUSH1 0x20 DUP4 ADD MSTORE PUSH2 0x5BF DUP2 DUP5 PUSH2 0x562 JUMP JUMPDEST SWAP1 POP SWAP4 SWAP3 POP POP POP JUMP JUMPDEST PUSH32 0x4E487B7100000000000000000000000000000000000000000000000000000000 PUSH0 MSTORE PUSH1 0x22 PUSH1 0x4 MSTORE PUSH1 0x24 PUSH0 REVERT JUMPDEST PUSH0 PUSH1 0x2 DUP3 DIV SWAP1 POP PUSH1 0x1 DUP3 AND DUP1 PUSH2 0x60C JUMPI PUSH1 0x7F DUP3 AND SWAP2 POP JUMPDEST PUSH1 0x20 DUP3 LT DUP2 SUB PUSH2 0x61F JUMPI PUSH2 0x61E PUSH2 0x5C8 JUMP JUMPDEST JUMPDEST POP SWAP2 SWAP1 POP JUMP JUMPDEST PUSH0 DUP2 SWAP1 POP DUP2 PUSH0 MSTORE PUSH1 0x20 PUSH0 KECCAK256 SWAP1 POP SWAP2 SWAP1 POP JUMP JUMPDEST PUSH0 PUSH1 0x20 PUSH1 0x1F DUP4 ADD DIV SWAP1 POP SWAP2 SWAP1 POP JUMP JUMPDEST PUSH0 DUP3 DUP3 SHL SWAP1 POP SWAP3 SWAP2 POP POP JUMP JUMPDEST PUSH0 PUSH1 0x8 DUP4 MUL PUSH2 0x681 PUSH32 0xFFFFFFFFFFFFFFFFFFFFFFFFFFFFFFFFFFFFFFFFFFFFFFFFFFFFFFFFFFFFFFFF DUP3 PUSH2 0x646 JUMP JUMPDEST PUSH2 0x68B DUP7 DUP4 PUSH2 0x646 JUMP JUMPDEST SWAP6 POP DUP1 NOT DUP5 AND SWAP4 POP DUP1 DUP7 AND DUP5 OR SWAP3 POP POP POP SWAP4 SWAP3 POP POP POP JUMP JUMPDEST PUSH0 DUP2 SWAP1 POP SWAP2 SWAP1 POP JUMP JUMPDEST PUSH0 PUSH2 0x6C6 PUSH2 0x6C1 PUSH2 0x6BC DUP5 PUSH2 0x2C6 JUMP JUMPDEST PUSH2 0x6A3 JUMP JUMPDEST PUSH2 0x2C6 JUMP JUMPDEST SWAP1 POP SWAP2 SWAP1 POP JUMP JUMPDEST PUSH0 DUP2 SWAP1 POP SWAP2 SWAP1 POP JUMP JUMPDEST PUSH2 0x6DF DUP4 PUSH2 0x6AC JUMP JUMPDEST PUSH2 0x6F3 PUSH2 0x6EB DUP3 PUSH2 0x6CD JUMP JUMPDEST DUP5 DUP5 SLOAD PUSH2 0x652 JUMP JUMPDEST DUP3 SSTORE POP POP POP POP JUMP JUMPDEST PUSH0 SWAP1 JUMP JUMPDEST PUSH2 0x707 PUSH2 0x6FB JUMP JUMPDEST PUSH2 0x712 DUP2 DUP5 DUP5 PUSH2 0x6D6 JUMP JUMPDEST POP POP POP JUMP JUMPDEST JUMPDEST DUP2 DUP2 LT ISZERO PUSH2 0x735 JUMPI PUSH2 0x72A PUSH0 DUP3 PUSH2 0x6FF JUMP JUMPDEST PUSH1 0x1 DUP2 ADD SWAP1 POP PUSH2 0x718 JUMP JUMPDEST POP POP JUMP JUMPDEST PUSH1 0x1F DUP3 GT ISZERO PUSH2 0x77A JUMPI PUSH2 0x74B DUP2 PUSH2 0x625 JUMP JUMPDEST PUSH2 0x754 DUP5 PUSH2 0x637 JUMP JUMPDEST DUP2 ADD PUSH1 0x20 DUP6 LT ISZERO PUSH2 0x763 JUMPI DUP2 SWAP1 POP JUMPDEST PUSH2 0x777 PUSH2 0x76F DUP6 PUSH2 0x637 JUMP JUMPDEST DUP4 ADD DUP3 PUSH2 0x717 JUMP JUMPDEST POP POP JUMPDEST POP POP POP JUMP JUMPDEST PUSH0 DUP3 DUP3 SHR SWAP1 POP SWAP3 SWAP2 POP POP JUMP JUMPDEST PUSH0 PUSH2 0x79A PUSH0 NOT DUP5 PUSH1 0x8 MUL PUSH2 0x77F JUMP JUMPDEST NOT DUP1 DUP4 AND SWAP2 POP POP SWAP3 SWAP2 POP POP JUMP JUMPDEST PUSH0 PUSH2 0x7B2 DUP4 DUP4 PUSH2 0x78B JUMP JUMPDEST SWAP2 POP DUP3 PUSH1 0x2 MUL DUP3 OR SWAP1 POP SWAP3 SWAP2 POP POP JUMP JUMPDEST PUSH2 0x7CB DUP3 PUSH2 0x53A JUMP JUMPDEST PUSH8 0xFFFFFFFFFFFFFFFF DUP2 GT ISZERO PUSH2 0x7E4 JUMPI PUSH2 0x7E3 PUSH2 0x375 JUMP JUMPDEST JUMPDEST PUSH2 0x7EE DUP3 SLOAD PUSH2 0x5F5 JUMP JUMPDEST PUSH2 0x7F9 DUP3 DUP3 DUP6 PUSH2 0x739 JUMP JUMPDEST PUSH0 PUSH1 0x20 SWAP1 POP PUSH1 0x1F DUP4 GT PUSH1 0x1 DUP2 EQ PUSH2 0x82A JUMPI PUSH0 DUP5 ISZERO PUSH2 0x818 JUMPI DUP3 DUP8 ADD MLOAD SWAP1 POP JUMPDEST PUSH2 0x822 DUP6 DUP3 PUSH2 0x7A7 JUMP JUMPDEST DUP7 SSTORE POP PUSH2 0x889 JUMP JUMPDEST PUSH1 0x1F NOT DUP5 AND PUSH2 0x838 DUP7 PUSH2 0x625 JUMP JUMPDEST PUSH0 JUMPDEST DUP3 DUP2 LT ISZERO PUSH2 0x85F JUMPI DUP5 DUP10 ADD MLOAD DUP3 SSTORE PUSH1 0x1 DUP3 ADD SWAP2 POP PUSH1 0x20 DUP6 ADD SWAP5 POP PUSH1 0x20 DUP2 ADD SWAP1 POP PUSH2 0x83A JUMP JUMPDEST DUP7 DUP4 LT ISZERO PUSH2 0x87C JUMPI DUP5 DUP10 ADD MLOAD PUSH2 0x878 PUSH1 0x1F DUP10 AND DUP3 PUSH2 0x78B JUMP JUMPDEST DUP4 SSTORE POP JUMPDEST PUSH1 0x1 PUSH1 0x2 DUP9 MUL ADD DUP9 SSTORE POP POP POP JUMPDEST POP POP POP POP POP POP JUMP JUMPDEST PUSH0 DUP2 SWAP1 POP SWAP3 SWAP2 POP POP JUMP JUMPDEST PUSH0 PUSH2 0x8A5 DUP3 PUSH2 0x53A JUMP JUMPDEST PUSH2 0x8AF DUP2 DUP6 PUSH2 0x891 JUMP JUMPDEST SWAP4 POP PUSH2 0x8BF DUP2 DUP6 PUSH1 0x20 DUP7 ADD PUSH2 0x554 JUMP JUMPDEST DUP1 DUP5 ADD SWAP2 POP POP SWAP3 SWAP2 POP POP JUMP JUMPDEST PUSH0 PUSH2 0x8D6 DUP3 DUP5 PUSH2 0x89B JUMP JUMPDEST SWAP2 POP DUP2 SWAP1 POP SWAP3 SWAP2 POP POP JUMP INVALID LOG2 PUSH5 0x6970667358 0x22 SLT KECCAK256 DUP2 DUP8 0xCB 0x27 SWAP16 DUP2 PUSH9 0x6D92C5C5D6963BE495 PUSH30 0xE8D9B002B553CA9118DE4216C9477E64736F6C634300081A003300000000 "
				},
				"gasEstimates": {
					"creation": {
						"codeDepositCost": "465400",
						"executionCost": "infinite",
						"totalCost": "infinite"
					},
					"external": {
						"addPerson(string,uint256)": "infinite",
						"favoriteNumber()": "2425",
						"nameToFavoriteNumber(string)": "infinite",
						"people(uint256)": "infinite",
						"pull()": "2410",
						"store(uint256)": "24676"
					}
				},
				"methodIdentifiers": {
					"addPerson(string,uint256)": "6f760f41",
					"favoriteNumber()": "471f7cdf",
					"nameToFavoriteNumber(string)": "8bab8dd5",
					"people(uint256)": "9e7a13ad",
					"pull()": "329eb839",
					"store(uint256)": "6057361d"
				}
			},
			"storageLayout": {
				"storage": [
					{
						"astId": 4,
						"contract": "contracts/SimpleStorage.sol:SimpleStorage",
						"label": "hasFavoriteNumber",
						"offset": 0,
						"slot": "0",
						"type": "t_bool"
					},
					{
						"astId": 7,
						"contract": "contracts/SimpleStorage.sol:SimpleStorage",
						"label": "favoriteNumberInText",
						"offset": 0,
						"slot": "1",
						"type": "t_string_storage"
					},
					{
						"astId": 10,
						"contract": "contracts/SimpleStorage.sol:SimpleStorage",
						"label": "favoriteNumber",
						"offset": 0,
						"slot": "2",
						"type": "t_uint256"
					},
					{
						"astId": 14,
						"contract": "contracts/SimpleStorage.sol:SimpleStorage",
						"label": "favoriteInt",
						"offset": 0,
						"slot": "3",
						"type": "t_int256"
					},
					{
						"astId": 17,
						"contract": "contracts/SimpleStorage.sol:SimpleStorage",
						"label": "myAddress",
						"offset": 0,
						"slot": "4",
						"type": "t_address"
					},
					{
						"astId": 26,
						"contract": "contracts/SimpleStorage.sol:SimpleStorage",
						"label": "nameToFavoriteNumber",
						"offset": 0,
						"slot": "5",
						"type": "t_mapping(t_string_memory_ptr,t_uint256)"
					},
					{
						"astId": 30,
						"contract": "contracts/SimpleStorage.sol:SimpleStorage",
						"label": "people",
						"offset": 0,
						"slot": "6",
						"type": "t_array(t_struct(People)22_storage)dyn_storage"
					}
				],
				"types": {
					"t_address": {
						"encoding": "inplace",
						"label": "address",
						"numberOfBytes": "20"
					},
					"t_array(t_struct(People)22_storage)dyn_storage": {
						"base": "t_struct(People)22_storage",
						"encoding": "dynamic_array",
						"label": "struct SimpleStorage.People[]",
						"numberOfBytes": "32"
					},
					"t_bool": {
						"encoding": "inplace",
						"label": "bool",
						"numberOfBytes": "1"
					},
					"t_int256": {
						"encoding": "inplace",
						"label": "int256",
						"numberOfBytes": "32"
					},
					"t_mapping(t_string_memory_ptr,t_uint256)": {
						"encoding": "mapping",
						"key": "t_string_memory_ptr",
						"label": "mapping(string => uint256)",
						"numberOfBytes": "32",
						"value": "t_uint256"
					},
					"t_string_memory_ptr": {
						"encoding": "bytes",
						"label": "string",
						"numberOfBytes": "32"
					},
					"t_string_storage": {
						"encoding": "bytes",
						"label": "string",
						"numberOfBytes": "32"
					},
					"t_struct(People)22_storage": {
						"encoding": "inplace",
						"label": "struct SimpleStorage.People",
						"members": [
							{
								"astId": 19,
								"contract": "contracts/SimpleStorage.sol:SimpleStorage",
								"label": "favoriteNumber",
								"offset": 0,
								"slot": "0",
								"type": "t_uint256"
							},
							{
								"astId": 21,
								"contract": "contracts/SimpleStorage.sol:SimpleStorage",
								"label": "name",
								"offset": 0,
								"slot": "1",
								"type": "t_string_storage"
							}
						],
						"numberOfBytes": "64"
					},
					"t_uint256": {
						"encoding": "inplace",
						"label": "uint256",
						"numberOfBytes": "32"
					}
				}
			},
			"userdoc": {
				"kind": "user",
				"methods": {},
				"version": 1
			}
		}
	}
}