{
	"contracts/FundMe.sol": {
		"FundMe": {
			"abi": [
				{
					"inputs": [],
					"name": "fund",
					"outputs": [],
					"stateMutability": "payable",
					"type": "function"
				},
				{
					"inputs": [],
					"name": "getConversionRate",
					"outputs": [],
					"stateMutability": "nonpayable",
					"type": "function"
				},
				{
					"inputs": [],
					"name": "getPrice",
					"outputs": [],
					"stateMutability": "nonpayable",
					"type": "function"
				},
				{
					"inputs": [],
					"name": "number",
					"outputs": [
						{
							"internalType": "uint256",
							"name": "",
							"type": "uint256"
						}
					],
					"stateMutability": "view",
					"type": "function"
				}
			],
			"devdoc": {
				"kind": "dev",
				"methods": {},
				"version": 1
			},
			"evm": {
				"assembly": "    /* \"contracts/FundMe.sol\":60:465  contract FundMe {... */\n  mstore(0x40, 0x80)\n  callvalue\n  dup1\n  iszero\n  tag_1\n  jumpi\n  revert(0x00, 0x00)\ntag_1:\n  pop\n  dataSize(sub_0)\n  dup1\n  dataOffset(sub_0)\n  0x00\n  codecopy\n  0x00\n  return\nstop\n\nsub_0: assembly {\n        /* \"contracts/FundMe.sol\":60:465  contract FundMe {... */\n      mstore(0x40, 0x80)\n      jumpi(tag_1, lt(calldatasize, 0x04))\n      shr(0xe0, calldataload(0x00))\n      dup1\n      0x8381f58a\n      eq\n      tag_2\n      jumpi\n      dup1\n      0x98d5fdca\n      eq\n      tag_3\n      jumpi\n      dup1\n      0xb60d4288\n      eq\n      tag_4\n      jumpi\n      dup1\n      0xf36089ec\n      eq\n      tag_5\n      jumpi\n    tag_1:\n      revert(0x00, 0x00)\n        /* \"contracts/FundMe.sol\":83:104  uint256 public number */\n    tag_2:\n      callvalue\n      dup1\n      iszero\n      tag_6\n      jumpi\n      revert(0x00, 0x00)\n    tag_6:\n      pop\n      tag_7\n      tag_8\n      jump\t// in\n    tag_7:\n      mload(0x40)\n      tag_9\n      swap2\n      swap1\n      tag_10\n      jump\t// in\n    tag_9:\n      mload(0x40)\n      dup1\n      swap2\n      sub\n      swap1\n      return\n        /* \"contracts/FundMe.sol\":233:343  function getPrice () public  {... */\n    tag_3:\n      callvalue\n      dup1\n      iszero\n      tag_11\n      jumpi\n      revert(0x00, 0x00)\n    tag_11:\n      pop\n      tag_12\n      tag_13\n      jump\t// in\n    tag_12:\n      stop\n        /* \"contracts/FundMe.sol\":112:225  function fund() public payable {... */\n    tag_4:\n      tag_14\n      tag_15\n      jump\t// in\n    tag_14:\n      stop\n        /* \"contracts/FundMe.sol\":355:411  function getConversionRate () public  {... */\n    tag_5:\n      callvalue\n      dup1\n      iszero\n      tag_16\n      jumpi\n      revert(0x00, 0x00)\n    tag_16:\n      pop\n      tag_17\n      tag_18\n      jump\t// in\n    tag_17:\n      stop\n        /* \"contracts/FundMe.sol\":83:104  uint256 public number */\n    tag_8:\n      sload(0x00)\n      dup2\n      jump\t// out\n        /* \"contracts/FundMe.sol\":233:343  function getPrice () public  {... */\n    tag_13:\n      jump\t// out\n        /* \"contracts/FundMe.sol\":112:225  function fund() public payable {... */\n    tag_15:\n        /* \"contracts/FundMe.sol\":163:164  5 */\n      0x05\n        /* \"contracts/FundMe.sol\":154:160  number */\n      0x00\n        /* \"contracts/FundMe.sol\":154:164  number = 5 */\n      dup2\n      swap1\n      sstore\n      pop\n        /* \"contracts/FundMe.sol\":195:199  1e18 */\n      0x0de0b6b3a7640000\n        /* \"contracts/FundMe.sol\":183:192  msg.value */\n      callvalue\n        /* \"contracts/FundMe.sol\":183:199  msg.value > 1e18 */\n      gt\n        /* \"contracts/FundMe.sol\":175:217  require(msg.value > 1e18,\"Not enough ETH\") */\n      tag_21\n      jumpi\n      mload(0x40)\n      0x08c379a000000000000000000000000000000000000000000000000000000000\n      dup2\n      mstore\n      0x04\n      add\n      tag_22\n      swap1\n      tag_23\n      jump\t// in\n    tag_22:\n      mload(0x40)\n      dup1\n      swap2\n      sub\n      swap1\n      revert\n    tag_21:\n        /* \"contracts/FundMe.sol\":112:225  function fund() public payable {... */\n      jump\t// out\n        /* \"contracts/FundMe.sol\":355:411  function getConversionRate () public  {... */\n    tag_18:\n      jump\t// out\n        /* \"#utility.yul\":7:84   */\n    tag_25:\n        /* \"#utility.yul\":44:51   */\n      0x00\n        /* \"#utility.yul\":73:78   */\n      dup2\n        /* \"#utility.yul\":62:78   */\n      swap1\n      pop\n        /* \"#utility.yul\":7:84   */\n      swap2\n      swap1\n      pop\n      jump\t// out\n        /* \"#utility.yul\":90:208   */\n    tag_26:\n        /* \"#utility.yul\":177:201   */\n      tag_33\n        /* \"#utility.yul\":195:200   */\n      dup2\n        /* \"#utility.yul\":177:201   */\n      tag_25\n      jump\t// in\n    tag_33:\n        /* \"#utility.yul\":172:175   */\n      dup3\n        /* \"#utility.yul\":165:202   */\n      mstore\n        /* \"#utility.yul\":90:208   */\n      pop\n      pop\n      jump\t// out\n        /* \"#utility.yul\":214:436   */\n    tag_10:\n        /* \"#utility.yul\":307:311   */\n      0x00\n        /* \"#utility.yul\":345:347   */\n      0x20\n        /* \"#utility.yul\":334:343   */\n      dup3\n        /* \"#utility.yul\":330:348   */\n      add\n        /* \"#utility.yul\":322:348   */\n      swap1\n      pop\n        /* \"#utility.yul\":358:429   */\n      tag_35\n        /* \"#utility.yul\":426:427   */\n      0x00\n        /* \"#utility.yul\":415:424   */\n      dup4\n        /* \"#utility.yul\":411:428   */\n      add\n        /* \"#utility.yul\":402:408   */\n      dup5\n        /* \"#utility.yul\":358:429   */\n      tag_26\n      jump\t// in\n    tag_35:\n        /* \"#utility.yul\":214:436   */\n      swap3\n      swap2\n      pop\n      pop\n      jump\t// out\n        /* \"#utility.yul\":442:611   */\n    tag_27:\n        /* \"#utility.yul\":526:537   */\n      0x00\n        /* \"#utility.yul\":560:566   */\n      dup3\n        /* \"#utility.yul\":555:558   */\n      dup3\n        /* \"#utility.yul\":548:567   */\n      mstore\n        /* \"#utility.yul\":600:604   */\n      0x20\n        /* \"#utility.yul\":595:598   */\n      dup3\n        /* \"#utility.yul\":591:605   */\n      add\n        /* \"#utility.yul\":576:605   */\n      swap1\n      pop\n        /* \"#utility.yul\":442:611   */\n      swap3\n      swap2\n      pop\n      pop\n      jump\t// out\n        /* \"#utility.yul\":617:781   */\n    tag_28:\n        /* \"#utility.yul\":757:773   */\n      0x4e6f7420656e6f75676820455448000000000000000000000000000000000000\n        /* \"#utility.yul\":753:754   */\n      0x00\n        /* \"#utility.yul\":745:751   */\n      dup3\n        /* \"#utility.yul\":741:755   */\n      add\n        /* \"#utility.yul\":734:774   */\n      mstore\n        /* \"#utility.yul\":617:781   */\n      pop\n      jump\t// out\n        /* \"#utility.yul\":787:1153   */\n    tag_29:\n        /* \"#utility.yul\":929:932   */\n      0x00\n        /* \"#utility.yul\":950:1017   */\n      tag_39\n        /* \"#utility.yul\":1014:1016   */\n      0x0e\n        /* \"#utility.yul\":1009:1012   */\n      dup4\n        /* \"#utility.yul\":950:1017   */\n      tag_27\n      jump\t// in\n    tag_39:\n        /* \"#utility.yul\":943:1017   */\n      swap2\n      pop\n        /* \"#utility.yul\":1026:1119   */\n      tag_40\n        /* \"#utility.yul\":1115:1118   */\n      dup3\n        /* \"#utility.yul\":1026:1119   */\n      tag_28\n      jump\t// in\n    tag_40:\n        /* \"#utility.yul\":1144:1146   */\n      0x20\n        /* \"#utility.yul\":1139:1142   */\n      dup3\n        /* \"#utility.yul\":1135:1147   */\n      add\n        /* \"#utility.yul\":1128:1147   */\n      swap1\n      pop\n        /* \"#utility.yul\":787:1153   */\n      swap2\n      swap1\n      pop\n      jump\t// out\n        /* \"#utility.yul\":1159:1578   */\n    tag_23:\n        /* \"#utility.yul\":1325:1329   */\n      0x00\n        /* \"#utility.yul\":1363:1365   */\n      0x20\n        /* \"#utility.yul\":1352:1361   */\n      dup3\n        /* \"#utility.yul\":1348:1366   */\n      add\n        /* \"#utility.yul\":1340:1366   */\n      swap1\n      pop\n        /* \"#utility.yul\":1412:1421   */\n      dup2\n        /* \"#utility.yul\":1406:1410   */\n      dup2\n        /* \"#utility.yul\":1402:1422   */\n      sub\n        /* \"#utility.yul\":1398:1399   */\n      0x00\n        /* \"#utility.yul\":1387:1396   */\n      dup4\n        /* \"#utility.yul\":1383:1400   */\n      add\n        /* \"#utility.yul\":1376:1423   */\n      mstore\n        /* \"#utility.yul\":1440:1571   */\n      tag_42\n        /* \"#utility.yul\":1566:1570   */\n      dup2\n        /* \"#utility.yul\":1440:1571   */\n      tag_29\n      jump\t// in\n    tag_42:\n        /* \"#utility.yul\":1432:1571   */\n      swap1\n      pop\n        /* \"#utility.yul\":1159:1578   */\n      swap2\n      swap1\n      pop\n      jump\t// out\n\n    auxdata: 0xa2646970667358221220765ea53854873717709a73d7638b3c8e3c00ff17f699af1edd1cd0fb9dd2ebd364736f6c634300081b0033\n}\n",
				"bytecode": {
					"linkReferences": {},
					"object": "6080604052348015600e575f5ffd5b506101dd8061001c5f395ff3fe60806040526004361061003e575f3560e01c80638381f58a1461004257806398d5fdca1461006c578063b60d428814610082578063f36089ec1461008c575b5f5ffd5b34801561004d575f5ffd5b506100566100a2565b6040516100639190610116565b60405180910390f35b348015610077575f5ffd5b506100806100a7565b005b61008a6100a9565b005b348015610097575f5ffd5b506100a06100fc565b005b5f5481565b565b60055f81905550670de0b6b3a764000034116100fa576040517f08c379a00000000000000000000000000000000000000000000000000000000081526004016100f190610189565b60405180910390fd5b565b565b5f819050919050565b610110816100fe565b82525050565b5f6020820190506101295f830184610107565b92915050565b5f82825260208201905092915050565b7f4e6f7420656e6f756768204554480000000000000000000000000000000000005f82015250565b5f610173600e8361012f565b915061017e8261013f565b602082019050919050565b5f6020820190508181035f8301526101a081610167565b905091905056fea2646970667358221220765ea53854873717709a73d7638b3c8e3c00ff17f699af1edd1cd0fb9dd2ebd364736f6c634300081b0033",
					"opcodes": "PUSH1 0x80 PUSH1 0x40 MSTORE CALLVALUE DUP1 ISZERO PUSH1 0xE JUMPI PUSH0 PUSH0 REVERT JUMPDEST POP PUSH2 0x1DD DUP1 PUSH2 0x1C PUSH0 CODECOPY PUSH0 RETURN INVALID PUSH1 0x80 PUSH1 0x40 MSTORE PUSH1 0x4 CALLDATASIZE LT PUSH2 0x3E JUMPI PUSH0 CALLDATALOAD PUSH1 0xE0 SHR DUP1 PUSH4 0x8381F58A EQ PUSH2 0x42 JUMPI DUP1 PUSH4 0x98D5FDCA EQ PUSH2 0x6C JUMPI DUP1 PUSH4 0xB60D4288 EQ PUSH2 0x82 JUMPI DUP1 PUSH4 0xF36089EC EQ PUSH2 0x8C JUMPI JUMPDEST PUSH0 PUSH0 REVERT JUMPDEST CALLVALUE DUP1 ISZERO PUSH2 0x4D JUMPI PUSH0 PUSH0 REVERT JUMPDEST POP PUSH2 0x56 PUSH2 0xA2 JUMP JUMPDEST PUSH1 0x40 MLOAD PUSH2 0x63 SWAP2 SWAP1 PUSH2 0x116 JUMP JUMPDEST PUSH1 0x40 MLOAD DUP1 SWAP2 SUB SWAP1 RETURN JUMPDEST CALLVALUE DUP1 ISZERO PUSH2 0x77 JUMPI PUSH0 PUSH0 REVERT JUMPDEST POP PUSH2 0x80 PUSH2 0xA7 JUMP JUMPDEST STOP JUMPDEST PUSH2 0x8A PUSH2 0xA9 JUMP JUMPDEST STOP JUMPDEST CALLVALUE DUP1 ISZERO PUSH2 0x97 JUMPI PUSH0 PUSH0 REVERT JUMPDEST POP PUSH2 0xA0 PUSH2 0xFC JUMP JUMPDEST STOP JUMPDEST PUSH0 SLOAD DUP2 JUMP JUMPDEST JUMP JUMPDEST PUSH1 0x5 PUSH0 DUP2 SWAP1 SSTORE POP PUSH8 0xDE0B6B3A7640000 CALLVALUE GT PUSH2 0xFA JUMPI PUSH1 0x40 MLOAD PUSH32 0x8C379A000000000000000000000000000000000000000000000000000000000 DUP2 MSTORE PUSH1 0x4 ADD PUSH2 0xF1 SWAP1 PUSH2 0x189 JUMP JUMPDEST PUSH1 0x40 MLOAD DUP1 SWAP2 SUB SWAP1 REVERT JUMPDEST JUMP JUMPDEST JUMP JUMPDEST PUSH0 DUP2 SWAP1 POP SWAP2 SWAP1 POP JUMP JUMPDEST PUSH2 0x110 DUP2 PUSH2 0xFE JUMP JUMPDEST DUP3 MSTORE POP POP JUMP JUMPDEST PUSH0 PUSH1 0x20 DUP3 ADD SWAP1 POP PUSH2 0x129 PUSH0 DUP4 ADD DUP5 PUSH2 0x107 JUMP JUMPDEST SWAP3 SWAP2 POP POP JUMP JUMPDEST PUSH0 DUP3 DUP3 MSTORE PUSH1 0x20 DUP3 ADD SWAP1 POP SWAP3 SWAP2 POP POP JUMP JUMPDEST PUSH32 0x4E6F7420656E6F75676820455448000000000000000000000000000000000000 PUSH0 DUP3 ADD MSTORE POP JUMP JUMPDEST PUSH0 PUSH2 0x173 PUSH1 0xE DUP4 PUSH2 0x12F JUMP JUMPDEST SWAP2 POP PUSH2 0x17E DUP3 PUSH2 0x13F JUMP JUMPDEST PUSH1 0x20 DUP3 ADD SWAP1 POP SWAP2 SWAP1 POP JUMP JUMPDEST PUSH0 PUSH1 0x20 DUP3 ADD SWAP1 POP DUP2 DUP2 SUB PUSH0 DUP4 ADD MSTORE PUSH2 0x1A0 DUP2 PUSH2 0x167 JUMP JUMPDEST SWAP1 POP SWAP2 SWAP1 POP JUMP INVALID LOG2 PUSH5 0x6970667358 0x22 SLT KECCAK256 PUSH23 0x5EA53854873717709A73D7638B3C8E3C00FF17F699AF1E 0xDD SHR 0xD0 0xFB SWAP14 0xD2 0xEB 0xD3 PUSH5 0x736F6C6343 STOP ADDMOD SHL STOP CALLER "
				},
				"gasEstimates": {
					"creation": {
						"codeDepositCost": "95400",
						"executionCost": "139",
						"totalCost": "95539"
					},
					"external": {
						"fund()": "22560",
						"getConversionRate()": "187",
						"getPrice()": "143",
						"number()": "2402"
					}
				},
				"methodIdentifiers": {
					"fund()": "b60d4288",
					"getConversionRate()": "f36089ec",
					"getPrice()": "98d5fdca",
					"number()": "8381f58a"
				}
			},
			"storageLayout": {
				"storage": [
					{
						"astId": 3,
						"contract": "contracts/FundMe.sol:FundMe",
						"label": "number",
						"offset": 0,
						"slot": "0",
						"type": "t_uint256"
					}
				],
				"types": {
					"t_uint256": {
						"encoding": "inplace",
						"label": "uint256",
						"numberOfBytes": "32"
					}
				}
			},
			"userdoc": {
				"kind": "user",
				"methods": {},
				"version": 1
			}
		}
	}
}