{
	"contracts/UsingPeopleContract.sol": {
		"UsePeople": {
			"abi": [
				{
					"inputs": [
						{
							"internalType": "uint256",
							"name": "",
							"type": "uint256"
						}
					],
					"name": "arrayStoringPeopleSmartContract",
					"outputs": [
						{
							"internalType": "contract People",
							"name": "",
							"type": "address"
						}
					],
					"stateMutability": "view",
					"type": "function"
				},
				{
					"inputs": [],
					"name": "createPeople",
					"outputs": [],
					"stateMutability": "nonpayable",
					"type": "function"
				},
				{
					"inputs": [
						{
							"internalType": "uint256",
							"name": "_PSCIndexNumber",
							"type": "uint256"
						},
						{
							"internalType": "uint256",
							"name": "_personIndexNumber",
							"type": "uint256"
						}
					],
					"name": "getPeople",
					"outputs": [
						{
							"internalType": "uint256",
							"name": "",
							"type": "uint256"
						},
						{
							"internalType": "string",
							"name": "",
							"type": "string"
						}
					],
					"stateMutability": "view",
					"type": "function"
				},
				{
					"inputs": [
						{
							"internalType": "uint256",
							"name": "_PSCIndexNumber",
							"type": "uint256"
						},
						{
							"internalType": "uint256",
							"name": "_age",
							"type": "uint256"
						},
						{
							"internalType": "string",
							"name": "_name",
							"type": "string"
						}
					],
					"name": "storePeople",
					"outputs": [],
					"stateMutability": "nonpayable",
					"type": "function"
				}
			],
			"devdoc": {
				"kind": "dev",
				"methods": {},
				"version": 1
			},
			"evm": {
				"assembly": "    /* \"contracts/UsingPeopleContract.sol\":86:765  contract UsePeople {... */\n  mstore(0x40, 0x80)\n  callvalue\n  dup1\n  iszero\n  tag_1\n  jumpi\n  0x00\n  dup1\n  revert\ntag_1:\n  pop\n  dataSize(sub_0)\n  dup1\n  dataOffset(sub_0)\n  0x00\n  codecopy\n  0x00\n  return\nstop\n\nsub_0: assembly {\n        /* \"contracts/UsingPeopleContract.sol\":86:765  contract UsePeople {... */\n      mstore(0x40, 0x80)\n      callvalue\n      dup1\n      iszero\n      tag_1\n      jumpi\n      0x00\n      dup1\n      revert\n    tag_1:\n      pop\n      jumpi(tag_2, lt(calldatasize, 0x04))\n      shr(0xe0, calldataload(0x00))\n      dup1\n      0x58e3cda4\n      eq\n      tag_3\n      jumpi\n      dup1\n      0xd3a80bdc\n      eq\n      tag_4\n      jumpi\n      dup1\n      0xdd4bc9d8\n      eq\n      tag_5\n      jumpi\n      dup1\n      0xfb23d5f5\n      eq\n      tag_6\n      jumpi\n    tag_2:\n      0x00\n      dup1\n      revert\n        /* \"contracts/UsingPeopleContract.sol\":112:159  People[] public arrayStoringPeopleSmartContract */\n    tag_3:\n      tag_7\n      0x04\n      dup1\n      calldatasize\n      sub\n      dup2\n      add\n      swap1\n      tag_8\n      swap2\n      swap1\n      tag_9\n      jump\t// in\n    tag_8:\n      tag_10\n      jump\t// in\n    tag_7:\n      mload(0x40)\n      tag_11\n      swap2\n      swap1\n      tag_12\n      jump\t// in\n    tag_11:\n      mload(0x40)\n      dup1\n      swap2\n      sub\n      swap1\n      return\n        /* \"contracts/UsingPeopleContract.sol\":309:511  function storePeople(uint256 _PSCIndexNumber,uint256 _age,string memory _name) public  {... */\n    tag_4:\n      tag_13\n      0x04\n      dup1\n      calldatasize\n      sub\n      dup2\n      add\n      swap1\n      tag_14\n      swap2\n      swap1\n      tag_15\n      jump\t// in\n    tag_14:\n      tag_16\n      jump\t// in\n    tag_13:\n      stop\n        /* \"contracts/UsingPeopleContract.sol\":523:762  function getPeople(uint256 _PSCIndexNumber,uint256 _personIndexNumber) public  view returns (uint256 , string memory){... */\n    tag_5:\n      tag_17\n      0x04\n      dup1\n      calldatasize\n      sub\n      dup2\n      add\n      swap1\n      tag_18\n      swap2\n      swap1\n      tag_19\n      jump\t// in\n    tag_18:\n      tag_20\n      jump\t// in\n    tag_17:\n      mload(0x40)\n      tag_21\n      swap3\n      swap2\n      swap1\n      tag_22\n      jump\t// in\n    tag_21:\n      mload(0x40)\n      dup1\n      swap2\n      sub\n      swap1\n      return\n        /* \"contracts/UsingPeopleContract.sol\":168:301  function createPeople() public {... */\n    tag_6:\n      tag_23\n      tag_24\n      jump\t// in\n    tag_23:\n      stop\n        /* \"contracts/UsingPeopleContract.sol\":112:159  People[] public arrayStoringPeopleSmartContract */\n    tag_10:\n      0x00\n      dup2\n      dup2\n      sload\n      dup2\n      lt\n      tag_25\n      jumpi\n      0x00\n      dup1\n      revert\n    tag_25:\n      swap1\n      0x00\n      mstore\n      keccak256(0x00, 0x20)\n      add\n      0x00\n      swap2\n      pop\n      sload\n      swap1\n      0x0100\n      exp\n      swap1\n      div\n      0xffffffffffffffffffffffffffffffffffffffff\n      and\n      dup2\n      jump\t// out\n        /* \"contracts/UsingPeopleContract.sol\":309:511  function storePeople(uint256 _PSCIndexNumber,uint256 _age,string memory _name) public  {... */\n    tag_16:\n        /* \"contracts/UsingPeopleContract.sol\":407:415  People p */\n      0x00\n        /* \"contracts/UsingPeopleContract.sol\":418:449  arrayStoringPeopleSmartContract */\n      dup1\n        /* \"contracts/UsingPeopleContract.sol\":450:465  _PSCIndexNumber */\n      dup5\n        /* \"contracts/UsingPeopleContract.sol\":418:466  arrayStoringPeopleSmartContract[_PSCIndexNumber] */\n      dup2\n      sload\n      dup2\n      lt\n      tag_28\n      jumpi\n      tag_29\n      tag_30\n      jump\t// in\n    tag_29:\n    tag_28:\n      swap1\n      0x00\n      mstore\n      keccak256(0x00, 0x20)\n      add\n      0x00\n      swap1\n      sload\n      swap1\n      0x0100\n      exp\n      swap1\n      div\n      0xffffffffffffffffffffffffffffffffffffffff\n      and\n        /* \"contracts/UsingPeopleContract.sol\":407:466  People p = arrayStoringPeopleSmartContract[_PSCIndexNumber] */\n      swap1\n      pop\n        /* \"contracts/UsingPeopleContract.sol\":477:478  p */\n      dup1\n        /* \"contracts/UsingPeopleContract.sol\":477:491  p.createPeople */\n      0xffffffffffffffffffffffffffffffffffffffff\n      and\n      0x640670dd\n        /* \"contracts/UsingPeopleContract.sol\":492:496  _age */\n      dup5\n        /* \"contracts/UsingPeopleContract.sol\":497:502  _name */\n      dup5\n        /* \"contracts/UsingPeopleContract.sol\":477:503  p.createPeople(_age,_name) */\n      mload(0x40)\n      dup4\n      0xffffffff\n      and\n      0xe0\n      shl\n      dup2\n      mstore\n      0x04\n      add\n      tag_32\n      swap3\n      swap2\n      swap1\n      tag_22\n      jump\t// in\n    tag_32:\n      0x00\n      mload(0x40)\n      dup1\n      dup4\n      sub\n      dup2\n      0x00\n      dup8\n      dup1\n      extcodesize\n      iszero\n      dup1\n      iszero\n      tag_33\n      jumpi\n      0x00\n      dup1\n      revert\n    tag_33:\n      pop\n      gas\n      call\n      iszero\n      dup1\n      iszero\n      tag_35\n      jumpi\n      returndatasize\n      0x00\n      dup1\n      returndatacopy\n      revert(0x00, returndatasize)\n    tag_35:\n      pop\n      pop\n      pop\n      pop\n        /* \"contracts/UsingPeopleContract.sol\":396:511  {... */\n      pop\n        /* \"contracts/UsingPeopleContract.sol\":309:511  function storePeople(uint256 _PSCIndexNumber,uint256 _age,string memory _name) public  {... */\n      pop\n      pop\n      pop\n      jump\t// out\n        /* \"contracts/UsingPeopleContract.sol\":523:762  function getPeople(uint256 _PSCIndexNumber,uint256 _personIndexNumber) public  view returns (uint256 , string memory){... */\n    tag_20:\n        /* \"contracts/UsingPeopleContract.sol\":616:623  uint256 */\n      0x00\n        /* \"contracts/UsingPeopleContract.sol\":626:639  string memory */\n      0x60\n        /* \"contracts/UsingPeopleContract.sol\":651:659  People p */\n      0x00\n        /* \"contracts/UsingPeopleContract.sol\":662:693  arrayStoringPeopleSmartContract */\n      dup1\n        /* \"contracts/UsingPeopleContract.sol\":694:709  _PSCIndexNumber */\n      dup6\n        /* \"contracts/UsingPeopleContract.sol\":662:710  arrayStoringPeopleSmartContract[_PSCIndexNumber] */\n      dup2\n      sload\n      dup2\n      lt\n      tag_37\n      jumpi\n      tag_38\n      tag_30\n      jump\t// in\n    tag_38:\n    tag_37:\n      swap1\n      0x00\n      mstore\n      keccak256(0x00, 0x20)\n      add\n      0x00\n      swap1\n      sload\n      swap1\n      0x0100\n      exp\n      swap1\n      div\n      0xffffffffffffffffffffffffffffffffffffffff\n      and\n        /* \"contracts/UsingPeopleContract.sol\":651:710  People p = arrayStoringPeopleSmartContract[_PSCIndexNumber] */\n      swap1\n      pop\n        /* \"contracts/UsingPeopleContract.sol\":728:729  p */\n      dup1\n        /* \"contracts/UsingPeopleContract.sol\":728:734  p.pull */\n      0xffffffffffffffffffffffffffffffffffffffff\n      and\n      0x4d0392a8\n        /* \"contracts/UsingPeopleContract.sol\":735:753  _personIndexNumber */\n      dup6\n        /* \"contracts/UsingPeopleContract.sol\":728:754  p.pull(_personIndexNumber) */\n      mload(0x40)\n      dup3\n      0xffffffff\n      and\n      0xe0\n      shl\n      dup2\n      mstore\n      0x04\n      add\n      tag_40\n      swap2\n      swap1\n      tag_41\n      jump\t// in\n    tag_40:\n      0x00\n      mload(0x40)\n      dup1\n      dup4\n      sub\n      dup2\n      dup7\n      gas\n      staticcall\n      iszero\n      dup1\n      iszero\n      tag_43\n      jumpi\n      returndatasize\n      0x00\n      dup1\n      returndatacopy\n      revert(0x00, returndatasize)\n    tag_43:\n      pop\n      pop\n      pop\n      pop\n      mload(0x40)\n      returndatasize\n      0x00\n      dup3\n      returndatacopy\n      returndatasize\n      not(0x1f)\n      0x1f\n      dup3\n      add\n      and\n      dup3\n      add\n      dup1\n      0x40\n      mstore\n      pop\n      dup2\n      add\n      swap1\n      tag_44\n      swap2\n      swap1\n      tag_45\n      jump\t// in\n    tag_44:\n        /* \"contracts/UsingPeopleContract.sol\":721:754  return p.pull(_personIndexNumber) */\n      swap3\n      pop\n      swap3\n      pop\n      pop\n        /* \"contracts/UsingPeopleContract.sol\":523:762  function getPeople(uint256 _PSCIndexNumber,uint256 _personIndexNumber) public  view returns (uint256 , string memory){... */\n      swap3\n      pop\n      swap3\n      swap1\n      pop\n      jump\t// out\n        /* \"contracts/UsingPeopleContract.sol\":168:301  function createPeople() public {... */\n    tag_24:\n        /* \"contracts/UsingPeopleContract.sol\":210:223  People people */\n      0x00\n        /* \"contracts/UsingPeopleContract.sol\":226:238  new People() */\n      mload(0x40)\n      tag_47\n      swap1\n      tag_48\n      jump\t// in\n    tag_47:\n      mload(0x40)\n      dup1\n      swap2\n      sub\n      swap1\n      0x00\n      create\n      dup1\n      iszero\n      dup1\n      iszero\n      tag_49\n      jumpi\n      returndatasize\n      0x00\n      dup1\n      returndatacopy\n      revert(0x00, returndatasize)\n    tag_49:\n      pop\n        /* \"contracts/UsingPeopleContract.sol\":210:238  People people = new People() */\n      swap1\n      pop\n        /* \"contracts/UsingPeopleContract.sol\":249:280  arrayStoringPeopleSmartContract */\n      0x00\n        /* \"contracts/UsingPeopleContract.sol\":286:292  people */\n      dup2\n        /* \"contracts/UsingPeopleContract.sol\":249:293  arrayStoringPeopleSmartContract.push(people) */\n      swap1\n      dup1\n      0x01\n      dup2\n      sload\n      add\n      dup1\n      dup3\n      sstore\n      dup1\n      swap2\n      pop\n      pop\n      0x01\n      swap1\n      sub\n      swap1\n      0x00\n      mstore\n      keccak256(0x00, 0x20)\n      add\n      0x00\n      swap1\n      swap2\n      swap1\n      swap2\n      swap1\n      swap2\n      0x0100\n      exp\n      dup2\n      sload\n      dup2\n      0xffffffffffffffffffffffffffffffffffffffff\n      mul\n      not\n      and\n      swap1\n      dup4\n      0xffffffffffffffffffffffffffffffffffffffff\n      and\n      mul\n      or\n      swap1\n      sstore\n      pop\n        /* \"contracts/UsingPeopleContract.sol\":199:301  {... */\n      pop\n        /* \"contracts/UsingPeopleContract.sol\":168:301  function createPeople() public {... */\n      jump\t// out\n    tag_48:\n      dataSize(sub_0)\n      dup1\n      dataOffset(sub_0)\n      dup4\n      codecopy\n      add\n      swap1\n      jump\t// out\n        /* \"#utility.yul\":7:82   */\n    tag_51:\n        /* \"#utility.yul\":40:46   */\n      0x00\n        /* \"#utility.yul\":73:75   */\n      0x40\n        /* \"#utility.yul\":67:76   */\n      mload\n        /* \"#utility.yul\":57:76   */\n      swap1\n      pop\n        /* \"#utility.yul\":7:82   */\n      swap1\n      jump\t// out\n        /* \"#utility.yul\":88:205   */\n    tag_52:\n        /* \"#utility.yul\":197:198   */\n      0x00\n        /* \"#utility.yul\":194:195   */\n      dup1\n        /* \"#utility.yul\":187:199   */\n      revert\n        /* \"#utility.yul\":211:328   */\n    tag_53:\n        /* \"#utility.yul\":320:321   */\n      0x00\n        /* \"#utility.yul\":317:318   */\n      dup1\n        /* \"#utility.yul\":310:322   */\n      revert\n        /* \"#utility.yul\":334:411   */\n    tag_54:\n        /* \"#utility.yul\":371:378   */\n      0x00\n        /* \"#utility.yul\":400:405   */\n      dup2\n        /* \"#utility.yul\":389:405   */\n      swap1\n      pop\n        /* \"#utility.yul\":334:411   */\n      swap2\n      swap1\n      pop\n      jump\t// out\n        /* \"#utility.yul\":417:539   */\n    tag_55:\n        /* \"#utility.yul\":490:514   */\n      tag_87\n        /* \"#utility.yul\":508:513   */\n      dup2\n        /* \"#utility.yul\":490:514   */\n      tag_54\n      jump\t// in\n    tag_87:\n        /* \"#utility.yul\":483:488   */\n      dup2\n        /* \"#utility.yul\":480:515   */\n      eq\n        /* \"#utility.yul\":470:533   */\n      tag_88\n      jumpi\n        /* \"#utility.yul\":529:530   */\n      0x00\n        /* \"#utility.yul\":526:527   */\n      dup1\n        /* \"#utility.yul\":519:531   */\n      revert\n        /* \"#utility.yul\":470:533   */\n    tag_88:\n        /* \"#utility.yul\":417:539   */\n      pop\n      jump\t// out\n        /* \"#utility.yul\":545:684   */\n    tag_56:\n        /* \"#utility.yul\":591:596   */\n      0x00\n        /* \"#utility.yul\":629:635   */\n      dup2\n        /* \"#utility.yul\":616:636   */\n      calldataload\n        /* \"#utility.yul\":607:636   */\n      swap1\n      pop\n        /* \"#utility.yul\":645:678   */\n      tag_90\n        /* \"#utility.yul\":672:677   */\n      dup2\n        /* \"#utility.yul\":645:678   */\n      tag_55\n      jump\t// in\n    tag_90:\n        /* \"#utility.yul\":545:684   */\n      swap3\n      swap2\n      pop\n      pop\n      jump\t// out\n        /* \"#utility.yul\":690:1019   */\n    tag_9:\n        /* \"#utility.yul\":749:755   */\n      0x00\n        /* \"#utility.yul\":798:800   */\n      0x20\n        /* \"#utility.yul\":786:795   */\n      dup3\n        /* \"#utility.yul\":777:784   */\n      dup5\n        /* \"#utility.yul\":773:796   */\n      sub\n        /* \"#utility.yul\":769:801   */\n      slt\n        /* \"#utility.yul\":766:885   */\n      iszero\n      tag_92\n      jumpi\n        /* \"#utility.yul\":804:883   */\n      tag_93\n      tag_52\n      jump\t// in\n    tag_93:\n        /* \"#utility.yul\":766:885   */\n    tag_92:\n        /* \"#utility.yul\":924:925   */\n      0x00\n        /* \"#utility.yul\":949:1002   */\n      tag_94\n        /* \"#utility.yul\":994:1001   */\n      dup5\n        /* \"#utility.yul\":985:991   */\n      dup3\n        /* \"#utility.yul\":974:983   */\n      dup6\n        /* \"#utility.yul\":970:992   */\n      add\n        /* \"#utility.yul\":949:1002   */\n      tag_56\n      jump\t// in\n    tag_94:\n        /* \"#utility.yul\":939:1002   */\n      swap2\n      pop\n        /* \"#utility.yul\":895:1012   */\n      pop\n        /* \"#utility.yul\":690:1019   */\n      swap3\n      swap2\n      pop\n      pop\n      jump\t// out\n        /* \"#utility.yul\":1025:1151   */\n    tag_57:\n        /* \"#utility.yul\":1062:1069   */\n      0x00\n        /* \"#utility.yul\":1102:1144   */\n      0xffffffffffffffffffffffffffffffffffffffff\n        /* \"#utility.yul\":1095:1100   */\n      dup3\n        /* \"#utility.yul\":1091:1145   */\n      and\n        /* \"#utility.yul\":1080:1145   */\n      swap1\n      pop\n        /* \"#utility.yul\":1025:1151   */\n      swap2\n      swap1\n      pop\n      jump\t// out\n        /* \"#utility.yul\":1157:1217   */\n    tag_58:\n        /* \"#utility.yul\":1185:1188   */\n      0x00\n        /* \"#utility.yul\":1206:1211   */\n      dup2\n        /* \"#utility.yul\":1199:1211   */\n      swap1\n      pop\n        /* \"#utility.yul\":1157:1217   */\n      swap2\n      swap1\n      pop\n      jump\t// out\n        /* \"#utility.yul\":1223:1365   */\n    tag_59:\n        /* \"#utility.yul\":1273:1282   */\n      0x00\n        /* \"#utility.yul\":1306:1359   */\n      tag_98\n        /* \"#utility.yul\":1324:1358   */\n      tag_99\n        /* \"#utility.yul\":1333:1357   */\n      tag_100\n        /* \"#utility.yul\":1351:1356   */\n      dup5\n        /* \"#utility.yul\":1333:1357   */\n      tag_57\n      jump\t// in\n    tag_100:\n        /* \"#utility.yul\":1324:1358   */\n      tag_58\n      jump\t// in\n    tag_99:\n        /* \"#utility.yul\":1306:1359   */\n      tag_57\n      jump\t// in\n    tag_98:\n        /* \"#utility.yul\":1293:1359   */\n      swap1\n      pop\n        /* \"#utility.yul\":1223:1365   */\n      swap2\n      swap1\n      pop\n      jump\t// out\n        /* \"#utility.yul\":1371:1497   */\n    tag_60:\n        /* \"#utility.yul\":1421:1430   */\n      0x00\n        /* \"#utility.yul\":1454:1491   */\n      tag_102\n        /* \"#utility.yul\":1485:1490   */\n      dup3\n        /* \"#utility.yul\":1454:1491   */\n      tag_59\n      jump\t// in\n    tag_102:\n        /* \"#utility.yul\":1441:1491   */\n      swap1\n      pop\n        /* \"#utility.yul\":1371:1497   */\n      swap2\n      swap1\n      pop\n      jump\t// out\n        /* \"#utility.yul\":1503:1642   */\n    tag_61:\n        /* \"#utility.yul\":1566:1575   */\n      0x00\n        /* \"#utility.yul\":1599:1636   */\n      tag_104\n        /* \"#utility.yul\":1630:1635   */\n      dup3\n        /* \"#utility.yul\":1599:1636   */\n      tag_60\n      jump\t// in\n    tag_104:\n        /* \"#utility.yul\":1586:1636   */\n      swap1\n      pop\n        /* \"#utility.yul\":1503:1642   */\n      swap2\n      swap1\n      pop\n      jump\t// out\n        /* \"#utility.yul\":1648:1805   */\n    tag_62:\n        /* \"#utility.yul\":1748:1798   */\n      tag_106\n        /* \"#utility.yul\":1792:1797   */\n      dup2\n        /* \"#utility.yul\":1748:1798   */\n      tag_61\n      jump\t// in\n    tag_106:\n        /* \"#utility.yul\":1743:1746   */\n      dup3\n        /* \"#utility.yul\":1736:1799   */\n      mstore\n        /* \"#utility.yul\":1648:1805   */\n      pop\n      pop\n      jump\t// out\n        /* \"#utility.yul\":1811:2059   */\n    tag_12:\n        /* \"#utility.yul\":1917:1921   */\n      0x00\n        /* \"#utility.yul\":1955:1957   */\n      0x20\n        /* \"#utility.yul\":1944:1953   */\n      dup3\n        /* \"#utility.yul\":1940:1958   */\n      add\n        /* \"#utility.yul\":1932:1958   */\n      swap1\n      pop\n        /* \"#utility.yul\":1968:2052   */\n      tag_108\n        /* \"#utility.yul\":2049:2050   */\n      0x00\n        /* \"#utility.yul\":2038:2047   */\n      dup4\n        /* \"#utility.yul\":2034:2051   */\n      add\n        /* \"#utility.yul\":2025:2031   */\n      dup5\n        /* \"#utility.yul\":1968:2052   */\n      tag_62\n      jump\t// in\n    tag_108:\n        /* \"#utility.yul\":1811:2059   */\n      swap3\n      swap2\n      pop\n      pop\n      jump\t// out\n        /* \"#utility.yul\":2065:2182   */\n    tag_63:\n        /* \"#utility.yul\":2174:2175   */\n      0x00\n        /* \"#utility.yul\":2171:2172   */\n      dup1\n        /* \"#utility.yul\":2164:2176   */\n      revert\n        /* \"#utility.yul\":2188:2305   */\n    tag_64:\n        /* \"#utility.yul\":2297:2298   */\n      0x00\n        /* \"#utility.yul\":2294:2295   */\n      dup1\n        /* \"#utility.yul\":2287:2299   */\n      revert\n        /* \"#utility.yul\":2311:2413   */\n    tag_65:\n        /* \"#utility.yul\":2352:2358   */\n      0x00\n        /* \"#utility.yul\":2403:2405   */\n      0x1f\n        /* \"#utility.yul\":2399:2406   */\n      not\n        /* \"#utility.yul\":2394:2396   */\n      0x1f\n        /* \"#utility.yul\":2387:2392   */\n      dup4\n        /* \"#utility.yul\":2383:2397   */\n      add\n        /* \"#utility.yul\":2379:2407   */\n      and\n        /* \"#utility.yul\":2369:2407   */\n      swap1\n      pop\n        /* \"#utility.yul\":2311:2413   */\n      swap2\n      swap1\n      pop\n      jump\t// out\n        /* \"#utility.yul\":2419:2599   */\n    tag_66:\n        /* \"#utility.yul\":2467:2544   */\n      0x4e487b7100000000000000000000000000000000000000000000000000000000\n        /* \"#utility.yul\":2464:2465   */\n      0x00\n        /* \"#utility.yul\":2457:2545   */\n      mstore\n        /* \"#utility.yul\":2564:2568   */\n      0x41\n        /* \"#utility.yul\":2561:2562   */\n      0x04\n        /* \"#utility.yul\":2554:2569   */\n      mstore\n        /* \"#utility.yul\":2588:2592   */\n      0x24\n        /* \"#utility.yul\":2585:2586   */\n      0x00\n        /* \"#utility.yul\":2578:2593   */\n      revert\n        /* \"#utility.yul\":2605:2886   */\n    tag_67:\n        /* \"#utility.yul\":2688:2715   */\n      tag_114\n        /* \"#utility.yul\":2710:2714   */\n      dup3\n        /* \"#utility.yul\":2688:2715   */\n      tag_65\n      jump\t// in\n    tag_114:\n        /* \"#utility.yul\":2680:2686   */\n      dup2\n        /* \"#utility.yul\":2676:2716   */\n      add\n        /* \"#utility.yul\":2818:2824   */\n      dup2\n        /* \"#utility.yul\":2806:2816   */\n      dup2\n        /* \"#utility.yul\":2803:2825   */\n      lt\n        /* \"#utility.yul\":2782:2800   */\n      0xffffffffffffffff\n        /* \"#utility.yul\":2770:2780   */\n      dup3\n        /* \"#utility.yul\":2767:2801   */\n      gt\n        /* \"#utility.yul\":2764:2826   */\n      or\n        /* \"#utility.yul\":2761:2849   */\n      iszero\n      tag_115\n      jumpi\n        /* \"#utility.yul\":2829:2847   */\n      tag_116\n      tag_66\n      jump\t// in\n    tag_116:\n        /* \"#utility.yul\":2761:2849   */\n    tag_115:\n        /* \"#utility.yul\":2869:2879   */\n      dup1\n        /* \"#utility.yul\":2865:2867   */\n      0x40\n        /* \"#utility.yul\":2858:2880   */\n      mstore\n        /* \"#utility.yul\":2648:2886   */\n      pop\n        /* \"#utility.yul\":2605:2886   */\n      pop\n      pop\n      jump\t// out\n        /* \"#utility.yul\":2892:3021   */\n    tag_68:\n        /* \"#utility.yul\":2926:2932   */\n      0x00\n        /* \"#utility.yul\":2953:2973   */\n      tag_118\n      tag_51\n      jump\t// in\n    tag_118:\n        /* \"#utility.yul\":2943:2973   */\n      swap1\n      pop\n        /* \"#utility.yul\":2982:3015   */\n      tag_119\n        /* \"#utility.yul\":3010:3014   */\n      dup3\n        /* \"#utility.yul\":3002:3008   */\n      dup3\n        /* \"#utility.yul\":2982:3015   */\n      tag_67\n      jump\t// in\n    tag_119:\n        /* \"#utility.yul\":2892:3021   */\n      swap2\n      swap1\n      pop\n      jump\t// out\n        /* \"#utility.yul\":3027:3335   */\n    tag_69:\n        /* \"#utility.yul\":3089:3093   */\n      0x00\n        /* \"#utility.yul\":3179:3197   */\n      0xffffffffffffffff\n        /* \"#utility.yul\":3171:3177   */\n      dup3\n        /* \"#utility.yul\":3168:3198   */\n      gt\n        /* \"#utility.yul\":3165:3221   */\n      iszero\n      tag_121\n      jumpi\n        /* \"#utility.yul\":3201:3219   */\n      tag_122\n      tag_66\n      jump\t// in\n    tag_122:\n        /* \"#utility.yul\":3165:3221   */\n    tag_121:\n        /* \"#utility.yul\":3239:3268   */\n      tag_123\n        /* \"#utility.yul\":3261:3267   */\n      dup3\n        /* \"#utility.yul\":3239:3268   */\n      tag_65\n      jump\t// in\n    tag_123:\n        /* \"#utility.yul\":3231:3268   */\n      swap1\n      pop\n        /* \"#utility.yul\":3323:3327   */\n      0x20\n        /* \"#utility.yul\":3317:3321   */\n      dup2\n        /* \"#utility.yul\":3313:3328   */\n      add\n        /* \"#utility.yul\":3305:3328   */\n      swap1\n      pop\n        /* \"#utility.yul\":3027:3335   */\n      swap2\n      swap1\n      pop\n      jump\t// out\n        /* \"#utility.yul\":3341:3489   */\n    tag_70:\n        /* \"#utility.yul\":3439:3445   */\n      dup3\n        /* \"#utility.yul\":3434:3437   */\n      dup2\n        /* \"#utility.yul\":3429:3432   */\n      dup4\n        /* \"#utility.yul\":3416:3446   */\n      calldatacopy\n        /* \"#utility.yul\":3480:3481   */\n      0x00\n        /* \"#utility.yul\":3471:3477   */\n      dup4\n        /* \"#utility.yul\":3466:3469   */\n      dup4\n        /* \"#utility.yul\":3462:3478   */\n      add\n        /* \"#utility.yul\":3455:3482   */\n      mstore\n        /* \"#utility.yul\":3341:3489   */\n      pop\n      pop\n      pop\n      jump\t// out\n        /* \"#utility.yul\":3495:3920   */\n    tag_71:\n        /* \"#utility.yul\":3573:3578   */\n      0x00\n        /* \"#utility.yul\":3598:3664   */\n      tag_126\n        /* \"#utility.yul\":3614:3663   */\n      tag_127\n        /* \"#utility.yul\":3656:3662   */\n      dup5\n        /* \"#utility.yul\":3614:3663   */\n      tag_69\n      jump\t// in\n    tag_127:\n        /* \"#utility.yul\":3598:3664   */\n      tag_68\n      jump\t// in\n    tag_126:\n        /* \"#utility.yul\":3589:3664   */\n      swap1\n      pop\n        /* \"#utility.yul\":3687:3693   */\n      dup3\n        /* \"#utility.yul\":3680:3685   */\n      dup2\n        /* \"#utility.yul\":3673:3694   */\n      mstore\n        /* \"#utility.yul\":3725:3729   */\n      0x20\n        /* \"#utility.yul\":3718:3723   */\n      dup2\n        /* \"#utility.yul\":3714:3730   */\n      add\n        /* \"#utility.yul\":3763:3766   */\n      dup5\n        /* \"#utility.yul\":3754:3760   */\n      dup5\n        /* \"#utility.yul\":3749:3752   */\n      dup5\n        /* \"#utility.yul\":3745:3761   */\n      add\n        /* \"#utility.yul\":3742:3767   */\n      gt\n        /* \"#utility.yul\":3739:3851   */\n      iszero\n      tag_128\n      jumpi\n        /* \"#utility.yul\":3770:3849   */\n      tag_129\n      tag_64\n      jump\t// in\n    tag_129:\n        /* \"#utility.yul\":3739:3851   */\n    tag_128:\n        /* \"#utility.yul\":3860:3914   */\n      tag_130\n        /* \"#utility.yul\":3907:3913   */\n      dup5\n        /* \"#utility.yul\":3902:3905   */\n      dup3\n        /* \"#utility.yul\":3897:3900   */\n      dup6\n        /* \"#utility.yul\":3860:3914   */\n      tag_70\n      jump\t// in\n    tag_130:\n        /* \"#utility.yul\":3579:3920   */\n      pop\n        /* \"#utility.yul\":3495:3920   */\n      swap4\n      swap3\n      pop\n      pop\n      pop\n      jump\t// out\n        /* \"#utility.yul\":3940:4280   */\n    tag_72:\n        /* \"#utility.yul\":3996:4001   */\n      0x00\n        /* \"#utility.yul\":4045:4048   */\n      dup3\n        /* \"#utility.yul\":4038:4042   */\n      0x1f\n        /* \"#utility.yul\":4030:4036   */\n      dup4\n        /* \"#utility.yul\":4026:4043   */\n      add\n        /* \"#utility.yul\":4022:4049   */\n      slt\n        /* \"#utility.yul\":4012:4134   */\n      tag_132\n      jumpi\n        /* \"#utility.yul\":4053:4132   */\n      tag_133\n      tag_63\n      jump\t// in\n    tag_133:\n        /* \"#utility.yul\":4012:4134   */\n    tag_132:\n        /* \"#utility.yul\":4170:4176   */\n      dup2\n        /* \"#utility.yul\":4157:4177   */\n      calldataload\n        /* \"#utility.yul\":4195:4274   */\n      tag_134\n        /* \"#utility.yul\":4270:4273   */\n      dup5\n        /* \"#utility.yul\":4262:4268   */\n      dup3\n        /* \"#utility.yul\":4255:4259   */\n      0x20\n        /* \"#utility.yul\":4247:4253   */\n      dup7\n        /* \"#utility.yul\":4243:4260   */\n      add\n        /* \"#utility.yul\":4195:4274   */\n      tag_71\n      jump\t// in\n    tag_134:\n        /* \"#utility.yul\":4186:4274   */\n      swap2\n      pop\n        /* \"#utility.yul\":4002:4280   */\n      pop\n        /* \"#utility.yul\":3940:4280   */\n      swap3\n      swap2\n      pop\n      pop\n      jump\t// out\n        /* \"#utility.yul\":4286:5085   */\n    tag_15:\n        /* \"#utility.yul\":4373:4379   */\n      0x00\n        /* \"#utility.yul\":4381:4387   */\n      dup1\n        /* \"#utility.yul\":4389:4395   */\n      0x00\n        /* \"#utility.yul\":4438:4440   */\n      0x60\n        /* \"#utility.yul\":4426:4435   */\n      dup5\n        /* \"#utility.yul\":4417:4424   */\n      dup7\n        /* \"#utility.yul\":4413:4436   */\n      sub\n        /* \"#utility.yul\":4409:4441   */\n      slt\n        /* \"#utility.yul\":4406:4525   */\n      iszero\n      tag_136\n      jumpi\n        /* \"#utility.yul\":4444:4523   */\n      tag_137\n      tag_52\n      jump\t// in\n    tag_137:\n        /* \"#utility.yul\":4406:4525   */\n    tag_136:\n        /* \"#utility.yul\":4564:4565   */\n      0x00\n        /* \"#utility.yul\":4589:4642   */\n      tag_138\n        /* \"#utility.yul\":4634:4641   */\n      dup7\n        /* \"#utility.yul\":4625:4631   */\n      dup3\n        /* \"#utility.yul\":4614:4623   */\n      dup8\n        /* \"#utility.yul\":4610:4632   */\n      add\n        /* \"#utility.yul\":4589:4642   */\n      tag_56\n      jump\t// in\n    tag_138:\n        /* \"#utility.yul\":4579:4642   */\n      swap4\n      pop\n        /* \"#utility.yul\":4535:4652   */\n      pop\n        /* \"#utility.yul\":4691:4693   */\n      0x20\n        /* \"#utility.yul\":4717:4770   */\n      tag_139\n        /* \"#utility.yul\":4762:4769   */\n      dup7\n        /* \"#utility.yul\":4753:4759   */\n      dup3\n        /* \"#utility.yul\":4742:4751   */\n      dup8\n        /* \"#utility.yul\":4738:4760   */\n      add\n        /* \"#utility.yul\":4717:4770   */\n      tag_56\n      jump\t// in\n    tag_139:\n        /* \"#utility.yul\":4707:4770   */\n      swap3\n      pop\n        /* \"#utility.yul\":4662:4780   */\n      pop\n        /* \"#utility.yul\":4847:4849   */\n      0x40\n        /* \"#utility.yul\":4836:4845   */\n      dup5\n        /* \"#utility.yul\":4832:4850   */\n      add\n        /* \"#utility.yul\":4819:4851   */\n      calldataload\n        /* \"#utility.yul\":4878:4896   */\n      0xffffffffffffffff\n        /* \"#utility.yul\":4870:4876   */\n      dup2\n        /* \"#utility.yul\":4867:4897   */\n      gt\n        /* \"#utility.yul\":4864:4981   */\n      iszero\n      tag_140\n      jumpi\n        /* \"#utility.yul\":4900:4979   */\n      tag_141\n      tag_53\n      jump\t// in\n    tag_141:\n        /* \"#utility.yul\":4864:4981   */\n    tag_140:\n        /* \"#utility.yul\":5005:5068   */\n      tag_142\n        /* \"#utility.yul\":5060:5067   */\n      dup7\n        /* \"#utility.yul\":5051:5057   */\n      dup3\n        /* \"#utility.yul\":5040:5049   */\n      dup8\n        /* \"#utility.yul\":5036:5058   */\n      add\n        /* \"#utility.yul\":5005:5068   */\n      tag_72\n      jump\t// in\n    tag_142:\n        /* \"#utility.yul\":4995:5068   */\n      swap2\n      pop\n        /* \"#utility.yul\":4790:5078   */\n      pop\n        /* \"#utility.yul\":4286:5085   */\n      swap3\n      pop\n      swap3\n      pop\n      swap3\n      jump\t// out\n        /* \"#utility.yul\":5091:5565   */\n    tag_19:\n        /* \"#utility.yul\":5159:5165   */\n      0x00\n        /* \"#utility.yul\":5167:5173   */\n      dup1\n        /* \"#utility.yul\":5216:5218   */\n      0x40\n        /* \"#utility.yul\":5204:5213   */\n      dup4\n        /* \"#utility.yul\":5195:5202   */\n      dup6\n        /* \"#utility.yul\":5191:5214   */\n      sub\n        /* \"#utility.yul\":5187:5219   */\n      slt\n        /* \"#utility.yul\":5184:5303   */\n      iszero\n      tag_144\n      jumpi\n        /* \"#utility.yul\":5222:5301   */\n      tag_145\n      tag_52\n      jump\t// in\n    tag_145:\n        /* \"#utility.yul\":5184:5303   */\n    tag_144:\n        /* \"#utility.yul\":5342:5343   */\n      0x00\n        /* \"#utility.yul\":5367:5420   */\n      tag_146\n        /* \"#utility.yul\":5412:5419   */\n      dup6\n        /* \"#utility.yul\":5403:5409   */\n      dup3\n        /* \"#utility.yul\":5392:5401   */\n      dup7\n        /* \"#utility.yul\":5388:5410   */\n      add\n        /* \"#utility.yul\":5367:5420   */\n      tag_56\n      jump\t// in\n    tag_146:\n        /* \"#utility.yul\":5357:5420   */\n      swap3\n      pop\n        /* \"#utility.yul\":5313:5430   */\n      pop\n        /* \"#utility.yul\":5469:5471   */\n      0x20\n        /* \"#utility.yul\":5495:5548   */\n      tag_147\n        /* \"#utility.yul\":5540:5547   */\n      dup6\n        /* \"#utility.yul\":5531:5537   */\n      dup3\n        /* \"#utility.yul\":5520:5529   */\n      dup7\n        /* \"#utility.yul\":5516:5538   */\n      add\n        /* \"#utility.yul\":5495:5548   */\n      tag_56\n      jump\t// in\n    tag_147:\n        /* \"#utility.yul\":5485:5548   */\n      swap2\n      pop\n        /* \"#utility.yul\":5440:5558   */\n      pop\n        /* \"#utility.yul\":5091:5565   */\n      swap3\n      pop\n      swap3\n      swap1\n      pop\n      jump\t// out\n        /* \"#utility.yul\":5571:5689   */\n    tag_73:\n        /* \"#utility.yul\":5658:5682   */\n      tag_149\n        /* \"#utility.yul\":5676:5681   */\n      dup2\n        /* \"#utility.yul\":5658:5682   */\n      tag_54\n      jump\t// in\n    tag_149:\n        /* \"#utility.yul\":5653:5656   */\n      dup3\n        /* \"#utility.yul\":5646:5683   */\n      mstore\n        /* \"#utility.yul\":5571:5689   */\n      pop\n      pop\n      jump\t// out\n        /* \"#utility.yul\":5695:5794   */\n    tag_74:\n        /* \"#utility.yul\":5747:5753   */\n      0x00\n        /* \"#utility.yul\":5781:5786   */\n      dup2\n        /* \"#utility.yul\":5775:5787   */\n      mload\n        /* \"#utility.yul\":5765:5787   */\n      swap1\n      pop\n        /* \"#utility.yul\":5695:5794   */\n      swap2\n      swap1\n      pop\n      jump\t// out\n        /* \"#utility.yul\":5800:5969   */\n    tag_75:\n        /* \"#utility.yul\":5884:5895   */\n      0x00\n        /* \"#utility.yul\":5918:5924   */\n      dup3\n        /* \"#utility.yul\":5913:5916   */\n      dup3\n        /* \"#utility.yul\":5906:5925   */\n      mstore\n        /* \"#utility.yul\":5958:5962   */\n      0x20\n        /* \"#utility.yul\":5953:5956   */\n      dup3\n        /* \"#utility.yul\":5949:5963   */\n      add\n        /* \"#utility.yul\":5934:5963   */\n      swap1\n      pop\n        /* \"#utility.yul\":5800:5969   */\n      swap3\n      swap2\n      pop\n      pop\n      jump\t// out\n        /* \"#utility.yul\":5975:6114   */\n    tag_76:\n        /* \"#utility.yul\":6064:6070   */\n      dup3\n        /* \"#utility.yul\":6059:6062   */\n      dup2\n        /* \"#utility.yul\":6054:6057   */\n      dup4\n        /* \"#utility.yul\":6048:6071   */\n      mcopy\n        /* \"#utility.yul\":6105:6106   */\n      0x00\n        /* \"#utility.yul\":6096:6102   */\n      dup4\n        /* \"#utility.yul\":6091:6094   */\n      dup4\n        /* \"#utility.yul\":6087:6103   */\n      add\n        /* \"#utility.yul\":6080:6107   */\n      mstore\n        /* \"#utility.yul\":5975:6114   */\n      pop\n      pop\n      pop\n      jump\t// out\n        /* \"#utility.yul\":6120:6497   */\n    tag_77:\n        /* \"#utility.yul\":6208:6211   */\n      0x00\n        /* \"#utility.yul\":6236:6275   */\n      tag_154\n        /* \"#utility.yul\":6269:6274   */\n      dup3\n        /* \"#utility.yul\":6236:6275   */\n      tag_74\n      jump\t// in\n    tag_154:\n        /* \"#utility.yul\":6291:6362   */\n      tag_155\n        /* \"#utility.yul\":6355:6361   */\n      dup2\n        /* \"#utility.yul\":6350:6353   */\n      dup6\n        /* \"#utility.yul\":6291:6362   */\n      tag_75\n      jump\t// in\n    tag_155:\n        /* \"#utility.yul\":6284:6362   */\n      swap4\n      pop\n        /* \"#utility.yul\":6371:6436   */\n      tag_156\n        /* \"#utility.yul\":6429:6435   */\n      dup2\n        /* \"#utility.yul\":6424:6427   */\n      dup6\n        /* \"#utility.yul\":6417:6421   */\n      0x20\n        /* \"#utility.yul\":6410:6415   */\n      dup7\n        /* \"#utility.yul\":6406:6422   */\n      add\n        /* \"#utility.yul\":6371:6436   */\n      tag_76\n      jump\t// in\n    tag_156:\n        /* \"#utility.yul\":6461:6490   */\n      tag_157\n        /* \"#utility.yul\":6483:6489   */\n      dup2\n        /* \"#utility.yul\":6461:6490   */\n      tag_65\n      jump\t// in\n    tag_157:\n        /* \"#utility.yul\":6456:6459   */\n      dup5\n        /* \"#utility.yul\":6452:6491   */\n      add\n        /* \"#utility.yul\":6445:6491   */\n      swap2\n      pop\n        /* \"#utility.yul\":6212:6497   */\n      pop\n        /* \"#utility.yul\":6120:6497   */\n      swap3\n      swap2\n      pop\n      pop\n      jump\t// out\n        /* \"#utility.yul\":6503:6926   */\n    tag_22:\n        /* \"#utility.yul\":6644:6648   */\n      0x00\n        /* \"#utility.yul\":6682:6684   */\n      0x40\n        /* \"#utility.yul\":6671:6680   */\n      dup3\n        /* \"#utility.yul\":6667:6685   */\n      add\n        /* \"#utility.yul\":6659:6685   */\n      swap1\n      pop\n        /* \"#utility.yul\":6695:6766   */\n      tag_159\n        /* \"#utility.yul\":6763:6764   */\n      0x00\n        /* \"#utility.yul\":6752:6761   */\n      dup4\n        /* \"#utility.yul\":6748:6765   */\n      add\n        /* \"#utility.yul\":6739:6745   */\n      dup6\n        /* \"#utility.yul\":6695:6766   */\n      tag_73\n      jump\t// in\n    tag_159:\n        /* \"#utility.yul\":6813:6822   */\n      dup2\n        /* \"#utility.yul\":6807:6811   */\n      dup2\n        /* \"#utility.yul\":6803:6823   */\n      sub\n        /* \"#utility.yul\":6798:6800   */\n      0x20\n        /* \"#utility.yul\":6787:6796   */\n      dup4\n        /* \"#utility.yul\":6783:6801   */\n      add\n        /* \"#utility.yul\":6776:6824   */\n      mstore\n        /* \"#utility.yul\":6841:6919   */\n      tag_160\n        /* \"#utility.yul\":6914:6918   */\n      dup2\n        /* \"#utility.yul\":6905:6911   */\n      dup5\n        /* \"#utility.yul\":6841:6919   */\n      tag_77\n      jump\t// in\n    tag_160:\n        /* \"#utility.yul\":6833:6919   */\n      swap1\n      pop\n        /* \"#utility.yul\":6503:6926   */\n      swap4\n      swap3\n      pop\n      pop\n      pop\n      jump\t// out\n        /* \"#utility.yul\":6932:7112   */\n    tag_30:\n        /* \"#utility.yul\":6980:7057   */\n      0x4e487b7100000000000000000000000000000000000000000000000000000000\n        /* \"#utility.yul\":6977:6978   */\n      0x00\n        /* \"#utility.yul\":6970:7058   */\n      mstore\n        /* \"#utility.yul\":7077:7081   */\n      0x32\n        /* \"#utility.yul\":7074:7075   */\n      0x04\n        /* \"#utility.yul\":7067:7082   */\n      mstore\n        /* \"#utility.yul\":7101:7105   */\n      0x24\n        /* \"#utility.yul\":7098:7099   */\n      0x00\n        /* \"#utility.yul\":7091:7106   */\n      revert\n        /* \"#utility.yul\":7118:7340   */\n    tag_41:\n        /* \"#utility.yul\":7211:7215   */\n      0x00\n        /* \"#utility.yul\":7249:7251   */\n      0x20\n        /* \"#utility.yul\":7238:7247   */\n      dup3\n        /* \"#utility.yul\":7234:7252   */\n      add\n        /* \"#utility.yul\":7226:7252   */\n      swap1\n      pop\n        /* \"#utility.yul\":7262:7333   */\n      tag_163\n        /* \"#utility.yul\":7330:7331   */\n      0x00\n        /* \"#utility.yul\":7319:7328   */\n      dup4\n        /* \"#utility.yul\":7315:7332   */\n      add\n        /* \"#utility.yul\":7306:7312   */\n      dup5\n        /* \"#utility.yul\":7262:7333   */\n      tag_73\n      jump\t// in\n    tag_163:\n        /* \"#utility.yul\":7118:7340   */\n      swap3\n      swap2\n      pop\n      pop\n      jump\t// out\n        /* \"#utility.yul\":7346:7489   */\n    tag_78:\n        /* \"#utility.yul\":7403:7408   */\n      0x00\n        /* \"#utility.yul\":7434:7440   */\n      dup2\n        /* \"#utility.yul\":7428:7441   */\n      mload\n        /* \"#utility.yul\":7419:7441   */\n      swap1\n      pop\n        /* \"#utility.yul\":7450:7483   */\n      tag_165\n        /* \"#utility.yul\":7477:7482   */\n      dup2\n        /* \"#utility.yul\":7450:7483   */\n      tag_55\n      jump\t// in\n    tag_165:\n        /* \"#utility.yul\":7346:7489   */\n      swap3\n      swap2\n      pop\n      pop\n      jump\t// out\n        /* \"#utility.yul\":7495:7929   */\n    tag_79:\n        /* \"#utility.yul\":7584:7589   */\n      0x00\n        /* \"#utility.yul\":7609:7675   */\n      tag_167\n        /* \"#utility.yul\":7625:7674   */\n      tag_168\n        /* \"#utility.yul\":7667:7673   */\n      dup5\n        /* \"#utility.yul\":7625:7674   */\n      tag_69\n      jump\t// in\n    tag_168:\n        /* \"#utility.yul\":7609:7675   */\n      tag_68\n      jump\t// in\n    tag_167:\n        /* \"#utility.yul\":7600:7675   */\n      swap1\n      pop\n        /* \"#utility.yul\":7698:7704   */\n      dup3\n        /* \"#utility.yul\":7691:7696   */\n      dup2\n        /* \"#utility.yul\":7684:7705   */\n      mstore\n        /* \"#utility.yul\":7736:7740   */\n      0x20\n        /* \"#utility.yul\":7729:7734   */\n      dup2\n        /* \"#utility.yul\":7725:7741   */\n      add\n        /* \"#utility.yul\":7774:7777   */\n      dup5\n        /* \"#utility.yul\":7765:7771   */\n      dup5\n        /* \"#utility.yul\":7760:7763   */\n      dup5\n        /* \"#utility.yul\":7756:7772   */\n      add\n        /* \"#utility.yul\":7753:7778   */\n      gt\n        /* \"#utility.yul\":7750:7862   */\n      iszero\n      tag_169\n      jumpi\n        /* \"#utility.yul\":7781:7860   */\n      tag_170\n      tag_64\n      jump\t// in\n    tag_170:\n        /* \"#utility.yul\":7750:7862   */\n    tag_169:\n        /* \"#utility.yul\":7871:7923   */\n      tag_171\n        /* \"#utility.yul\":7916:7922   */\n      dup5\n        /* \"#utility.yul\":7911:7914   */\n      dup3\n        /* \"#utility.yul\":7906:7909   */\n      dup6\n        /* \"#utility.yul\":7871:7923   */\n      tag_76\n      jump\t// in\n    tag_171:\n        /* \"#utility.yul\":7590:7929   */\n      pop\n        /* \"#utility.yul\":7495:7929   */\n      swap4\n      swap3\n      pop\n      pop\n      pop\n      jump\t// out\n        /* \"#utility.yul\":7949:8304   */\n    tag_80:\n        /* \"#utility.yul\":8016:8021   */\n      0x00\n        /* \"#utility.yul\":8065:8068   */\n      dup3\n        /* \"#utility.yul\":8058:8062   */\n      0x1f\n        /* \"#utility.yul\":8050:8056   */\n      dup4\n        /* \"#utility.yul\":8046:8063   */\n      add\n        /* \"#utility.yul\":8042:8069   */\n      slt\n        /* \"#utility.yul\":8032:8154   */\n      tag_173\n      jumpi\n        /* \"#utility.yul\":8073:8152   */\n      tag_174\n      tag_63\n      jump\t// in\n    tag_174:\n        /* \"#utility.yul\":8032:8154   */\n    tag_173:\n        /* \"#utility.yul\":8183:8189   */\n      dup2\n        /* \"#utility.yul\":8177:8190   */\n      mload\n        /* \"#utility.yul\":8208:8298   */\n      tag_175\n        /* \"#utility.yul\":8294:8297   */\n      dup5\n        /* \"#utility.yul\":8286:8292   */\n      dup3\n        /* \"#utility.yul\":8279:8283   */\n      0x20\n        /* \"#utility.yul\":8271:8277   */\n      dup7\n        /* \"#utility.yul\":8267:8284   */\n      add\n        /* \"#utility.yul\":8208:8298   */\n      tag_79\n      jump\t// in\n    tag_175:\n        /* \"#utility.yul\":8199:8298   */\n      swap2\n      pop\n        /* \"#utility.yul\":8022:8304   */\n      pop\n        /* \"#utility.yul\":7949:8304   */\n      swap3\n      swap2\n      pop\n      pop\n      jump\t// out\n        /* \"#utility.yul\":8310:8990   */\n    tag_45:\n        /* \"#utility.yul\":8399:8405   */\n      0x00\n        /* \"#utility.yul\":8407:8413   */\n      dup1\n        /* \"#utility.yul\":8456:8458   */\n      0x40\n        /* \"#utility.yul\":8444:8453   */\n      dup4\n        /* \"#utility.yul\":8435:8442   */\n      dup6\n        /* \"#utility.yul\":8431:8454   */\n      sub\n        /* \"#utility.yul\":8427:8459   */\n      slt\n        /* \"#utility.yul\":8424:8543   */\n      iszero\n      tag_177\n      jumpi\n        /* \"#utility.yul\":8462:8541   */\n      tag_178\n      tag_52\n      jump\t// in\n    tag_178:\n        /* \"#utility.yul\":8424:8543   */\n    tag_177:\n        /* \"#utility.yul\":8582:8583   */\n      0x00\n        /* \"#utility.yul\":8607:8671   */\n      tag_179\n        /* \"#utility.yul\":8663:8670   */\n      dup6\n        /* \"#utility.yul\":8654:8660   */\n      dup3\n        /* \"#utility.yul\":8643:8652   */\n      dup7\n        /* \"#utility.yul\":8639:8661   */\n      add\n        /* \"#utility.yul\":8607:8671   */\n      tag_78\n      jump\t// in\n    tag_179:\n        /* \"#utility.yul\":8597:8671   */\n      swap3\n      pop\n        /* \"#utility.yul\":8553:8681   */\n      pop\n        /* \"#utility.yul\":8741:8743   */\n      0x20\n        /* \"#utility.yul\":8730:8739   */\n      dup4\n        /* \"#utility.yul\":8726:8744   */\n      add\n        /* \"#utility.yul\":8720:8745   */\n      mload\n        /* \"#utility.yul\":8772:8790   */\n      0xffffffffffffffff\n        /* \"#utility.yul\":8764:8770   */\n      dup2\n        /* \"#utility.yul\":8761:8791   */\n      gt\n        /* \"#utility.yul\":8758:8875   */\n      iszero\n      tag_180\n      jumpi\n        /* \"#utility.yul\":8794:8873   */\n      tag_181\n      tag_53\n      jump\t// in\n    tag_181:\n        /* \"#utility.yul\":8758:8875   */\n    tag_180:\n        /* \"#utility.yul\":8899:8973   */\n      tag_182\n        /* \"#utility.yul\":8965:8972   */\n      dup6\n        /* \"#utility.yul\":8956:8962   */\n      dup3\n        /* \"#utility.yul\":8945:8954   */\n      dup7\n        /* \"#utility.yul\":8941:8963   */\n      add\n        /* \"#utility.yul\":8899:8973   */\n      tag_80\n      jump\t// in\n    tag_182:\n        /* \"#utility.yul\":8889:8973   */\n      swap2\n      pop\n        /* \"#utility.yul\":8691:8983   */\n      pop\n        /* \"#utility.yul\":8310:8990   */\n      swap3\n      pop\n      swap3\n      swap1\n      pop\n      jump\t// out\n    stop\n\n    sub_0: assembly {\n            /* \"contracts/People.sol\":117:544  contract People{... */\n          mstore(0x40, 0x80)\n          callvalue\n          dup1\n          iszero\n          tag_1\n          jumpi\n          0x00\n          dup1\n          revert\n        tag_1:\n          pop\n          dataSize(sub_0)\n          dup1\n          dataOffset(sub_0)\n          0x00\n          codecopy\n          0x00\n          return\n        stop\n\n        sub_0: assembly {\n                /* \"contracts/People.sol\":117:544  contract People{... */\n              mstore(0x40, 0x80)\n              callvalue\n              dup1\n              iszero\n              tag_1\n              jumpi\n              0x00\n              dup1\n              revert\n            tag_1:\n              pop\n              jumpi(tag_2, lt(calldatasize, 0x04))\n              shr(0xe0, calldataload(0x00))\n              dup1\n              0x4d0392a8\n              eq\n              tag_3\n              jumpi\n              dup1\n              0x640670dd\n              eq\n              tag_4\n              jumpi\n              dup1\n              0xe28756b4\n              eq\n              tag_5\n              jumpi\n            tag_2:\n              0x00\n              dup1\n              revert\n                /* \"contracts/People.sol\":335:541  function pull(uint256 _p1IndexNumber) public view returns(uint256,string memory){... */\n            tag_3:\n              tag_6\n              0x04\n              dup1\n              calldatasize\n              sub\n              dup2\n              add\n              swap1\n              tag_7\n              swap2\n              swap1\n              tag_8\n              jump\t// in\n            tag_7:\n              tag_9\n              jump\t// in\n            tag_6:\n              mload(0x40)\n              tag_10\n              swap3\n              swap2\n              swap1\n              tag_11\n              jump\t// in\n            tag_10:\n              mload(0x40)\n              dup1\n              swap2\n              sub\n              swap1\n              return\n                /* \"contracts/People.sol\":166:327  function createPeople(uint256 _age,string memory _name) public  {... */\n            tag_4:\n              tag_12\n              0x04\n              dup1\n              calldatasize\n              sub\n              dup2\n              add\n              swap1\n              tag_13\n              swap2\n              swap1\n              tag_14\n              jump\t// in\n            tag_13:\n              tag_15\n              jump\t// in\n            tag_12:\n              stop\n                /* \"contracts/People.sol\":139:157  Person[] public p1 */\n            tag_5:\n              tag_16\n              0x04\n              dup1\n              calldatasize\n              sub\n              dup2\n              add\n              swap1\n              tag_17\n              swap2\n              swap1\n              tag_8\n              jump\t// in\n            tag_17:\n              tag_18\n              jump\t// in\n            tag_16:\n              mload(0x40)\n              tag_19\n              swap3\n              swap2\n              swap1\n              tag_11\n              jump\t// in\n            tag_19:\n              mload(0x40)\n              dup1\n              swap2\n              sub\n              swap1\n              return\n                /* \"contracts/People.sol\":335:541  function pull(uint256 _p1IndexNumber) public view returns(uint256,string memory){... */\n            tag_9:\n                /* \"contracts/People.sol\":393:400  uint256 */\n              0x00\n                /* \"contracts/People.sol\":401:414  string memory */\n              0x60\n                /* \"contracts/People.sol\":426:454  Person memory retreivePerson */\n              0x00\n                /* \"contracts/People.sol\":457:459  p1 */\n              dup1\n                /* \"contracts/People.sol\":460:474  _p1IndexNumber */\n              dup5\n                /* \"contracts/People.sol\":457:475  p1[_p1IndexNumber] */\n              dup2\n              sload\n              dup2\n              lt\n              tag_21\n              jumpi\n              tag_22\n              tag_23\n              jump\t// in\n            tag_22:\n            tag_21:\n              swap1\n              0x00\n              mstore\n              keccak256(0x00, 0x20)\n              swap1\n              0x02\n              mul\n              add\n                /* \"contracts/People.sol\":426:475  Person memory retreivePerson = p1[_p1IndexNumber] */\n              mload(0x40)\n              dup1\n              0x40\n              add\n              0x40\n              mstore\n              swap1\n              dup2\n              0x00\n              dup3\n              add\n              sload\n              dup2\n              mstore\n              0x20\n              add\n              0x01\n              dup3\n              add\n              dup1\n              sload\n              tag_25\n              swap1\n              tag_26\n              jump\t// in\n            tag_25:\n              dup1\n              0x1f\n              add\n              0x20\n              dup1\n              swap2\n              div\n              mul\n              0x20\n              add\n              mload(0x40)\n              swap1\n              dup2\n              add\n              0x40\n              mstore\n              dup1\n              swap3\n              swap2\n              swap1\n              dup2\n              dup2\n              mstore\n              0x20\n              add\n              dup3\n              dup1\n              sload\n              tag_27\n              swap1\n              tag_26\n              jump\t// in\n            tag_27:\n              dup1\n              iszero\n              tag_28\n              jumpi\n              dup1\n              0x1f\n              lt\n              tag_29\n              jumpi\n              0x0100\n              dup1\n              dup4\n              sload\n              div\n              mul\n              dup4\n              mstore\n              swap2\n              0x20\n              add\n              swap2\n              jump(tag_28)\n            tag_29:\n              dup3\n              add\n              swap2\n              swap1\n              0x00\n              mstore\n              keccak256(0x00, 0x20)\n              swap1\n            tag_30:\n              dup2\n              sload\n              dup2\n              mstore\n              swap1\n              0x01\n              add\n              swap1\n              0x20\n              add\n              dup1\n              dup4\n              gt\n              tag_30\n              jumpi\n              dup3\n              swap1\n              sub\n              0x1f\n              and\n              dup3\n              add\n              swap2\n            tag_28:\n              pop\n              pop\n              pop\n              pop\n              pop\n              dup2\n              mstore\n              pop\n              pop\n              swap1\n              pop\n                /* \"contracts/People.sol\":494:508  retreivePerson */\n              dup1\n                /* \"contracts/People.sol\":494:512  retreivePerson.age */\n              0x00\n              add\n              mload\n                /* \"contracts/People.sol\":513:527  retreivePerson */\n              dup2\n                /* \"contracts/People.sol\":513:532  retreivePerson.name */\n              0x20\n              add\n              mload\n                /* \"contracts/People.sol\":486:533  return (retreivePerson.age,retreivePerson.name) */\n              swap3\n              pop\n              swap3\n              pop\n              pop\n                /* \"contracts/People.sol\":335:541  function pull(uint256 _p1IndexNumber) public view returns(uint256,string memory){... */\n              swap2\n              pop\n              swap2\n              jump\t// out\n                /* \"contracts/People.sol\":166:327  function createPeople(uint256 _age,string memory _name) public  {... */\n            tag_15:\n                /* \"contracts/People.sol\":241:261  Person memory person */\n              0x00\n                /* \"contracts/People.sol\":264:293  Person({age:_age,name:_name}) */\n              mload(0x40)\n              dup1\n              0x40\n              add\n              0x40\n              mstore\n              dup1\n                /* \"contracts/People.sol\":276:280  _age */\n              dup5\n                /* \"contracts/People.sol\":264:293  Person({age:_age,name:_name}) */\n              dup2\n              mstore\n              0x20\n              add\n                /* \"contracts/People.sol\":286:291  _name */\n              dup4\n                /* \"contracts/People.sol\":264:293  Person({age:_age,name:_name}) */\n              dup2\n              mstore\n              pop\n                /* \"contracts/People.sol\":241:293  Person memory person = Person({age:_age,name:_name}) */\n              swap1\n              pop\n                /* \"contracts/People.sol\":304:306  p1 */\n              0x00\n                /* \"contracts/People.sol\":312:318  person */\n              dup2\n                /* \"contracts/People.sol\":304:319  p1.push(person) */\n              swap1\n              dup1\n              0x01\n              dup2\n              sload\n              add\n              dup1\n              dup3\n              sstore\n              dup1\n              swap2\n              pop\n              pop\n              0x01\n              swap1\n              sub\n              swap1\n              0x00\n              mstore\n              keccak256(0x00, 0x20)\n              swap1\n              0x02\n              mul\n              add\n              0x00\n              swap1\n              swap2\n              swap1\n              swap2\n              swap1\n              swap2\n              pop\n              0x00\n              dup3\n              add\n              mload\n              dup2\n              0x00\n              add\n              sstore\n              0x20\n              dup3\n              add\n              mload\n              dup2\n              0x01\n              add\n              swap1\n              dup2\n              tag_33\n              swap2\n              swap1\n              tag_34\n              jump\t// in\n            tag_33:\n              pop\n              pop\n              pop\n                /* \"contracts/People.sol\":230:327  {... */\n              pop\n                /* \"contracts/People.sol\":166:327  function createPeople(uint256 _age,string memory _name) public  {... */\n              pop\n              pop\n              jump\t// out\n                /* \"contracts/People.sol\":139:157  Person[] public p1 */\n            tag_18:\n              0x00\n              dup2\n              dup2\n              sload\n              dup2\n              lt\n              tag_35\n              jumpi\n              0x00\n              dup1\n              revert\n            tag_35:\n              swap1\n              0x00\n              mstore\n              keccak256(0x00, 0x20)\n              swap1\n              0x02\n              mul\n              add\n              0x00\n              swap2\n              pop\n              swap1\n              pop\n              dup1\n              0x00\n              add\n              sload\n              swap1\n              dup1\n              0x01\n              add\n              dup1\n              sload\n              tag_37\n              swap1\n              tag_26\n              jump\t// in\n            tag_37:\n              dup1\n              0x1f\n              add\n              0x20\n              dup1\n              swap2\n              div\n              mul\n              0x20\n              add\n              mload(0x40)\n              swap1\n              dup2\n              add\n              0x40\n              mstore\n              dup1\n              swap3\n              swap2\n              swap1\n              dup2\n              dup2\n              mstore\n              0x20\n              add\n              dup3\n              dup1\n              sload\n              tag_38\n              swap1\n              tag_26\n              jump\t// in\n            tag_38:\n              dup1\n              iszero\n              tag_39\n              jumpi\n              dup1\n              0x1f\n              lt\n              tag_40\n              jumpi\n              0x0100\n              dup1\n              dup4\n              sload\n              div\n              mul\n              dup4\n              mstore\n              swap2\n              0x20\n              add\n              swap2\n              jump(tag_39)\n            tag_40:\n              dup3\n              add\n              swap2\n              swap1\n              0x00\n              mstore\n              keccak256(0x00, 0x20)\n              swap1\n            tag_41:\n              dup2\n              sload\n              dup2\n              mstore\n              swap1\n              0x01\n              add\n              swap1\n              0x20\n              add\n              dup1\n              dup4\n              gt\n              tag_41\n              jumpi\n              dup3\n              swap1\n              sub\n              0x1f\n              and\n              dup3\n              add\n              swap2\n            tag_39:\n              pop\n              pop\n              pop\n              pop\n              pop\n              swap1\n              pop\n              dup3\n              jump\t// out\n                /* \"#utility.yul\":7:82   */\n            tag_42:\n                /* \"#utility.yul\":40:46   */\n              0x00\n                /* \"#utility.yul\":73:75   */\n              0x40\n                /* \"#utility.yul\":67:76   */\n              mload\n                /* \"#utility.yul\":57:76   */\n              swap1\n              pop\n                /* \"#utility.yul\":7:82   */\n              swap1\n              jump\t// out\n                /* \"#utility.yul\":88:205   */\n            tag_43:\n                /* \"#utility.yul\":197:198   */\n              0x00\n                /* \"#utility.yul\":194:195   */\n              dup1\n                /* \"#utility.yul\":187:199   */\n              revert\n                /* \"#utility.yul\":211:328   */\n            tag_44:\n                /* \"#utility.yul\":320:321   */\n              0x00\n                /* \"#utility.yul\":317:318   */\n              dup1\n                /* \"#utility.yul\":310:322   */\n              revert\n                /* \"#utility.yul\":334:411   */\n            tag_45:\n                /* \"#utility.yul\":371:378   */\n              0x00\n                /* \"#utility.yul\":400:405   */\n              dup2\n                /* \"#utility.yul\":389:405   */\n              swap1\n              pop\n                /* \"#utility.yul\":334:411   */\n              swap2\n              swap1\n              pop\n              jump\t// out\n                /* \"#utility.yul\":417:539   */\n            tag_46:\n                /* \"#utility.yul\":490:514   */\n              tag_85\n                /* \"#utility.yul\":508:513   */\n              dup2\n                /* \"#utility.yul\":490:514   */\n              tag_45\n              jump\t// in\n            tag_85:\n                /* \"#utility.yul\":483:488   */\n              dup2\n                /* \"#utility.yul\":480:515   */\n              eq\n                /* \"#utility.yul\":470:533   */\n              tag_86\n              jumpi\n                /* \"#utility.yul\":529:530   */\n              0x00\n                /* \"#utility.yul\":526:527   */\n              dup1\n                /* \"#utility.yul\":519:531   */\n              revert\n                /* \"#utility.yul\":470:533   */\n            tag_86:\n                /* \"#utility.yul\":417:539   */\n              pop\n              jump\t// out\n                /* \"#utility.yul\":545:684   */\n            tag_47:\n                /* \"#utility.yul\":591:596   */\n              0x00\n                /* \"#utility.yul\":629:635   */\n              dup2\n                /* \"#utility.yul\":616:636   */\n              calldataload\n                /* \"#utility.yul\":607:636   */\n              swap1\n              pop\n                /* \"#utility.yul\":645:678   */\n              tag_88\n                /* \"#utility.yul\":672:677   */\n              dup2\n                /* \"#utility.yul\":645:678   */\n              tag_46\n              jump\t// in\n            tag_88:\n                /* \"#utility.yul\":545:684   */\n              swap3\n              swap2\n              pop\n              pop\n              jump\t// out\n                /* \"#utility.yul\":690:1019   */\n            tag_8:\n                /* \"#utility.yul\":749:755   */\n              0x00\n                /* \"#utility.yul\":798:800   */\n              0x20\n                /* \"#utility.yul\":786:795   */\n              dup3\n                /* \"#utility.yul\":777:784   */\n              dup5\n                /* \"#utility.yul\":773:796   */\n              sub\n                /* \"#utility.yul\":769:801   */\n              slt\n                /* \"#utility.yul\":766:885   */\n              iszero\n              tag_90\n              jumpi\n                /* \"#utility.yul\":804:883   */\n              tag_91\n              tag_43\n              jump\t// in\n            tag_91:\n                /* \"#utility.yul\":766:885   */\n            tag_90:\n                /* \"#utility.yul\":924:925   */\n              0x00\n                /* \"#utility.yul\":949:1002   */\n              tag_92\n                /* \"#utility.yul\":994:1001   */\n              dup5\n                /* \"#utility.yul\":985:991   */\n              dup3\n                /* \"#utility.yul\":974:983   */\n              dup6\n                /* \"#utility.yul\":970:992   */\n              add\n                /* \"#utility.yul\":949:1002   */\n              tag_47\n              jump\t// in\n            tag_92:\n                /* \"#utility.yul\":939:1002   */\n              swap2\n              pop\n                /* \"#utility.yul\":895:1012   */\n              pop\n                /* \"#utility.yul\":690:1019   */\n              swap3\n              swap2\n              pop\n              pop\n              jump\t// out\n                /* \"#utility.yul\":1025:1143   */\n            tag_48:\n                /* \"#utility.yul\":1112:1136   */\n              tag_94\n                /* \"#utility.yul\":1130:1135   */\n              dup2\n                /* \"#utility.yul\":1112:1136   */\n              tag_45\n              jump\t// in\n            tag_94:\n                /* \"#utility.yul\":1107:1110   */\n              dup3\n                /* \"#utility.yul\":1100:1137   */\n              mstore\n                /* \"#utility.yul\":1025:1143   */\n              pop\n              pop\n              jump\t// out\n                /* \"#utility.yul\":1149:1248   */\n            tag_49:\n                /* \"#utility.yul\":1201:1207   */\n              0x00\n                /* \"#utility.yul\":1235:1240   */\n              dup2\n                /* \"#utility.yul\":1229:1241   */\n              mload\n                /* \"#utility.yul\":1219:1241   */\n              swap1\n              pop\n                /* \"#utility.yul\":1149:1248   */\n              swap2\n              swap1\n              pop\n              jump\t// out\n                /* \"#utility.yul\":1254:1423   */\n            tag_50:\n                /* \"#utility.yul\":1338:1349   */\n              0x00\n                /* \"#utility.yul\":1372:1378   */\n              dup3\n                /* \"#utility.yul\":1367:1370   */\n              dup3\n                /* \"#utility.yul\":1360:1379   */\n              mstore\n                /* \"#utility.yul\":1412:1416   */\n              0x20\n                /* \"#utility.yul\":1407:1410   */\n              dup3\n                /* \"#utility.yul\":1403:1417   */\n              add\n                /* \"#utility.yul\":1388:1417   */\n              swap1\n              pop\n                /* \"#utility.yul\":1254:1423   */\n              swap3\n              swap2\n              pop\n              pop\n              jump\t// out\n                /* \"#utility.yul\":1429:1568   */\n            tag_51:\n                /* \"#utility.yul\":1518:1524   */\n              dup3\n                /* \"#utility.yul\":1513:1516   */\n              dup2\n                /* \"#utility.yul\":1508:1511   */\n              dup4\n                /* \"#utility.yul\":1502:1525   */\n              mcopy\n                /* \"#utility.yul\":1559:1560   */\n              0x00\n                /* \"#utility.yul\":1550:1556   */\n              dup4\n                /* \"#utility.yul\":1545:1548   */\n              dup4\n                /* \"#utility.yul\":1541:1557   */\n              add\n                /* \"#utility.yul\":1534:1561   */\n              mstore\n                /* \"#utility.yul\":1429:1568   */\n              pop\n              pop\n              pop\n              jump\t// out\n                /* \"#utility.yul\":1574:1676   */\n            tag_52:\n                /* \"#utility.yul\":1615:1621   */\n              0x00\n                /* \"#utility.yul\":1666:1668   */\n              0x1f\n                /* \"#utility.yul\":1662:1669   */\n              not\n                /* \"#utility.yul\":1657:1659   */\n              0x1f\n                /* \"#utility.yul\":1650:1655   */\n              dup4\n                /* \"#utility.yul\":1646:1660   */\n              add\n                /* \"#utility.yul\":1642:1670   */\n              and\n                /* \"#utility.yul\":1632:1670   */\n              swap1\n              pop\n                /* \"#utility.yul\":1574:1676   */\n              swap2\n              swap1\n              pop\n              jump\t// out\n                /* \"#utility.yul\":1682:2059   */\n            tag_53:\n                /* \"#utility.yul\":1770:1773   */\n              0x00\n                /* \"#utility.yul\":1798:1837   */\n              tag_100\n                /* \"#utility.yul\":1831:1836   */\n              dup3\n                /* \"#utility.yul\":1798:1837   */\n              tag_49\n              jump\t// in\n            tag_100:\n                /* \"#utility.yul\":1853:1924   */\n              tag_101\n                /* \"#utility.yul\":1917:1923   */\n              dup2\n                /* \"#utility.yul\":1912:1915   */\n              dup6\n                /* \"#utility.yul\":1853:1924   */\n              tag_50\n              jump\t// in\n            tag_101:\n                /* \"#utility.yul\":1846:1924   */\n              swap4\n              pop\n                /* \"#utility.yul\":1933:1998   */\n              tag_102\n                /* \"#utility.yul\":1991:1997   */\n              dup2\n                /* \"#utility.yul\":1986:1989   */\n              dup6\n                /* \"#utility.yul\":1979:1983   */\n              0x20\n                /* \"#utility.yul\":1972:1977   */\n              dup7\n                /* \"#utility.yul\":1968:1984   */\n              add\n                /* \"#utility.yul\":1933:1998   */\n              tag_51\n              jump\t// in\n            tag_102:\n                /* \"#utility.yul\":2023:2052   */\n              tag_103\n                /* \"#utility.yul\":2045:2051   */\n              dup2\n                /* \"#utility.yul\":2023:2052   */\n              tag_52\n              jump\t// in\n            tag_103:\n                /* \"#utility.yul\":2018:2021   */\n              dup5\n                /* \"#utility.yul\":2014:2053   */\n              add\n                /* \"#utility.yul\":2007:2053   */\n              swap2\n              pop\n                /* \"#utility.yul\":1774:2059   */\n              pop\n                /* \"#utility.yul\":1682:2059   */\n              swap3\n              swap2\n              pop\n              pop\n              jump\t// out\n                /* \"#utility.yul\":2065:2488   */\n            tag_11:\n                /* \"#utility.yul\":2206:2210   */\n              0x00\n                /* \"#utility.yul\":2244:2246   */\n              0x40\n                /* \"#utility.yul\":2233:2242   */\n              dup3\n                /* \"#utility.yul\":2229:2247   */\n              add\n                /* \"#utility.yul\":2221:2247   */\n              swap1\n              pop\n                /* \"#utility.yul\":2257:2328   */\n              tag_105\n                /* \"#utility.yul\":2325:2326   */\n              0x00\n                /* \"#utility.yul\":2314:2323   */\n              dup4\n                /* \"#utility.yul\":2310:2327   */\n              add\n                /* \"#utility.yul\":2301:2307   */\n              dup6\n                /* \"#utility.yul\":2257:2328   */\n              tag_48\n              jump\t// in\n            tag_105:\n                /* \"#utility.yul\":2375:2384   */\n              dup2\n                /* \"#utility.yul\":2369:2373   */\n              dup2\n                /* \"#utility.yul\":2365:2385   */\n              sub\n                /* \"#utility.yul\":2360:2362   */\n              0x20\n                /* \"#utility.yul\":2349:2358   */\n              dup4\n                /* \"#utility.yul\":2345:2363   */\n              add\n                /* \"#utility.yul\":2338:2386   */\n              mstore\n                /* \"#utility.yul\":2403:2481   */\n              tag_106\n                /* \"#utility.yul\":2476:2480   */\n              dup2\n                /* \"#utility.yul\":2467:2473   */\n              dup5\n                /* \"#utility.yul\":2403:2481   */\n              tag_53\n              jump\t// in\n            tag_106:\n                /* \"#utility.yul\":2395:2481   */\n              swap1\n              pop\n                /* \"#utility.yul\":2065:2488   */\n              swap4\n              swap3\n              pop\n              pop\n              pop\n              jump\t// out\n                /* \"#utility.yul\":2494:2611   */\n            tag_54:\n                /* \"#utility.yul\":2603:2604   */\n              0x00\n                /* \"#utility.yul\":2600:2601   */\n              dup1\n                /* \"#utility.yul\":2593:2605   */\n              revert\n                /* \"#utility.yul\":2617:2734   */\n            tag_55:\n                /* \"#utility.yul\":2726:2727   */\n              0x00\n                /* \"#utility.yul\":2723:2724   */\n              dup1\n                /* \"#utility.yul\":2716:2728   */\n              revert\n                /* \"#utility.yul\":2740:2920   */\n            tag_56:\n                /* \"#utility.yul\":2788:2865   */\n              0x4e487b7100000000000000000000000000000000000000000000000000000000\n                /* \"#utility.yul\":2785:2786   */\n              0x00\n                /* \"#utility.yul\":2778:2866   */\n              mstore\n                /* \"#utility.yul\":2885:2889   */\n              0x41\n                /* \"#utility.yul\":2882:2883   */\n              0x04\n                /* \"#utility.yul\":2875:2890   */\n              mstore\n                /* \"#utility.yul\":2909:2913   */\n              0x24\n                /* \"#utility.yul\":2906:2907   */\n              0x00\n                /* \"#utility.yul\":2899:2914   */\n              revert\n                /* \"#utility.yul\":2926:3207   */\n            tag_57:\n                /* \"#utility.yul\":3009:3036   */\n              tag_111\n                /* \"#utility.yul\":3031:3035   */\n              dup3\n                /* \"#utility.yul\":3009:3036   */\n              tag_52\n              jump\t// in\n            tag_111:\n                /* \"#utility.yul\":3001:3007   */\n              dup2\n                /* \"#utility.yul\":2997:3037   */\n              add\n                /* \"#utility.yul\":3139:3145   */\n              dup2\n                /* \"#utility.yul\":3127:3137   */\n              dup2\n                /* \"#utility.yul\":3124:3146   */\n              lt\n                /* \"#utility.yul\":3103:3121   */\n              0xffffffffffffffff\n                /* \"#utility.yul\":3091:3101   */\n              dup3\n                /* \"#utility.yul\":3088:3122   */\n              gt\n                /* \"#utility.yul\":3085:3147   */\n              or\n                /* \"#utility.yul\":3082:3170   */\n              iszero\n              tag_112\n              jumpi\n                /* \"#utility.yul\":3150:3168   */\n              tag_113\n              tag_56\n              jump\t// in\n            tag_113:\n                /* \"#utility.yul\":3082:3170   */\n            tag_112:\n                /* \"#utility.yul\":3190:3200   */\n              dup1\n                /* \"#utility.yul\":3186:3188   */\n              0x40\n                /* \"#utility.yul\":3179:3201   */\n              mstore\n                /* \"#utility.yul\":2969:3207   */\n              pop\n                /* \"#utility.yul\":2926:3207   */\n              pop\n              pop\n              jump\t// out\n                /* \"#utility.yul\":3213:3342   */\n            tag_58:\n                /* \"#utility.yul\":3247:3253   */\n              0x00\n                /* \"#utility.yul\":3274:3294   */\n              tag_115\n              tag_42\n              jump\t// in\n            tag_115:\n                /* \"#utility.yul\":3264:3294   */\n              swap1\n              pop\n                /* \"#utility.yul\":3303:3336   */\n              tag_116\n                /* \"#utility.yul\":3331:3335   */\n              dup3\n                /* \"#utility.yul\":3323:3329   */\n              dup3\n                /* \"#utility.yul\":3303:3336   */\n              tag_57\n              jump\t// in\n            tag_116:\n                /* \"#utility.yul\":3213:3342   */\n              swap2\n              swap1\n              pop\n              jump\t// out\n                /* \"#utility.yul\":3348:3656   */\n            tag_59:\n                /* \"#utility.yul\":3410:3414   */\n              0x00\n                /* \"#utility.yul\":3500:3518   */\n              0xffffffffffffffff\n                /* \"#utility.yul\":3492:3498   */\n              dup3\n                /* \"#utility.yul\":3489:3519   */\n              gt\n                /* \"#utility.yul\":3486:3542   */\n              iszero\n              tag_118\n              jumpi\n                /* \"#utility.yul\":3522:3540   */\n              tag_119\n              tag_56\n              jump\t// in\n            tag_119:\n                /* \"#utility.yul\":3486:3542   */\n            tag_118:\n                /* \"#utility.yul\":3560:3589   */\n              tag_120\n                /* \"#utility.yul\":3582:3588   */\n              dup3\n                /* \"#utility.yul\":3560:3589   */\n              tag_52\n              jump\t// in\n            tag_120:\n                /* \"#utility.yul\":3552:3589   */\n              swap1\n              pop\n                /* \"#utility.yul\":3644:3648   */\n              0x20\n                /* \"#utility.yul\":3638:3642   */\n              dup2\n                /* \"#utility.yul\":3634:3649   */\n              add\n                /* \"#utility.yul\":3626:3649   */\n              swap1\n              pop\n                /* \"#utility.yul\":3348:3656   */\n              swap2\n              swap1\n              pop\n              jump\t// out\n                /* \"#utility.yul\":3662:3810   */\n            tag_60:\n                /* \"#utility.yul\":3760:3766   */\n              dup3\n                /* \"#utility.yul\":3755:3758   */\n              dup2\n                /* \"#utility.yul\":3750:3753   */\n              dup4\n                /* \"#utility.yul\":3737:3767   */\n              calldatacopy\n                /* \"#utility.yul\":3801:3802   */\n              0x00\n                /* \"#utility.yul\":3792:3798   */\n              dup4\n                /* \"#utility.yul\":3787:3790   */\n              dup4\n                /* \"#utility.yul\":3783:3799   */\n              add\n                /* \"#utility.yul\":3776:3803   */\n              mstore\n                /* \"#utility.yul\":3662:3810   */\n              pop\n              pop\n              pop\n              jump\t// out\n                /* \"#utility.yul\":3816:4241   */\n            tag_61:\n                /* \"#utility.yul\":3894:3899   */\n              0x00\n                /* \"#utility.yul\":3919:3985   */\n              tag_123\n                /* \"#utility.yul\":3935:3984   */\n              tag_124\n                /* \"#utility.yul\":3977:3983   */\n              dup5\n                /* \"#utility.yul\":3935:3984   */\n              tag_59\n              jump\t// in\n            tag_124:\n                /* \"#utility.yul\":3919:3985   */\n              tag_58\n              jump\t// in\n            tag_123:\n                /* \"#utility.yul\":3910:3985   */\n              swap1\n              pop\n                /* \"#utility.yul\":4008:4014   */\n              dup3\n                /* \"#utility.yul\":4001:4006   */\n              dup2\n                /* \"#utility.yul\":3994:4015   */\n              mstore\n                /* \"#utility.yul\":4046:4050   */\n              0x20\n                /* \"#utility.yul\":4039:4044   */\n              dup2\n                /* \"#utility.yul\":4035:4051   */\n              add\n                /* \"#utility.yul\":4084:4087   */\n              dup5\n                /* \"#utility.yul\":4075:4081   */\n              dup5\n                /* \"#utility.yul\":4070:4073   */\n              dup5\n                /* \"#utility.yul\":4066:4082   */\n              add\n                /* \"#utility.yul\":4063:4088   */\n              gt\n                /* \"#utility.yul\":4060:4172   */\n              iszero\n              tag_125\n              jumpi\n                /* \"#utility.yul\":4091:4170   */\n              tag_126\n              tag_55\n              jump\t// in\n            tag_126:\n                /* \"#utility.yul\":4060:4172   */\n            tag_125:\n                /* \"#utility.yul\":4181:4235   */\n              tag_127\n                /* \"#utility.yul\":4228:4234   */\n              dup5\n                /* \"#utility.yul\":4223:4226   */\n              dup3\n                /* \"#utility.yul\":4218:4221   */\n              dup6\n                /* \"#utility.yul\":4181:4235   */\n              tag_60\n              jump\t// in\n            tag_127:\n                /* \"#utility.yul\":3900:4241   */\n              pop\n                /* \"#utility.yul\":3816:4241   */\n              swap4\n              swap3\n              pop\n              pop\n              pop\n              jump\t// out\n                /* \"#utility.yul\":4261:4601   */\n            tag_62:\n                /* \"#utility.yul\":4317:4322   */\n              0x00\n                /* \"#utility.yul\":4366:4369   */\n              dup3\n                /* \"#utility.yul\":4359:4363   */\n              0x1f\n                /* \"#utility.yul\":4351:4357   */\n              dup4\n                /* \"#utility.yul\":4347:4364   */\n              add\n                /* \"#utility.yul\":4343:4370   */\n              slt\n                /* \"#utility.yul\":4333:4455   */\n              tag_129\n              jumpi\n                /* \"#utility.yul\":4374:4453   */\n              tag_130\n              tag_54\n              jump\t// in\n            tag_130:\n                /* \"#utility.yul\":4333:4455   */\n            tag_129:\n                /* \"#utility.yul\":4491:4497   */\n              dup2\n                /* \"#utility.yul\":4478:4498   */\n              calldataload\n                /* \"#utility.yul\":4516:4595   */\n              tag_131\n                /* \"#utility.yul\":4591:4594   */\n              dup5\n                /* \"#utility.yul\":4583:4589   */\n              dup3\n                /* \"#utility.yul\":4576:4580   */\n              0x20\n                /* \"#utility.yul\":4568:4574   */\n              dup7\n                /* \"#utility.yul\":4564:4581   */\n              add\n                /* \"#utility.yul\":4516:4595   */\n              tag_61\n              jump\t// in\n            tag_131:\n                /* \"#utility.yul\":4507:4595   */\n              swap2\n              pop\n                /* \"#utility.yul\":4323:4601   */\n              pop\n                /* \"#utility.yul\":4261:4601   */\n              swap3\n              swap2\n              pop\n              pop\n              jump\t// out\n                /* \"#utility.yul\":4607:5261   */\n            tag_14:\n                /* \"#utility.yul\":4685:4691   */\n              0x00\n                /* \"#utility.yul\":4693:4699   */\n              dup1\n                /* \"#utility.yul\":4742:4744   */\n              0x40\n                /* \"#utility.yul\":4730:4739   */\n              dup4\n                /* \"#utility.yul\":4721:4728   */\n              dup6\n                /* \"#utility.yul\":4717:4740   */\n              sub\n                /* \"#utility.yul\":4713:4745   */\n              slt\n                /* \"#utility.yul\":4710:4829   */\n              iszero\n              tag_133\n              jumpi\n                /* \"#utility.yul\":4748:4827   */\n              tag_134\n              tag_43\n              jump\t// in\n            tag_134:\n                /* \"#utility.yul\":4710:4829   */\n            tag_133:\n                /* \"#utility.yul\":4868:4869   */\n              0x00\n                /* \"#utility.yul\":4893:4946   */\n              tag_135\n                /* \"#utility.yul\":4938:4945   */\n              dup6\n                /* \"#utility.yul\":4929:4935   */\n              dup3\n                /* \"#utility.yul\":4918:4927   */\n              dup7\n                /* \"#utility.yul\":4914:4936   */\n              add\n                /* \"#utility.yul\":4893:4946   */\n              tag_47\n              jump\t// in\n            tag_135:\n                /* \"#utility.yul\":4883:4946   */\n              swap3\n              pop\n                /* \"#utility.yul\":4839:4956   */\n              pop\n                /* \"#utility.yul\":5023:5025   */\n              0x20\n                /* \"#utility.yul\":5012:5021   */\n              dup4\n                /* \"#utility.yul\":5008:5026   */\n              add\n                /* \"#utility.yul\":4995:5027   */\n              calldataload\n                /* \"#utility.yul\":5054:5072   */\n              0xffffffffffffffff\n                /* \"#utility.yul\":5046:5052   */\n              dup2\n                /* \"#utility.yul\":5043:5073   */\n              gt\n                /* \"#utility.yul\":5040:5157   */\n              iszero\n              tag_136\n              jumpi\n                /* \"#utility.yul\":5076:5155   */\n              tag_137\n              tag_44\n              jump\t// in\n            tag_137:\n                /* \"#utility.yul\":5040:5157   */\n            tag_136:\n                /* \"#utility.yul\":5181:5244   */\n              tag_138\n                /* \"#utility.yul\":5236:5243   */\n              dup6\n                /* \"#utility.yul\":5227:5233   */\n              dup3\n                /* \"#utility.yul\":5216:5225   */\n              dup7\n                /* \"#utility.yul\":5212:5234   */\n              add\n                /* \"#utility.yul\":5181:5244   */\n              tag_62\n              jump\t// in\n            tag_138:\n                /* \"#utility.yul\":5171:5244   */\n              swap2\n              pop\n                /* \"#utility.yul\":4966:5254   */\n              pop\n                /* \"#utility.yul\":4607:5261   */\n              swap3\n              pop\n              swap3\n              swap1\n              pop\n              jump\t// out\n                /* \"#utility.yul\":5267:5447   */\n            tag_23:\n                /* \"#utility.yul\":5315:5392   */\n              0x4e487b7100000000000000000000000000000000000000000000000000000000\n                /* \"#utility.yul\":5312:5313   */\n              0x00\n                /* \"#utility.yul\":5305:5393   */\n              mstore\n                /* \"#utility.yul\":5412:5416   */\n              0x32\n                /* \"#utility.yul\":5409:5410   */\n              0x04\n                /* \"#utility.yul\":5402:5417   */\n              mstore\n                /* \"#utility.yul\":5436:5440   */\n              0x24\n                /* \"#utility.yul\":5433:5434   */\n              0x00\n                /* \"#utility.yul\":5426:5441   */\n              revert\n                /* \"#utility.yul\":5453:5633   */\n            tag_63:\n                /* \"#utility.yul\":5501:5578   */\n              0x4e487b7100000000000000000000000000000000000000000000000000000000\n                /* \"#utility.yul\":5498:5499   */\n              0x00\n                /* \"#utility.yul\":5491:5579   */\n              mstore\n                /* \"#utility.yul\":5598:5602   */\n              0x22\n                /* \"#utility.yul\":5595:5596   */\n              0x04\n                /* \"#utility.yul\":5588:5603   */\n              mstore\n                /* \"#utility.yul\":5622:5626   */\n              0x24\n                /* \"#utility.yul\":5619:5620   */\n              0x00\n                /* \"#utility.yul\":5612:5627   */\n              revert\n                /* \"#utility.yul\":5639:5959   */\n            tag_26:\n                /* \"#utility.yul\":5683:5689   */\n              0x00\n                /* \"#utility.yul\":5720:5721   */\n              0x02\n                /* \"#utility.yul\":5714:5718   */\n              dup3\n                /* \"#utility.yul\":5710:5722   */\n              div\n                /* \"#utility.yul\":5700:5722   */\n              swap1\n              pop\n                /* \"#utility.yul\":5767:5768   */\n              0x01\n                /* \"#utility.yul\":5761:5765   */\n              dup3\n                /* \"#utility.yul\":5757:5769   */\n              and\n                /* \"#utility.yul\":5788:5806   */\n              dup1\n                /* \"#utility.yul\":5778:5859   */\n              tag_142\n              jumpi\n                /* \"#utility.yul\":5844:5848   */\n              0x7f\n                /* \"#utility.yul\":5836:5842   */\n              dup3\n                /* \"#utility.yul\":5832:5849   */\n              and\n                /* \"#utility.yul\":5822:5849   */\n              swap2\n              pop\n                /* \"#utility.yul\":5778:5859   */\n            tag_142:\n                /* \"#utility.yul\":5906:5908   */\n              0x20\n                /* \"#utility.yul\":5898:5904   */\n              dup3\n                /* \"#utility.yul\":5895:5909   */\n              lt\n                /* \"#utility.yul\":5875:5893   */\n              dup2\n                /* \"#utility.yul\":5872:5910   */\n              sub\n                /* \"#utility.yul\":5869:5953   */\n              tag_143\n              jumpi\n                /* \"#utility.yul\":5925:5943   */\n              tag_144\n              tag_63\n              jump\t// in\n            tag_144:\n                /* \"#utility.yul\":5869:5953   */\n            tag_143:\n                /* \"#utility.yul\":5690:5959   */\n              pop\n                /* \"#utility.yul\":5639:5959   */\n              swap2\n              swap1\n              pop\n              jump\t// out\n                /* \"#utility.yul\":5965:6106   */\n            tag_64:\n                /* \"#utility.yul\":6014:6018   */\n              0x00\n                /* \"#utility.yul\":6037:6040   */\n              dup2\n                /* \"#utility.yul\":6029:6040   */\n              swap1\n              pop\n                /* \"#utility.yul\":6060:6063   */\n              dup2\n                /* \"#utility.yul\":6057:6058   */\n              0x00\n                /* \"#utility.yul\":6050:6064   */\n              mstore\n                /* \"#utility.yul\":6094:6098   */\n              0x20\n                /* \"#utility.yul\":6091:6092   */\n              0x00\n                /* \"#utility.yul\":6081:6099   */\n              keccak256\n                /* \"#utility.yul\":6073:6099   */\n              swap1\n              pop\n                /* \"#utility.yul\":5965:6106   */\n              swap2\n              swap1\n              pop\n              jump\t// out\n                /* \"#utility.yul\":6112:6205   */\n            tag_65:\n                /* \"#utility.yul\":6149:6155   */\n              0x00\n                /* \"#utility.yul\":6196:6198   */\n              0x20\n                /* \"#utility.yul\":6191:6193   */\n              0x1f\n                /* \"#utility.yul\":6184:6189   */\n              dup4\n                /* \"#utility.yul\":6180:6194   */\n              add\n                /* \"#utility.yul\":6176:6199   */\n              div\n                /* \"#utility.yul\":6166:6199   */\n              swap1\n              pop\n                /* \"#utility.yul\":6112:6205   */\n              swap2\n              swap1\n              pop\n              jump\t// out\n                /* \"#utility.yul\":6211:6318   */\n            tag_66:\n                /* \"#utility.yul\":6255:6263   */\n              0x00\n                /* \"#utility.yul\":6305:6310   */\n              dup3\n                /* \"#utility.yul\":6299:6303   */\n              dup3\n                /* \"#utility.yul\":6295:6311   */\n              shl\n                /* \"#utility.yul\":6274:6311   */\n              swap1\n              pop\n                /* \"#utility.yul\":6211:6318   */\n              swap3\n              swap2\n              pop\n              pop\n              jump\t// out\n                /* \"#utility.yul\":6324:6717   */\n            tag_67:\n                /* \"#utility.yul\":6393:6399   */\n              0x00\n                /* \"#utility.yul\":6443:6444   */\n              0x08\n                /* \"#utility.yul\":6431:6441   */\n              dup4\n                /* \"#utility.yul\":6427:6445   */\n              mul\n                /* \"#utility.yul\":6466:6563   */\n              tag_149\n                /* \"#utility.yul\":6496:6562   */\n              0xffffffffffffffffffffffffffffffffffffffffffffffffffffffffffffffff\n                /* \"#utility.yul\":6485:6494   */\n              dup3\n                /* \"#utility.yul\":6466:6563   */\n              tag_66\n              jump\t// in\n            tag_149:\n                /* \"#utility.yul\":6584:6623   */\n              tag_150\n                /* \"#utility.yul\":6614:6622   */\n              dup7\n                /* \"#utility.yul\":6603:6612   */\n              dup4\n                /* \"#utility.yul\":6584:6623   */\n              tag_66\n              jump\t// in\n            tag_150:\n                /* \"#utility.yul\":6572:6623   */\n              swap6\n              pop\n                /* \"#utility.yul\":6656:6660   */\n              dup1\n                /* \"#utility.yul\":6652:6661   */\n              not\n                /* \"#utility.yul\":6645:6650   */\n              dup5\n                /* \"#utility.yul\":6641:6662   */\n              and\n                /* \"#utility.yul\":6632:6662   */\n              swap4\n              pop\n                /* \"#utility.yul\":6705:6709   */\n              dup1\n                /* \"#utility.yul\":6695:6703   */\n              dup7\n                /* \"#utility.yul\":6691:6710   */\n              and\n                /* \"#utility.yul\":6684:6689   */\n              dup5\n                /* \"#utility.yul\":6681:6711   */\n              or\n                /* \"#utility.yul\":6671:6711   */\n              swap3\n              pop\n                /* \"#utility.yul\":6400:6717   */\n              pop\n              pop\n                /* \"#utility.yul\":6324:6717   */\n              swap4\n              swap3\n              pop\n              pop\n              pop\n              jump\t// out\n                /* \"#utility.yul\":6723:6783   */\n            tag_68:\n                /* \"#utility.yul\":6751:6754   */\n              0x00\n                /* \"#utility.yul\":6772:6777   */\n              dup2\n                /* \"#utility.yul\":6765:6777   */\n              swap1\n              pop\n                /* \"#utility.yul\":6723:6783   */\n              swap2\n              swap1\n              pop\n              jump\t// out\n                /* \"#utility.yul\":6789:6931   */\n            tag_69:\n                /* \"#utility.yul\":6839:6848   */\n              0x00\n                /* \"#utility.yul\":6872:6925   */\n              tag_153\n                /* \"#utility.yul\":6890:6924   */\n              tag_154\n                /* \"#utility.yul\":6899:6923   */\n              tag_155\n                /* \"#utility.yul\":6917:6922   */\n              dup5\n                /* \"#utility.yul\":6899:6923   */\n              tag_45\n              jump\t// in\n            tag_155:\n                /* \"#utility.yul\":6890:6924   */\n              tag_68\n              jump\t// in\n            tag_154:\n                /* \"#utility.yul\":6872:6925   */\n              tag_45\n              jump\t// in\n            tag_153:\n                /* \"#utility.yul\":6859:6925   */\n              swap1\n              pop\n                /* \"#utility.yul\":6789:6931   */\n              swap2\n              swap1\n              pop\n              jump\t// out\n                /* \"#utility.yul\":6937:7012   */\n            tag_70:\n                /* \"#utility.yul\":6980:6983   */\n              0x00\n                /* \"#utility.yul\":7001:7006   */\n              dup2\n                /* \"#utility.yul\":6994:7006   */\n              swap1\n              pop\n                /* \"#utility.yul\":6937:7012   */\n              swap2\n              swap1\n              pop\n              jump\t// out\n                /* \"#utility.yul\":7018:7287   */\n            tag_71:\n                /* \"#utility.yul\":7128:7167   */\n              tag_158\n                /* \"#utility.yul\":7159:7166   */\n              dup4\n                /* \"#utility.yul\":7128:7167   */\n              tag_69\n              jump\t// in\n            tag_158:\n                /* \"#utility.yul\":7189:7280   */\n              tag_159\n                /* \"#utility.yul\":7238:7279   */\n              tag_160\n                /* \"#utility.yul\":7262:7278   */\n              dup3\n                /* \"#utility.yul\":7238:7279   */\n              tag_70\n              jump\t// in\n            tag_160:\n                /* \"#utility.yul\":7230:7236   */\n              dup5\n                /* \"#utility.yul\":7223:7227   */\n              dup5\n                /* \"#utility.yul\":7217:7228   */\n              sload\n                /* \"#utility.yul\":7189:7280   */\n              tag_67\n              jump\t// in\n            tag_159:\n                /* \"#utility.yul\":7183:7187   */\n              dup3\n                /* \"#utility.yul\":7176:7281   */\n              sstore\n                /* \"#utility.yul\":7094:7287   */\n              pop\n                /* \"#utility.yul\":7018:7287   */\n              pop\n              pop\n              pop\n              jump\t// out\n                /* \"#utility.yul\":7293:7366   */\n            tag_72:\n                /* \"#utility.yul\":7338:7341   */\n              0x00\n                /* \"#utility.yul\":7293:7366   */\n              swap1\n              jump\t// out\n                /* \"#utility.yul\":7372:7561   */\n            tag_73:\n                /* \"#utility.yul\":7449:7481   */\n              tag_163\n              tag_72\n              jump\t// in\n            tag_163:\n                /* \"#utility.yul\":7490:7555   */\n              tag_164\n                /* \"#utility.yul\":7548:7554   */\n              dup2\n                /* \"#utility.yul\":7540:7546   */\n              dup5\n                /* \"#utility.yul\":7534:7538   */\n              dup5\n                /* \"#utility.yul\":7490:7555   */\n              tag_71\n              jump\t// in\n            tag_164:\n                /* \"#utility.yul\":7425:7561   */\n              pop\n                /* \"#utility.yul\":7372:7561   */\n              pop\n              pop\n              jump\t// out\n                /* \"#utility.yul\":7567:7753   */\n            tag_74:\n                /* \"#utility.yul\":7627:7747   */\n            tag_166:\n                /* \"#utility.yul\":7644:7647   */\n              dup2\n                /* \"#utility.yul\":7637:7642   */\n              dup2\n                /* \"#utility.yul\":7634:7648   */\n              lt\n                /* \"#utility.yul\":7627:7747   */\n              iszero\n              tag_168\n              jumpi\n                /* \"#utility.yul\":7698:7737   */\n              tag_169\n                /* \"#utility.yul\":7735:7736   */\n              0x00\n                /* \"#utility.yul\":7728:7733   */\n              dup3\n                /* \"#utility.yul\":7698:7737   */\n              tag_73\n              jump\t// in\n            tag_169:\n                /* \"#utility.yul\":7671:7672   */\n              0x01\n                /* \"#utility.yul\":7664:7669   */\n              dup2\n                /* \"#utility.yul\":7660:7673   */\n              add\n                /* \"#utility.yul\":7651:7673   */\n              swap1\n              pop\n                /* \"#utility.yul\":7627:7747   */\n              jump(tag_166)\n            tag_168:\n                /* \"#utility.yul\":7567:7753   */\n              pop\n              pop\n              jump\t// out\n                /* \"#utility.yul\":7759:8302   */\n            tag_75:\n                /* \"#utility.yul\":7860:7862   */\n              0x1f\n                /* \"#utility.yul\":7855:7858   */\n              dup3\n                /* \"#utility.yul\":7852:7863   */\n              gt\n                /* \"#utility.yul\":7849:8295   */\n              iszero\n              tag_171\n              jumpi\n                /* \"#utility.yul\":7894:7932   */\n              tag_172\n                /* \"#utility.yul\":7926:7931   */\n              dup2\n                /* \"#utility.yul\":7894:7932   */\n              tag_64\n              jump\t// in\n            tag_172:\n                /* \"#utility.yul\":7978:8007   */\n              tag_173\n                /* \"#utility.yul\":7996:8006   */\n              dup5\n                /* \"#utility.yul\":7978:8007   */\n              tag_65\n              jump\t// in\n            tag_173:\n                /* \"#utility.yul\":7968:7976   */\n              dup2\n                /* \"#utility.yul\":7964:8008   */\n              add\n                /* \"#utility.yul\":8161:8163   */\n              0x20\n                /* \"#utility.yul\":8149:8159   */\n              dup6\n                /* \"#utility.yul\":8146:8164   */\n              lt\n                /* \"#utility.yul\":8143:8192   */\n              iszero\n              tag_174\n              jumpi\n                /* \"#utility.yul\":8182:8190   */\n              dup2\n                /* \"#utility.yul\":8167:8190   */\n              swap1\n              pop\n                /* \"#utility.yul\":8143:8192   */\n            tag_174:\n                /* \"#utility.yul\":8205:8285   */\n              tag_175\n                /* \"#utility.yul\":8261:8283   */\n              tag_176\n                /* \"#utility.yul\":8279:8282   */\n              dup6\n                /* \"#utility.yul\":8261:8283   */\n              tag_65\n              jump\t// in\n            tag_176:\n                /* \"#utility.yul\":8251:8259   */\n              dup4\n                /* \"#utility.yul\":8247:8284   */\n              add\n                /* \"#utility.yul\":8234:8245   */\n              dup3\n                /* \"#utility.yul\":8205:8285   */\n              tag_74\n              jump\t// in\n            tag_175:\n                /* \"#utility.yul\":7864:8295   */\n              pop\n              pop\n                /* \"#utility.yul\":7849:8295   */\n            tag_171:\n                /* \"#utility.yul\":7759:8302   */\n              pop\n              pop\n              pop\n              jump\t// out\n                /* \"#utility.yul\":8308:8425   */\n            tag_76:\n                /* \"#utility.yul\":8362:8370   */\n              0x00\n                /* \"#utility.yul\":8412:8417   */\n              dup3\n                /* \"#utility.yul\":8406:8410   */\n              dup3\n                /* \"#utility.yul\":8402:8418   */\n              shr\n                /* \"#utility.yul\":8381:8418   */\n              swap1\n              pop\n                /* \"#utility.yul\":8308:8425   */\n              swap3\n              swap2\n              pop\n              pop\n              jump\t// out\n                /* \"#utility.yul\":8431:8600   */\n            tag_77:\n                /* \"#utility.yul\":8475:8481   */\n              0x00\n                /* \"#utility.yul\":8508:8559   */\n              tag_179\n                /* \"#utility.yul\":8556:8557   */\n              0x00\n                /* \"#utility.yul\":8552:8558   */\n              not\n                /* \"#utility.yul\":8544:8549   */\n              dup5\n                /* \"#utility.yul\":8541:8542   */\n              0x08\n                /* \"#utility.yul\":8537:8550   */\n              mul\n                /* \"#utility.yul\":8508:8559   */\n              tag_76\n              jump\t// in\n            tag_179:\n                /* \"#utility.yul\":8504:8560   */\n              not\n                /* \"#utility.yul\":8589:8593   */\n              dup1\n                /* \"#utility.yul\":8583:8587   */\n              dup4\n                /* \"#utility.yul\":8579:8594   */\n              and\n                /* \"#utility.yul\":8569:8594   */\n              swap2\n              pop\n                /* \"#utility.yul\":8482:8600   */\n              pop\n                /* \"#utility.yul\":8431:8600   */\n              swap3\n              swap2\n              pop\n              pop\n              jump\t// out\n                /* \"#utility.yul\":8605:8900   */\n            tag_78:\n                /* \"#utility.yul\":8681:8685   */\n              0x00\n                /* \"#utility.yul\":8827:8856   */\n              tag_181\n                /* \"#utility.yul\":8852:8855   */\n              dup4\n                /* \"#utility.yul\":8846:8850   */\n              dup4\n                /* \"#utility.yul\":8827:8856   */\n              tag_77\n              jump\t// in\n            tag_181:\n                /* \"#utility.yul\":8819:8856   */\n              swap2\n              pop\n                /* \"#utility.yul\":8889:8892   */\n              dup3\n                /* \"#utility.yul\":8886:8887   */\n              0x02\n                /* \"#utility.yul\":8882:8893   */\n              mul\n                /* \"#utility.yul\":8876:8880   */\n              dup3\n                /* \"#utility.yul\":8873:8894   */\n              or\n                /* \"#utility.yul\":8865:8894   */\n              swap1\n              pop\n                /* \"#utility.yul\":8605:8900   */\n              swap3\n              swap2\n              pop\n              pop\n              jump\t// out\n                /* \"#utility.yul\":8905:10300   */\n            tag_34:\n                /* \"#utility.yul\":9022:9059   */\n              tag_183\n                /* \"#utility.yul\":9055:9058   */\n              dup3\n                /* \"#utility.yul\":9022:9059   */\n              tag_49\n              jump\t// in\n            tag_183:\n                /* \"#utility.yul\":9124:9142   */\n              0xffffffffffffffff\n                /* \"#utility.yul\":9116:9122   */\n              dup2\n                /* \"#utility.yul\":9113:9143   */\n              gt\n                /* \"#utility.yul\":9110:9166   */\n              iszero\n              tag_184\n              jumpi\n                /* \"#utility.yul\":9146:9164   */\n              tag_185\n              tag_56\n              jump\t// in\n            tag_185:\n                /* \"#utility.yul\":9110:9166   */\n            tag_184:\n                /* \"#utility.yul\":9190:9228   */\n              tag_186\n                /* \"#utility.yul\":9222:9226   */\n              dup3\n                /* \"#utility.yul\":9216:9227   */\n              sload\n                /* \"#utility.yul\":9190:9228   */\n              tag_26\n              jump\t// in\n            tag_186:\n                /* \"#utility.yul\":9275:9342   */\n              tag_187\n                /* \"#utility.yul\":9335:9341   */\n              dup3\n                /* \"#utility.yul\":9327:9333   */\n              dup3\n                /* \"#utility.yul\":9321:9325   */\n              dup6\n                /* \"#utility.yul\":9275:9342   */\n              tag_75\n              jump\t// in\n            tag_187:\n                /* \"#utility.yul\":9369:9370   */\n              0x00\n                /* \"#utility.yul\":9393:9397   */\n              0x20\n                /* \"#utility.yul\":9380:9397   */\n              swap1\n              pop\n                /* \"#utility.yul\":9425:9427   */\n              0x1f\n                /* \"#utility.yul\":9417:9423   */\n              dup4\n                /* \"#utility.yul\":9414:9428   */\n              gt\n                /* \"#utility.yul\":9442:9443   */\n              0x01\n                /* \"#utility.yul\":9437:10055   */\n              dup2\n              eq\n              tag_189\n              jumpi\n                /* \"#utility.yul\":10099:10100   */\n              0x00\n                /* \"#utility.yul\":10116:10122   */\n              dup5\n                /* \"#utility.yul\":10113:10190   */\n              iszero\n              tag_190\n              jumpi\n                /* \"#utility.yul\":10165:10174   */\n              dup3\n                /* \"#utility.yul\":10160:10163   */\n              dup8\n                /* \"#utility.yul\":10156:10175   */\n              add\n                /* \"#utility.yul\":10150:10176   */\n              mload\n                /* \"#utility.yul\":10141:10176   */\n              swap1\n              pop\n                /* \"#utility.yul\":10113:10190   */\n            tag_190:\n                /* \"#utility.yul\":10216:10283   */\n              tag_191\n                /* \"#utility.yul\":10276:10282   */\n              dup6\n                /* \"#utility.yul\":10269:10274   */\n              dup3\n                /* \"#utility.yul\":10216:10283   */\n              tag_78\n              jump\t// in\n            tag_191:\n                /* \"#utility.yul\":10210:10214   */\n              dup7\n                /* \"#utility.yul\":10203:10284   */\n              sstore\n                /* \"#utility.yul\":10072:10294   */\n              pop\n                /* \"#utility.yul\":9407:10294   */\n              jump(tag_188)\n                /* \"#utility.yul\":9437:10055   */\n            tag_189:\n                /* \"#utility.yul\":9489:9493   */\n              0x1f\n                /* \"#utility.yul\":9485:9494   */\n              not\n                /* \"#utility.yul\":9477:9483   */\n              dup5\n                /* \"#utility.yul\":9473:9495   */\n              and\n                /* \"#utility.yul\":9523:9560   */\n              tag_192\n                /* \"#utility.yul\":9555:9559   */\n              dup7\n                /* \"#utility.yul\":9523:9560   */\n              tag_64\n              jump\t// in\n            tag_192:\n                /* \"#utility.yul\":9582:9583   */\n              0x00\n                /* \"#utility.yul\":9596:9804   */\n            tag_193:\n                /* \"#utility.yul\":9610:9617   */\n              dup3\n                /* \"#utility.yul\":9607:9608   */\n              dup2\n                /* \"#utility.yul\":9604:9618   */\n              lt\n                /* \"#utility.yul\":9596:9804   */\n              iszero\n              tag_195\n              jumpi\n                /* \"#utility.yul\":9689:9698   */\n              dup5\n                /* \"#utility.yul\":9684:9687   */\n              dup10\n                /* \"#utility.yul\":9680:9699   */\n              add\n                /* \"#utility.yul\":9674:9700   */\n              mload\n                /* \"#utility.yul\":9666:9672   */\n              dup3\n                /* \"#utility.yul\":9659:9701   */\n              sstore\n                /* \"#utility.yul\":9740:9741   */\n              0x01\n                /* \"#utility.yul\":9732:9738   */\n              dup3\n                /* \"#utility.yul\":9728:9742   */\n              add\n                /* \"#utility.yul\":9718:9742   */\n              swap2\n              pop\n                /* \"#utility.yul\":9787:9789   */\n              0x20\n                /* \"#utility.yul\":9776:9785   */\n              dup6\n                /* \"#utility.yul\":9772:9790   */\n              add\n                /* \"#utility.yul\":9759:9790   */\n              swap5\n              pop\n                /* \"#utility.yul\":9633:9637   */\n              0x20\n                /* \"#utility.yul\":9630:9631   */\n              dup2\n                /* \"#utility.yul\":9626:9638   */\n              add\n                /* \"#utility.yul\":9621:9638   */\n              swap1\n              pop\n                /* \"#utility.yul\":9596:9804   */\n              jump(tag_193)\n            tag_195:\n                /* \"#utility.yul\":9832:9838   */\n              dup7\n                /* \"#utility.yul\":9823:9830   */\n              dup4\n                /* \"#utility.yul\":9820:9839   */\n              lt\n                /* \"#utility.yul\":9817:9996   */\n              iszero\n              tag_196\n              jumpi\n                /* \"#utility.yul\":9890:9899   */\n              dup5\n                /* \"#utility.yul\":9885:9888   */\n              dup10\n                /* \"#utility.yul\":9881:9900   */\n              add\n                /* \"#utility.yul\":9875:9901   */\n              mload\n                /* \"#utility.yul\":9933:9981   */\n              tag_197\n                /* \"#utility.yul\":9975:9979   */\n              0x1f\n                /* \"#utility.yul\":9967:9973   */\n              dup10\n                /* \"#utility.yul\":9963:9980   */\n              and\n                /* \"#utility.yul\":9952:9961   */\n              dup3\n                /* \"#utility.yul\":9933:9981   */\n              tag_77\n              jump\t// in\n            tag_197:\n                /* \"#utility.yul\":9925:9931   */\n              dup4\n                /* \"#utility.yul\":9918:9982   */\n              sstore\n                /* \"#utility.yul\":9840:9996   */\n              pop\n                /* \"#utility.yul\":9817:9996   */\n            tag_196:\n                /* \"#utility.yul\":10042:10043   */\n              0x01\n                /* \"#utility.yul\":10038:10039   */\n              0x02\n                /* \"#utility.yul\":10030:10036   */\n              dup9\n                /* \"#utility.yul\":10026:10040   */\n              mul\n                /* \"#utility.yul\":10022:10044   */\n              add\n                /* \"#utility.yul\":10016:10020   */\n              dup9\n                /* \"#utility.yul\":10009:10045   */\n              sstore\n                /* \"#utility.yul\":9444:10055   */\n              pop\n              pop\n              pop\n                /* \"#utility.yul\":9407:10294   */\n            tag_188:\n              pop\n                /* \"#utility.yul\":8997:10300   */\n              pop\n              pop\n              pop\n                /* \"#utility.yul\":8905:10300   */\n              pop\n              pop\n              jump\t// out\n\n            auxdata: 0xa26469706673582212202f6d2b5cafafdfd56e0d3ee81baef16d1880d5be7a15e2834c4cc65d870e114d64736f6c634300081a0033\n        }\n    }\n\n    auxdata: 0xa2646970667358221220019f898ddc4400fd817daffa7b59643575319eaf5401375c3f832caff7dc520064736f6c634300081a0033\n}\n",
				"bytecode": {
					"linkReferences": {},
					"object": "6080604052348015600e575f80fd5b506110988061001c5f395ff3fe608060405234801561000f575f80fd5b506004361061004a575f3560e01c806358e3cda41461004e578063d3a80bdc1461007e578063dd4bc9d81461009a578063fb23d5f5146100cb575b5f80fd5b6100686004803603810190610063919061035f565b6100d5565b6040516100759190610404565b60405180910390f35b61009860048036038101906100939190610559565b61010f565b005b6100b460048036038101906100af91906105c5565b6101bb565b6040516100c2929190610672565b60405180910390f35b6100d3610283565b005b5f81815481106100e3575f80fd5b905f5260205f20015f915054906101000a900473ffffffffffffffffffffffffffffffffffffffff1681565b5f808481548110610123576101226106a0565b5b905f5260205f20015f9054906101000a900473ffffffffffffffffffffffffffffffffffffffff1690508073ffffffffffffffffffffffffffffffffffffffff1663640670dd84846040518363ffffffff1660e01b8152600401610188929190610672565b5f604051808303815f87803b15801561019f575f80fd5b505af11580156101b1573d5f803e3d5ffd5b5050505050505050565b5f60605f8085815481106101d2576101d16106a0565b5b905f5260205f20015f9054906101000a900473ffffffffffffffffffffffffffffffffffffffff1690508073ffffffffffffffffffffffffffffffffffffffff16634d0392a8856040518263ffffffff1660e01b815260040161023591906106cd565b5f60405180830381865afa15801561024f573d5f803e3d5ffd5b505050506040513d5f823e3d601f19601f820116820180604052508101906102779190610768565b92509250509250929050565b5f6040516102909061030e565b604051809103905ff0801580156102a9573d5f803e3d5ffd5b5090505f81908060018154018082558091505060019003905f5260205f20015f9091909190916101000a81548173ffffffffffffffffffffffffffffffffffffffff021916908373ffffffffffffffffffffffffffffffffffffffff16021790555050565b6108a0806107c383390190565b5f604051905090565b5f80fd5b5f80fd5b5f819050919050565b61033e8161032c565b8114610348575f80fd5b50565b5f8135905061035981610335565b92915050565b5f6020828403121561037457610373610324565b5b5f6103818482850161034b565b91505092915050565b5f73ffffffffffffffffffffffffffffffffffffffff82169050919050565b5f819050919050565b5f6103cc6103c76103c28461038a565b6103a9565b61038a565b9050919050565b5f6103dd826103b2565b9050919050565b5f6103ee826103d3565b9050919050565b6103fe816103e4565b82525050565b5f6020820190506104175f8301846103f5565b92915050565b5f80fd5b5f80fd5b5f601f19601f8301169050919050565b7f4e487b71000000000000000000000000000000000000000000000000000000005f52604160045260245ffd5b61046b82610425565b810181811067ffffffffffffffff8211171561048a57610489610435565b5b80604052505050565b5f61049c61031b565b90506104a88282610462565b919050565b5f67ffffffffffffffff8211156104c7576104c6610435565b5b6104d082610425565b9050602081019050919050565b828183375f83830152505050565b5f6104fd6104f8846104ad565b610493565b90508281526020810184848401111561051957610518610421565b5b6105248482856104dd565b509392505050565b5f82601f8301126105405761053f61041d565b5b81356105508482602086016104eb565b91505092915050565b5f805f606084860312156105705761056f610324565b5b5f61057d8682870161034b565b935050602061058e8682870161034b565b925050604084013567ffffffffffffffff8111156105af576105ae610328565b5b6105bb8682870161052c565b9150509250925092565b5f80604083850312156105db576105da610324565b5b5f6105e88582860161034b565b92505060206105f98582860161034b565b9150509250929050565b61060c8161032c565b82525050565b5f81519050919050565b5f82825260208201905092915050565b8281835e5f83830152505050565b5f61064482610612565b61064e818561061c565b935061065e81856020860161062c565b61066781610425565b840191505092915050565b5f6040820190506106855f830185610603565b8181036020830152610697818461063a565b90509392505050565b7f4e487b71000000000000000000000000000000000000000000000000000000005f52603260045260245ffd5b5f6020820190506106e05f830184610603565b92915050565b5f815190506106f481610335565b92915050565b5f61070c610707846104ad565b610493565b90508281526020810184848401111561072857610727610421565b5b61073384828561062c565b509392505050565b5f82601f83011261074f5761074e61041d565b5b815161075f8482602086016106fa565b91505092915050565b5f806040838503121561077e5761077d610324565b5b5f61078b858286016106e6565b925050602083015167ffffffffffffffff8111156107ac576107ab610328565b5b6107b88582860161073b565b915050925092905056fe6080604052348015600e575f80fd5b506108848061001c5f395ff3fe608060405234801561000f575f80fd5b506004361061003f575f3560e01c80634d0392a814610043578063640670dd14610074578063e28756b414610090575b5f80fd5b61005d600480360381019061005891906102fa565b6100c1565b60405161006b9291906103a4565b60405180910390f35b61008e600480360381019061008991906104fe565b61019d565b005b6100aa60048036038101906100a591906102fa565b610202565b6040516100b89291906103a4565b60405180910390f35b5f60605f8084815481106100d8576100d7610558565b5b905f5260205f2090600202016040518060400160405290815f8201548152602001600182018054610108906105b2565b80601f0160208091040260200160405190810160405280929190818152602001828054610134906105b2565b801561017f5780601f106101565761010080835404028352916020019161017f565b820191905f5260205f20905b81548152906001019060200180831161016257829003601f168201915b5050505050815250509050805f015181602001519250925050915091565b5f60405180604001604052808481526020018381525090505f81908060018154018082558091505060019003905f5260205f2090600202015f909190919091505f820151815f015560208201518160010190816101fa919061077f565b505050505050565b5f8181548110610210575f80fd5b905f5260205f2090600202015f91509050805f015490806001018054610235906105b2565b80601f0160208091040260200160405190810160405280929190818152602001828054610261906105b2565b80156102ac5780601f10610283576101008083540402835291602001916102ac565b820191905f5260205f20905b81548152906001019060200180831161028f57829003601f168201915b5050505050905082565b5f604051905090565b5f80fd5b5f80fd5b5f819050919050565b6102d9816102c7565b81146102e3575f80fd5b50565b5f813590506102f4816102d0565b92915050565b5f6020828403121561030f5761030e6102bf565b5b5f61031c848285016102e6565b91505092915050565b61032e816102c7565b82525050565b5f81519050919050565b5f82825260208201905092915050565b8281835e5f83830152505050565b5f601f19601f8301169050919050565b5f61037682610334565b610380818561033e565b935061039081856020860161034e565b6103998161035c565b840191505092915050565b5f6040820190506103b75f830185610325565b81810360208301526103c9818461036c565b90509392505050565b5f80fd5b5f80fd5b7f4e487b71000000000000000000000000000000000000000000000000000000005f52604160045260245ffd5b6104108261035c565b810181811067ffffffffffffffff8211171561042f5761042e6103da565b5b80604052505050565b5f6104416102b6565b905061044d8282610407565b919050565b5f67ffffffffffffffff82111561046c5761046b6103da565b5b6104758261035c565b9050602081019050919050565b828183375f83830152505050565b5f6104a261049d84610452565b610438565b9050828152602081018484840111156104be576104bd6103d6565b5b6104c9848285610482565b509392505050565b5f82601f8301126104e5576104e46103d2565b5b81356104f5848260208601610490565b91505092915050565b5f8060408385031215610514576105136102bf565b5b5f610521858286016102e6565b925050602083013567ffffffffffffffff811115610542576105416102c3565b5b61054e858286016104d1565b9150509250929050565b7f4e487b71000000000000000000000000000000000000000000000000000000005f52603260045260245ffd5b7f4e487b71000000000000000000000000000000000000000000000000000000005f52602260045260245ffd5b5f60028204905060018216806105c957607f821691505b6020821081036105dc576105db610585565b5b50919050565b5f819050815f5260205f209050919050565b5f6020601f8301049050919050565b5f82821b905092915050565b5f6008830261063e7fffffffffffffffffffffffffffffffffffffffffffffffffffffffffffffffff82610603565b6106488683610603565b95508019841693508086168417925050509392505050565b5f819050919050565b5f61068361067e610679846102c7565b610660565b6102c7565b9050919050565b5f819050919050565b61069c83610669565b6106b06106a88261068a565b84845461060f565b825550505050565b5f90565b6106c46106b8565b6106cf818484610693565b505050565b5b818110156106f2576106e75f826106bc565b6001810190506106d5565b5050565b601f82111561073757610708816105e2565b610711846105f4565b81016020851015610720578190505b61073461072c856105f4565b8301826106d4565b50505b505050565b5f82821c905092915050565b5f6107575f198460080261073c565b1980831691505092915050565b5f61076f8383610748565b9150826002028217905092915050565b61078882610334565b67ffffffffffffffff8111156107a1576107a06103da565b5b6107ab82546105b2565b6107b68282856106f6565b5f60209050601f8311600181146107e7575f84156107d5578287015190505b6107df8582610764565b865550610846565b601f1984166107f5866105e2565b5f5b8281101561081c578489015182556001820191506020850194506020810190506107f7565b868310156108395784890151610835601f891682610748565b8355505b6001600288020188555050505b50505050505056fea26469706673582212202f6d2b5cafafdfd56e0d3ee81baef16d1880d5be7a15e2834c4cc65d870e114d64736f6c634300081a0033a2646970667358221220019f898ddc4400fd817daffa7b59643575319eaf5401375c3f832caff7dc520064736f6c634300081a0033",
					"opcodes": "PUSH1 0x80 PUSH1 0x40 MSTORE CALLVALUE DUP1 ISZERO PUSH1 0xE JUMPI PUSH0 DUP1 REVERT JUMPDEST POP PUSH2 0x1098 DUP1 PUSH2 0x1C PUSH0 CODECOPY PUSH0 RETURN INVALID PUSH1 0x80 PUSH1 0x40 MSTORE CALLVALUE DUP1 ISZERO PUSH2 0xF JUMPI PUSH0 DUP1 REVERT JUMPDEST POP PUSH1 0x4 CALLDATASIZE LT PUSH2 0x4A JUMPI PUSH0 CALLDATALOAD PUSH1 0xE0 SHR DUP1 PUSH4 0x58E3CDA4 EQ PUSH2 0x4E JUMPI DUP1 PUSH4 0xD3A80BDC EQ PUSH2 0x7E JUMPI DUP1 PUSH4 0xDD4BC9D8 EQ PUSH2 0x9A JUMPI DUP1 PUSH4 0xFB23D5F5 EQ PUSH2 0xCB JUMPI JUMPDEST PUSH0 DUP1 REVERT JUMPDEST PUSH2 0x68 PUSH1 0x4 DUP1 CALLDATASIZE SUB DUP2 ADD SWAP1 PUSH2 0x63 SWAP2 SWAP1 PUSH2 0x35F JUMP JUMPDEST PUSH2 0xD5 JUMP JUMPDEST PUSH1 0x40 MLOAD PUSH2 0x75 SWAP2 SWAP1 PUSH2 0x404 JUMP JUMPDEST PUSH1 0x40 MLOAD DUP1 SWAP2 SUB SWAP1 RETURN JUMPDEST PUSH2 0x98 PUSH1 0x4 DUP1 CALLDATASIZE SUB DUP2 ADD SWAP1 PUSH2 0x93 SWAP2 SWAP1 PUSH2 0x559 JUMP JUMPDEST PUSH2 0x10F JUMP JUMPDEST STOP JUMPDEST PUSH2 0xB4 PUSH1 0x4 DUP1 CALLDATASIZE SUB DUP2 ADD SWAP1 PUSH2 0xAF SWAP2 SWAP1 PUSH2 0x5C5 JUMP JUMPDEST PUSH2 0x1BB JUMP JUMPDEST PUSH1 0x40 MLOAD PUSH2 0xC2 SWAP3 SWAP2 SWAP1 PUSH2 0x672 JUMP JUMPDEST PUSH1 0x40 MLOAD DUP1 SWAP2 SUB SWAP1 RETURN JUMPDEST PUSH2 0xD3 PUSH2 0x283 JUMP JUMPDEST STOP JUMPDEST PUSH0 DUP2 DUP2 SLOAD DUP2 LT PUSH2 0xE3 JUMPI PUSH0 DUP1 REVERT JUMPDEST SWAP1 PUSH0 MSTORE PUSH1 0x20 PUSH0 KECCAK256 ADD PUSH0 SWAP2 POP SLOAD SWAP1 PUSH2 0x100 EXP SWAP1 DIV PUSH20 0xFFFFFFFFFFFFFFFFFFFFFFFFFFFFFFFFFFFFFFFF AND DUP2 JUMP JUMPDEST PUSH0 DUP1 DUP5 DUP2 SLOAD DUP2 LT PUSH2 0x123 JUMPI PUSH2 0x122 PUSH2 0x6A0 JUMP JUMPDEST JUMPDEST SWAP1 PUSH0 MSTORE PUSH1 0x20 PUSH0 KECCAK256 ADD PUSH0 SWAP1 SLOAD SWAP1 PUSH2 0x100 EXP SWAP1 DIV PUSH20 0xFFFFFFFFFFFFFFFFFFFFFFFFFFFFFFFFFFFFFFFF AND SWAP1 POP DUP1 PUSH20 0xFFFFFFFFFFFFFFFFFFFFFFFFFFFFFFFFFFFFFFFF AND PUSH4 0x640670DD DUP5 DUP5 PUSH1 0x40 MLOAD DUP4 PUSH4 0xFFFFFFFF AND PUSH1 0xE0 SHL DUP2 MSTORE PUSH1 0x4 ADD PUSH2 0x188 SWAP3 SWAP2 SWAP1 PUSH2 0x672 JUMP JUMPDEST PUSH0 PUSH1 0x40 MLOAD DUP1 DUP4 SUB DUP2 PUSH0 DUP8 DUP1 EXTCODESIZE ISZERO DUP1 ISZERO PUSH2 0x19F JUMPI PUSH0 DUP1 REVERT JUMPDEST POP GAS CALL ISZERO DUP1 ISZERO PUSH2 0x1B1 JUMPI RETURNDATASIZE PUSH0 DUP1 RETURNDATACOPY RETURNDATASIZE PUSH0 REVERT JUMPDEST POP POP POP POP POP POP POP POP JUMP JUMPDEST PUSH0 PUSH1 0x60 PUSH0 DUP1 DUP6 DUP2 SLOAD DUP2 LT PUSH2 0x1D2 JUMPI PUSH2 0x1D1 PUSH2 0x6A0 JUMP JUMPDEST JUMPDEST SWAP1 PUSH0 MSTORE PUSH1 0x20 PUSH0 KECCAK256 ADD PUSH0 SWAP1 SLOAD SWAP1 PUSH2 0x100 EXP SWAP1 DIV PUSH20 0xFFFFFFFFFFFFFFFFFFFFFFFFFFFFFFFFFFFFFFFF AND SWAP1 POP DUP1 PUSH20 0xFFFFFFFFFFFFFFFFFFFFFFFFFFFFFFFFFFFFFFFF AND PUSH4 0x4D0392A8 DUP6 PUSH1 0x40 MLOAD DUP3 PUSH4 0xFFFFFFFF AND PUSH1 0xE0 SHL DUP2 MSTORE PUSH1 0x4 ADD PUSH2 0x235 SWAP2 SWAP1 PUSH2 0x6CD JUMP JUMPDEST PUSH0 PUSH1 0x40 MLOAD DUP1 DUP4 SUB DUP2 DUP7 GAS STATICCALL ISZERO DUP1 ISZERO PUSH2 0x24F JUMPI RETURNDATASIZE PUSH0 DUP1 RETURNDATACOPY RETURNDATASIZE PUSH0 REVERT JUMPDEST POP POP POP POP PUSH1 0x40 MLOAD RETURNDATASIZE PUSH0 DUP3 RETURNDATACOPY RETURNDATASIZE PUSH1 0x1F NOT PUSH1 0x1F DUP3 ADD AND DUP3 ADD DUP1 PUSH1 0x40 MSTORE POP DUP2 ADD SWAP1 PUSH2 0x277 SWAP2 SWAP1 PUSH2 0x768 JUMP JUMPDEST SWAP3 POP SWAP3 POP POP SWAP3 POP SWAP3 SWAP1 POP JUMP JUMPDEST PUSH0 PUSH1 0x40 MLOAD PUSH2 0x290 SWAP1 PUSH2 0x30E JUMP JUMPDEST PUSH1 0x40 MLOAD DUP1 SWAP2 SUB SWAP1 PUSH0 CREATE DUP1 ISZERO DUP1 ISZERO PUSH2 0x2A9 JUMPI RETURNDATASIZE PUSH0 DUP1 RETURNDATACOPY RETURNDATASIZE PUSH0 REVERT JUMPDEST POP SWAP1 POP PUSH0 DUP2 SWAP1 DUP1 PUSH1 0x1 DUP2 SLOAD ADD DUP1 DUP3 SSTORE DUP1 SWAP2 POP POP PUSH1 0x1 SWAP1 SUB SWAP1 PUSH0 MSTORE PUSH1 0x20 PUSH0 KECCAK256 ADD PUSH0 SWAP1 SWAP2 SWAP1 SWAP2 SWAP1 SWAP2 PUSH2 0x100 EXP DUP2 SLOAD DUP2 PUSH20 0xFFFFFFFFFFFFFFFFFFFFFFFFFFFFFFFFFFFFFFFF MUL NOT AND SWAP1 DUP4 PUSH20 0xFFFFFFFFFFFFFFFFFFFFFFFFFFFFFFFFFFFFFFFF AND MUL OR SWAP1 SSTORE POP POP JUMP JUMPDEST PUSH2 0x8A0 DUP1 PUSH2 0x7C3 DUP4 CODECOPY ADD SWAP1 JUMP JUMPDEST PUSH0 PUSH1 0x40 MLOAD SWAP1 POP SWAP1 JUMP JUMPDEST PUSH0 DUP1 REVERT JUMPDEST PUSH0 DUP1 REVERT JUMPDEST PUSH0 DUP2 SWAP1 POP SWAP2 SWAP1 POP JUMP JUMPDEST PUSH2 0x33E DUP2 PUSH2 0x32C JUMP JUMPDEST DUP2 EQ PUSH2 0x348 JUMPI PUSH0 DUP1 REVERT JUMPDEST POP JUMP JUMPDEST PUSH0 DUP2 CALLDATALOAD SWAP1 POP PUSH2 0x359 DUP2 PUSH2 0x335 JUMP JUMPDEST SWAP3 SWAP2 POP POP JUMP JUMPDEST PUSH0 PUSH1 0x20 DUP3 DUP5 SUB SLT ISZERO PUSH2 0x374 JUMPI PUSH2 0x373 PUSH2 0x324 JUMP JUMPDEST JUMPDEST PUSH0 PUSH2 0x381 DUP5 DUP3 DUP6 ADD PUSH2 0x34B JUMP JUMPDEST SWAP2 POP POP SWAP3 SWAP2 POP POP JUMP JUMPDEST PUSH0 PUSH20 0xFFFFFFFFFFFFFFFFFFFFFFFFFFFFFFFFFFFFFFFF DUP3 AND SWAP1 POP SWAP2 SWAP1 POP JUMP JUMPDEST PUSH0 DUP2 SWAP1 POP SWAP2 SWAP1 POP JUMP JUMPDEST PUSH0 PUSH2 0x3CC PUSH2 0x3C7 PUSH2 0x3C2 DUP5 PUSH2 0x38A JUMP JUMPDEST PUSH2 0x3A9 JUMP JUMPDEST PUSH2 0x38A JUMP JUMPDEST SWAP1 POP SWAP2 SWAP1 POP JUMP JUMPDEST PUSH0 PUSH2 0x3DD DUP3 PUSH2 0x3B2 JUMP JUMPDEST SWAP1 POP SWAP2 SWAP1 POP JUMP JUMPDEST PUSH0 PUSH2 0x3EE DUP3 PUSH2 0x3D3 JUMP JUMPDEST SWAP1 POP SWAP2 SWAP1 POP JUMP JUMPDEST PUSH2 0x3FE DUP2 PUSH2 0x3E4 JUMP JUMPDEST DUP3 MSTORE POP POP JUMP JUMPDEST PUSH0 PUSH1 0x20 DUP3 ADD SWAP1 POP PUSH2 0x417 PUSH0 DUP4 ADD DUP5 PUSH2 0x3F5 JUMP JUMPDEST SWAP3 SWAP2 POP POP JUMP JUMPDEST PUSH0 DUP1 REVERT JUMPDEST PUSH0 DUP1 REVERT JUMPDEST PUSH0 PUSH1 0x1F NOT PUSH1 0x1F DUP4 ADD AND SWAP1 POP SWAP2 SWAP1 POP JUMP JUMPDEST PUSH32 0x4E487B7100000000000000000000000000000000000000000000000000000000 PUSH0 MSTORE PUSH1 0x41 PUSH1 0x4 MSTORE PUSH1 0x24 PUSH0 REVERT JUMPDEST PUSH2 0x46B DUP3 PUSH2 0x425 JUMP JUMPDEST DUP2 ADD DUP2 DUP2 LT PUSH8 0xFFFFFFFFFFFFFFFF DUP3 GT OR ISZERO PUSH2 0x48A JUMPI PUSH2 0x489 PUSH2 0x435 JUMP JUMPDEST JUMPDEST DUP1 PUSH1 0x40 MSTORE POP POP POP JUMP JUMPDEST PUSH0 PUSH2 0x49C PUSH2 0x31B JUMP JUMPDEST SWAP1 POP PUSH2 0x4A8 DUP3 DUP3 PUSH2 0x462 JUMP JUMPDEST SWAP2 SWAP1 POP JUMP JUMPDEST PUSH0 PUSH8 0xFFFFFFFFFFFFFFFF DUP3 GT ISZERO PUSH2 0x4C7 JUMPI PUSH2 0x4C6 PUSH2 0x435 JUMP JUMPDEST JUMPDEST PUSH2 0x4D0 DUP3 PUSH2 0x425 JUMP JUMPDEST SWAP1 POP PUSH1 0x20 DUP2 ADD SWAP1 POP SWAP2 SWAP1 POP JUMP JUMPDEST DUP3 DUP2 DUP4 CALLDATACOPY PUSH0 DUP4 DUP4 ADD MSTORE POP POP POP JUMP JUMPDEST PUSH0 PUSH2 0x4FD PUSH2 0x4F8 DUP5 PUSH2 0x4AD JUMP JUMPDEST PUSH2 0x493 JUMP JUMPDEST SWAP1 POP DUP3 DUP2 MSTORE PUSH1 0x20 DUP2 ADD DUP5 DUP5 DUP5 ADD GT ISZERO PUSH2 0x519 JUMPI PUSH2 0x518 PUSH2 0x421 JUMP JUMPDEST JUMPDEST PUSH2 0x524 DUP5 DUP3 DUP6 PUSH2 0x4DD JUMP JUMPDEST POP SWAP4 SWAP3 POP POP POP JUMP JUMPDEST PUSH0 DUP3 PUSH1 0x1F DUP4 ADD SLT PUSH2 0x540 JUMPI PUSH2 0x53F PUSH2 0x41D JUMP JUMPDEST JUMPDEST DUP2 CALLDATALOAD PUSH2 0x550 DUP5 DUP3 PUSH1 0x20 DUP7 ADD PUSH2 0x4EB JUMP JUMPDEST SWAP2 POP POP SWAP3 SWAP2 POP POP JUMP JUMPDEST PUSH0 DUP1 PUSH0 PUSH1 0x60 DUP5 DUP7 SUB SLT ISZERO PUSH2 0x570 JUMPI PUSH2 0x56F PUSH2 0x324 JUMP JUMPDEST JUMPDEST PUSH0 PUSH2 0x57D DUP7 DUP3 DUP8 ADD PUSH2 0x34B JUMP JUMPDEST SWAP4 POP POP PUSH1 0x20 PUSH2 0x58E DUP7 DUP3 DUP8 ADD PUSH2 0x34B JUMP JUMPDEST SWAP3 POP POP PUSH1 0x40 DUP5 ADD CALLDATALOAD PUSH8 0xFFFFFFFFFFFFFFFF DUP2 GT ISZERO PUSH2 0x5AF JUMPI PUSH2 0x5AE PUSH2 0x328 JUMP JUMPDEST JUMPDEST PUSH2 0x5BB DUP7 DUP3 DUP8 ADD PUSH2 0x52C JUMP JUMPDEST SWAP2 POP POP SWAP3 POP SWAP3 POP SWAP3 JUMP JUMPDEST PUSH0 DUP1 PUSH1 0x40 DUP4 DUP6 SUB SLT ISZERO PUSH2 0x5DB JUMPI PUSH2 0x5DA PUSH2 0x324 JUMP JUMPDEST JUMPDEST PUSH0 PUSH2 0x5E8 DUP6 DUP3 DUP7 ADD PUSH2 0x34B JUMP JUMPDEST SWAP3 POP POP PUSH1 0x20 PUSH2 0x5F9 DUP6 DUP3 DUP7 ADD PUSH2 0x34B JUMP JUMPDEST SWAP2 POP POP SWAP3 POP SWAP3 SWAP1 POP JUMP JUMPDEST PUSH2 0x60C DUP2 PUSH2 0x32C JUMP JUMPDEST DUP3 MSTORE POP POP JUMP JUMPDEST PUSH0 DUP2 MLOAD SWAP1 POP SWAP2 SWAP1 POP JUMP JUMPDEST PUSH0 DUP3 DUP3 MSTORE PUSH1 0x20 DUP3 ADD SWAP1 POP SWAP3 SWAP2 POP POP JUMP JUMPDEST DUP3 DUP2 DUP4 MCOPY PUSH0 DUP4 DUP4 ADD MSTORE POP POP POP JUMP JUMPDEST PUSH0 PUSH2 0x644 DUP3 PUSH2 0x612 JUMP JUMPDEST PUSH2 0x64E DUP2 DUP6 PUSH2 0x61C JUMP JUMPDEST SWAP4 POP PUSH2 0x65E DUP2 DUP6 PUSH1 0x20 DUP7 ADD PUSH2 0x62C JUMP JUMPDEST PUSH2 0x667 DUP2 PUSH2 0x425 JUMP JUMPDEST DUP5 ADD SWAP2 POP POP SWAP3 SWAP2 POP POP JUMP JUMPDEST PUSH0 PUSH1 0x40 DUP3 ADD SWAP1 POP PUSH2 0x685 PUSH0 DUP4 ADD DUP6 PUSH2 0x603 JUMP JUMPDEST DUP2 DUP2 SUB PUSH1 0x20 DUP4 ADD MSTORE PUSH2 0x697 DUP2 DUP5 PUSH2 0x63A JUMP JUMPDEST SWAP1 POP SWAP4 SWAP3 POP POP POP JUMP JUMPDEST PUSH32 0x4E487B7100000000000000000000000000000000000000000000000000000000 PUSH0 MSTORE PUSH1 0x32 PUSH1 0x4 MSTORE PUSH1 0x24 PUSH0 REVERT JUMPDEST PUSH0 PUSH1 0x20 DUP3 ADD SWAP1 POP PUSH2 0x6E0 PUSH0 DUP4 ADD DUP5 PUSH2 0x603 JUMP JUMPDEST SWAP3 SWAP2 POP POP JUMP JUMPDEST PUSH0 DUP2 MLOAD SWAP1 POP PUSH2 0x6F4 DUP2 PUSH2 0x335 JUMP JUMPDEST SWAP3 SWAP2 POP POP JUMP JUMPDEST PUSH0 PUSH2 0x70C PUSH2 0x707 DUP5 PUSH2 0x4AD JUMP JUMPDEST PUSH2 0x493 JUMP JUMPDEST SWAP1 POP DUP3 DUP2 MSTORE PUSH1 0x20 DUP2 ADD DUP5 DUP5 DUP5 ADD GT ISZERO PUSH2 0x728 JUMPI PUSH2 0x727 PUSH2 0x421 JUMP JUMPDEST JUMPDEST PUSH2 0x733 DUP5 DUP3 DUP6 PUSH2 0x62C JUMP JUMPDEST POP SWAP4 SWAP3 POP POP POP JUMP JUMPDEST PUSH0 DUP3 PUSH1 0x1F DUP4 ADD SLT PUSH2 0x74F JUMPI PUSH2 0x74E PUSH2 0x41D JUMP JUMPDEST JUMPDEST DUP2 MLOAD PUSH2 0x75F DUP5 DUP3 PUSH1 0x20 DUP7 ADD PUSH2 0x6FA JUMP JUMPDEST SWAP2 POP POP SWAP3 SWAP2 POP POP JUMP JUMPDEST PUSH0 DUP1 PUSH1 0x40 DUP4 DUP6 SUB SLT ISZERO PUSH2 0x77E JUMPI PUSH2 0x77D PUSH2 0x324 JUMP JUMPDEST JUMPDEST PUSH0 PUSH2 0x78B DUP6 DUP3 DUP7 ADD PUSH2 0x6E6 JUMP JUMPDEST SWAP3 POP POP PUSH1 0x20 DUP4 ADD MLOAD PUSH8 0xFFFFFFFFFFFFFFFF DUP2 GT ISZERO PUSH2 0x7AC JUMPI PUSH2 0x7AB PUSH2 0x328 JUMP JUMPDEST JUMPDEST PUSH2 0x7B8 DUP6 DUP3 DUP7 ADD PUSH2 0x73B JUMP JUMPDEST SWAP2 POP POP SWAP3 POP SWAP3 SWAP1 POP JUMP INVALID PUSH1 0x80 PUSH1 0x40 MSTORE CALLVALUE DUP1 ISZERO PUSH1 0xE JUMPI PUSH0 DUP1 REVERT JUMPDEST POP PUSH2 0x884 DUP1 PUSH2 0x1C PUSH0 CODECOPY PUSH0 RETURN INVALID PUSH1 0x80 PUSH1 0x40 MSTORE CALLVALUE DUP1 ISZERO PUSH2 0xF JUMPI PUSH0 DUP1 REVERT JUMPDEST POP PUSH1 0x4 CALLDATASIZE LT PUSH2 0x3F JUMPI PUSH0 CALLDATALOAD PUSH1 0xE0 SHR DUP1 PUSH4 0x4D0392A8 EQ PUSH2 0x43 JUMPI DUP1 PUSH4 0x640670DD EQ PUSH2 0x74 JUMPI DUP1 PUSH4 0xE28756B4 EQ PUSH2 0x90 JUMPI JUMPDEST PUSH0 DUP1 REVERT JUMPDEST PUSH2 0x5D PUSH1 0x4 DUP1 CALLDATASIZE SUB DUP2 ADD SWAP1 PUSH2 0x58 SWAP2 SWAP1 PUSH2 0x2FA JUMP JUMPDEST PUSH2 0xC1 JUMP JUMPDEST PUSH1 0x40 MLOAD PUSH2 0x6B SWAP3 SWAP2 SWAP1 PUSH2 0x3A4 JUMP JUMPDEST PUSH1 0x40 MLOAD DUP1 SWAP2 SUB SWAP1 RETURN JUMPDEST PUSH2 0x8E PUSH1 0x4 DUP1 CALLDATASIZE SUB DUP2 ADD SWAP1 PUSH2 0x89 SWAP2 SWAP1 PUSH2 0x4FE JUMP JUMPDEST PUSH2 0x19D JUMP JUMPDEST STOP JUMPDEST PUSH2 0xAA PUSH1 0x4 DUP1 CALLDATASIZE SUB DUP2 ADD SWAP1 PUSH2 0xA5 SWAP2 SWAP1 PUSH2 0x2FA JUMP JUMPDEST PUSH2 0x202 JUMP JUMPDEST PUSH1 0x40 MLOAD PUSH2 0xB8 SWAP3 SWAP2 SWAP1 PUSH2 0x3A4 JUMP JUMPDEST PUSH1 0x40 MLOAD DUP1 SWAP2 SUB SWAP1 RETURN JUMPDEST PUSH0 PUSH1 0x60 PUSH0 DUP1 DUP5 DUP2 SLOAD DUP2 LT PUSH2 0xD8 JUMPI PUSH2 0xD7 PUSH2 0x558 JUMP JUMPDEST JUMPDEST SWAP1 PUSH0 MSTORE PUSH1 0x20 PUSH0 KECCAK256 SWAP1 PUSH1 0x2 MUL ADD PUSH1 0x40 MLOAD DUP1 PUSH1 0x40 ADD PUSH1 0x40 MSTORE SWAP1 DUP2 PUSH0 DUP3 ADD SLOAD DUP2 MSTORE PUSH1 0x20 ADD PUSH1 0x1 DUP3 ADD DUP1 SLOAD PUSH2 0x108 SWAP1 PUSH2 0x5B2 JUMP JUMPDEST DUP1 PUSH1 0x1F ADD PUSH1 0x20 DUP1 SWAP2 DIV MUL PUSH1 0x20 ADD PUSH1 0x40 MLOAD SWAP1 DUP2 ADD PUSH1 0x40 MSTORE DUP1 SWAP3 SWAP2 SWAP1 DUP2 DUP2 MSTORE PUSH1 0x20 ADD DUP3 DUP1 SLOAD PUSH2 0x134 SWAP1 PUSH2 0x5B2 JUMP JUMPDEST DUP1 ISZERO PUSH2 0x17F JUMPI DUP1 PUSH1 0x1F LT PUSH2 0x156 JUMPI PUSH2 0x100 DUP1 DUP4 SLOAD DIV MUL DUP4 MSTORE SWAP2 PUSH1 0x20 ADD SWAP2 PUSH2 0x17F JUMP JUMPDEST DUP3 ADD SWAP2 SWAP1 PUSH0 MSTORE PUSH1 0x20 PUSH0 KECCAK256 SWAP1 JUMPDEST DUP2 SLOAD DUP2 MSTORE SWAP1 PUSH1 0x1 ADD SWAP1 PUSH1 0x20 ADD DUP1 DUP4 GT PUSH2 0x162 JUMPI DUP3 SWAP1 SUB PUSH1 0x1F AND DUP3 ADD SWAP2 JUMPDEST POP POP POP POP POP DUP2 MSTORE POP POP SWAP1 POP DUP1 PUSH0 ADD MLOAD DUP2 PUSH1 0x20 ADD MLOAD SWAP3 POP SWAP3 POP POP SWAP2 POP SWAP2 JUMP JUMPDEST PUSH0 PUSH1 0x40 MLOAD DUP1 PUSH1 0x40 ADD PUSH1 0x40 MSTORE DUP1 DUP5 DUP2 MSTORE PUSH1 0x20 ADD DUP4 DUP2 MSTORE POP SWAP1 POP PUSH0 DUP2 SWAP1 DUP1 PUSH1 0x1 DUP2 SLOAD ADD DUP1 DUP3 SSTORE DUP1 SWAP2 POP POP PUSH1 0x1 SWAP1 SUB SWAP1 PUSH0 MSTORE PUSH1 0x20 PUSH0 KECCAK256 SWAP1 PUSH1 0x2 MUL ADD PUSH0 SWAP1 SWAP2 SWAP1 SWAP2 SWAP1 SWAP2 POP PUSH0 DUP3 ADD MLOAD DUP2 PUSH0 ADD SSTORE PUSH1 0x20 DUP3 ADD MLOAD DUP2 PUSH1 0x1 ADD SWAP1 DUP2 PUSH2 0x1FA SWAP2 SWAP1 PUSH2 0x77F JUMP JUMPDEST POP POP POP POP POP POP JUMP JUMPDEST PUSH0 DUP2 DUP2 SLOAD DUP2 LT PUSH2 0x210 JUMPI PUSH0 DUP1 REVERT JUMPDEST SWAP1 PUSH0 MSTORE PUSH1 0x20 PUSH0 KECCAK256 SWAP1 PUSH1 0x2 MUL ADD PUSH0 SWAP2 POP SWAP1 POP DUP1 PUSH0 ADD SLOAD SWAP1 DUP1 PUSH1 0x1 ADD DUP1 SLOAD PUSH2 0x235 SWAP1 PUSH2 0x5B2 JUMP JUMPDEST DUP1 PUSH1 0x1F ADD PUSH1 0x20 DUP1 SWAP2 DIV MUL PUSH1 0x20 ADD PUSH1 0x40 MLOAD SWAP1 DUP2 ADD PUSH1 0x40 MSTORE DUP1 SWAP3 SWAP2 SWAP1 DUP2 DUP2 MSTORE PUSH1 0x20 ADD DUP3 DUP1 SLOAD PUSH2 0x261 SWAP1 PUSH2 0x5B2 JUMP JUMPDEST DUP1 ISZERO PUSH2 0x2AC JUMPI DUP1 PUSH1 0x1F LT PUSH2 0x283 JUMPI PUSH2 0x100 DUP1 DUP4 SLOAD DIV MUL DUP4 MSTORE SWAP2 PUSH1 0x20 ADD SWAP2 PUSH2 0x2AC JUMP JUMPDEST DUP3 ADD SWAP2 SWAP1 PUSH0 MSTORE PUSH1 0x20 PUSH0 KECCAK256 SWAP1 JUMPDEST DUP2 SLOAD DUP2 MSTORE SWAP1 PUSH1 0x1 ADD SWAP1 PUSH1 0x20 ADD DUP1 DUP4 GT PUSH2 0x28F JUMPI DUP3 SWAP1 SUB PUSH1 0x1F AND DUP3 ADD SWAP2 JUMPDEST POP POP POP POP POP SWAP1 POP DUP3 JUMP JUMPDEST PUSH0 PUSH1 0x40 MLOAD SWAP1 POP SWAP1 JUMP JUMPDEST PUSH0 DUP1 REVERT JUMPDEST PUSH0 DUP1 REVERT JUMPDEST PUSH0 DUP2 SWAP1 POP SWAP2 SWAP1 POP JUMP JUMPDEST PUSH2 0x2D9 DUP2 PUSH2 0x2C7 JUMP JUMPDEST DUP2 EQ PUSH2 0x2E3 JUMPI PUSH0 DUP1 REVERT JUMPDEST POP JUMP JUMPDEST PUSH0 DUP2 CALLDATALOAD SWAP1 POP PUSH2 0x2F4 DUP2 PUSH2 0x2D0 JUMP JUMPDEST SWAP3 SWAP2 POP POP JUMP JUMPDEST PUSH0 PUSH1 0x20 DUP3 DUP5 SUB SLT ISZERO PUSH2 0x30F JUMPI PUSH2 0x30E PUSH2 0x2BF JUMP JUMPDEST JUMPDEST PUSH0 PUSH2 0x31C DUP5 DUP3 DUP6 ADD PUSH2 0x2E6 JUMP JUMPDEST SWAP2 POP POP SWAP3 SWAP2 POP POP JUMP JUMPDEST PUSH2 0x32E DUP2 PUSH2 0x2C7 JUMP JUMPDEST DUP3 MSTORE POP POP JUMP JUMPDEST PUSH0 DUP2 MLOAD SWAP1 POP SWAP2 SWAP1 POP JUMP JUMPDEST PUSH0 DUP3 DUP3 MSTORE PUSH1 0x20 DUP3 ADD SWAP1 POP SWAP3 SWAP2 POP POP JUMP JUMPDEST DUP3 DUP2 DUP4 MCOPY PUSH0 DUP4 DUP4 ADD MSTORE POP POP POP JUMP JUMPDEST PUSH0 PUSH1 0x1F NOT PUSH1 0x1F DUP4 ADD AND SWAP1 POP SWAP2 SWAP1 POP JUMP JUMPDEST PUSH0 PUSH2 0x376 DUP3 PUSH2 0x334 JUMP JUMPDEST PUSH2 0x380 DUP2 DUP6 PUSH2 0x33E JUMP JUMPDEST SWAP4 POP PUSH2 0x390 DUP2 DUP6 PUSH1 0x20 DUP7 ADD PUSH2 0x34E JUMP JUMPDEST PUSH2 0x399 DUP2 PUSH2 0x35C JUMP JUMPDEST DUP5 ADD SWAP2 POP POP SWAP3 SWAP2 POP POP JUMP JUMPDEST PUSH0 PUSH1 0x40 DUP3 ADD SWAP1 POP PUSH2 0x3B7 PUSH0 DUP4 ADD DUP6 PUSH2 0x325 JUMP JUMPDEST DUP2 DUP2 SUB PUSH1 0x20 DUP4 ADD MSTORE PUSH2 0x3C9 DUP2 DUP5 PUSH2 0x36C JUMP JUMPDEST SWAP1 POP SWAP4 SWAP3 POP POP POP JUMP JUMPDEST PUSH0 DUP1 REVERT JUMPDEST PUSH0 DUP1 REVERT JUMPDEST PUSH32 0x4E487B7100000000000000000000000000000000000000000000000000000000 PUSH0 MSTORE PUSH1 0x41 PUSH1 0x4 MSTORE PUSH1 0x24 PUSH0 REVERT JUMPDEST PUSH2 0x410 DUP3 PUSH2 0x35C JUMP JUMPDEST DUP2 ADD DUP2 DUP2 LT PUSH8 0xFFFFFFFFFFFFFFFF DUP3 GT OR ISZERO PUSH2 0x42F JUMPI PUSH2 0x42E PUSH2 0x3DA JUMP JUMPDEST JUMPDEST DUP1 PUSH1 0x40 MSTORE POP POP POP JUMP JUMPDEST PUSH0 PUSH2 0x441 PUSH2 0x2B6 JUMP JUMPDEST SWAP1 POP PUSH2 0x44D DUP3 DUP3 PUSH2 0x407 JUMP JUMPDEST SWAP2 SWAP1 POP JUMP JUMPDEST PUSH0 PUSH8 0xFFFFFFFFFFFFFFFF DUP3 GT ISZERO PUSH2 0x46C JUMPI PUSH2 0x46B PUSH2 0x3DA JUMP JUMPDEST JUMPDEST PUSH2 0x475 DUP3 PUSH2 0x35C JUMP JUMPDEST SWAP1 POP PUSH1 0x20 DUP2 ADD SWAP1 POP SWAP2 SWAP1 POP JUMP JUMPDEST DUP3 DUP2 DUP4 CALLDATACOPY PUSH0 DUP4 DUP4 ADD MSTORE POP POP POP JUMP JUMPDEST PUSH0 PUSH2 0x4A2 PUSH2 0x49D DUP5 PUSH2 0x452 JUMP JUMPDEST PUSH2 0x438 JUMP JUMPDEST SWAP1 POP DUP3 DUP2 MSTORE PUSH1 0x20 DUP2 ADD DUP5 DUP5 DUP5 ADD GT ISZERO PUSH2 0x4BE JUMPI PUSH2 0x4BD PUSH2 0x3D6 JUMP JUMPDEST JUMPDEST PUSH2 0x4C9 DUP5 DUP3 DUP6 PUSH2 0x482 JUMP JUMPDEST POP SWAP4 SWAP3 POP POP POP JUMP JUMPDEST PUSH0 DUP3 PUSH1 0x1F DUP4 ADD SLT PUSH2 0x4E5 JUMPI PUSH2 0x4E4 PUSH2 0x3D2 JUMP JUMPDEST JUMPDEST DUP2 CALLDATALOAD PUSH2 0x4F5 DUP5 DUP3 PUSH1 0x20 DUP7 ADD PUSH2 0x490 JUMP JUMPDEST SWAP2 POP POP SWAP3 SWAP2 POP POP JUMP JUMPDEST PUSH0 DUP1 PUSH1 0x40 DUP4 DUP6 SUB SLT ISZERO PUSH2 0x514 JUMPI PUSH2 0x513 PUSH2 0x2BF JUMP JUMPDEST JUMPDEST PUSH0 PUSH2 0x521 DUP6 DUP3 DUP7 ADD PUSH2 0x2E6 JUMP JUMPDEST SWAP3 POP POP PUSH1 0x20 DUP4 ADD CALLDATALOAD PUSH8 0xFFFFFFFFFFFFFFFF DUP2 GT ISZERO PUSH2 0x542 JUMPI PUSH2 0x541 PUSH2 0x2C3 JUMP JUMPDEST JUMPDEST PUSH2 0x54E DUP6 DUP3 DUP7 ADD PUSH2 0x4D1 JUMP JUMPDEST SWAP2 POP POP SWAP3 POP SWAP3 SWAP1 POP JUMP JUMPDEST PUSH32 0x4E487B7100000000000000000000000000000000000000000000000000000000 PUSH0 MSTORE PUSH1 0x32 PUSH1 0x4 MSTORE PUSH1 0x24 PUSH0 REVERT JUMPDEST PUSH32 0x4E487B7100000000000000000000000000000000000000000000000000000000 PUSH0 MSTORE PUSH1 0x22 PUSH1 0x4 MSTORE PUSH1 0x24 PUSH0 REVERT JUMPDEST PUSH0 PUSH1 0x2 DUP3 DIV SWAP1 POP PUSH1 0x1 DUP3 AND DUP1 PUSH2 0x5C9 JUMPI PUSH1 0x7F DUP3 AND SWAP2 POP JUMPDEST PUSH1 0x20 DUP3 LT DUP2 SUB PUSH2 0x5DC JUMPI PUSH2 0x5DB PUSH2 0x585 JUMP JUMPDEST JUMPDEST POP SWAP2 SWAP1 POP JUMP JUMPDEST PUSH0 DUP2 SWAP1 POP DUP2 PUSH0 MSTORE PUSH1 0x20 PUSH0 KECCAK256 SWAP1 POP SWAP2 SWAP1 POP JUMP JUMPDEST PUSH0 PUSH1 0x20 PUSH1 0x1F DUP4 ADD DIV SWAP1 POP SWAP2 SWAP1 POP JUMP JUMPDEST PUSH0 DUP3 DUP3 SHL SWAP1 POP SWAP3 SWAP2 POP POP JUMP JUMPDEST PUSH0 PUSH1 0x8 DUP4 MUL PUSH2 0x63E PUSH32 0xFFFFFFFFFFFFFFFFFFFFFFFFFFFFFFFFFFFFFFFFFFFFFFFFFFFFFFFFFFFFFFFF DUP3 PUSH2 0x603 JUMP JUMPDEST PUSH2 0x648 DUP7 DUP4 PUSH2 0x603 JUMP JUMPDEST SWAP6 POP DUP1 NOT DUP5 AND SWAP4 POP DUP1 DUP7 AND DUP5 OR SWAP3 POP POP POP SWAP4 SWAP3 POP POP POP JUMP JUMPDEST PUSH0 DUP2 SWAP1 POP SWAP2 SWAP1 POP JUMP JUMPDEST PUSH0 PUSH2 0x683 PUSH2 0x67E PUSH2 0x679 DUP5 PUSH2 0x2C7 JUMP JUMPDEST PUSH2 0x660 JUMP JUMPDEST PUSH2 0x2C7 JUMP JUMPDEST SWAP1 POP SWAP2 SWAP1 POP JUMP JUMPDEST PUSH0 DUP2 SWAP1 POP SWAP2 SWAP1 POP JUMP JUMPDEST PUSH2 0x69C DUP4 PUSH2 0x669 JUMP JUMPDEST PUSH2 0x6B0 PUSH2 0x6A8 DUP3 PUSH2 0x68A JUMP JUMPDEST DUP5 DUP5 SLOAD PUSH2 0x60F JUMP JUMPDEST DUP3 SSTORE POP POP POP POP JUMP JUMPDEST PUSH0 SWAP1 JUMP JUMPDEST PUSH2 0x6C4 PUSH2 0x6B8 JUMP JUMPDEST PUSH2 0x6CF DUP2 DUP5 DUP5 PUSH2 0x693 JUMP JUMPDEST POP POP POP JUMP JUMPDEST JUMPDEST DUP2 DUP2 LT ISZERO PUSH2 0x6F2 JUMPI PUSH2 0x6E7 PUSH0 DUP3 PUSH2 0x6BC JUMP JUMPDEST PUSH1 0x1 DUP2 ADD SWAP1 POP PUSH2 0x6D5 JUMP JUMPDEST POP POP JUMP JUMPDEST PUSH1 0x1F DUP3 GT ISZERO PUSH2 0x737 JUMPI PUSH2 0x708 DUP2 PUSH2 0x5E2 JUMP JUMPDEST PUSH2 0x711 DUP5 PUSH2 0x5F4 JUMP JUMPDEST DUP2 ADD PUSH1 0x20 DUP6 LT ISZERO PUSH2 0x720 JUMPI DUP2 SWAP1 POP JUMPDEST PUSH2 0x734 PUSH2 0x72C DUP6 PUSH2 0x5F4 JUMP JUMPDEST DUP4 ADD DUP3 PUSH2 0x6D4 JUMP JUMPDEST POP POP JUMPDEST POP POP POP JUMP JUMPDEST PUSH0 DUP3 DUP3 SHR SWAP1 POP SWAP3 SWAP2 POP POP JUMP JUMPDEST PUSH0 PUSH2 0x757 PUSH0 NOT DUP5 PUSH1 0x8 MUL PUSH2 0x73C JUMP JUMPDEST NOT DUP1 DUP4 AND SWAP2 POP POP SWAP3 SWAP2 POP POP JUMP JUMPDEST PUSH0 PUSH2 0x76F DUP4 DUP4 PUSH2 0x748 JUMP JUMPDEST SWAP2 POP DUP3 PUSH1 0x2 MUL DUP3 OR SWAP1 POP SWAP3 SWAP2 POP POP JUMP JUMPDEST PUSH2 0x788 DUP3 PUSH2 0x334 JUMP JUMPDEST PUSH8 0xFFFFFFFFFFFFFFFF DUP2 GT ISZERO PUSH2 0x7A1 JUMPI PUSH2 0x7A0 PUSH2 0x3DA JUMP JUMPDEST JUMPDEST PUSH2 0x7AB DUP3 SLOAD PUSH2 0x5B2 JUMP JUMPDEST PUSH2 0x7B6 DUP3 DUP3 DUP6 PUSH2 0x6F6 JUMP JUMPDEST PUSH0 PUSH1 0x20 SWAP1 POP PUSH1 0x1F DUP4 GT PUSH1 0x1 DUP2 EQ PUSH2 0x7E7 JUMPI PUSH0 DUP5 ISZERO PUSH2 0x7D5 JUMPI DUP3 DUP8 ADD MLOAD SWAP1 POP JUMPDEST PUSH2 0x7DF DUP6 DUP3 PUSH2 0x764 JUMP JUMPDEST DUP7 SSTORE POP PUSH2 0x846 JUMP JUMPDEST PUSH1 0x1F NOT DUP5 AND PUSH2 0x7F5 DUP7 PUSH2 0x5E2 JUMP JUMPDEST PUSH0 JUMPDEST DUP3 DUP2 LT ISZERO PUSH2 0x81C JUMPI DUP5 DUP10 ADD MLOAD DUP3 SSTORE PUSH1 0x1 DUP3 ADD SWAP2 POP PUSH1 0x20 DUP6 ADD SWAP5 POP PUSH1 0x20 DUP2 ADD SWAP1 POP PUSH2 0x7F7 JUMP JUMPDEST DUP7 DUP4 LT ISZERO PUSH2 0x839 JUMPI DUP5 DUP10 ADD MLOAD PUSH2 0x835 PUSH1 0x1F DUP10 AND DUP3 PUSH2 0x748 JUMP JUMPDEST DUP4 SSTORE POP JUMPDEST PUSH1 0x1 PUSH1 0x2 DUP9 MUL ADD DUP9 SSTORE POP POP POP JUMPDEST POP POP POP POP POP POP JUMP INVALID LOG2 PUSH5 0x6970667358 0x22 SLT KECCAK256 0x2F PUSH14 0x2B5CAFAFDFD56E0D3EE81BAEF16D XOR DUP1 0xD5 0xBE PUSH27 0x15E2834C4CC65D870E114D64736F6C634300081A0033A264697066 PUSH20 0x58221220019F898DDC4400FD817DAFFA7B596435 PUSH22 0x319EAF5401375C3F832CAFF7DC520064736F6C634300 ADDMOD BYTE STOP CALLER "
				},
				"gasEstimates": {
					"creation": {
						"codeDepositCost": "849600",
						"executionCost": "881",
						"totalCost": "850481"
					},
					"external": {
						"arrayStoringPeopleSmartContract(uint256)": "infinite",
						"createPeople()": "infinite",
						"getPeople(uint256,uint256)": "infinite",
						"storePeople(uint256,uint256,string)": "infinite"
					}
				},
				"methodIdentifiers": {
					"arrayStoringPeopleSmartContract(uint256)": "58e3cda4",
					"createPeople()": "fb23d5f5",
					"getPeople(uint256,uint256)": "dd4bc9d8",
					"storePeople(uint256,uint256,string)": "d3a80bdc"
				}
			},
			"storageLayout": {
				"storage": [
					{
						"astId": 63,
						"contract": "contracts/UsingPeopleContract.sol:UsePeople",
						"label": "arrayStoringPeopleSmartContract",
						"offset": 0,
						"slot": "0",
						"type": "t_array(t_contract(People)56)dyn_storage"
					}
				],
				"types": {
					"t_array(t_contract(People)56)dyn_storage": {
						"base": "t_contract(People)56",
						"encoding": "dynamic_array",
						"label": "contract People[]",
						"numberOfBytes": "32"
					},
					"t_contract(People)56": {
						"encoding": "inplace",
						"label": "contract People",
						"numberOfBytes": "20"
					}
				}
			},
			"userdoc": {
				"kind": "user",
				"methods": {},
				"version": 1
			}
		}
	}
}