{
	"contracts/People.sol": {
		"People": {
			"abi": [
				{
					"inputs": [
						{
							"internalType": "uint256",
							"name": "_age",
							"type": "uint256"
						},
						{
							"internalType": "string",
							"name": "_name",
							"type": "string"
						}
					],
					"name": "createPeople",
					"outputs": [],
					"stateMutability": "nonpayable",
					"type": "function"
				},
				{
					"inputs": [
						{
							"internalType": "uint256",
							"name": "",
							"type": "uint256"
						}
					],
					"name": "p1",
					"outputs": [
						{
							"internalType": "uint256",
							"name": "age",
							"type": "uint256"
						},
						{
							"internalType": "string",
							"name": "name",
							"type": "string"
						}
					],
					"stateMutability": "view",
					"type": "function"
				},
				{
					"inputs": [
						{
							"internalType": "uint256",
							"name": "_p1IndexNumber",
							"type": "uint256"
						}
					],
					"name": "pull",
					"outputs": [
						{
							"internalType": "uint256",
							"name": "",
							"type": "uint256"
						},
						{
							"internalType": "string",
							"name": "",
							"type": "string"
						}
					],
					"stateMutability": "view",
					"type": "function"
				}
			],
			"devdoc": {
				"kind": "dev",
				"methods": {},
				"version": 1
			},
			"evm": {
				"assembly": "    /* \"contracts/People.sol\":117:544  contract People{... */\n  mstore(0x40, 0x80)\n  callvalue\n  dup1\n  iszero\n  tag_1\n  jumpi\n  0x00\n  dup1\n  revert\ntag_1:\n  pop\n  dataSize(sub_0)\n  dup1\n  dataOffset(sub_0)\n  0x00\n  codecopy\n  0x00\n  return\nstop\n\nsub_0: assembly {\n        /* \"contracts/People.sol\":117:544  contract People{... */\n      mstore(0x40, 0x80)\n      callvalue\n      dup1\n      iszero\n      tag_1\n      jumpi\n      0x00\n      dup1\n      revert\n    tag_1:\n      pop\n      jumpi(tag_2, lt(calldatasize, 0x04))\n      shr(0xe0, calldataload(0x00))\n      dup1\n      0x4d0392a8\n      eq\n      tag_3\n      jumpi\n      dup1\n      0x640670dd\n      eq\n      tag_4\n      jumpi\n      dup1\n      0xe28756b4\n      eq\n      tag_5\n      jumpi\n    tag_2:\n      0x00\n      dup1\n      revert\n        /* \"contracts/People.sol\":335:541  function pull(uint256 _p1IndexNumber) public view returns(uint256,string memory){... */\n    tag_3:\n      tag_6\n      0x04\n      dup1\n      calldatasize\n      sub\n      dup2\n      add\n      swap1\n      tag_7\n      swap2\n      swap1\n      tag_8\n      jump\t// in\n    tag_7:\n      tag_9\n      jump\t// in\n    tag_6:\n      mload(0x40)\n      tag_10\n      swap3\n      swap2\n      swap1\n      tag_11\n      jump\t// in\n    tag_10:\n      mload(0x40)\n      dup1\n      swap2\n      sub\n      swap1\n      return\n        /* \"contracts/People.sol\":166:327  function createPeople(uint256 _age,string memory _name) public  {... */\n    tag_4:\n      tag_12\n      0x04\n      dup1\n      calldatasize\n      sub\n      dup2\n      add\n      swap1\n      tag_13\n      swap2\n      swap1\n      tag_14\n      jump\t// in\n    tag_13:\n      tag_15\n      jump\t// in\n    tag_12:\n      stop\n        /* \"contracts/People.sol\":139:157  Person[] public p1 */\n    tag_5:\n      tag_16\n      0x04\n      dup1\n      calldatasize\n      sub\n      dup2\n      add\n      swap1\n      tag_17\n      swap2\n      swap1\n      tag_8\n      jump\t// in\n    tag_17:\n      tag_18\n      jump\t// in\n    tag_16:\n      mload(0x40)\n      tag_19\n      swap3\n      swap2\n      swap1\n      tag_11\n      jump\t// in\n    tag_19:\n      mload(0x40)\n      dup1\n      swap2\n      sub\n      swap1\n      return\n        /* \"contracts/People.sol\":335:541  function pull(uint256 _p1IndexNumber) public view returns(uint256,string memory){... */\n    tag_9:\n        /* \"contracts/People.sol\":393:400  uint256 */\n      0x00\n        /* \"contracts/People.sol\":401:414  string memory */\n      0x60\n        /* \"contracts/People.sol\":426:454  Person memory retreivePerson */\n      0x00\n        /* \"contracts/People.sol\":457:459  p1 */\n      dup1\n        /* \"contracts/People.sol\":460:474  _p1IndexNumber */\n      dup5\n        /* \"contracts/People.sol\":457:475  p1[_p1IndexNumber] */\n      dup2\n      sload\n      dup2\n      lt\n      tag_21\n      jumpi\n      tag_22\n      tag_23\n      jump\t// in\n    tag_22:\n    tag_21:\n      swap1\n      0x00\n      mstore\n      keccak256(0x00, 0x20)\n      swap1\n      0x02\n      mul\n      add\n        /* \"contracts/People.sol\":426:475  Person memory retreivePerson = p1[_p1IndexNumber] */\n      mload(0x40)\n      dup1\n      0x40\n      add\n      0x40\n      mstore\n      swap1\n      dup2\n      0x00\n      dup3\n      add\n      sload\n      dup2\n      mstore\n      0x20\n      add\n      0x01\n      dup3\n      add\n      dup1\n      sload\n      tag_25\n      swap1\n      tag_26\n      jump\t// in\n    tag_25:\n      dup1\n      0x1f\n      add\n      0x20\n      dup1\n      swap2\n      div\n      mul\n      0x20\n      add\n      mload(0x40)\n      swap1\n      dup2\n      add\n      0x40\n      mstore\n      dup1\n      swap3\n      swap2\n      swap1\n      dup2\n      dup2\n      mstore\n      0x20\n      add\n      dup3\n      dup1\n      sload\n      tag_27\n      swap1\n      tag_26\n      jump\t// in\n    tag_27:\n      dup1\n      iszero\n      tag_28\n      jumpi\n      dup1\n      0x1f\n      lt\n      tag_29\n      jumpi\n      0x0100\n      dup1\n      dup4\n      sload\n      div\n      mul\n      dup4\n      mstore\n      swap2\n      0x20\n      add\n      swap2\n      jump(tag_28)\n    tag_29:\n      dup3\n      add\n      swap2\n      swap1\n      0x00\n      mstore\n      keccak256(0x00, 0x20)\n      swap1\n    tag_30:\n      dup2\n      sload\n      dup2\n      mstore\n      swap1\n      0x01\n      add\n      swap1\n      0x20\n      add\n      dup1\n      dup4\n      gt\n      tag_30\n      jumpi\n      dup3\n      swap1\n      sub\n      0x1f\n      and\n      dup3\n      add\n      swap2\n    tag_28:\n      pop\n      pop\n      pop\n      pop\n      pop\n      dup2\n      mstore\n      pop\n      pop\n      swap1\n      pop\n        /* \"contracts/People.sol\":494:508  retreivePerson */\n      dup1\n        /* \"contracts/People.sol\":494:512  retreivePerson.age */\n      0x00\n      add\n      mload\n        /* \"contracts/People.sol\":513:527  retreivePerson */\n      dup2\n        /* \"contracts/People.sol\":513:532  retreivePerson.name */\n      0x20\n      add\n      mload\n        /* \"contracts/People.sol\":486:533  return (retreivePerson.age,retreivePerson.name) */\n      swap3\n      pop\n      swap3\n      pop\n      pop\n        /* \"contracts/People.sol\":335:541  function pull(uint256 _p1IndexNumber) public view returns(uint256,string memory){... */\n      swap2\n      pop\n      swap2\n      jump\t// out\n        /* \"contracts/People.sol\":166:327  function createPeople(uint256 _age,string memory _name) public  {... */\n    tag_15:\n        /* \"contracts/People.sol\":241:261  Person memory person */\n      0x00\n        /* \"contracts/People.sol\":264:293  Person({age:_age,name:_name}) */\n      mload(0x40)\n      dup1\n      0x40\n      add\n      0x40\n      mstore\n      dup1\n        /* \"contracts/People.sol\":276:280  _age */\n      dup5\n        /* \"contracts/People.sol\":264:293  Person({age:_age,name:_name}) */\n      dup2\n      mstore\n      0x20\n      add\n        /* \"contracts/People.sol\":286:291  _name */\n      dup4\n        /* \"contracts/People.sol\":264:293  Person({age:_age,name:_name}) */\n      dup2\n      mstore\n      pop\n        /* \"contracts/People.sol\":241:293  Person memory person = Person({age:_age,name:_name}) */\n      swap1\n      pop\n        /* \"contracts/People.sol\":304:306  p1 */\n      0x00\n        /* \"contracts/People.sol\":312:318  person */\n      dup2\n        /* \"contracts/People.sol\":304:319  p1.push(person) */\n      swap1\n      dup1\n      0x01\n      dup2\n      sload\n      add\n      dup1\n      dup3\n      sstore\n      dup1\n      swap2\n      pop\n      pop\n      0x01\n      swap1\n      sub\n      swap1\n      0x00\n      mstore\n      keccak256(0x00, 0x20)\n      swap1\n      0x02\n      mul\n      add\n      0x00\n      swap1\n      swap2\n      swap1\n      swap2\n      swap1\n      swap2\n      pop\n      0x00\n      dup3\n      add\n      mload\n      dup2\n      0x00\n      add\n      sstore\n      0x20\n      dup3\n      add\n      mload\n      dup2\n      0x01\n      add\n      swap1\n      dup2\n      tag_33\n      swap2\n      swap1\n      tag_34\n      jump\t// in\n    tag_33:\n      pop\n      pop\n      pop\n        /* \"contracts/People.sol\":230:327  {... */\n      pop\n        /* \"contracts/People.sol\":166:327  function createPeople(uint256 _age,string memory _name) public  {... */\n      pop\n      pop\n      jump\t// out\n        /* \"contracts/People.sol\":139:157  Person[] public p1 */\n    tag_18:\n      0x00\n      dup2\n      dup2\n      sload\n      dup2\n      lt\n      tag_35\n      jumpi\n      0x00\n      dup1\n      revert\n    tag_35:\n      swap1\n      0x00\n      mstore\n      keccak256(0x00, 0x20)\n      swap1\n      0x02\n      mul\n      add\n      0x00\n      swap2\n      pop\n      swap1\n      pop\n      dup1\n      0x00\n      add\n      sload\n      swap1\n      dup1\n      0x01\n      add\n      dup1\n      sload\n      tag_37\n      swap1\n      tag_26\n      jump\t// in\n    tag_37:\n      dup1\n      0x1f\n      add\n      0x20\n      dup1\n      swap2\n      div\n      mul\n      0x20\n      add\n      mload(0x40)\n      swap1\n      dup2\n      add\n      0x40\n      mstore\n      dup1\n      swap3\n      swap2\n      swap1\n      dup2\n      dup2\n      mstore\n      0x20\n      add\n      dup3\n      dup1\n      sload\n      tag_38\n      swap1\n      tag_26\n      jump\t// in\n    tag_38:\n      dup1\n      iszero\n      tag_39\n      jumpi\n      dup1\n      0x1f\n      lt\n      tag_40\n      jumpi\n      0x0100\n      dup1\n      dup4\n      sload\n      div\n      mul\n      dup4\n      mstore\n      swap2\n      0x20\n      add\n      swap2\n      jump(tag_39)\n    tag_40:\n      dup3\n      add\n      swap2\n      swap1\n      0x00\n      mstore\n      keccak256(0x00, 0x20)\n      swap1\n    tag_41:\n      dup2\n      sload\n      dup2\n      mstore\n      swap1\n      0x01\n      add\n      swap1\n      0x20\n      add\n      dup1\n      dup4\n      gt\n      tag_41\n      jumpi\n      dup3\n      swap1\n      sub\n      0x1f\n      and\n      dup3\n      add\n      swap2\n    tag_39:\n      pop\n      pop\n      pop\n      pop\n      pop\n      swap1\n      pop\n      dup3\n      jump\t// out\n        /* \"#utility.yul\":7:82   */\n    tag_42:\n        /* \"#utility.yul\":40:46   */\n      0x00\n        /* \"#utility.yul\":73:75   */\n      0x40\n        /* \"#utility.yul\":67:76   */\n      mload\n        /* \"#utility.yul\":57:76   */\n      swap1\n      pop\n        /* \"#utility.yul\":7:82   */\n      swap1\n      jump\t// out\n        /* \"#utility.yul\":88:205   */\n    tag_43:\n        /* \"#utility.yul\":197:198   */\n      0x00\n        /* \"#utility.yul\":194:195   */\n      dup1\n        /* \"#utility.yul\":187:199   */\n      revert\n        /* \"#utility.yul\":211:328   */\n    tag_44:\n        /* \"#utility.yul\":320:321   */\n      0x00\n        /* \"#utility.yul\":317:318   */\n      dup1\n        /* \"#utility.yul\":310:322   */\n      revert\n        /* \"#utility.yul\":334:411   */\n    tag_45:\n        /* \"#utility.yul\":371:378   */\n      0x00\n        /* \"#utility.yul\":400:405   */\n      dup2\n        /* \"#utility.yul\":389:405   */\n      swap1\n      pop\n        /* \"#utility.yul\":334:411   */\n      swap2\n      swap1\n      pop\n      jump\t// out\n        /* \"#utility.yul\":417:539   */\n    tag_46:\n        /* \"#utility.yul\":490:514   */\n      tag_85\n        /* \"#utility.yul\":508:513   */\n      dup2\n        /* \"#utility.yul\":490:514   */\n      tag_45\n      jump\t// in\n    tag_85:\n        /* \"#utility.yul\":483:488   */\n      dup2\n        /* \"#utility.yul\":480:515   */\n      eq\n        /* \"#utility.yul\":470:533   */\n      tag_86\n      jumpi\n        /* \"#utility.yul\":529:530   */\n      0x00\n        /* \"#utility.yul\":526:527   */\n      dup1\n        /* \"#utility.yul\":519:531   */\n      revert\n        /* \"#utility.yul\":470:533   */\n    tag_86:\n        /* \"#utility.yul\":417:539   */\n      pop\n      jump\t// out\n        /* \"#utility.yul\":545:684   */\n    tag_47:\n        /* \"#utility.yul\":591:596   */\n      0x00\n        /* \"#utility.yul\":629:635   */\n      dup2\n        /* \"#utility.yul\":616:636   */\n      calldataload\n        /* \"#utility.yul\":607:636   */\n      swap1\n      pop\n        /* \"#utility.yul\":645:678   */\n      tag_88\n        /* \"#utility.yul\":672:677   */\n      dup2\n        /* \"#utility.yul\":645:678   */\n      tag_46\n      jump\t// in\n    tag_88:\n        /* \"#utility.yul\":545:684   */\n      swap3\n      swap2\n      pop\n      pop\n      jump\t// out\n        /* \"#utility.yul\":690:1019   */\n    tag_8:\n        /* \"#utility.yul\":749:755   */\n      0x00\n        /* \"#utility.yul\":798:800   */\n      0x20\n        /* \"#utility.yul\":786:795   */\n      dup3\n        /* \"#utility.yul\":777:784   */\n      dup5\n        /* \"#utility.yul\":773:796   */\n      sub\n        /* \"#utility.yul\":769:801   */\n      slt\n        /* \"#utility.yul\":766:885   */\n      iszero\n      tag_90\n      jumpi\n        /* \"#utility.yul\":804:883   */\n      tag_91\n      tag_43\n      jump\t// in\n    tag_91:\n        /* \"#utility.yul\":766:885   */\n    tag_90:\n        /* \"#utility.yul\":924:925   */\n      0x00\n        /* \"#utility.yul\":949:1002   */\n      tag_92\n        /* \"#utility.yul\":994:1001   */\n      dup5\n        /* \"#utility.yul\":985:991   */\n      dup3\n        /* \"#utility.yul\":974:983   */\n      dup6\n        /* \"#utility.yul\":970:992   */\n      add\n        /* \"#utility.yul\":949:1002   */\n      tag_47\n      jump\t// in\n    tag_92:\n        /* \"#utility.yul\":939:1002   */\n      swap2\n      pop\n        /* \"#utility.yul\":895:1012   */\n      pop\n        /* \"#utility.yul\":690:1019   */\n      swap3\n      swap2\n      pop\n      pop\n      jump\t// out\n        /* \"#utility.yul\":1025:1143   */\n    tag_48:\n        /* \"#utility.yul\":1112:1136   */\n      tag_94\n        /* \"#utility.yul\":1130:1135   */\n      dup2\n        /* \"#utility.yul\":1112:1136   */\n      tag_45\n      jump\t// in\n    tag_94:\n        /* \"#utility.yul\":1107:1110   */\n      dup3\n        /* \"#utility.yul\":1100:1137   */\n      mstore\n        /* \"#utility.yul\":1025:1143   */\n      pop\n      pop\n      jump\t// out\n        /* \"#utility.yul\":1149:1248   */\n    tag_49:\n        /* \"#utility.yul\":1201:1207   */\n      0x00\n        /* \"#utility.yul\":1235:1240   */\n      dup2\n        /* \"#utility.yul\":1229:1241   */\n      mload\n        /* \"#utility.yul\":1219:1241   */\n      swap1\n      pop\n        /* \"#utility.yul\":1149:1248   */\n      swap2\n      swap1\n      pop\n      jump\t// out\n        /* \"#utility.yul\":1254:1423   */\n    tag_50:\n        /* \"#utility.yul\":1338:1349   */\n      0x00\n        /* \"#utility.yul\":1372:1378   */\n      dup3\n        /* \"#utility.yul\":1367:1370   */\n      dup3\n        /* \"#utility.yul\":1360:1379   */\n      mstore\n        /* \"#utility.yul\":1412:1416   */\n      0x20\n        /* \"#utility.yul\":1407:1410   */\n      dup3\n        /* \"#utility.yul\":1403:1417   */\n      add\n        /* \"#utility.yul\":1388:1417   */\n      swap1\n      pop\n        /* \"#utility.yul\":1254:1423   */\n      swap3\n      swap2\n      pop\n      pop\n      jump\t// out\n        /* \"#utility.yul\":1429:1568   */\n    tag_51:\n        /* \"#utility.yul\":1518:1524   */\n      dup3\n        /* \"#utility.yul\":1513:1516   */\n      dup2\n        /* \"#utility.yul\":1508:1511   */\n      dup4\n        /* \"#utility.yul\":1502:1525   */\n      mcopy\n        /* \"#utility.yul\":1559:1560   */\n      0x00\n        /* \"#utility.yul\":1550:1556   */\n      dup4\n        /* \"#utility.yul\":1545:1548   */\n      dup4\n        /* \"#utility.yul\":1541:1557   */\n      add\n        /* \"#utility.yul\":1534:1561   */\n      mstore\n        /* \"#utility.yul\":1429:1568   */\n      pop\n      pop\n      pop\n      jump\t// out\n        /* \"#utility.yul\":1574:1676   */\n    tag_52:\n        /* \"#utility.yul\":1615:1621   */\n      0x00\n        /* \"#utility.yul\":1666:1668   */\n      0x1f\n        /* \"#utility.yul\":1662:1669   */\n      not\n        /* \"#utility.yul\":1657:1659   */\n      0x1f\n        /* \"#utility.yul\":1650:1655   */\n      dup4\n        /* \"#utility.yul\":1646:1660   */\n      add\n        /* \"#utility.yul\":1642:1670   */\n      and\n        /* \"#utility.yul\":1632:1670   */\n      swap1\n      pop\n        /* \"#utility.yul\":1574:1676   */\n      swap2\n      swap1\n      pop\n      jump\t// out\n        /* \"#utility.yul\":1682:2059   */\n    tag_53:\n        /* \"#utility.yul\":1770:1773   */\n      0x00\n        /* \"#utility.yul\":1798:1837   */\n      tag_100\n        /* \"#utility.yul\":1831:1836   */\n      dup3\n        /* \"#utility.yul\":1798:1837   */\n      tag_49\n      jump\t// in\n    tag_100:\n        /* \"#utility.yul\":1853:1924   */\n      tag_101\n        /* \"#utility.yul\":1917:1923   */\n      dup2\n        /* \"#utility.yul\":1912:1915   */\n      dup6\n        /* \"#utility.yul\":1853:1924   */\n      tag_50\n      jump\t// in\n    tag_101:\n        /* \"#utility.yul\":1846:1924   */\n      swap4\n      pop\n        /* \"#utility.yul\":1933:1998   */\n      tag_102\n        /* \"#utility.yul\":1991:1997   */\n      dup2\n        /* \"#utility.yul\":1986:1989   */\n      dup6\n        /* \"#utility.yul\":1979:1983   */\n      0x20\n        /* \"#utility.yul\":1972:1977   */\n      dup7\n        /* \"#utility.yul\":1968:1984   */\n      add\n        /* \"#utility.yul\":1933:1998   */\n      tag_51\n      jump\t// in\n    tag_102:\n        /* \"#utility.yul\":2023:2052   */\n      tag_103\n        /* \"#utility.yul\":2045:2051   */\n      dup2\n        /* \"#utility.yul\":2023:2052   */\n      tag_52\n      jump\t// in\n    tag_103:\n        /* \"#utility.yul\":2018:2021   */\n      dup5\n        /* \"#utility.yul\":2014:2053   */\n      add\n        /* \"#utility.yul\":2007:2053   */\n      swap2\n      pop\n        /* \"#utility.yul\":1774:2059   */\n      pop\n        /* \"#utility.yul\":1682:2059   */\n      swap3\n      swap2\n      pop\n      pop\n      jump\t// out\n        /* \"#utility.yul\":2065:2488   */\n    tag_11:\n        /* \"#utility.yul\":2206:2210   */\n      0x00\n        /* \"#utility.yul\":2244:2246   */\n      0x40\n        /* \"#utility.yul\":2233:2242   */\n      dup3\n        /* \"#utility.yul\":2229:2247   */\n      add\n        /* \"#utility.yul\":2221:2247   */\n      swap1\n      pop\n        /* \"#utility.yul\":2257:2328   */\n      tag_105\n        /* \"#utility.yul\":2325:2326   */\n      0x00\n        /* \"#utility.yul\":2314:2323   */\n      dup4\n        /* \"#utility.yul\":2310:2327   */\n      add\n        /* \"#utility.yul\":2301:2307   */\n      dup6\n        /* \"#utility.yul\":2257:2328   */\n      tag_48\n      jump\t// in\n    tag_105:\n        /* \"#utility.yul\":2375:2384   */\n      dup2\n        /* \"#utility.yul\":2369:2373   */\n      dup2\n        /* \"#utility.yul\":2365:2385   */\n      sub\n        /* \"#utility.yul\":2360:2362   */\n      0x20\n        /* \"#utility.yul\":2349:2358   */\n      dup4\n        /* \"#utility.yul\":2345:2363   */\n      add\n        /* \"#utility.yul\":2338:2386   */\n      mstore\n        /* \"#utility.yul\":2403:2481   */\n      tag_106\n        /* \"#utility.yul\":2476:2480   */\n      dup2\n        /* \"#utility.yul\":2467:2473   */\n      dup5\n        /* \"#utility.yul\":2403:2481   */\n      tag_53\n      jump\t// in\n    tag_106:\n        /* \"#utility.yul\":2395:2481   */\n      swap1\n      pop\n        /* \"#utility.yul\":2065:2488   */\n      swap4\n      swap3\n      pop\n      pop\n      pop\n      jump\t// out\n        /* \"#utility.yul\":2494:2611   */\n    tag_54:\n        /* \"#utility.yul\":2603:2604   */\n      0x00\n        /* \"#utility.yul\":2600:2601   */\n      dup1\n        /* \"#utility.yul\":2593:2605   */\n      revert\n        /* \"#utility.yul\":2617:2734   */\n    tag_55:\n        /* \"#utility.yul\":2726:2727   */\n      0x00\n        /* \"#utility.yul\":2723:2724   */\n      dup1\n        /* \"#utility.yul\":2716:2728   */\n      revert\n        /* \"#utility.yul\":2740:2920   */\n    tag_56:\n        /* \"#utility.yul\":2788:2865   */\n      0x4e487b7100000000000000000000000000000000000000000000000000000000\n        /* \"#utility.yul\":2785:2786   */\n      0x00\n        /* \"#utility.yul\":2778:2866   */\n      mstore\n        /* \"#utility.yul\":2885:2889   */\n      0x41\n        /* \"#utility.yul\":2882:2883   */\n      0x04\n        /* \"#utility.yul\":2875:2890   */\n      mstore\n        /* \"#utility.yul\":2909:2913   */\n      0x24\n        /* \"#utility.yul\":2906:2907   */\n      0x00\n        /* \"#utility.yul\":2899:2914   */\n      revert\n        /* \"#utility.yul\":2926:3207   */\n    tag_57:\n        /* \"#utility.yul\":3009:3036   */\n      tag_111\n        /* \"#utility.yul\":3031:3035   */\n      dup3\n        /* \"#utility.yul\":3009:3036   */\n      tag_52\n      jump\t// in\n    tag_111:\n        /* \"#utility.yul\":3001:3007   */\n      dup2\n        /* \"#utility.yul\":2997:3037   */\n      add\n        /* \"#utility.yul\":3139:3145   */\n      dup2\n        /* \"#utility.yul\":3127:3137   */\n      dup2\n        /* \"#utility.yul\":3124:3146   */\n      lt\n        /* \"#utility.yul\":3103:3121   */\n      0xffffffffffffffff\n        /* \"#utility.yul\":3091:3101   */\n      dup3\n        /* \"#utility.yul\":3088:3122   */\n      gt\n        /* \"#utility.yul\":3085:3147   */\n      or\n        /* \"#utility.yul\":3082:3170   */\n      iszero\n      tag_112\n      jumpi\n        /* \"#utility.yul\":3150:3168   */\n      tag_113\n      tag_56\n      jump\t// in\n    tag_113:\n        /* \"#utility.yul\":3082:3170   */\n    tag_112:\n        /* \"#utility.yul\":3190:3200   */\n      dup1\n        /* \"#utility.yul\":3186:3188   */\n      0x40\n        /* \"#utility.yul\":3179:3201   */\n      mstore\n        /* \"#utility.yul\":2969:3207   */\n      pop\n        /* \"#utility.yul\":2926:3207   */\n      pop\n      pop\n      jump\t// out\n        /* \"#utility.yul\":3213:3342   */\n    tag_58:\n        /* \"#utility.yul\":3247:3253   */\n      0x00\n        /* \"#utility.yul\":3274:3294   */\n      tag_115\n      tag_42\n      jump\t// in\n    tag_115:\n        /* \"#utility.yul\":3264:3294   */\n      swap1\n      pop\n        /* \"#utility.yul\":3303:3336   */\n      tag_116\n        /* \"#utility.yul\":3331:3335   */\n      dup3\n        /* \"#utility.yul\":3323:3329   */\n      dup3\n        /* \"#utility.yul\":3303:3336   */\n      tag_57\n      jump\t// in\n    tag_116:\n        /* \"#utility.yul\":3213:3342   */\n      swap2\n      swap1\n      pop\n      jump\t// out\n        /* \"#utility.yul\":3348:3656   */\n    tag_59:\n        /* \"#utility.yul\":3410:3414   */\n      0x00\n        /* \"#utility.yul\":3500:3518   */\n      0xffffffffffffffff\n        /* \"#utility.yul\":3492:3498   */\n      dup3\n        /* \"#utility.yul\":3489:3519   */\n      gt\n        /* \"#utility.yul\":3486:3542   */\n      iszero\n      tag_118\n      jumpi\n        /* \"#utility.yul\":3522:3540   */\n      tag_119\n      tag_56\n      jump\t// in\n    tag_119:\n        /* \"#utility.yul\":3486:3542   */\n    tag_118:\n        /* \"#utility.yul\":3560:3589   */\n      tag_120\n        /* \"#utility.yul\":3582:3588   */\n      dup3\n        /* \"#utility.yul\":3560:3589   */\n      tag_52\n      jump\t// in\n    tag_120:\n        /* \"#utility.yul\":3552:3589   */\n      swap1\n      pop\n        /* \"#utility.yul\":3644:3648   */\n      0x20\n        /* \"#utility.yul\":3638:3642   */\n      dup2\n        /* \"#utility.yul\":3634:3649   */\n      add\n        /* \"#utility.yul\":3626:3649   */\n      swap1\n      pop\n        /* \"#utility.yul\":3348:3656   */\n      swap2\n      swap1\n      pop\n      jump\t// out\n        /* \"#utility.yul\":3662:3810   */\n    tag_60:\n        /* \"#utility.yul\":3760:3766   */\n      dup3\n        /* \"#utility.yul\":3755:3758   */\n      dup2\n        /* \"#utility.yul\":3750:3753   */\n      dup4\n        /* \"#utility.yul\":3737:3767   */\n      calldatacopy\n        /* \"#utility.yul\":3801:3802   */\n      0x00\n        /* \"#utility.yul\":3792:3798   */\n      dup4\n        /* \"#utility.yul\":3787:3790   */\n      dup4\n        /* \"#utility.yul\":3783:3799   */\n      add\n        /* \"#utility.yul\":3776:3803   */\n      mstore\n        /* \"#utility.yul\":3662:3810   */\n      pop\n      pop\n      pop\n      jump\t// out\n        /* \"#utility.yul\":3816:4241   */\n    tag_61:\n        /* \"#utility.yul\":3894:3899   */\n      0x00\n        /* \"#utility.yul\":3919:3985   */\n      tag_123\n        /* \"#utility.yul\":3935:3984   */\n      tag_124\n        /* \"#utility.yul\":3977:3983   */\n      dup5\n        /* \"#utility.yul\":3935:3984   */\n      tag_59\n      jump\t// in\n    tag_124:\n        /* \"#utility.yul\":3919:3985   */\n      tag_58\n      jump\t// in\n    tag_123:\n        /* \"#utility.yul\":3910:3985   */\n      swap1\n      pop\n        /* \"#utility.yul\":4008:4014   */\n      dup3\n        /* \"#utility.yul\":4001:4006   */\n      dup2\n        /* \"#utility.yul\":3994:4015   */\n      mstore\n        /* \"#utility.yul\":4046:4050   */\n      0x20\n        /* \"#utility.yul\":4039:4044   */\n      dup2\n        /* \"#utility.yul\":4035:4051   */\n      add\n        /* \"#utility.yul\":4084:4087   */\n      dup5\n        /* \"#utility.yul\":4075:4081   */\n      dup5\n        /* \"#utility.yul\":4070:4073   */\n      dup5\n        /* \"#utility.yul\":4066:4082   */\n      add\n        /* \"#utility.yul\":4063:4088   */\n      gt\n        /* \"#utility.yul\":4060:4172   */\n      iszero\n      tag_125\n      jumpi\n        /* \"#utility.yul\":4091:4170   */\n      tag_126\n      tag_55\n      jump\t// in\n    tag_126:\n        /* \"#utility.yul\":4060:4172   */\n    tag_125:\n        /* \"#utility.yul\":4181:4235   */\n      tag_127\n        /* \"#utility.yul\":4228:4234   */\n      dup5\n        /* \"#utility.yul\":4223:4226   */\n      dup3\n        /* \"#utility.yul\":4218:4221   */\n      dup6\n        /* \"#utility.yul\":4181:4235   */\n      tag_60\n      jump\t// in\n    tag_127:\n        /* \"#utility.yul\":3900:4241   */\n      pop\n        /* \"#utility.yul\":3816:4241   */\n      swap4\n      swap3\n      pop\n      pop\n      pop\n      jump\t// out\n        /* \"#utility.yul\":4261:4601   */\n    tag_62:\n        /* \"#utility.yul\":4317:4322   */\n      0x00\n        /* \"#utility.yul\":4366:4369   */\n      dup3\n        /* \"#utility.yul\":4359:4363   */\n      0x1f\n        /* \"#utility.yul\":4351:4357   */\n      dup4\n        /* \"#utility.yul\":4347:4364   */\n      add\n        /* \"#utility.yul\":4343:4370   */\n      slt\n        /* \"#utility.yul\":4333:4455   */\n      tag_129\n      jumpi\n        /* \"#utility.yul\":4374:4453   */\n      tag_130\n      tag_54\n      jump\t// in\n    tag_130:\n        /* \"#utility.yul\":4333:4455   */\n    tag_129:\n        /* \"#utility.yul\":4491:4497   */\n      dup2\n        /* \"#utility.yul\":4478:4498   */\n      calldataload\n        /* \"#utility.yul\":4516:4595   */\n      tag_131\n        /* \"#utility.yul\":4591:4594   */\n      dup5\n        /* \"#utility.yul\":4583:4589   */\n      dup3\n        /* \"#utility.yul\":4576:4580   */\n      0x20\n        /* \"#utility.yul\":4568:4574   */\n      dup7\n        /* \"#utility.yul\":4564:4581   */\n      add\n        /* \"#utility.yul\":4516:4595   */\n      tag_61\n      jump\t// in\n    tag_131:\n        /* \"#utility.yul\":4507:4595   */\n      swap2\n      pop\n        /* \"#utility.yul\":4323:4601   */\n      pop\n        /* \"#utility.yul\":4261:4601   */\n      swap3\n      swap2\n      pop\n      pop\n      jump\t// out\n        /* \"#utility.yul\":4607:5261   */\n    tag_14:\n        /* \"#utility.yul\":4685:4691   */\n      0x00\n        /* \"#utility.yul\":4693:4699   */\n      dup1\n        /* \"#utility.yul\":4742:4744   */\n      0x40\n        /* \"#utility.yul\":4730:4739   */\n      dup4\n        /* \"#utility.yul\":4721:4728   */\n      dup6\n        /* \"#utility.yul\":4717:4740   */\n      sub\n        /* \"#utility.yul\":4713:4745   */\n      slt\n        /* \"#utility.yul\":4710:4829   */\n      iszero\n      tag_133\n      jumpi\n        /* \"#utility.yul\":4748:4827   */\n      tag_134\n      tag_43\n      jump\t// in\n    tag_134:\n        /* \"#utility.yul\":4710:4829   */\n    tag_133:\n        /* \"#utility.yul\":4868:4869   */\n      0x00\n        /* \"#utility.yul\":4893:4946   */\n      tag_135\n        /* \"#utility.yul\":4938:4945   */\n      dup6\n        /* \"#utility.yul\":4929:4935   */\n      dup3\n        /* \"#utility.yul\":4918:4927   */\n      dup7\n        /* \"#utility.yul\":4914:4936   */\n      add\n        /* \"#utility.yul\":4893:4946   */\n      tag_47\n      jump\t// in\n    tag_135:\n        /* \"#utility.yul\":4883:4946   */\n      swap3\n      pop\n        /* \"#utility.yul\":4839:4956   */\n      pop\n        /* \"#utility.yul\":5023:5025   */\n      0x20\n        /* \"#utility.yul\":5012:5021   */\n      dup4\n        /* \"#utility.yul\":5008:5026   */\n      add\n        /* \"#utility.yul\":4995:5027   */\n      calldataload\n        /* \"#utility.yul\":5054:5072   */\n      0xffffffffffffffff\n        /* \"#utility.yul\":5046:5052   */\n      dup2\n        /* \"#utility.yul\":5043:5073   */\n      gt\n        /* \"#utility.yul\":5040:5157   */\n      iszero\n      tag_136\n      jumpi\n        /* \"#utility.yul\":5076:5155   */\n      tag_137\n      tag_44\n      jump\t// in\n    tag_137:\n        /* \"#utility.yul\":5040:5157   */\n    tag_136:\n        /* \"#utility.yul\":5181:5244   */\n      tag_138\n        /* \"#utility.yul\":5236:5243   */\n      dup6\n        /* \"#utility.yul\":5227:5233   */\n      dup3\n        /* \"#utility.yul\":5216:5225   */\n      dup7\n        /* \"#utility.yul\":5212:5234   */\n      add\n        /* \"#utility.yul\":5181:5244   */\n      tag_62\n      jump\t// in\n    tag_138:\n        /* \"#utility.yul\":5171:5244   */\n      swap2\n      pop\n        /* \"#utility.yul\":4966:5254   */\n      pop\n        /* \"#utility.yul\":4607:5261   */\n      swap3\n      pop\n      swap3\n      swap1\n      pop\n      jump\t// out\n        /* \"#utility.yul\":5267:5447   */\n    tag_23:\n        /* \"#utility.yul\":5315:5392   */\n      0x4e487b7100000000000000000000000000000000000000000000000000000000\n        /* \"#utility.yul\":5312:5313   */\n      0x00\n        /* \"#utility.yul\":5305:5393   */\n      mstore\n        /* \"#utility.yul\":5412:5416   */\n      0x32\n        /* \"#utility.yul\":5409:5410   */\n      0x04\n        /* \"#utility.yul\":5402:5417   */\n      mstore\n        /* \"#utility.yul\":5436:5440   */\n      0x24\n        /* \"#utility.yul\":5433:5434   */\n      0x00\n        /* \"#utility.yul\":5426:5441   */\n      revert\n        /* \"#utility.yul\":5453:5633   */\n    tag_63:\n        /* \"#utility.yul\":5501:5578   */\n      0x4e487b7100000000000000000000000000000000000000000000000000000000\n        /* \"#utility.yul\":5498:5499   */\n      0x00\n        /* \"#utility.yul\":5491:5579   */\n      mstore\n        /* \"#utility.yul\":5598:5602   */\n      0x22\n        /* \"#utility.yul\":5595:5596   */\n      0x04\n        /* \"#utility.yul\":5588:5603   */\n      mstore\n        /* \"#utility.yul\":5622:5626   */\n      0x24\n        /* \"#utility.yul\":5619:5620   */\n      0x00\n        /* \"#utility.yul\":5612:5627   */\n      revert\n        /* \"#utility.yul\":5639:5959   */\n    tag_26:\n        /* \"#utility.yul\":5683:5689   */\n      0x00\n        /* \"#utility.yul\":5720:5721   */\n      0x02\n        /* \"#utility.yul\":5714:5718   */\n      dup3\n        /* \"#utility.yul\":5710:5722   */\n      div\n        /* \"#utility.yul\":5700:5722   */\n      swap1\n      pop\n        /* \"#utility.yul\":5767:5768   */\n      0x01\n        /* \"#utility.yul\":5761:5765   */\n      dup3\n        /* \"#utility.yul\":5757:5769   */\n      and\n        /* \"#utility.yul\":5788:5806   */\n      dup1\n        /* \"#utility.yul\":5778:5859   */\n      tag_142\n      jumpi\n        /* \"#utility.yul\":5844:5848   */\n      0x7f\n        /* \"#utility.yul\":5836:5842   */\n      dup3\n        /* \"#utility.yul\":5832:5849   */\n      and\n        /* \"#utility.yul\":5822:5849   */\n      swap2\n      pop\n        /* \"#utility.yul\":5778:5859   */\n    tag_142:\n        /* \"#utility.yul\":5906:5908   */\n      0x20\n        /* \"#utility.yul\":5898:5904   */\n      dup3\n        /* \"#utility.yul\":5895:5909   */\n      lt\n        /* \"#utility.yul\":5875:5893   */\n      dup2\n        /* \"#utility.yul\":5872:5910   */\n      sub\n        /* \"#utility.yul\":5869:5953   */\n      tag_143\n      jumpi\n        /* \"#utility.yul\":5925:5943   */\n      tag_144\n      tag_63\n      jump\t// in\n    tag_144:\n        /* \"#utility.yul\":5869:5953   */\n    tag_143:\n        /* \"#utility.yul\":5690:5959   */\n      pop\n        /* \"#utility.yul\":5639:5959   */\n      swap2\n      swap1\n      pop\n      jump\t// out\n        /* \"#utility.yul\":5965:6106   */\n    tag_64:\n        /* \"#utility.yul\":6014:6018   */\n      0x00\n        /* \"#utility.yul\":6037:6040   */\n      dup2\n        /* \"#utility.yul\":6029:6040   */\n      swap1\n      pop\n        /* \"#utility.yul\":6060:6063   */\n      dup2\n        /* \"#utility.yul\":6057:6058   */\n      0x00\n        /* \"#utility.yul\":6050:6064   */\n      mstore\n        /* \"#utility.yul\":6094:6098   */\n      0x20\n        /* \"#utility.yul\":6091:6092   */\n      0x00\n        /* \"#utility.yul\":6081:6099   */\n      keccak256\n        /* \"#utility.yul\":6073:6099   */\n      swap1\n      pop\n        /* \"#utility.yul\":5965:6106   */\n      swap2\n      swap1\n      pop\n      jump\t// out\n        /* \"#utility.yul\":6112:6205   */\n    tag_65:\n        /* \"#utility.yul\":6149:6155   */\n      0x00\n        /* \"#utility.yul\":6196:6198   */\n      0x20\n        /* \"#utility.yul\":6191:6193   */\n      0x1f\n        /* \"#utility.yul\":6184:6189   */\n      dup4\n        /* \"#utility.yul\":6180:6194   */\n      add\n        /* \"#utility.yul\":6176:6199   */\n      div\n        /* \"#utility.yul\":6166:6199   */\n      swap1\n      pop\n        /* \"#utility.yul\":6112:6205   */\n      swap2\n      swap1\n      pop\n      jump\t// out\n        /* \"#utility.yul\":6211:6318   */\n    tag_66:\n        /* \"#utility.yul\":6255:6263   */\n      0x00\n        /* \"#utility.yul\":6305:6310   */\n      dup3\n        /* \"#utility.yul\":6299:6303   */\n      dup3\n        /* \"#utility.yul\":6295:6311   */\n      shl\n        /* \"#utility.yul\":6274:6311   */\n      swap1\n      pop\n        /* \"#utility.yul\":6211:6318   */\n      swap3\n      swap2\n      pop\n      pop\n      jump\t// out\n        /* \"#utility.yul\":6324:6717   */\n    tag_67:\n        /* \"#utility.yul\":6393:6399   */\n      0x00\n        /* \"#utility.yul\":6443:6444   */\n      0x08\n        /* \"#utility.yul\":6431:6441   */\n      dup4\n        /* \"#utility.yul\":6427:6445   */\n      mul\n        /* \"#utility.yul\":6466:6563   */\n      tag_149\n        /* \"#utility.yul\":6496:6562   */\n      0xffffffffffffffffffffffffffffffffffffffffffffffffffffffffffffffff\n        /* \"#utility.yul\":6485:6494   */\n      dup3\n        /* \"#utility.yul\":6466:6563   */\n      tag_66\n      jump\t// in\n    tag_149:\n        /* \"#utility.yul\":6584:6623   */\n      tag_150\n        /* \"#utility.yul\":6614:6622   */\n      dup7\n        /* \"#utility.yul\":6603:6612   */\n      dup4\n        /* \"#utility.yul\":6584:6623   */\n      tag_66\n      jump\t// in\n    tag_150:\n        /* \"#utility.yul\":6572:6623   */\n      swap6\n      pop\n        /* \"#utility.yul\":6656:6660   */\n      dup1\n        /* \"#utility.yul\":6652:6661   */\n      not\n        /* \"#utility.yul\":6645:6650   */\n      dup5\n        /* \"#utility.yul\":6641:6662   */\n      and\n        /* \"#utility.yul\":6632:6662   */\n      swap4\n      pop\n        /* \"#utility.yul\":6705:6709   */\n      dup1\n        /* \"#utility.yul\":6695:6703   */\n      dup7\n        /* \"#utility.yul\":6691:6710   */\n      and\n        /* \"#utility.yul\":6684:6689   */\n      dup5\n        /* \"#utility.yul\":6681:6711   */\n      or\n        /* \"#utility.yul\":6671:6711   */\n      swap3\n      pop\n        /* \"#utility.yul\":6400:6717   */\n      pop\n      pop\n        /* \"#utility.yul\":6324:6717   */\n      swap4\n      swap3\n      pop\n      pop\n      pop\n      jump\t// out\n        /* \"#utility.yul\":6723:6783   */\n    tag_68:\n        /* \"#utility.yul\":6751:6754   */\n      0x00\n        /* \"#utility.yul\":6772:6777   */\n      dup2\n        /* \"#utility.yul\":6765:6777   */\n      swap1\n      pop\n        /* \"#utility.yul\":6723:6783   */\n      swap2\n      swap1\n      pop\n      jump\t// out\n        /* \"#utility.yul\":6789:6931   */\n    tag_69:\n        /* \"#utility.yul\":6839:6848   */\n      0x00\n        /* \"#utility.yul\":6872:6925   */\n      tag_153\n        /* \"#utility.yul\":6890:6924   */\n      tag_154\n        /* \"#utility.yul\":6899:6923   */\n      tag_155\n        /* \"#utility.yul\":6917:6922   */\n      dup5\n        /* \"#utility.yul\":6899:6923   */\n      tag_45\n      jump\t// in\n    tag_155:\n        /* \"#utility.yul\":6890:6924   */\n      tag_68\n      jump\t// in\n    tag_154:\n        /* \"#utility.yul\":6872:6925   */\n      tag_45\n      jump\t// in\n    tag_153:\n        /* \"#utility.yul\":6859:6925   */\n      swap1\n      pop\n        /* \"#utility.yul\":6789:6931   */\n      swap2\n      swap1\n      pop\n      jump\t// out\n        /* \"#utility.yul\":6937:7012   */\n    tag_70:\n        /* \"#utility.yul\":6980:6983   */\n      0x00\n        /* \"#utility.yul\":7001:7006   */\n      dup2\n        /* \"#utility.yul\":6994:7006   */\n      swap1\n      pop\n        /* \"#utility.yul\":6937:7012   */\n      swap2\n      swap1\n      pop\n      jump\t// out\n        /* \"#utility.yul\":7018:7287   */\n    tag_71:\n        /* \"#utility.yul\":7128:7167   */\n      tag_158\n        /* \"#utility.yul\":7159:7166   */\n      dup4\n        /* \"#utility.yul\":7128:7167   */\n      tag_69\n      jump\t// in\n    tag_158:\n        /* \"#utility.yul\":7189:7280   */\n      tag_159\n        /* \"#utility.yul\":7238:7279   */\n      tag_160\n        /* \"#utility.yul\":7262:7278   */\n      dup3\n        /* \"#utility.yul\":7238:7279   */\n      tag_70\n      jump\t// in\n    tag_160:\n        /* \"#utility.yul\":7230:7236   */\n      dup5\n        /* \"#utility.yul\":7223:7227   */\n      dup5\n        /* \"#utility.yul\":7217:7228   */\n      sload\n        /* \"#utility.yul\":7189:7280   */\n      tag_67\n      jump\t// in\n    tag_159:\n        /* \"#utility.yul\":7183:7187   */\n      dup3\n        /* \"#utility.yul\":7176:7281   */\n      sstore\n        /* \"#utility.yul\":7094:7287   */\n      pop\n        /* \"#utility.yul\":7018:7287   */\n      pop\n      pop\n      pop\n      jump\t// out\n        /* \"#utility.yul\":7293:7366   */\n    tag_72:\n        /* \"#utility.yul\":7338:7341   */\n      0x00\n        /* \"#utility.yul\":7293:7366   */\n      swap1\n      jump\t// out\n        /* \"#utility.yul\":7372:7561   */\n    tag_73:\n        /* \"#utility.yul\":7449:7481   */\n      tag_163\n      tag_72\n      jump\t// in\n    tag_163:\n        /* \"#utility.yul\":7490:7555   */\n      tag_164\n        /* \"#utility.yul\":7548:7554   */\n      dup2\n        /* \"#utility.yul\":7540:7546   */\n      dup5\n        /* \"#utility.yul\":7534:7538   */\n      dup5\n        /* \"#utility.yul\":7490:7555   */\n      tag_71\n      jump\t// in\n    tag_164:\n        /* \"#utility.yul\":7425:7561   */\n      pop\n        /* \"#utility.yul\":7372:7561   */\n      pop\n      pop\n      jump\t// out\n        /* \"#utility.yul\":7567:7753   */\n    tag_74:\n        /* \"#utility.yul\":7627:7747   */\n    tag_166:\n        /* \"#utility.yul\":7644:7647   */\n      dup2\n        /* \"#utility.yul\":7637:7642   */\n      dup2\n        /* \"#utility.yul\":7634:7648   */\n      lt\n        /* \"#utility.yul\":7627:7747   */\n      iszero\n      tag_168\n      jumpi\n        /* \"#utility.yul\":7698:7737   */\n      tag_169\n        /* \"#utility.yul\":7735:7736   */\n      0x00\n        /* \"#utility.yul\":7728:7733   */\n      dup3\n        /* \"#utility.yul\":7698:7737   */\n      tag_73\n      jump\t// in\n    tag_169:\n        /* \"#utility.yul\":7671:7672   */\n      0x01\n        /* \"#utility.yul\":7664:7669   */\n      dup2\n        /* \"#utility.yul\":7660:7673   */\n      add\n        /* \"#utility.yul\":7651:7673   */\n      swap1\n      pop\n        /* \"#utility.yul\":7627:7747   */\n      jump(tag_166)\n    tag_168:\n        /* \"#utility.yul\":7567:7753   */\n      pop\n      pop\n      jump\t// out\n        /* \"#utility.yul\":7759:8302   */\n    tag_75:\n        /* \"#utility.yul\":7860:7862   */\n      0x1f\n        /* \"#utility.yul\":7855:7858   */\n      dup3\n        /* \"#utility.yul\":7852:7863   */\n      gt\n        /* \"#utility.yul\":7849:8295   */\n      iszero\n      tag_171\n      jumpi\n        /* \"#utility.yul\":7894:7932   */\n      tag_172\n        /* \"#utility.yul\":7926:7931   */\n      dup2\n        /* \"#utility.yul\":7894:7932   */\n      tag_64\n      jump\t// in\n    tag_172:\n        /* \"#utility.yul\":7978:8007   */\n      tag_173\n        /* \"#utility.yul\":7996:8006   */\n      dup5\n        /* \"#utility.yul\":7978:8007   */\n      tag_65\n      jump\t// in\n    tag_173:\n        /* \"#utility.yul\":7968:7976   */\n      dup2\n        /* \"#utility.yul\":7964:8008   */\n      add\n        /* \"#utility.yul\":8161:8163   */\n      0x20\n        /* \"#utility.yul\":8149:8159   */\n      dup6\n        /* \"#utility.yul\":8146:8164   */\n      lt\n        /* \"#utility.yul\":8143:8192   */\n      iszero\n      tag_174\n      jumpi\n        /* \"#utility.yul\":8182:8190   */\n      dup2\n        /* \"#utility.yul\":8167:8190   */\n      swap1\n      pop\n        /* \"#utility.yul\":8143:8192   */\n    tag_174:\n        /* \"#utility.yul\":8205:8285   */\n      tag_175\n        /* \"#utility.yul\":8261:8283   */\n      tag_176\n        /* \"#utility.yul\":8279:8282   */\n      dup6\n        /* \"#utility.yul\":8261:8283   */\n      tag_65\n      jump\t// in\n    tag_176:\n        /* \"#utility.yul\":8251:8259   */\n      dup4\n        /* \"#utility.yul\":8247:8284   */\n      add\n        /* \"#utility.yul\":8234:8245   */\n      dup3\n        /* \"#utility.yul\":8205:8285   */\n      tag_74\n      jump\t// in\n    tag_175:\n        /* \"#utility.yul\":7864:8295   */\n      pop\n      pop\n        /* \"#utility.yul\":7849:8295   */\n    tag_171:\n        /* \"#utility.yul\":7759:8302   */\n      pop\n      pop\n      pop\n      jump\t// out\n        /* \"#utility.yul\":8308:8425   */\n    tag_76:\n        /* \"#utility.yul\":8362:8370   */\n      0x00\n        /* \"#utility.yul\":8412:8417   */\n      dup3\n        /* \"#utility.yul\":8406:8410   */\n      dup3\n        /* \"#utility.yul\":8402:8418   */\n      shr\n        /* \"#utility.yul\":8381:8418   */\n      swap1\n      pop\n        /* \"#utility.yul\":8308:8425   */\n      swap3\n      swap2\n      pop\n      pop\n      jump\t// out\n        /* \"#utility.yul\":8431:8600   */\n    tag_77:\n        /* \"#utility.yul\":8475:8481   */\n      0x00\n        /* \"#utility.yul\":8508:8559   */\n      tag_179\n        /* \"#utility.yul\":8556:8557   */\n      0x00\n        /* \"#utility.yul\":8552:8558   */\n      not\n        /* \"#utility.yul\":8544:8549   */\n      dup5\n        /* \"#utility.yul\":8541:8542   */\n      0x08\n        /* \"#utility.yul\":8537:8550   */\n      mul\n        /* \"#utility.yul\":8508:8559   */\n      tag_76\n      jump\t// in\n    tag_179:\n        /* \"#utility.yul\":8504:8560   */\n      not\n        /* \"#utility.yul\":8589:8593   */\n      dup1\n        /* \"#utility.yul\":8583:8587   */\n      dup4\n        /* \"#utility.yul\":8579:8594   */\n      and\n        /* \"#utility.yul\":8569:8594   */\n      swap2\n      pop\n        /* \"#utility.yul\":8482:8600   */\n      pop\n        /* \"#utility.yul\":8431:8600   */\n      swap3\n      swap2\n      pop\n      pop\n      jump\t// out\n        /* \"#utility.yul\":8605:8900   */\n    tag_78:\n        /* \"#utility.yul\":8681:8685   */\n      0x00\n        /* \"#utility.yul\":8827:8856   */\n      tag_181\n        /* \"#utility.yul\":8852:8855   */\n      dup4\n        /* \"#utility.yul\":8846:8850   */\n      dup4\n        /* \"#utility.yul\":8827:8856   */\n      tag_77\n      jump\t// in\n    tag_181:\n        /* \"#utility.yul\":8819:8856   */\n      swap2\n      pop\n        /* \"#utility.yul\":8889:8892   */\n      dup3\n        /* \"#utility.yul\":8886:8887   */\n      0x02\n        /* \"#utility.yul\":8882:8893   */\n      mul\n        /* \"#utility.yul\":8876:8880   */\n      dup3\n        /* \"#utility.yul\":8873:8894   */\n      or\n        /* \"#utility.yul\":8865:8894   */\n      swap1\n      pop\n        /* \"#utility.yul\":8605:8900   */\n      swap3\n      swap2\n      pop\n      pop\n      jump\t// out\n        /* \"#utility.yul\":8905:10300   */\n    tag_34:\n        /* \"#utility.yul\":9022:9059   */\n      tag_183\n        /* \"#utility.yul\":9055:9058   */\n      dup3\n        /* \"#utility.yul\":9022:9059   */\n      tag_49\n      jump\t// in\n    tag_183:\n        /* \"#utility.yul\":9124:9142   */\n      0xffffffffffffffff\n        /* \"#utility.yul\":9116:9122   */\n      dup2\n        /* \"#utility.yul\":9113:9143   */\n      gt\n        /* \"#utility.yul\":9110:9166   */\n      iszero\n      tag_184\n      jumpi\n        /* \"#utility.yul\":9146:9164   */\n      tag_185\n      tag_56\n      jump\t// in\n    tag_185:\n        /* \"#utility.yul\":9110:9166   */\n    tag_184:\n        /* \"#utility.yul\":9190:9228   */\n      tag_186\n        /* \"#utility.yul\":9222:9226   */\n      dup3\n        /* \"#utility.yul\":9216:9227   */\n      sload\n        /* \"#utility.yul\":9190:9228   */\n      tag_26\n      jump\t// in\n    tag_186:\n        /* \"#utility.yul\":9275:9342   */\n      tag_187\n        /* \"#utility.yul\":9335:9341   */\n      dup3\n        /* \"#utility.yul\":9327:9333   */\n      dup3\n        /* \"#utility.yul\":9321:9325   */\n      dup6\n        /* \"#utility.yul\":9275:9342   */\n      tag_75\n      jump\t// in\n    tag_187:\n        /* \"#utility.yul\":9369:9370   */\n      0x00\n        /* \"#utility.yul\":9393:9397   */\n      0x20\n        /* \"#utility.yul\":9380:9397   */\n      swap1\n      pop\n        /* \"#utility.yul\":9425:9427   */\n      0x1f\n        /* \"#utility.yul\":9417:9423   */\n      dup4\n        /* \"#utility.yul\":9414:9428   */\n      gt\n        /* \"#utility.yul\":9442:9443   */\n      0x01\n        /* \"#utility.yul\":9437:10055   */\n      dup2\n      eq\n      tag_189\n      jumpi\n        /* \"#utility.yul\":10099:10100   */\n      0x00\n        /* \"#utility.yul\":10116:10122   */\n      dup5\n        /* \"#utility.yul\":10113:10190   */\n      iszero\n      tag_190\n      jumpi\n        /* \"#utility.yul\":10165:10174   */\n      dup3\n        /* \"#utility.yul\":10160:10163   */\n      dup8\n        /* \"#utility.yul\":10156:10175   */\n      add\n        /* \"#utility.yul\":10150:10176   */\n      mload\n        /* \"#utility.yul\":10141:10176   */\n      swap1\n      pop\n        /* \"#utility.yul\":10113:10190   */\n    tag_190:\n        /* \"#utility.yul\":10216:10283   */\n      tag_191\n        /* \"#utility.yul\":10276:10282   */\n      dup6\n        /* \"#utility.yul\":10269:10274   */\n      dup3\n        /* \"#utility.yul\":10216:10283   */\n      tag_78\n      jump\t// in\n    tag_191:\n        /* \"#utility.yul\":10210:10214   */\n      dup7\n        /* \"#utility.yul\":10203:10284   */\n      sstore\n        /* \"#utility.yul\":10072:10294   */\n      pop\n        /* \"#utility.yul\":9407:10294   */\n      jump(tag_188)\n        /* \"#utility.yul\":9437:10055   */\n    tag_189:\n        /* \"#utility.yul\":9489:9493   */\n      0x1f\n        /* \"#utility.yul\":9485:9494   */\n      not\n        /* \"#utility.yul\":9477:9483   */\n      dup5\n        /* \"#utility.yul\":9473:9495   */\n      and\n        /* \"#utility.yul\":9523:9560   */\n      tag_192\n        /* \"#utility.yul\":9555:9559   */\n      dup7\n        /* \"#utility.yul\":9523:9560   */\n      tag_64\n      jump\t// in\n    tag_192:\n        /* \"#utility.yul\":9582:9583   */\n      0x00\n        /* \"#utility.yul\":9596:9804   */\n    tag_193:\n        /* \"#utility.yul\":9610:9617   */\n      dup3\n        /* \"#utility.yul\":9607:9608   */\n      dup2\n        /* \"#utility.yul\":9604:9618   */\n      lt\n        /* \"#utility.yul\":9596:9804   */\n      iszero\n      tag_195\n      jumpi\n        /* \"#utility.yul\":9689:9698   */\n      dup5\n        /* \"#utility.yul\":9684:9687   */\n      dup10\n        /* \"#utility.yul\":9680:9699   */\n      add\n        /* \"#utility.yul\":9674:9700   */\n      mload\n        /* \"#utility.yul\":9666:9672   */\n      dup3\n        /* \"#utility.yul\":9659:9701   */\n      sstore\n        /* \"#utility.yul\":9740:9741   */\n      0x01\n        /* \"#utility.yul\":9732:9738   */\n      dup3\n        /* \"#utility.yul\":9728:9742   */\n      add\n        /* \"#utility.yul\":9718:9742   */\n      swap2\n      pop\n        /* \"#utility.yul\":9787:9789   */\n      0x20\n        /* \"#utility.yul\":9776:9785   */\n      dup6\n        /* \"#utility.yul\":9772:9790   */\n      add\n        /* \"#utility.yul\":9759:9790   */\n      swap5\n      pop\n        /* \"#utility.yul\":9633:9637   */\n      0x20\n        /* \"#utility.yul\":9630:9631   */\n      dup2\n        /* \"#utility.yul\":9626:9638   */\n      add\n        /* \"#utility.yul\":9621:9638   */\n      swap1\n      pop\n        /* \"#utility.yul\":9596:9804   */\n      jump(tag_193)\n    tag_195:\n        /* \"#utility.yul\":9832:9838   */\n      dup7\n        /* \"#utility.yul\":9823:9830   */\n      dup4\n        /* \"#utility.yul\":9820:9839   */\n      lt\n        /* \"#utility.yul\":9817:9996   */\n      iszero\n      tag_196\n      jumpi\n        /* \"#utility.yul\":9890:9899   */\n      dup5\n        /* \"#utility.yul\":9885:9888   */\n      dup10\n        /* \"#utility.yul\":9881:9900   */\n      add\n        /* \"#utility.yul\":9875:9901   */\n      mload\n        /* \"#utility.yul\":9933:9981   */\n      tag_197\n        /* \"#utility.yul\":9975:9979   */\n      0x1f\n        /* \"#utility.yul\":9967:9973   */\n      dup10\n        /* \"#utility.yul\":9963:9980   */\n      and\n        /* \"#utility.yul\":9952:9961   */\n      dup3\n        /* \"#utility.yul\":9933:9981   */\n      tag_77\n      jump\t// in\n    tag_197:\n        /* \"#utility.yul\":9925:9931   */\n      dup4\n        /* \"#utility.yul\":9918:9982   */\n      sstore\n        /* \"#utility.yul\":9840:9996   */\n      pop\n        /* \"#utility.yul\":9817:9996   */\n    tag_196:\n        /* \"#utility.yul\":10042:10043   */\n      0x01\n        /* \"#utility.yul\":10038:10039   */\n      0x02\n        /* \"#utility.yul\":10030:10036   */\n      dup9\n        /* \"#utility.yul\":10026:10040   */\n      mul\n        /* \"#utility.yul\":10022:10044   */\n      add\n        /* \"#utility.yul\":10016:10020   */\n      dup9\n        /* \"#utility.yul\":10009:10045   */\n      sstore\n        /* \"#utility.yul\":9444:10055   */\n      pop\n      pop\n      pop\n        /* \"#utility.yul\":9407:10294   */\n    tag_188:\n      pop\n        /* \"#utility.yul\":8997:10300   */\n      pop\n      pop\n      pop\n        /* \"#utility.yul\":8905:10300   */\n      pop\n      pop\n      jump\t// out\n\n    auxdata: 0xa26469706673582212202f6d2b5cafafdfd56e0d3ee81baef16d1880d5be7a15e2834c4cc65d870e114d64736f6c634300081a0033\n}\n",
				"bytecode": {
					"linkReferences": {},
					"object": "6080604052348015600e575f80fd5b506108848061001c5f395ff3fe608060405234801561000f575f80fd5b506004361061003f575f3560e01c80634d0392a814610043578063640670dd14610074578063e28756b414610090575b5f80fd5b61005d600480360381019061005891906102fa565b6100c1565b60405161006b9291906103a4565b60405180910390f35b61008e600480360381019061008991906104fe565b61019d565b005b6100aa60048036038101906100a591906102fa565b610202565b6040516100b89291906103a4565b60405180910390f35b5f60605f8084815481106100d8576100d7610558565b5b905f5260205f2090600202016040518060400160405290815f8201548152602001600182018054610108906105b2565b80601f0160208091040260200160405190810160405280929190818152602001828054610134906105b2565b801561017f5780601f106101565761010080835404028352916020019161017f565b820191905f5260205f20905b81548152906001019060200180831161016257829003601f168201915b5050505050815250509050805f015181602001519250925050915091565b5f60405180604001604052808481526020018381525090505f81908060018154018082558091505060019003905f5260205f2090600202015f909190919091505f820151815f015560208201518160010190816101fa919061077f565b505050505050565b5f8181548110610210575f80fd5b905f5260205f2090600202015f91509050805f015490806001018054610235906105b2565b80601f0160208091040260200160405190810160405280929190818152602001828054610261906105b2565b80156102ac5780601f10610283576101008083540402835291602001916102ac565b820191905f5260205f20905b81548152906001019060200180831161028f57829003601f168201915b5050505050905082565b5f604051905090565b5f80fd5b5f80fd5b5f819050919050565b6102d9816102c7565b81146102e3575f80fd5b50565b5f813590506102f4816102d0565b92915050565b5f6020828403121561030f5761030e6102bf565b5b5f61031c848285016102e6565b91505092915050565b61032e816102c7565b82525050565b5f81519050919050565b5f82825260208201905092915050565b8281835e5f83830152505050565b5f601f19601f8301169050919050565b5f61037682610334565b610380818561033e565b935061039081856020860161034e565b6103998161035c565b840191505092915050565b5f6040820190506103b75f830185610325565b81810360208301526103c9818461036c565b90509392505050565b5f80fd5b5f80fd5b7f4e487b71000000000000000000000000000000000000000000000000000000005f52604160045260245ffd5b6104108261035c565b810181811067ffffffffffffffff8211171561042f5761042e6103da565b5b80604052505050565b5f6104416102b6565b905061044d8282610407565b919050565b5f67ffffffffffffffff82111561046c5761046b6103da565b5b6104758261035c565b9050602081019050919050565b828183375f83830152505050565b5f6104a261049d84610452565b610438565b9050828152602081018484840111156104be576104bd6103d6565b5b6104c9848285610482565b509392505050565b5f82601f8301126104e5576104e46103d2565b5b81356104f5848260208601610490565b91505092915050565b5f8060408385031215610514576105136102bf565b5b5f610521858286016102e6565b925050602083013567ffffffffffffffff811115610542576105416102c3565b5b61054e858286016104d1565b9150509250929050565b7f4e487b71000000000000000000000000000000000000000000000000000000005f52603260045260245ffd5b7f4e487b71000000000000000000000000000000000000000000000000000000005f52602260045260245ffd5b5f60028204905060018216806105c957607f821691505b6020821081036105dc576105db610585565b5b50919050565b5f819050815f5260205f209050919050565b5f6020601f8301049050919050565b5f82821b905092915050565b5f6008830261063e7fffffffffffffffffffffffffffffffffffffffffffffffffffffffffffffffff82610603565b6106488683610603565b95508019841693508086168417925050509392505050565b5f819050919050565b5f61068361067e610679846102c7565b610660565b6102c7565b9050919050565b5f819050919050565b61069c83610669565b6106b06106a88261068a565b84845461060f565b825550505050565b5f90565b6106c46106b8565b6106cf818484610693565b505050565b5b818110156106f2576106e75f826106bc565b6001810190506106d5565b5050565b601f82111561073757610708816105e2565b610711846105f4565b81016020851015610720578190505b61073461072c856105f4565b8301826106d4565b50505b505050565b5f82821c905092915050565b5f6107575f198460080261073c565b1980831691505092915050565b5f61076f8383610748565b9150826002028217905092915050565b61078882610334565b67ffffffffffffffff8111156107a1576107a06103da565b5b6107ab82546105b2565b6107b68282856106f6565b5f60209050601f8311600181146107e7575f84156107d5578287015190505b6107df8582610764565b865550610846565b601f1984166107f5866105e2565b5f5b8281101561081c578489015182556001820191506020850194506020810190506107f7565b868310156108395784890151610835601f891682610748565b8355505b6001600288020188555050505b50505050505056fea26469706673582212202f6d2b5cafafdfd56e0d3ee81baef16d1880d5be7a15e2834c4cc65d870e114d64736f6c634300081a0033",
					"opcodes": "PUSH1 0x80 PUSH1 0x40 MSTORE CALLVALUE DUP1 ISZERO PUSH1 0xE JUMPI PUSH0 DUP1 REVERT JUMPDEST POP PUSH2 0x884 DUP1 PUSH2 0x1C PUSH0 CODECOPY PUSH0 RETURN INVALID PUSH1 0x80 PUSH1 0x40 MSTORE CALLVALUE DUP1 ISZERO PUSH2 0xF JUMPI PUSH0 DUP1 REVERT JUMPDEST POP PUSH1 0x4 CALLDATASIZE LT PUSH2 0x3F JUMPI PUSH0 CALLDATALOAD PUSH1 0xE0 SHR DUP1 PUSH4 0x4D0392A8 EQ PUSH2 0x43 JUMPI DUP1 PUSH4 0x640670DD EQ PUSH2 0x74 JUMPI DUP1 PUSH4 0xE28756B4 EQ PUSH2 0x90 JUMPI JUMPDEST PUSH0 DUP1 REVERT JUMPDEST PUSH2 0x5D PUSH1 0x4 DUP1 CALLDATASIZE SUB DUP2 ADD SWAP1 PUSH2 0x58 SWAP2 SWAP1 PUSH2 0x2FA JUMP JUMPDEST PUSH2 0xC1 JUMP JUMPDEST PUSH1 0x40 MLOAD PUSH2 0x6B SWAP3 SWAP2 SWAP1 PUSH2 0x3A4 JUMP JUMPDEST PUSH1 0x40 MLOAD DUP1 SWAP2 SUB SWAP1 RETURN JUMPDEST PUSH2 0x8E PUSH1 0x4 DUP1 CALLDATASIZE SUB DUP2 ADD SWAP1 PUSH2 0x89 SWAP2 SWAP1 PUSH2 0x4FE JUMP JUMPDEST PUSH2 0x19D JUMP JUMPDEST STOP JUMPDEST PUSH2 0xAA PUSH1 0x4 DUP1 CALLDATASIZE SUB DUP2 ADD SWAP1 PUSH2 0xA5 SWAP2 SWAP1 PUSH2 0x2FA JUMP JUMPDEST PUSH2 0x202 JUMP JUMPDEST PUSH1 0x40 MLOAD PUSH2 0xB8 SWAP3 SWAP2 SWAP1 PUSH2 0x3A4 JUMP JUMPDEST PUSH1 0x40 MLOAD DUP1 SWAP2 SUB SWAP1 RETURN JUMPDEST PUSH0 PUSH1 0x60 PUSH0 DUP1 DUP5 DUP2 SLOAD DUP2 LT PUSH2 0xD8 JUMPI PUSH2 0xD7 PUSH2 0x558 JUMP JUMPDEST JUMPDEST SWAP1 PUSH0 MSTORE PUSH1 0x20 PUSH0 KECCAK256 SWAP1 PUSH1 0x2 MUL ADD PUSH1 0x40 MLOAD DUP1 PUSH1 0x40 ADD PUSH1 0x40 MSTORE SWAP1 DUP2 PUSH0 DUP3 ADD SLOAD DUP2 MSTORE PUSH1 0x20 ADD PUSH1 0x1 DUP3 ADD DUP1 SLOAD PUSH2 0x108 SWAP1 PUSH2 0x5B2 JUMP JUMPDEST DUP1 PUSH1 0x1F ADD PUSH1 0x20 DUP1 SWAP2 DIV MUL PUSH1 0x20 ADD PUSH1 0x40 MLOAD SWAP1 DUP2 ADD PUSH1 0x40 MSTORE DUP1 SWAP3 SWAP2 SWAP1 DUP2 DUP2 MSTORE PUSH1 0x20 ADD DUP3 DUP1 SLOAD PUSH2 0x134 SWAP1 PUSH2 0x5B2 JUMP JUMPDEST DUP1 ISZERO PUSH2 0x17F JUMPI DUP1 PUSH1 0x1F LT PUSH2 0x156 JUMPI PUSH2 0x100 DUP1 DUP4 SLOAD DIV MUL DUP4 MSTORE SWAP2 PUSH1 0x20 ADD SWAP2 PUSH2 0x17F JUMP JUMPDEST DUP3 ADD SWAP2 SWAP1 PUSH0 MSTORE PUSH1 0x20 PUSH0 KECCAK256 SWAP1 JUMPDEST DUP2 SLOAD DUP2 MSTORE SWAP1 PUSH1 0x1 ADD SWAP1 PUSH1 0x20 ADD DUP1 DUP4 GT PUSH2 0x162 JUMPI DUP3 SWAP1 SUB PUSH1 0x1F AND DUP3 ADD SWAP2 JUMPDEST POP POP POP POP POP DUP2 MSTORE POP POP SWAP1 POP DUP1 PUSH0 ADD MLOAD DUP2 PUSH1 0x20 ADD MLOAD SWAP3 POP SWAP3 POP POP SWAP2 POP SWAP2 JUMP JUMPDEST PUSH0 PUSH1 0x40 MLOAD DUP1 PUSH1 0x40 ADD PUSH1 0x40 MSTORE DUP1 DUP5 DUP2 MSTORE PUSH1 0x20 ADD DUP4 DUP2 MSTORE POP SWAP1 POP PUSH0 DUP2 SWAP1 DUP1 PUSH1 0x1 DUP2 SLOAD ADD DUP1 DUP3 SSTORE DUP1 SWAP2 POP POP PUSH1 0x1 SWAP1 SUB SWAP1 PUSH0 MSTORE PUSH1 0x20 PUSH0 KECCAK256 SWAP1 PUSH1 0x2 MUL ADD PUSH0 SWAP1 SWAP2 SWAP1 SWAP2 SWAP1 SWAP2 POP PUSH0 DUP3 ADD MLOAD DUP2 PUSH0 ADD SSTORE PUSH1 0x20 DUP3 ADD MLOAD DUP2 PUSH1 0x1 ADD SWAP1 DUP2 PUSH2 0x1FA SWAP2 SWAP1 PUSH2 0x77F JUMP JUMPDEST POP POP POP POP POP POP JUMP JUMPDEST PUSH0 DUP2 DUP2 SLOAD DUP2 LT PUSH2 0x210 JUMPI PUSH0 DUP1 REVERT JUMPDEST SWAP1 PUSH0 MSTORE PUSH1 0x20 PUSH0 KECCAK256 SWAP1 PUSH1 0x2 MUL ADD PUSH0 SWAP2 POP SWAP1 POP DUP1 PUSH0 ADD SLOAD SWAP1 DUP1 PUSH1 0x1 ADD DUP1 SLOAD PUSH2 0x235 SWAP1 PUSH2 0x5B2 JUMP JUMPDEST DUP1 PUSH1 0x1F ADD PUSH1 0x20 DUP1 SWAP2 DIV MUL PUSH1 0x20 ADD PUSH1 0x40 MLOAD SWAP1 DUP2 ADD PUSH1 0x40 MSTORE DUP1 SWAP3 SWAP2 SWAP1 DUP2 DUP2 MSTORE PUSH1 0x20 ADD DUP3 DUP1 SLOAD PUSH2 0x261 SWAP1 PUSH2 0x5B2 JUMP JUMPDEST DUP1 ISZERO PUSH2 0x2AC JUMPI DUP1 PUSH1 0x1F LT PUSH2 0x283 JUMPI PUSH2 0x100 DUP1 DUP4 SLOAD DIV MUL DUP4 MSTORE SWAP2 PUSH1 0x20 ADD SWAP2 PUSH2 0x2AC JUMP JUMPDEST DUP3 ADD SWAP2 SWAP1 PUSH0 MSTORE PUSH1 0x20 PUSH0 KECCAK256 SWAP1 JUMPDEST DUP2 SLOAD DUP2 MSTORE SWAP1 PUSH1 0x1 ADD SWAP1 PUSH1 0x20 ADD DUP1 DUP4 GT PUSH2 0x28F JUMPI DUP3 SWAP1 SUB PUSH1 0x1F AND DUP3 ADD SWAP2 JUMPDEST POP POP POP POP POP SWAP1 POP DUP3 JUMP JUMPDEST PUSH0 PUSH1 0x40 MLOAD SWAP1 POP SWAP1 JUMP JUMPDEST PUSH0 DUP1 REVERT JUMPDEST PUSH0 DUP1 REVERT JUMPDEST PUSH0 DUP2 SWAP1 POP SWAP2 SWAP1 POP JUMP JUMPDEST PUSH2 0x2D9 DUP2 PUSH2 0x2C7 JUMP JUMPDEST DUP2 EQ PUSH2 0x2E3 JUMPI PUSH0 DUP1 REVERT JUMPDEST POP JUMP JUMPDEST PUSH0 DUP2 CALLDATALOAD SWAP1 POP PUSH2 0x2F4 DUP2 PUSH2 0x2D0 JUMP JUMPDEST SWAP3 SWAP2 POP POP JUMP JUMPDEST PUSH0 PUSH1 0x20 DUP3 DUP5 SUB SLT ISZERO PUSH2 0x30F JUMPI PUSH2 0x30E PUSH2 0x2BF JUMP JUMPDEST JUMPDEST PUSH0 PUSH2 0x31C DUP5 DUP3 DUP6 ADD PUSH2 0x2E6 JUMP JUMPDEST SWAP2 POP POP SWAP3 SWAP2 POP POP JUMP JUMPDEST PUSH2 0x32E DUP2 PUSH2 0x2C7 JUMP JUMPDEST DUP3 MSTORE POP POP JUMP JUMPDEST PUSH0 DUP2 MLOAD SWAP1 POP SWAP2 SWAP1 POP JUMP JUMPDEST PUSH0 DUP3 DUP3 MSTORE PUSH1 0x20 DUP3 ADD SWAP1 POP SWAP3 SWAP2 POP POP JUMP JUMPDEST DUP3 DUP2 DUP4 MCOPY PUSH0 DUP4 DUP4 ADD MSTORE POP POP POP JUMP JUMPDEST PUSH0 PUSH1 0x1F NOT PUSH1 0x1F DUP4 ADD AND SWAP1 POP SWAP2 SWAP1 POP JUMP JUMPDEST PUSH0 PUSH2 0x376 DUP3 PUSH2 0x334 JUMP JUMPDEST PUSH2 0x380 DUP2 DUP6 PUSH2 0x33E JUMP JUMPDEST SWAP4 POP PUSH2 0x390 DUP2 DUP6 PUSH1 0x20 DUP7 ADD PUSH2 0x34E JUMP JUMPDEST PUSH2 0x399 DUP2 PUSH2 0x35C JUMP JUMPDEST DUP5 ADD SWAP2 POP POP SWAP3 SWAP2 POP POP JUMP JUMPDEST PUSH0 PUSH1 0x40 DUP3 ADD SWAP1 POP PUSH2 0x3B7 PUSH0 DUP4 ADD DUP6 PUSH2 0x325 JUMP JUMPDEST DUP2 DUP2 SUB PUSH1 0x20 DUP4 ADD MSTORE PUSH2 0x3C9 DUP2 DUP5 PUSH2 0x36C JUMP JUMPDEST SWAP1 POP SWAP4 SWAP3 POP POP POP JUMP JUMPDEST PUSH0 DUP1 REVERT JUMPDEST PUSH0 DUP1 REVERT JUMPDEST PUSH32 0x4E487B7100000000000000000000000000000000000000000000000000000000 PUSH0 MSTORE PUSH1 0x41 PUSH1 0x4 MSTORE PUSH1 0x24 PUSH0 REVERT JUMPDEST PUSH2 0x410 DUP3 PUSH2 0x35C JUMP JUMPDEST DUP2 ADD DUP2 DUP2 LT PUSH8 0xFFFFFFFFFFFFFFFF DUP3 GT OR ISZERO PUSH2 0x42F JUMPI PUSH2 0x42E PUSH2 0x3DA JUMP JUMPDEST JUMPDEST DUP1 PUSH1 0x40 MSTORE POP POP POP JUMP JUMPDEST PUSH0 PUSH2 0x441 PUSH2 0x2B6 JUMP JUMPDEST SWAP1 POP PUSH2 0x44D DUP3 DUP3 PUSH2 0x407 JUMP JUMPDEST SWAP2 SWAP1 POP JUMP JUMPDEST PUSH0 PUSH8 0xFFFFFFFFFFFFFFFF DUP3 GT ISZERO PUSH2 0x46C JUMPI PUSH2 0x46B PUSH2 0x3DA JUMP JUMPDEST JUMPDEST PUSH2 0x475 DUP3 PUSH2 0x35C JUMP JUMPDEST SWAP1 POP PUSH1 0x20 DUP2 ADD SWAP1 POP SWAP2 SWAP1 POP JUMP JUMPDEST DUP3 DUP2 DUP4 CALLDATACOPY PUSH0 DUP4 DUP4 ADD MSTORE POP POP POP JUMP JUMPDEST PUSH0 PUSH2 0x4A2 PUSH2 0x49D DUP5 PUSH2 0x452 JUMP JUMPDEST PUSH2 0x438 JUMP JUMPDEST SWAP1 POP DUP3 DUP2 MSTORE PUSH1 0x20 DUP2 ADD DUP5 DUP5 DUP5 ADD GT ISZERO PUSH2 0x4BE JUMPI PUSH2 0x4BD PUSH2 0x3D6 JUMP JUMPDEST JUMPDEST PUSH2 0x4C9 DUP5 DUP3 DUP6 PUSH2 0x482 JUMP JUMPDEST POP SWAP4 SWAP3 POP POP POP JUMP JUMPDEST PUSH0 DUP3 PUSH1 0x1F DUP4 ADD SLT PUSH2 0x4E5 JUMPI PUSH2 0x4E4 PUSH2 0x3D2 JUMP JUMPDEST JUMPDEST DUP2 CALLDATALOAD PUSH2 0x4F5 DUP5 DUP3 PUSH1 0x20 DUP7 ADD PUSH2 0x490 JUMP JUMPDEST SWAP2 POP POP SWAP3 SWAP2 POP POP JUMP JUMPDEST PUSH0 DUP1 PUSH1 0x40 DUP4 DUP6 SUB SLT ISZERO PUSH2 0x514 JUMPI PUSH2 0x513 PUSH2 0x2BF JUMP JUMPDEST JUMPDEST PUSH0 PUSH2 0x521 DUP6 DUP3 DUP7 ADD PUSH2 0x2E6 JUMP JUMPDEST SWAP3 POP POP PUSH1 0x20 DUP4 ADD CALLDATALOAD PUSH8 0xFFFFFFFFFFFFFFFF DUP2 GT ISZERO PUSH2 0x542 JUMPI PUSH2 0x541 PUSH2 0x2C3 JUMP JUMPDEST JUMPDEST PUSH2 0x54E DUP6 DUP3 DUP7 ADD PUSH2 0x4D1 JUMP JUMPDEST SWAP2 POP POP SWAP3 POP SWAP3 SWAP1 POP JUMP JUMPDEST PUSH32 0x4E487B7100000000000000000000000000000000000000000000000000000000 PUSH0 MSTORE PUSH1 0x32 PUSH1 0x4 MSTORE PUSH1 0x24 PUSH0 REVERT JUMPDEST PUSH32 0x4E487B7100000000000000000000000000000000000000000000000000000000 PUSH0 MSTORE PUSH1 0x22 PUSH1 0x4 MSTORE PUSH1 0x24 PUSH0 REVERT JUMPDEST PUSH0 PUSH1 0x2 DUP3 DIV SWAP1 POP PUSH1 0x1 DUP3 AND DUP1 PUSH2 0x5C9 JUMPI PUSH1 0x7F DUP3 AND SWAP2 POP JUMPDEST PUSH1 0x20 DUP3 LT DUP2 SUB PUSH2 0x5DC JUMPI PUSH2 0x5DB PUSH2 0x585 JUMP JUMPDEST JUMPDEST POP SWAP2 SWAP1 POP JUMP JUMPDEST PUSH0 DUP2 SWAP1 POP DUP2 PUSH0 MSTORE PUSH1 0x20 PUSH0 KECCAK256 SWAP1 POP SWAP2 SWAP1 POP JUMP JUMPDEST PUSH0 PUSH1 0x20 PUSH1 0x1F DUP4 ADD DIV SWAP1 POP SWAP2 SWAP1 POP JUMP JUMPDEST PUSH0 DUP3 DUP3 SHL SWAP1 POP SWAP3 SWAP2 POP POP JUMP JUMPDEST PUSH0 PUSH1 0x8 DUP4 MUL PUSH2 0x63E PUSH32 0xFFFFFFFFFFFFFFFFFFFFFFFFFFFFFFFFFFFFFFFFFFFFFFFFFFFFFFFFFFFFFFFF DUP3 PUSH2 0x603 JUMP JUMPDEST PUSH2 0x648 DUP7 DUP4 PUSH2 0x603 JUMP JUMPDEST SWAP6 POP DUP1 NOT DUP5 AND SWAP4 POP DUP1 DUP7 AND DUP5 OR SWAP3 POP POP POP SWAP4 SWAP3 POP POP POP JUMP JUMPDEST PUSH0 DUP2 SWAP1 POP SWAP2 SWAP1 POP JUMP JUMPDEST PUSH0 PUSH2 0x683 PUSH2 0x67E PUSH2 0x679 DUP5 PUSH2 0x2C7 JUMP JUMPDEST PUSH2 0x660 JUMP JUMPDEST PUSH2 0x2C7 JUMP JUMPDEST SWAP1 POP SWAP2 SWAP1 POP JUMP JUMPDEST PUSH0 DUP2 SWAP1 POP SWAP2 SWAP1 POP JUMP JUMPDEST PUSH2 0x69C DUP4 PUSH2 0x669 JUMP JUMPDEST PUSH2 0x6B0 PUSH2 0x6A8 DUP3 PUSH2 0x68A JUMP JUMPDEST DUP5 DUP5 SLOAD PUSH2 0x60F JUMP JUMPDEST DUP3 SSTORE POP POP POP POP JUMP JUMPDEST PUSH0 SWAP1 JUMP JUMPDEST PUSH2 0x6C4 PUSH2 0x6B8 JUMP JUMPDEST PUSH2 0x6CF DUP2 DUP5 DUP5 PUSH2 0x693 JUMP JUMPDEST POP POP POP JUMP JUMPDEST JUMPDEST DUP2 DUP2 LT ISZERO PUSH2 0x6F2 JUMPI PUSH2 0x6E7 PUSH0 DUP3 PUSH2 0x6BC JUMP JUMPDEST PUSH1 0x1 DUP2 ADD SWAP1 POP PUSH2 0x6D5 JUMP JUMPDEST POP POP JUMP JUMPDEST PUSH1 0x1F DUP3 GT ISZERO PUSH2 0x737 JUMPI PUSH2 0x708 DUP2 PUSH2 0x5E2 JUMP JUMPDEST PUSH2 0x711 DUP5 PUSH2 0x5F4 JUMP JUMPDEST DUP2 ADD PUSH1 0x20 DUP6 LT ISZERO PUSH2 0x720 JUMPI DUP2 SWAP1 POP JUMPDEST PUSH2 0x734 PUSH2 0x72C DUP6 PUSH2 0x5F4 JUMP JUMPDEST DUP4 ADD DUP3 PUSH2 0x6D4 JUMP JUMPDEST POP POP JUMPDEST POP POP POP JUMP JUMPDEST PUSH0 DUP3 DUP3 SHR SWAP1 POP SWAP3 SWAP2 POP POP JUMP JUMPDEST PUSH0 PUSH2 0x757 PUSH0 NOT DUP5 PUSH1 0x8 MUL PUSH2 0x73C JUMP JUMPDEST NOT DUP1 DUP4 AND SWAP2 POP POP SWAP3 SWAP2 POP POP JUMP JUMPDEST PUSH0 PUSH2 0x76F DUP4 DUP4 PUSH2 0x748 JUMP JUMPDEST SWAP2 POP DUP3 PUSH1 0x2 MUL DUP3 OR SWAP1 POP SWAP3 SWAP2 POP POP JUMP JUMPDEST PUSH2 0x788 DUP3 PUSH2 0x334 JUMP JUMPDEST PUSH8 0xFFFFFFFFFFFFFFFF DUP2 GT ISZERO PUSH2 0x7A1 JUMPI PUSH2 0x7A0 PUSH2 0x3DA JUMP JUMPDEST JUMPDEST PUSH2 0x7AB DUP3 SLOAD PUSH2 0x5B2 JUMP JUMPDEST PUSH2 0x7B6 DUP3 DUP3 DUP6 PUSH2 0x6F6 JUMP JUMPDEST PUSH0 PUSH1 0x20 SWAP1 POP PUSH1 0x1F DUP4 GT PUSH1 0x1 DUP2 EQ PUSH2 0x7E7 JUMPI PUSH0 DUP5 ISZERO PUSH2 0x7D5 JUMPI DUP3 DUP8 ADD MLOAD SWAP1 POP JUMPDEST PUSH2 0x7DF DUP6 DUP3 PUSH2 0x764 JUMP JUMPDEST DUP7 SSTORE POP PUSH2 0x846 JUMP JUMPDEST PUSH1 0x1F NOT DUP5 AND PUSH2 0x7F5 DUP7 PUSH2 0x5E2 JUMP JUMPDEST PUSH0 JUMPDEST DUP3 DUP2 LT ISZERO PUSH2 0x81C JUMPI DUP5 DUP10 ADD MLOAD DUP3 SSTORE PUSH1 0x1 DUP3 ADD SWAP2 POP PUSH1 0x20 DUP6 ADD SWAP5 POP PUSH1 0x20 DUP2 ADD SWAP1 POP PUSH2 0x7F7 JUMP JUMPDEST DUP7 DUP4 LT ISZERO PUSH2 0x839 JUMPI DUP5 DUP10 ADD MLOAD PUSH2 0x835 PUSH1 0x1F DUP10 AND DUP3 PUSH2 0x748 JUMP JUMPDEST DUP4 SSTORE POP JUMPDEST PUSH1 0x1 PUSH1 0x2 DUP9 MUL ADD DUP9 SSTORE POP POP POP JUMPDEST POP POP POP POP POP POP JUMP INVALID LOG2 PUSH5 0x6970667358 0x22 SLT KECCAK256 0x2F PUSH14 0x2B5CAFAFDFD56E0D3EE81BAEF16D XOR DUP1 0xD5 0xBE PUSH27 0x15E2834C4CC65D870E114D64736F6C634300081A00330000000000 "
				},
				"gasEstimates": {
					"creation": {
						"codeDepositCost": "436000",
						"executionCost": "472",
						"totalCost": "436472"
					},
					"external": {
						"createPeople(uint256,string)": "infinite",
						"p1(uint256)": "infinite",
						"pull(uint256)": "infinite"
					}
				},
				"methodIdentifiers": {
					"createPeople(uint256,string)": "640670dd",
					"p1(uint256)": "e28756b4",
					"pull(uint256)": "4d0392a8"
				}
			},
			"storageLayout": {
				"storage": [
					{
						"astId": 10,
						"contract": "contracts/People.sol:People",
						"label": "p1",
						"offset": 0,
						"slot": "0",
						"type": "t_array(t_struct(Person)6_storage)dyn_storage"
					}
				],
				"types": {
					"t_array(t_struct(Person)6_storage)dyn_storage": {
						"base": "t_struct(Person)6_storage",
						"encoding": "dynamic_array",
						"label": "struct Person[]",
						"numberOfBytes": "32"
					},
					"t_string_storage": {
						"encoding": "bytes",
						"label": "string",
						"numberOfBytes": "32"
					},
					"t_struct(Person)6_storage": {
						"encoding": "inplace",
						"label": "struct Person",
						"members": [
							{
								"astId": 3,
								"contract": "contracts/People.sol:People",
								"label": "age",
								"offset": 0,
								"slot": "0",
								"type": "t_uint256"
							},
							{
								"astId": 5,
								"contract": "contracts/People.sol:People",
								"label": "name",
								"offset": 0,
								"slot": "1",
								"type": "t_string_storage"
							}
						],
						"numberOfBytes": "64"
					},
					"t_uint256": {
						"encoding": "inplace",
						"label": "uint256",
						"numberOfBytes": "32"
					}
				}
			},
			"userdoc": {
				"kind": "user",
				"methods": {},
				"version": 1
			}
		}
	}
}